:100000000C9471030C9499030C9499030C94990328
:100010000C9499030C9499030C9499030C949903F0
:100020000C9499030C9499030C9467090C94D609C9
:100030000C9499030C9499030C9499030C949903D0
:100040000C9499030C9499030C9499030C949903C0
:100050000C9499030C9499030C9499030C94080C38
:100060000C9499030C9499030C9499030C949903A0
:100070000C9499030C9499030C9499030C94990390
:100080000C9499030C9499030C9499030C94990380
:100090000C9499030C9499030C9499030C94990370
:1000A0000C9499030C9499030C949903000000009C
:1000B000003E5B4F5B3E3E6B4F6B3E1C3E7C3E1CEE
:1000C000183C7E3C181C577D571C1C5E7F5E1C0034
:1000D000183C1800FFE7C3E7FF0018241800FFE7EB
:1000E000DBE7FF30483A060E2629792926407F05AE
:1000F0000507407F05253F5A3CE73C5A7F3E1C1CC4
:1001000008081C1C3E7F14227F22145F5F005F5F83
:1001100006097F017F006689956A6060606060946F
:10012000A2FFA29408047E040810207E2010080874
:100130002A1C08081C2A08081E101010100C1E0C7F
:100140001E0C30383E3830060E3E0E060000000011
:100150000000005F00000007000700147F147F14F8
:10016000242A7F2A1223130864623649562050003D
:1001700008070300001C2241000041221C002A1C29
:100180007F1C2A08083E0808008070300008080814
:100190000808000060600020100804023E51494534
:1001A0003E00427F400072494949462141494D3352
:1001B0001814127F1027454545393C4A49493141B9
:1001C000211109073649494936464949291E000087
:1001D00014000000403400000008142241141414DC
:1001E0001414004122140802015909063E415D59C8
:1001F0004E7C1211127C7F494949363E41414122D1
:100200007F4141413E7F494949417F090909013EFA
:10021000414151737F0808087F00417F4100204021
:10022000413F017F081422417F404040407F021C33
:10023000027F7F0408107F3E4141413E7F0909094A
:10024000063E4151215E7F09192946264949493216
:1002500003017F01033F4040403F1F2040201F3FDC
:100260004038403F63140814630304780403615961
:10027000494D43007F4141410204081020004141A3
:10028000417F04020102044040404040000307084F
:100290000020545478407F2844443838444444284B
:1002A000384444287F385454541800087E090218F2
:1002B000A4A49C787F0804047800447D400020407A
:1002C000403D007F1028440000417F40007C0478BE
:1002D00004787C080404783844444438FC18242406
:1002E0001818242418FC7C08040408485454542486
:1002F00004043F44243C4040207C1C2040201C3C03
:100300004030403C44281028444C9090907C4464F9
:10031000544C44000836410000007700000041368C
:10032000080002010204023C2623263C1EA1A16112
:10033000123A4040207A3854545559215555794144
:100340002154547841215554784020545579400C1B
:100350001E527212395555555939545454593955FC
:100360005454580000457C410002457D420001453F
:100370007C40F0292429F0F0282528F07C545545AC
:10038000002054547C547C0A097F4932494949323F
:100390003248484832324A4848303A4141217A3A54
:1003A00042402078009DA0A07D39444444393D401E
:1003B00040403D3C24FF2424487E4943662B2FFCCB
:1003C0002F2BFF0929F620C0887E09032054547979
:1003D000410000447D413048484A32384040227A4A
:1003E000007A0A0A727D0D19317D2629292F2826C7
:1003F0002929292630484D402038080808080808CF
:100400000808382F10C8ACBA2F102834FA00007B27
:10041000000008142A142222142A1408950022002D
:1004200095AA005500AAAA55AA55AA000000FF00E7
:10043000101010FF00141414FF001010FF00FF1024
:1004400010F010F0141414FC001414F700FF000056
:10045000FF00FF1414F404FC141417101F10101FD5
:10046000101F1414141F00101010F0000000001FC3
:10047000101010101F10101010F010000000FF10CE
:100480001010101010101010FF10000000FF1400CA
:1004900000FF00FF00001F10170000FC04F41414FC
:1004A0001710171414F404F40000FF00F7141414C8
:1004B00014141414F700F7141414171410101F1048
:1004C0001F141414F4141010F010F000001F101F6B
:1004D0000000001F14000000FC140000F010F010D9
:1004E00010FF10FF141414FF141010101F00000050
:1004F00000F010FFFFFFFFFFF0F0F0F0F0FFFFFF54
:100500000000000000FFFF0F0F0F0F0F38444438AA
:10051000447C2A2A3E147E02020606027E027E02E5
:1005200063554941633844443C04407E201E200604
:10053000027E020299A5E7A5991C2A492A1C4C7241
:1005400001724C304A4D4D303048784830BC625AC8
:10055000463D3E494949007E0101017E2A2A2A2A58
:100560002A44445F444440514A444040444A514034
:100570000000FF0103E080FF000008086B6B0836F5
:1005800012362436060F090F060000181800000066
:100590001010003040FF0101001F01011E00191D55
:1005A0001712003C3C3C3C0000000000F0F89C8E20
:1005B0008783878E9CF8F00000FEFF03030303038C
:1005C000070EFCF80000FEFF0303030303070EFC05
:1005D000F80000FFFF00000000000000FFFF000027
:1005E000FEFF8383838383C7EE7C380000F8FC0E14
:1005F00007030303070EFCF800003F7FE0C0808084
:10060000C0E07F3FFFFF01010101010101FFFF0089
:1006100000FFFF0C0C0C0C1C3E77E3C100007FFFB9
:10062000C0C0C0C0C0E0703F1F00001F3F70E0C0EE
:10063000C0C0E0703F1F00007FFFC1C1C1C1C1E366
:10064000773E1C00001F3F70E0C0C0C0E0703F1F3D
:10065000000000000001FFFF01000000D5F08D1434
:10066000A1C881CFD9F1AF2000080B00020202001F
:100670000009040000010202000005240010010529
:100680002401010104240206052406000107058156
:100690000310004009040100020A000000070502DF
:1006A0000240000007058302400000040309041211
:1006B000010002EF020140412336800001010203E4
:1006C0000141726475696E6F204C4C430041726445
:1006D00075696E6F204C656F6E6172646F004C0DB2
:1006E000B81211241FBECFEFDAE0DEBFCDBF11E09C
:1006F000A0E0B1E0E6E0FBE202C005900D92A43775
:10070000B107D9F726E0A4E7B1E001C01D92AA39EC
:10071000B207E1F713E0C0E7D3E004C02197FE0180
:100720000E947913CF36D107C9F70E944B0E0C9463
:1007300076150C940000480F592F511D14161506FC
:1007400084F5803891056CF597FF02C090E080E059
:100750004138510514F040E850E0481BFB01E770B8
:10076000FF2721E001C0220FEA95EAF777FF02C0D8
:10077000695F7F4FFB0133E0F595E7953A95E1F727
:10078000F695FE2FEE27F795E795E80FF91FEF5541
:10079000FE4F415030F08191DF011197822B8C93F5
:1007A000F8CF08952F923F924F925F926F927F926F
:1007B0008F929F92AF92BF92CF92DF92EF92FF9271
:1007C0000F931F93CF93DF93CDB7DEB72E970FB65E
:1007D000F894DEBF0FBECDBF7E876D875A016901D9
:1007E000261737070CF00AC1E616F7060CF41FC1EE
:1007F0003D852E85DE86CD86C32ED22E382F292F1D
:10080000C501A32EB22E2D853E852E153F05D1F5AF
:10081000A816B90654F0382F292F8A159B0514F411
:100820003A2D2B2D5C01832F922F0A151B052CF0DE
:10083000801791070CF4C80185012D853E85203471
:10084000310508F003C18F5F482F401BB901C80173
:100850002E960FB6F894DEBF0FBECDBFDF91CF91BD
:100860001F910F91FF90EF90DF90CF90BF90AF90CE
:100870009F908F907F906F905F904F903F902F90C0
:100880000C949B03302F212F8C01832F922F3E2D10
:100890002F2DED84FE843D872E879501201B310B83
:1008A00038872F8396012E193F093A8729873C0103
:1008B000601A710A2D853E852E193F093A832983D6
:1008C0009C012A193B093C832B838D859E858C19BD
:1008D0009D099C878B872D853E852C153D0509F448
:1008E00042C0C60101979E838D834701512C412C44
:1008F000312C212C8D819E8188159905CCF1C10167
:1009000069857A850E9451139B01200F311FC20116
:1009100069817A810E945113600F711F8F819885C0
:10092000280E391E460C571C621773071CF4922FB1
:100930009B01692F90E48916910438F46F5F462F6C
:10094000421BB401C9010E949B032FEF821A920A35
:10095000D1CF3A2D2B2D5C01832F922F3D852E85F3
:10096000DE86CD8670C02D853E853E832D83BDCF2E
:10097000C4018C199D092B813C81829F6001839F5A
:10098000D00C929FD00C1124C4018E199F09869D12
:100990007001879DF00C969DF00C11248D859E852D
:1009A000881599050CF452C0C6016B857C850E94A0
:1009B00051139B012A0D3B1DC70169817A810E9459
:1009C0005113600F711F8B819C81C80ED91EE60CDC
:1009D000F71C621773071CF4922F9B01692F90E498
:1009E0008916910438F46F5F462F421BB401C90188
:1009F0000E949B032FEF821A920AD0CFE216F306D1
:100A00000CF001CF2D853E85E216F3060CF4A1CF44
:100A1000302F212F8A015C01832F922F3C2D2D2D09
:100A2000CD84DE84FE86ED86E32EF22EE1CEE21644
:100A3000F3060CF432CF302F212F8501A32EB22ED6
:100A40003E2D2F2D7601C32ED22E27CF2E960FB6F8
:100A5000F894DEBF0FBECDBFDF91CF911F910F91F4
:100A6000FF90EF90DF90CF90BF90AF909F908F90CE
:100A70007F906F905F904F903F902F900895E1EAA4
:100A8000F1E0A0E0B8E000800EBC8111012C1197CC
:100A9000A0FDFDCF0192B9F70DB40895FC0180913E
:100AA000A001882311F13FB7F89482E08093E90018
:100AB0002091F200822F90E01816190614F481E0BC
:100AC00090E0882339F0289844E640939F014091B4
:100AD000F1004083222339F02091F200211103C05C
:100AE0002BE62093E8003FBF08958FEF9FEF089516
:100AF0002FB7F89483E08093E9009091E800892F64
:100B0000807295FF04C09091F20080E4891B2FBF92
:100B100008958091970181110DC082E08093930127
:100B200084E080939401109296011092950181E0E7
:100B30008093970183E991E00895CF93DF931F920B
:100B4000CDB7DEB76983DC01ED91FC910280F381C2
:100B5000E02D41E050E0BE016F5F7F4F09950F909F
:100B6000DF91CF91089583E08093E9008091F200B6
:100B7000882319F08AE38093E80008950E9478059D
:100B800090E00895CF93DF931F92CDB7DEB7FC01BD
:100B90008485958597FD08C02FEF3FEF3587248723
:100BA0000F90DF91CF910895CE0101960E944E05DE
:100BB000019719F4898190E0F3CF8FEF9FEFF0CF89
:100BC0000F931F93CF93DF931F92CDB7DEB78C01A6
:100BD000FC018485958597FF0BC0CE0101960E948C
:100BE0004E05019771F4898190E0F801958784871B
:100BF000F801848595850F90DF91CF911F910F911A
:100C000008958FEF9FEFF1CFFC018485958597FDC7
:100C10000BC09FB7F89482E08093E9008091F200C6
:100C20009FBF90E0019608959FB7F89482E080936B
:100C3000E9008091F2009FBF90E0089540918D01FE
:100C400050918E0120918B0130918C0142175307F6
:100C5000B4F49091E8009570E1F39091E80092FD72
:100C600019C08093F10080918D0190918E010196C1
:100C70008F739927892B19F48EEF8093E800809168
:100C80008D0190918E01019690938E0180938D013C
:100C900081E0089580E00895DF92EF92FF920F9334
:100CA0001F93CF93DF93D82E8A01EB017B01E40ED3
:100CB000F51ECE15DF0559F0D7FE12C0FE01849156
:100CC0000E941E0621968111F4CF0FEF1FEFC8017D
:100CD000DF91CF911F910F91FF90EF90DF900895DA
:100CE0008881EECF0F931F93CF93DF931F92CDB7E1
:100CF000DEB782E0898342E450E069E676E080E88E
:100D00000E944C060E948905DC0112960D911C91EF
:100D10000115110589F0D801ED91FC910280F38154
:100D2000E02DBE016F5F7F4FC801099597FD04C09C
:100D3000F80100851185ECCF89810F90DF91CF916B
:100D40001F910F910895615030F02091F100FC0146
:100D500020830196F8CF289884E680939F01089518
:100D6000AF92BF92CF92DF92EF92FF920F931F93B9
:100D7000CF93DF936C017B018B01040F151FEB01F7
:100D80005E01AE18BF08C017D10759F06991D601AE
:100D9000ED91FC910190F081E02DC6010995892B20
:100DA00079F7C501DF91CF911F910F91FF90EF90DF
:100DB000DF90CF90BF90AF9008953FB7F8948091A7
:100DC000750190917601A0917701B091780126B5D7
:100DD000A89B05C02F3F19F00196A11DB11D3FBF73
:100DE000BA2FA92F982F8827BC01CD01620F711D42
:100DF000811D911D42E0660F771F881F991F4A953C
:100E0000D1F708958F929F92AF92BF92CF92DF92C7
:100E1000EF92FF926B017C010E94DD064B015C01A9
:100E2000C114D104E104F104B9F00E94DD0668198F
:100E300079098A099B09683E73408105910580F311
:100E400021E0C21AD108E108F10888EE880E83E09B
:100E5000981EA11CB11CE4CFFF90EF90DF90CF90C3
:100E6000BF90AF909F908F9008958F929F92AF9276
:100E7000BF92CF92DF92EF92FF920F931F93CF9387
:100E8000DF936C017B018A0180910B01882309F4B7
:100E90005CC08091A001882309F457C08091920121
:100EA00080FF05C08091E00082608093E000E8014F
:100EB000B12C8AEFA82E93E0892E2AE3922E209758
:100EC00011F4BB20D9F10E94780581110AC0AA94BF
:100ED000AA20D9F161E070E080E090E00E94020772
:100EE000EECF8C171D0611F00CF08C2F9FB7F894E5
:100EF0008092E9002091E80025FD02C09FBFDFCF6E
:100F0000282F30E0C21BD30BF701815020F0419114
:100F10004093F100FACFE20EF31EBB2021F0909235
:100F2000E800B12CEBCF8091E80085FDE7CF9092EF
:100F3000E800BB24B394209709F3F3CF5D9884E6CF
:100F400080939101101611063CF081E090E0F601CB
:100F50009383828310E000E0C801DF91CF911F915D
:100F60000F91FF90EF90DF90CF90BF90AF909F9048
:100F70008F9008952D9A0895BC0190E080E00C9424
:100F800002078FB18095807F669B88601C9B846080
:100F9000089520E191E061FD94E060FD990F62FD0C
:100FA0009295687F269FD0011124A80FAF55BE4FA0
:100FB0008C9140FF03C0892B8C93089590958923D1
:100FC000FBCF2F923F924F925F926F927F928F92C0
:100FD0009F92AF92BF92CF92DF92EF92FF920F93C8
:100FE0001F93CF93DF93CDB7DEB728970FB6F89452
:100FF000DEBF0FBECDBF9E838D836A3061F5DC01FD
:1010000055968C91B8E08B9F90011124ED81FE8163
:1010100081899289820F931F928B818B108A178608
:1010200081E090E028960FB6F894DEBF0FBECDBFEA
:10103000DF91CF911F910F91FF90EF90DF90CF90B4
:10104000BF90AF909F908F907F906F905F904F90E8
:101050003F902F9008956D3019F32D813E81388790
:101060002F83D9011F960D911C91509700381105BF
:101070000CF07CC05196AD90BC90B0E4AB16B104BE
:101080000CF074C0F901258825E0C801229E800D6E
:10109000911D1124181619060CF068C0622C712CD1
:1010A000C30133E0880F991F3A95E1F78A0D9B1D24
:1010B000181619060CF05AC0F489FB83AF81B88565
:1010C0005396BC91BC83629FB0011124FB01E4558F
:1010D000FF4F2F011982F2018491F981F53009F453
:1010E00080E0450128E02A83A82FB0E0BE83AD83CD
:1010F0003C8080FF3B80311004C0BB81EC81BE1777
:10110000F9F078018E2D801B8215D0F4D12CC12CE2
:10111000C21490F4F0E8EF16F10450F4B601680D33
:10112000791D6034710520F4432DC7010E94C90761
:101130002FEFC21AD20AECCF3FEFE31AF30AE2CF45
:101140008D819E81959587959A8191509A83860C81
:10115000971C9111C9CFA981AF5FA983BFEF4B1A2B
:101160005B0A060D171DA63009F0B5CFEF81F88593
:101170002589422F50E087859089F6E02F9F800DCA
:10118000911D1124AF81B88550969C938E931F9723
:1011900056962C915697222309F442CF6AEF6403A6
:1011A0009001659F300D112420583F4F28173907B3
:1011B0000CF036CFED91FC9111970190F081E02D6C
:1011C0006AE0CD0109952CCF0895089590E080E064
:1011D00008958F929F92AF92BF920F931F93CF93D8
:1011E000DF93CDB7DEB7A1970FB6F894DEBF0FBE81
:1011F000CDBF19A2423008F44AE08E010F5D1F4FA7
:10120000842E912CB12CA12CA50194010E942F13A6
:10121000E62FB901CA01EA3044F5E05DD801EE934A
:101220008D01232B242B252B79F790E080E010975C
:1012300069F0FD0101900020E9F73197AF014A1BE9
:101240005B0BBD0189EF95E00E94B006A1960FB639
:10125000F894DEBF0FBECDBFDF91CF911F910F91EC
:10126000BF90AF909F908F900895E95CD7CFCF92B9
:10127000DF92EF92FF92CF93DF9397FF1BC06B013A
:101280007C016DE289EF95E00E94E107EC016627A1
:101290007727CB016C197D098E099F094AE00E94CE
:1012A000E9088C0F9D1FDF91CF91FF90EF90DF90A9
:1012B000CF9008954AE0DF91CF91FF90EF90DF90BB
:1012C000CF900C94E9080C94E2120E9461151F92D1
:1012D0000F920FB60F9211248F939F938091E1008C
:1012E0009091E100937F9093E10083FF0FC01092F3
:1012F000E90091E09093EB001092EC0092E3909360
:10130000ED001092A00198E09093F00082FF22C0BF
:1013100093E09093E9009091F200992319F09AE3F9
:101320009093E80090919101992341F0909191015F
:10133000915090939101911101C05D9A90919F01FC
:10134000992341F090919F01915090939F019111A9
:1013500001C0289A84FF18C08091E2008E7E8160CF
:101360008093E2008091E1008F7E8093E100809184
:1013700092018E7E8061809392019F918F910F9058
:101380000FBE0F901F90189580FFF7CF8091E2005D
:101390008E7E80618093E2008091E1008E7E80935A
:1013A000E100809192018E7E8160E5CF1F920F92C5
:1013B0000FB60F921124CF92DF92EF92FF920F930C
:1013C0001F932F933F934F935F936F937F938F93CD
:1013D0009F93AF93BF93EF93FF93CF93DF93CDB7DB
:1013E000DEB76C97DEBFCDBF1092E9008091E800B8
:1013F00083FF25C068E0CE0145960E94A30682EFD8
:101400008093E8008D8987FF39C09091E80090FFB4
:10141000FCCF982F907609F034C19E894F89588D62
:101420002F89F88C911131C0803861F5809190013D
:101430008093F1001092F1008EEF8093E8006C969B
:101440000FB6F894DEBF0FBECDBFDF91CF91FF91F5
:10145000EF91BF91AF919F918F917F916F915F912C
:101460004F913F912F911F910F91FF90EF90DF903F
:10147000CF900F900FBE0F901F9018959EEF9093F6
:10148000E800C7CF1092F100D5CF913059F4811107
:10149000D3CF4130510581F6809190018D7F8093AB
:1014A0009001CACF933049F48111C6CF4130510524
:1014B00019F6809190018260F2CF953041F48091CD
:1014C000E80080FFFCCF20682093E300B5CF963082
:1014D00009F0A9C00B8D1C8D22E01092E90010923A
:1014E0008E0110928D01F2122EC010928C0110927A
:1014F0008B010E9472061F8299E09983FA8291E023
:101500009E8390EA98879AEF998720918D01309178
:101510008E01275F3F4F3C832B838D831092E90020
:1015200010928E0110928D0110938C0100938B010B
:1015300049E050E0BE016F5F7F4F80E00E944C06A3
:101540000E94720679CF10938C0100938B010E9448
:101550008905DC0112960D911C910115110509F404
:1015600051C1D801ED91FC910480F581E02DBE01BF
:101570006B5E7F4FC8010995009709F03EC1F801E5
:1015800000851185EACFF3E0FF120EC08F89882312
:1015900009F440C0823061F440E860E18DEC96E0EF
:1015A0000E94520C811148CF81E28093EB0047CF1B
:1015B000813029F440E86BE081EC96E0F1CF833094
:1015C00099F70E948905DC011296ED90FC908E013E
:1015D0000F5F1F4F6801E114F10479F0D701ED911D
:1015E000FC910680F781E02DB801C7010995080F2D
:1015F000111DF701E084F184EECFD8011C92F601B1
:1016000001900020E9F73197BF016C197D0940E096
:10161000C601C6CF6BEA76E0FB01449150E080E85A
:101620000E944C0609CF973009F4BECF983021F4C0
:1016300081E08093F10000CF993009F0FDCE8370F6
:1016400009F0B2CFE3E1F1E081E031E096E32191EE
:10165000222371F08093E9003093EB00DF011197B2
:101660002C912093EC009093ED008F5F873079F7F9
:101670008EE78093EA001092EA008F898093A001A0
:10168000DBCE8B8D9C8D1092E90010928E01109212
:101690008D0190938C0180938B01898D811192C073
:1016A0008E899D89913A49F4813209F07DCF47E0D6
:1016B00050E064E071E080E0B3CF913209F074CF84
:1016C000833269F48F89988DB0E0A0E080930001A7
:1016D00090930101A0930201B0930301ADCE80323B
:1016E00069F48091E80082FFFCCF67E084E091E03C
:1016F0000E94A3068BEF8093E8009ECE823209F011
:101700009BCE8F8980930B01EEEFFFE7859194913B
:101710008B3F9C4D51F1E0E0F8E080910401909105
:101720000501A0910601B0910701803B9440A105FD
:10173000B105F1F480910B0180FD1AC0EE3F8AE003
:10174000F80789F587E797E79183808380916000A8
:1017500080938F0188E19BE00FB6F894A895809361
:1017600060000FBE9093600067CEEEEFFAE0D5CF39
:10177000808191818737974709F05ECEA895809147
:10178000600088618093600080918F018093600089
:10179000EE3F2AE0F20789F08091FE0A9091FF0A5D
:1017A0009183808349CE808191818737980751F258
:1017B0009093FF0A8093FE0AC5CF1092FF0A109201
:1017C000FE0A3ACE0E948905DC0112960D911C9109
:1017D0000115110509F4E8CED801ED91FC910190B5
:1017E000F081E02DBE016B5E7F4FC801099581112C
:1017F00023CEF80100851185EBCF181619060CF4DD
:101800001BCED2CEF1E0FF12BECE6FEA76E004CF5F
:101810001F920F920FB60F9211242F933F938F9325
:101820009F93AF93BF938091790190917A01A0919A
:101830007B01B0917C013091740123E0230F2D379F
:1018400058F50196A11DB11D209374018093790173
:1018500090937A01A0937B01B0937C0180917501F4
:1018600090917601A0917701B09178010196A11D28
:10187000B11D8093750190937601A0937701B09389
:101880007801BF91AF919F918F913F912F910F90D0
:101890000FBE0F901F90189526E8230F0296A11DEA
:1018A000B11DD2CFEF92FF920F931F93CF93DF938F
:1018B000F82E192FE62E042F81E0860F880F0E9444
:1018C0001E0683E00E941E06CF2DD12FEC0EFD2EAA
:1018D000F11CCE15DF05B9F007FF13C0FE0184919E
:1018E0000E941E06182F80E00E941E06812321966A
:1018F0008111EFCFDF91CF911F910F91FF90EF906A
:1019000008958881EDCF81E0F5CFFC01138212822A
:101910001186128680E183871086178215868FE2F2
:1019200091E0918380838DE391E095838483108A95
:101930001786128A118A81E0838B148A858B168A16
:101940000895CF93DF93EC0189EF95E00E94850C19
:10195000E9EFF5E0108E178A8A819B819383828359
:101960008F81988590878783898581878A858287FB
:101970008B8583878C8584878D8585878E858687F3
:101980008F859889908B878789899A89928B818B9B
:101990008B89838B8C89848B8D89858B8E89868BB3
:1019A000DF91CF910895CF93DF93EC0184E196E02E
:1019B0000E94850CE4E1F6E08A819B819383828317
:1019C0008F81988590878783898581878A8582879B
:1019D0008B8583878C8584878D8585878E85868793
:1019E0008F859889908B878789899A89928B818B3B
:1019F0008B89838B8C89848B8D89858B8E89868B53
:101A0000DF91CF910895EF92FF920F931F93CF93A1
:101A1000DF93EC017B01198218821B821A821D82DE
:101A20001C82FB0101900020E9F731978F01061B12
:101A3000170BB8016F5F7F4F90E080E00E94A41405
:101A40000097B9F0998388831B830A832C813D8199
:101A5000232B11F4FC0110821D830C83B7018881B4
:101A60009981DF91CF911F910F91FF90EF900C948E
:101A70006F1588819981009711F00E941B141982BB
:101A800018821D821C821B821A82DF91CF911F91C6
:101A90000F91FF90EF900895CF92DF92EF92FF9217
:101AA0000F931F93CF93DF93CDB7DEB767970FB632
:101AB000F894DEBF0FBECDBFE1EAF5E013821282DB
:101AC00088EE93E0A0E0B0E084839583A683B7839B
:101AD0008DE191E0918380838FEF9FEF95878487DD
:101AE0006FE371E084E896E00E94030D64E471E026
:101AF0008AE896E00E94030D69E471E080E996E0CF
:101B00000E94030D6DE471E08AE596E00E94030DEA
:101B100063E571E080E696E00E94030D6AE571E0FE
:101B200086E696E00E94030D60E671E08CE696E0A2
:101B30000E94030D64E671E082E796E00E94030DC7
:101B40006AE671E088E796E00E94030D6FE671E0B7
:101B50008EE796E00E94030D1092F8051092F705AB
:101B60001092F6051092F5051092F4051092F30507
:101B70001092F2051092F10563E571E082E496E0BF
:101B80000E94030D6AE571E088E496E00E94030D6F
:101B900060E671E08EE496E00E94030D64E671E079
:101BA00084E596E00E94030D8BE296E00E94850C8E
:101BB0000BE216E0F801828193819C838B838781FD
:101BC00090859987888781858A8782858B87838599
:101BD0008C8784858D8785858E8786858F878FE224
:101BE000C82E81E0D82EDA82C9829DE3E92E91E0E9
:101BF000F92EFE82ED8287859089998B888B818969
:101C000092899B8B8A8B83898C8B84898D8B858928
:101C10008E8B86898F8BCE0101960E94D30CF801A2
:101C2000828193819C838B83878190859987888724
:101C300081858A8782858B8783858C8784858D873C
:101C400085858E8786858F87DA82C982FE82ED82BE
:101C500087859089998B888B818992899B8B8A8BC8
:101C600083898C8B84898D8B85898E8B86898F8BDC
:101C7000CE0101960E94A10C67960FB6F894DEBFC4
:101C80000FBECDBFDF91CF911F910F91FF90EF90CD
:101C9000DF90CF900895789484B5826084BD84B538
:101CA000816084BD85B5826085BD85B5816085BD57
:101CB00080916E00816080936E001092810080910F
:101CC0008100826080938100809181008160809397
:101CD00081008091800081608093800080919100DC
:101CE0008260809391008091910081608093910047
:101CF000809190008160809390008091C100846009
:101D00008093C1008091C10082608093C100809166
:101D1000C10081608093C1008091C3008160809385
:101D2000C3008091C00082608093C0008091C20097
:101D300081608093C20080917A00846080937A00F1
:101D400080917A00826080937A0080917A0081602D
:101D500080937A0080917A00806880937A00109254
:101D6000A00110929001109292018091D7008160A1
:101D70008093D70080EA8093D80089B5806189BDBF
:101D800089B5826089BD09B400FEFDCF61E070E0D5
:101D900080E090E00E9402078091D8008F7C8061F3
:101DA0008093D8008091E000807F8093E000809154
:101DB000E1008E7E8093E1008DE08093E200559AF1
:101DC000209A81EC80937C0085B1806F85B984B1C5
:101DD000877E84B984B1876E84B95E9A5F988AB130
:101DE000806D8AB9769A6E9881B3806F81BB89982D
:101DF00080B38D7080BB80E58CBD81E08DBD85E0BA
:101E000090E00E94BC075F9A85E090E00E94BC07CA
:101E10005E985C98ECE5F6E084918EBD00000DB410
:101E200007FEFDCF319606E0E936F007A9F75C9A88
:101E300081E88093640080916500816080936500F3
:101E400080E00E943F050E94C10787FF15C05C9893
:101E500085EA8EBD00000DB407FEFDCF5C9A2E987A
:101E60002F982D988091640080628093640081E0B7
:101E700083BF889513BEFCCF0E94C10782FF48C074
:101E80002D980E94C10784788438E1F40E94BA0733
:101E900088EC90E00E94BC072F9882E090E00E94BE
:101EA000E2128F3F29F06FEF82E090E00E94EA1289
:101EB00084EF91E00E94BC072F9A0E94C1078478AA
:101EC0008438D9F30E94C10784718431E1F40E94FF
:101ED000BA0788EC90E00E94BC072E9882E090E060
:101EE0000E94E212882329F060E082E090E00E94E4
:101EF000EA1284EF91E00E94BC072E9A0E94C1076B
:101F000084718431D9F388EC90E00E94BC07B4CF8F
:101F10000E94BA0782E090E00E946309882309F4D6
:101F200058C03E9A3F9A81E090E00E946309182FC2
:101F30001470912E81FF0EC011112E98C0EFDFEFAB
:101F400008E010E00E94C10786FF46C02E9A2F9A33
:101F50000E94BA0782E390E00E94BC070E94C1077A
:101F60008111F8CF82E4809336064EE1242E312C85
:101F700058E2C52ED12C6CE2A62EB12C55245394D8
:101F800096E0492EC2E0D0E088248394912C30E082
:101F9000632E30E0732E2FB7F894809179019091E1
:101FA0007A01A0917B01B0917C012FBF209137066F
:101FB000382F321B20913806222309F4A0C0309319
:101FC0003906109238066114710429F30E9400004A
:101FD000D5CF3E983F98A7CF992029F0C430D1059E
:101FE00011F42E9A2F9881E00E943F059E01D7FFA1
:101FF00004C0222733272C1B3D0B27703327CE012B
:10200000D7FD0796E3E095958795EA95E1F7D7FF29
:1020100005C00197A801421B530B9A01AC015695CC
:10202000542F4427579547954F555E4FB0E0A0E099
:102030003801621A730A8F3F6FEF96070CF43BC0AA
:102040006A01E4E9CE0ED11C7A0170E060E0FD0186
:10205000E455FA4F5F018F3F980779F0F501E60FDD
:10206000F71FE491F0E02F01022E01C0440C0A9406
:10207000EAF7F70184884828448A2115310581F060
:10208000F501E60FF71FE491F0E02F01062C02C0E6
:10209000559447940A94E2F7F601808048284082DC
:1020A0006F5F7F4FFFEFCF1ADF0AEFEFEE1AFE0AE6
:1020B0006835710581F60196A85ABF4F40585F4FA9
:1020C000A03BB10509F0B7CF80E00E943F058FE04B
:1020D00090E00E94BC072196C931D10509F032CFAA
:1020E000992011F02F9A2D9880E991E00E94BC0769
:1020F0000E94BA078BE296E00E946B122BCF4091B0
:102100003606341740F43F5F341708F05CCF53BEF7
:10211000889513BE58CF5092380680933706809129
:1021200032069091330601969093330680933206DF
:10213000E1EAF1E021112FEF002421932193219373
:1021400021930394D1F710923D0610923C06109211
:102150003B0610923A0680913406809335060E9421
:10216000C107809334069091350695FD10C085FF18
:102170000EC02091890130918A01121613060CF0CD
:102180006BC12150310930938A012093890196FD5A
:1021900010C086FF0EC02091890130918A01223043
:1021A00031050CF05EC12F5F3F4F30938A012093C1
:1021B000890193FD0DC083FF0BC08091890190912F
:1021C0008A01009709F052C11092F8051092F705A4
:1021D0002FB7F8948091790190917A01A0917B01B9
:1021E000B0917C012FBF4091850150918601609193
:1021F0008701709188018C019D01041B150B260B32
:10220000370BB901A801483E534061057105A8F09C
:102210002091F7053091F8052A30310534F42F5F0D
:102220003F4F3093F8052093F705809385019093F5
:102230008601A0938701B09388014091810150915C
:10224000820160918301709184018C019D01041BC6
:10225000150B260B370BB901A801403D574061050E
:102260007105A8F02091F5053091F6052A30310569
:1022700034F42F5F3F4F3093F6052093F50580939C
:10228000810190938201A0938301B09384014091D6
:102290007D0150917E0160917F01709180018C01E0
:1022A0009D01041B150B260B370BB901A801483BF8
:1022B0005B4061057105A8F02091F3053091F405AC
:1022C0002A30310534F42F5F3F4F3093F4052093CB
:1022D000F30580937D0190937E01A0937F01B093DD
:1022E00080016091F5057091F6058091F705909158
:1022F000F80506970CF4CAC0909211068092100659
:10230000109209061092080610920B0610920A0607
:10231000072E000C880B990B0E94370910920906B2
:10232000109208062AE030E030930B0620930A064C
:102330006091F7057091F805072E000C880B990B3A
:102340000E943709109209061092080644E150E0F5
:1023500050930B0640930A066091F3057091F405C3
:10236000072E000C880B990B0E9437091092090662
:102370001092080630920B0620920A066091F10531
:102380007091F205072E000C880B990B0E943709FB
:102390001092090610920806D0920B06C0920A0607
:1023A0008091100690911106489EF001499EF00D13
:1023B0001124E65AF94F448155816081718189EF7A
:1023C00095E00E94B00610E000E041E064E370E0B8
:1023D000C8010E94C9070F5F1F4F00381105A9F7F8
:1023E000B0922406A092230687E390E090932606FD
:1023F000809325068091890190918A01489EF00181
:10240000499EF00D1124EC57F94F448155816081AC
:10241000718184E196E00E94B0068DE3E82EF12CF4
:1024200003E010E027E330E043E050E06AE370E0CF
:1024300090E080E00E94D2030CE710E027E330E058
:102440004CE750E06AE370E08FE790E00E94D2032F
:1024500080E00E943F05B7CDD0938A01C0938901E7
:1024600096CE10928A0110928901A3CE81309105F7
:1024700029F41092F6051092F505AACE029709F0FC
:10248000A7CE1092F4051092F305A2CE8091F30529
:102490009091F40506973CF083E090E0909311064C
:1024A000809310062DCF663071052CF0D093110665
:1024B000C093100625CF8091F1059091F2050A97FF
:1024C00009F41ECF1092F2051092F1051092110638
:1024D0001092100615CF0F931F93CF93DF938C01AB
:1024E00081E090E00E94630980FF32C08AE090E0C2
:1024F0000E9463099FEF980F9E3F50F522E330E062
:10250000D80150963C932E931F9728E330E05296C3
:102510003C932E935197CBE0D0E0D801ED91FC9104
:102520000190F081E02D682FC8010995CE010E942D
:1025300063092196C131D10581F780E00E943F05F2
:1025400088EE93E0DF91CF911F910F910C94BC071F
:10255000DF91CF911F910F91089504970C946B1206
:10256000FC0180819181009711F00C941B14089557
:10257000CF93DF9384E596E00E94B0128EE496E05C
:102580000E94B01288E496E00E94B01282E496E0C5
:102590000E94B012C4E8D6E02697CE010E94B01285
:1025A00086E0CA35D807C1F780E996E00E94B012EC
:1025B0008AE896E00E94B01284E896E0DF91CF911D
:1025C0000C94B012F999FECF92BD81BDF89A99276B
:1025D00080B50895262FF999FECF1FBA92BD81BD0F
:1025E00020BD0FB6F894FA9AF99A0FBE0196089595
:1025F0002F923F924F925F926F927F928F929F9213
:10260000AF92BF92CF92DF92EF92FF920F931F9300
:10261000CF93DF93CDB7DEB7CA1BDB0B0FB6F894B1
:10262000DEBF0FBECDBF09942A88398848885F84F1
:102630006E847D848C849B84AA84B984C884DF8062
:10264000EE80FD800C811B81AA81B981CE0FD11D46
:102650000FB6F894DEBF0FBECDBFED010895A1E225
:102660001A2EAA1BBB1BFD010DC0AA1FBB1FEE1F0C
:10267000FF1FA217B307E407F50720F0A21BB30B57
:10268000E40BF50B661F771F881F991F1A9469F7D3
:1026900060957095809590959B01AC01BD01CF012F
:1026A000089597FB072E16F4009407D077FD09D004
:1026B0000E94651307FC05D03EF4909581959F4FCD
:1026C0000895709561957F4F0895AA1BBB1B51E13A
:1026D00007C0AA1FBB1FA617B70710F0A61BB70B92
:1026E000881F991F5A95A9F780959095BC01CD0137
:1026F0000895EE0FFF1F0590F491E02D09940F93BC
:102700001F93CF93DF938230910510F482E090E025
:10271000E0919806F091990630E020E0B0E0A0E06A
:10272000309799F42115310509F44AC0281B390B5B
:1027300024303105D8F58A819B816115710589F1B5
:10274000FB0193838283FE0111C04081518102818C
:10275000138148175907E0F04817590799F4109763
:1027600061F012960C93129713961C933296CF0138
:10277000DF91CF911F910F910895009398061093C8
:102780009906F4CF2115310551F04217530738F05F
:10279000A901DB019A01BD01DF01F801C1CFEF0101
:1027A000F9CF9093990680939806CDCFFE01E20F62
:1027B000F31F819391932250310939832883D7CF16
:1027C0002091960630919706232B41F420910E011B
:1027D00030910F01309397062093960620910C01BB
:1027E00030910D012115310541F42DB73EB74091CF
:1027F000100150911101241B350BE0919606F091C8
:102800009706E217F307A0F42E1B3F0B2817390792
:1028100078F0AC014E5F5F4F2417350748F04E0F3C
:102820005F1F5093970640939606819391939FCF95
:10283000F0E0E0E09CCFCF93DF930097E9F0FC015C
:10284000329713821282A0919806B0919906ED01F9
:1028500030E020E01097A1F420813181820F931F96
:1028600020919606309197062817390709F061C024
:10287000F0939706E0939606DF91CF910895EA01D1
:10288000CE17DF07E8F54A815B819E0141155105AE
:10289000B1F7E901FB83EA8349915991C40FD51F30
:1028A000EC17FD0761F4808191810296840F951FDA
:1028B000E90199838883828193819B838A83F0E0F5
:1028C000E0E012968D919C9113970097B9F52D91A8
:1028D0003C911197CD010296820F931F209196068D
:1028E000309197062817390739F6309751F510922D
:1028F000990610929806B0939706A0939606BCCFBF
:10290000D383C28340815181840F951FC817D90793
:1029100061F44E5F5F4F88819981480F591F518341
:1029200040838A819B81938382832115310509F03D
:10293000B0CFF0939906E09398069ECFFD01DC019D
:10294000C0CF13821282D7CFB0E0A0E0EAEAF4E170
:102950000C94FA128C01009751F4CB010E947F1362
:102960008C01C801CDB7DEB7E0E10C941613FC0171
:10297000E60FF71F9C0122503109E217F30708F414
:102980009DC0D901CD91DC911197C617D70798F05A
:10299000C530D10530F3CE0104978617970708F3A9
:1029A000C61BD70B2297C193D1936D937C93CF0114
:1029B0000E941B14D6CF5B01AC1ABD0A4C018C0ED1
:1029C0009D1EA0919806B0919906512C412CF12C96
:1029D000E12C109731F58091960690919706881515
:1029E000990509F05CC04616570608F058C080915A
:1029F0000C0190910D01009741F48DB79EB7409165
:102A0000100150911101841B950BE817F90708F08C
:102A100055C0F0939706E0939606F90171836083A1
:102A2000A0CF8D919C91119712966C90129713964E
:102A30007C901397A815B90559F56C0142E0C40EB6
:102A4000D11CCA14DB0420F1AC014A195B09DA017C
:102A50001296159780F06282738251834083D90168
:102A60006D937C93E114F10471F0D7011396FC93FC
:102A7000EE93129776CF22968C0F9D1FF9019183CA
:102A80008083F301EFCFF0939906E093980669CF26
:102A90004816590608F42C017D01D3019ACFCB01C9
:102AA0000E947F137C01009749F0AE01B8010E949B
:102AB0006615C8010E941B14870153CF10E000E087
:102AC00050CF81E090E0F8940C947615FB01DC0186
:102AD00002C001900D9241505040D8F70895FB017B
:102AE000DC0101900D920020E1F7089513E0C0E7AA
:102AF000D3E004C0FE010E9479132196C137D107AB
:062B0000C9F7F894FFCFB5
:102B0600FFFFFFFF00E100000000000000009A0642
:102B1600800000C18081000000000000009D053596
:102B260007BE05B3050406C205E00500000000E186
:102B360007B006E608E5086B12FCFF0000AD12467A
:102B460045454400504C41590050455400484150B9
:102B560050590048554E47525900424F524544007D
:102B6600534144005449524544005349434B0044A1
:042B76004541440091
:2070000055C000006EC000006CC000006AC0000068C0000066C0000064C0000062C0000043
:2070200060C000005EC00000F2C400005AC0000058C0000056C0000054C0000052C00000EE
:2070400050C0000078C000004CC000004AC0000048C0000046C0000044C0000042C00000BE
:2070600040C000003EC000003CC000003AC0000038C0000036C0000034C0000032C0000048
:2070800030C000002EC000002CC000002AC0000028C0000026C0000024C0000022C00000A8
:2070A00020C000001EC000001CC0000011241FBECFEFDAE0DEBFCDBF11E0A0E0B1E0E2E3BC
:2070C000FFE702C005900D92A83AB107D9F711E0A8EAB1E001C01D92AE3BB107E1F78FD30B
:2070E00026C78ECFF89410926F0010928100109285001092840081E085BF15BE47985D9AEB
:20710000289A0C94000008952091B2013091B3012F5F3F4F3093B3012093B201932F37FFA6
:2071200003C08EEF831B982F990F921710F447980895479A08951F920F920FB60F9211246E
:207140002F938F939F93EF93FF9310928500109284008091A8019091A901009741F00197D3
:207160009093A9018093A801892B09F45D9A8091AA019091AB01009741F001979093AB0126
:207180008093AA01892B09F4289AE0E0F0E0859194918F5F9F4F49F08091AC019091AD0151
:2071A00001969093AD018093AC01FF91EF919F918F912F910F900FBE0F901F90189584E0BC
:2071C0008093E9000DC08091E8008B778093E80003C08EB3882351F08091E80082FFF9CFBE
:2071E0008091E80085FFEFCF8091F1000895982F83E08093E9008091E80085FD0DC0809136
:20720000E8008E778093E80003C08EB3882369F08091E80080FFF9CF9093F1005D9884E6CB
:2072200090E09093A9018093A80108954F925F926F927F928F929F92AF92BF92CF92DF921E
:20724000EF92FF920F931F93CF93DF9384E08093E9008091E80082FF57C2289884E690E067
:207260009093AB018093AA01AADF182F853481F48CE49DE19093AD018093AC0107B600FC4B
:20728000FDCFF999FECF81E180935700E89503C0843519F494DF8DE00DC28C34E1F38035F9
:2072A000D1F3843721F484E4A2DF80E003C2813611F489E5FFC18134B1F481DF182F7FDFE3
:2072C00090E0880F991FAA2797FDA095BA2F312F330F20E0442737FD4095542F822B932B68
:2072E000A42BB52BB8C1803711F483E5E3C1833549F4C0E0D1E089917ADF21E0C730D20714
:20730000D1F7D9C1863521F481E371DF80E3D2C1833731F487E86BDF85E969DF8EE1CAC149
:207320008536B9F4E0E0F0E093E085E090935700E89507B600FCFDCF80935700E89507B65D
:2073400000FCFDCFE058FF4FA0E7E030FA0771F7A2CF823739F4E1E0F0E089E08093570024
:207360008491A8C1863439F4E0E0F0E089E08093570084919FC18E3439F4E3E0F0E089E0E5
:2073800080935700849196C1813539F4E2E0F0E089E08093570084918DC1823631F489E521
:2073A00026DF80E024DF80E885C1823419F0873609F0E5C01092AD011092AC0100DF082FE8
:2073C000FEDEF82EFCDE682E8554823008F071C1902F80E0CF2DD0E0C82BD92B10926F00B3
:2073E000173609F04BC081E180935700E895DD24CC24C3943FC0E090AE01F090AF010091CC
:20740000B0011091B101B6E46B16D9F4ED2DF0E0EE29FF29E4918E2FEADEDD2081F082E08D
:2074200090E0A0E0B0E0E80EF91E0A1F1B1FE092AE01F092AF010093B0011093B101DC2470
:2074400018C0D801C701B695A7959795879559D5CEDE82E090E0A0E0B0E0E80EF91E0A1FF2
:207460001B1FE092AE01F092AF010093B0011093B1012197209709F0BECF7DC08090AE01F5
:207480009090AF01A090B001B090B10196E4691609F05DC083E0F40180935700E89507B63E
:2074A00000FCFDCF54C0F6E46F1661F5772031F1E090AE01F090AF010091B0011091B1019E
:2074C0007EDED82ECC24852D90E08C299D29F7010C0140925700E895112482E090E0A0E08B
:2074E000B0E0E80EF91E0A1F1B1FE092AE01F092AF010093B0011093B10102C060DE582E1A
:20750000742423C0E090AE01F090AF010091B0011091B10116950795F794E79450DE682FFA
:20752000C701F7D48091AE019091AF01A091B001B091B1010296A11DB11D8093AE01909349
:20754000AF01A093B001B093B101219704C05524772444244394209709F0A5CF96E46916B6
:2075600041F485E0F40180935700E89507B600FCFDCF8DE03CDE82E080936F009CC0833492
:2075800071F40091AE011091AF0119DE90E021E0F8010C0120935700E89511247CCE8336C8
:2075A00019F5E090AE01F090AF010091B0011091B10105DEF701E16090E021E00C0120938C
:2075C0005700E895112482E090E0A0E0B0E0E80EF91E0A1F1B1FE092AE01F092AF0100936A
:2075E000B0011093B10157CE8D3661F4E091AE01F091AF0185E080935700E89507B600FCF2
:20760000FDCF49CE823551F4E091AE01F091AF0105911491812FEBDD802F4CC0843421F5FE
:20762000E090AE01F090AF010091B0011091B10116950795F794E794C2DD682FC70169D4DE
:207640008091AE019091AF01A091B001B091B1010296A11DB11D8093AE019093AF01A093D8
:20766000B001B093B10117CE843609F5E090AE01F090AF010091B0011091B101D801C70142
:20768000B695A795979587953CD4B1DD82E090E0A0E0B0E0E80EF91E0A1F1B1FE092AE010A
:2076A000F092AF010093B0011093B10104C08B3111F08FE39CDD83E08093E9009091E8002B
:2076C0008091E8008E778093E80095FF04C010C08EB38823C9F08091E80080FFF9CF809193
:2076E000E8008E778093E80003C08EB3882361F08091E80080FFF9CF84E08093E9008091F1
:20770000E8008B778093E800DF91CF911F910F91FF90EF90DF90CF90BF90AF909F908F90AC
:207720007F906F905F904F9008959091B601892F8F77813249F58091B7018032A1F081328A
:2077400019F5913A09F58091E800877F8093E8008DE091E067E070E00BD28091E8008B770B
:207760008093E8000895913279F48091E800877F8093E8008DE091E067E070E05DD2809192
:20778000E8008E778093E800089582E061EC42E0B5D083E061E842E1B1D084E060E842E1EF
:2077A000ADC084B7877F84BF88E10FB6F89480936000109260000FBE20E880E090E00FB63F
:2077C000F89420936100809361000FBE81E085BF92E095BF3F9A209A559AE1E6F0E02083A1
:2077E000108247985D9A289A109289008AEF8093880090936F0083E080938100F0C0409116
:20780000000850910108109201081092000894B714BE88E10FB6F8948093600010926000D5
:207820000FBE292F30E0F901E270F07091FD18C090FF05C0859194918F5F9F4F81F423FFFF
:207840000FC08091090190910A014817590741F0E0E0F0E0859194918F5F9F4F09F042DC64
:20786000A0DF78941092AD011092AC010CC0DEDC36D38091AC019091AD0181549F4110F00D
:207880001092140141DC80911401882381F78091E00081608093E00025DC80E090E0089598
:2078A000FA01923049F0933061F09130F9F485E191E022E130E01EC087E291E02EE330E04D
:2078C00019C0882329F485E691E024E030E012C0813029F489E691E022E230E00BC0823006
:2078E00029F48DE891E028E130E004C080E090E020E030E091838083C90108958093E9004E
:207900008091EB0081608093EB001092ED006093EC004093ED008091EE00881F8827881F62
:2079200008958091B60188238CF403C08EB38823B1F08091E80082FFF9CF8091E8008B772A
:207940008093E80008958EB3882349F08091E80080FFF9CF8091E8008E778093E800089594
:20796000EF92FF920F931F9345D04CD008ED10E0F80180818F77808380818068808380819B
:207980008F7D808319BC1EBA1092B40180EEE82EF12CF70180818B7F8083F8018081816052
:2079A000808380E060E042E0A9DFE1EEF0E080818E7F8083E2EEF0E0808181608083808144
:2079C00088608083F70180818E7F8083F8018081806180831F910F91FF90EF900895E7ED06
:2079E000F0E08081816080838AE482BF81E08093B501B6CFE8EDF0E080818E7F808310921C
:207A0000E20008951092DA001092E10008951F920F920FB60F9211242F933F934F935F93F6
:207A20006F937F938F939F93AF93BF93EF93FF938091DA0080FF1BC08091D80080FF17C0B2
:207A40008091DA008E7F8093DA008091D90080FF0BC080E189BD82E189BD09B400FEFDCF36
:207A600081E08EBB3BD203C019BC1EBA37D28091E10080FF17C08091E20080FF13C0809138
:207A8000E2008E7F8093E2008091E20080618093E2008091D80080628093D80019BC85E049
:207AA0008EBB1CD28091E10084FF2CC08091E20084FF28C080E189BD82E189BD09B400FEC5
:207AC000FDCF8091D8008F7D8093D8008091E1008F7E8093E1008091E2008F7E8093E20012
:207AE0008091E20081608093E2008091B401882331F48091E30087FD02C081E001C084E067
:207B00008EBBECD18091E10083FF21C08091E20083FF1DC08091E100877F8093E10082E06A
:207B20008EBB1092B4018091E1008E7F8093E1008091E2008E7F8093E2008091E2008061E9
:207B40008093E20080E060E042E0D8DEC7D1FF91EF91BF91AF919F918F917F916F915F9130
:207B60004F913F912F910F900FBE0F901F9018959C014091BC015091BD014617570718F49D
:207B8000F90190E044C06115710511F0AB01F8CF8091E8008E778093E80040E050E0F0CF0F
:207BA0008EB3882309F444C0853009F443C08091E80083FF02C081E008958091E80082FD70
:207BC00031C08091E80080FF22C08091F3009091F200782F60E0292F30E0262B372B07C07A
:207BE00081918093F100415050402F5F3F4F4115510519F02830310598F390E02830310566
:207C000009F491E08091E8008E778093E8004115510531F6992321F605C08EB3882341F075
:207C2000853041F08091E80082FFF7CF80E0089582E0089583E008959C016115710529F47C
:207C40008091E8008B778093E800F90126C08EB3882391F1853091F18091E80083FF02C06C
:207C600081E008958091E80082FFF1CF06C08091F10081936150704059F02091F300809191
:207C8000F200322F20E090E0822B932B892B79F78091E8008B778093E80061157105B9F601
:207CA00005C08EB3882341F0853041F08091E80080FFF7CF80E0089582E0089583E00895C2
:207CC0000F931F93DF93CF9300D0CDB7DEB7E6EBF1E08091F100819381E0EE3BF807C9F792
:207CE00024DD8091E80083FFE4C08091B6019091B701953009F46DC0963040F4913081F1A7
:207D0000913070F0933009F0D4C02AC0983009F4A3C0993009F4B2C0963009F0CAC07CC023
:207D2000803809F4C6C0823809F0C3C08091BA0187708093E9008091EB001092E9002091DB
:207D4000E800277F2093E80090E025E0969587952A95E1F781708093F1001092F10087C0D8
:207D6000882319F0823009F0A4C08F71823009F0A0C08091B801882331F52091BA01277097
:207D800009F497C02093E9008091EB0080FF1BC0933021F48091EB00806213C08091EB0018
:207DA00080618093EB0081E090E002C0880F991F2A95E2F78093EA001092EA008091EB00E5
:207DC00088608093EB001092E9008091E800877F51C0882309F06DC01091B8011F770FB79B
:207DE000F8948091E800877F8093E8009ADD8091E80080FFFCCF8091E3008078812B809398
:207E0000E30080688093E300112311F482E001C083E08EBB0FBF4DC08058823008F049C033
:207E20008091B8019091B9016091BA01AE014F5F5F4F36DDBC01009709F43BC08091E8008E
:207E4000877F8093E80089819A8192DE8091E8008B778093E8002DC0803859F58091E800AA
:207E6000877F8093E8008091B4018093F1008091E8008E778093E80054DD1BC08823C9F4CA
:207E80009091B8019230A8F48091E800877F8093E8009093B40145DD8091B401882331F420
:207EA0008091E30087FD02C081E001C084E08EBB6CDC8091E80083FF0AC08091EB0080624E
:207EC0008093EB008091E800877F8093E8000F900F90CF91DF911F910F91089508951F9360
:207EE0008EB3882361F01091E9001092E9008091E80083FF01C0E4DE17701093E9001F916F
:207F00000895F999FECF92BD81BDF89A992780B50895262FF999FECF1FBA92BD81BD20BDBD
:207F20000FB6F894FA9AF99A0FBE01960895F894FFCF4341544552494E4100777700080031
:207F40000000000000080112011001020000084123360001000201000109023E00020100FF
:207F600080320904000001020201000524001001042402040524060001070582030800FF0C
:207F800009040100020A000000070504021000010705830210000104030904220341007216
:207FA000006400750069006E006F0020004C0065006F006E006100720064006F0000001836
:1A7FC00003410072006400750069006E006F0020004C004C004300000000D7
:00000001FF
