:100000000C9479030C94A1030C94A1030C94A10308
:100010000C94A1030C94A1030C94A1030C94A103D0
:100020000C94A1030C94A1030C9451070C94C007E9
:100030000C94A1030C94A1030C94A1030C94A103B0
:100040000C94A1030C94A1030C94A1030C94A103A0
:100050000C94A1030C94A1030C94A1030C94F20939
:100060000C94A1030C94A1030C94A1030C94A10380
:100070000C94A1030C94A1030C94A1030C94A10370
:100080000C94A1030C94A1030C94A1030C94A10360
:100090000C94A1030C94A1030C94A1030C94A10350
:1000A0000C94A1030C94A1030C94A1030000000084
:1000B000003E5B4F5B3E3E6B4F6B3E1C3E7C3E1CEE
:1000C000183C7E3C181C577D571C1C5E7F5E1C0034
:1000D000183C1800FFE7C3E7FF0018241800FFE7EB
:1000E000DBE7FF30483A060E2629792926407F05AE
:1000F0000507407F05253F5A3CE73C5A7F3E1C1CC4
:1001000008081C1C3E7F14227F22145F5F005F5F83
:1001100006097F017F006689956A6060606060946F
:10012000A2FFA29408047E040810207E2010080874
:100130002A1C08081C2A08081E101010100C1E0C7F
:100140001E0C30383E3830060E3E0E060000000011
:100150000000005F00000007000700147F147F14F8
:10016000242A7F2A1223130864623649562050003D
:1001700008070300001C2241000041221C002A1C29
:100180007F1C2A08083E0808008070300008080814
:100190000808000060600020100804023E51494534
:1001A0003E00427F400072494949462141494D3352
:1001B0001814127F1027454545393C4A49493141B9
:1001C000211109073649494936464949291E000087
:1001D00014000000403400000008142241141414DC
:1001E0001414004122140802015909063E415D59C8
:1001F0004E7C1211127C7F494949363E41414122D1
:100200007F4141413E7F494949417F090909013EFA
:10021000414151737F0808087F00417F4100204021
:10022000413F017F081422417F404040407F021C33
:10023000027F7F0408107F3E4141413E7F0909094A
:10024000063E4151215E7F09192946264949493216
:1002500003017F01033F4040403F1F2040201F3FDC
:100260004038403F63140814630304780403615961
:10027000494D43007F4141410204081020004141A3
:10028000417F04020102044040404040000307084F
:100290000020545478407F2844443838444444284B
:1002A000384444287F385454541800087E090218F2
:1002B000A4A49C787F0804047800447D400020407A
:1002C000403D007F1028440000417F40007C0478BE
:1002D00004787C080404783844444438FC18242406
:1002E0001818242418FC7C08040408485454542486
:1002F00004043F44243C4040207C1C2040201C3C03
:100300004030403C44281028444C9090907C4464F9
:10031000544C44000836410000007700000041368C
:10032000080002010204023C2623263C1EA1A16112
:10033000123A4040207A3854545559215555794144
:100340002154547841215554784020545579400C1B
:100350001E527212395555555939545454593955FC
:100360005454580000457C410002457D420001453F
:100370007C40F0292429F0F0282528F07C545545AC
:10038000002054547C547C0A097F4932494949323F
:100390003248484832324A4848303A4141217A3A54
:1003A00042402078009DA0A07D39444444393D401E
:1003B00040403D3C24FF2424487E4943662B2FFCCB
:1003C0002F2BFF0929F620C0887E09032054547979
:1003D000410000447D413048484A32384040227A4A
:1003E000007A0A0A727D0D19317D2629292F2826C7
:1003F0002929292630484D402038080808080808CF
:100400000808382F10C8ACBA2F102834FA00007B27
:10041000000008142A142222142A1408950022002D
:1004200095AA005500AAAA55AA55AA000000FF00E7
:10043000101010FF00141414FF001010FF00FF1024
:1004400010F010F0141414FC001414F700FF000056
:10045000FF00FF1414F404FC141417101F10101FD5
:10046000101F1414141F00101010F0000000001FC3
:10047000101010101F10101010F010000000FF10CE
:100480001010101010101010FF10000000FF1400CA
:1004900000FF00FF00001F10170000FC04F41414FC
:1004A0001710171414F404F40000FF00F7141414C8
:1004B00014141414F700F7141414171410101F1048
:1004C0001F141414F4141010F010F000001F101F6B
:1004D0000000001F14000000FC140000F010F010D9
:1004E00010FF10FF141414FF141010101F00000050
:1004F00000F010FFFFFFFFFFF0F0F0F0F0FFFFFF54
:100500000000000000FFFF0F0F0F0F0F38444438AA
:10051000447C2A2A3E147E02020606027E027E02E5
:1005200063554941633844443C04407E201E200604
:10053000027E020299A5E7A5991C2A492A1C4C7241
:1005400001724C304A4D4D303048784830BC625AC8
:10055000463D3E494949007E0101017E2A2A2A2A58
:100560002A44445F444440514A444040444A514034
:100570000000FF0103E080FF000008086B6B0836F5
:1005800012362436060F090F060000181800000066
:100590001010003040FF0101001F01011E00191D55
:1005A0001712003C3C3C3C0000000000F0F89C8E20
:1005B0008783878E9CF8F00000FEFF03030303038C
:1005C000070EFCF80000FEFF0303030303070EFC05
:1005D000F80000FFFF00000000000000FFFF000027
:1005E000FEFF8383838383C7EE7C380000F8FC0E14
:1005F00007030303070EFCF800003F7FE0C0808084
:10060000C0E07F3FFFFF01010101010101FFFF0089
:1006100000FFFF0C0C0C0C1C3E77E3C100007FFFB9
:10062000C0C0C0C0C0E0703F1F00001F3F70E0C0EE
:10063000C0C0E0703F1F00007FFFC1C1C1C1C1E366
:10064000773E1C00001F3F70E0C0C0C0E0703F1F3D
:10065000000000000001FFFF01000000D5F08D1434
:10066000A1C881CFD9F1AF20000E3F1F1F1F3F0F40
:100670000008080E3F1F1B1F3B0F00080B00020263
:10068000020000090400000102020000052400101D
:1006900001052401010104240206052406000107C6
:1006A00005810310004009040100020A0000000750
:1006B0000502024000000705830240000004030910
:1006C0000412010002EF02014041233680000101C3
:1006D00002030141726475696E6F204C4C43004106
:1006E000726475696E6F204C656F6E6172646F0025
:1006F000B40A11241FBECFEFDAE0DEBFCDBF11E098
:10070000A0E0B1E0EAE5FDE102C005900D92AE3354
:10071000B107D9F725E0AEE3B1E001C01D92A43CDA
:10072000B207E1F713E0C9E7D3E004C02197FE0167
:100730000E94A00EC837D107C9F70E94E50A0C94A1
:10074000AB0E0C940000EDE5F1E0A0E0B8E0008015
:100750000EBC8111012C1197A0FDFDCF0192B9F7BC
:100760000DB40895FC0180915C01882311F13FB71D
:10077000F89482E08093E9002091F200822F90E0CB
:100780001816190614F481E090E0882339F02898AF
:1007900044E640935B014091F1004083222339F00D
:1007A0002091F200211103C02BE62093E8003FBF07
:1007B00008958FEF9FEF08952FB7F89483E080930B
:1007C000E9009091E800892F807295FF04C0909114
:1007D000F20080E4891B2FBF08958091530181119D
:1007E0000DC082E080934F0184E08093500110920D
:1007F00052011092510181E0809353018FE491E006
:100800000895CF93DF931F92CDB7DEB76983DC01E4
:10081000ED91FC910280F381E02D41E050E0BE01BA
:100820006F5F7F4F09950F90DF91CF91089583E01F
:100830008093E9008091F200882319F08AE3809385
:10084000E80008950E94DC0390E00895CF93DF93C1
:100850001F92CDB7DEB7FC018485958597FD08C052
:100860002FEF3FEF358724870F90DF91CF910895C9
:10087000CE0101960E94B203019719F4898190E09C
:10088000F3CF8FEF9FEFF0CF0F931F93CF93DF93B3
:100890001F92CDB7DEB78C01FC018485958597FF4B
:1008A0000BC0CE0101960E94B203019771F48981B9
:1008B00090E0F80195878487F801848595850F90ED
:1008C000DF91CF911F910F9108958FEF9FEFF1CF9F
:1008D000FC018485958597FD0BC09FB7F89482E055
:1008E0008093E9008091F2009FBF90E00196089507
:1008F0009FB7F89482E08093E9008091F2009FBF57
:1009000090E008954091490150914A01209147019A
:100910003091480142175307B4F49091E800957064
:10092000E1F39091E80092FD19C08093F10080916D
:10093000490190914A0101968F739927892B19F4E7
:100940008EEF8093E8008091490190914A010196D1
:1009500090934A018093490181E0089580E00895D1
:10096000DF92EF92FF920F931F93CF93DF93D82ED6
:100970008A01EB017B01E40EF51ECE15DF0559F06F
:10098000D7FE12C0FE0184910E948204219681113B
:10099000F4CF0FEF1FEFC801DF91CF911F910F919F
:1009A000FF90EF90DF9008958881EECF0F931F9313
:1009B000CF93DF931F92CDB7DEB782E0898342E405
:1009C00050E06BE776E080E80E94B0040E94ED03FF
:1009D000DC0112960D911C910115110589F0D801C9
:1009E000ED91FC910280F381E02DBE016F5F7F4F9E
:1009F000C801099597FD04C0F80100851185ECCF69
:100A000089810F90DF91CF911F910F9108956150CF
:100A100030F02091F100FC0120830196F8CF289856
:100A200084E680935B010895AF92BF92CF92DF92EC
:100A3000EF92FF920F931F93CF93DF936C017B0193
:100A40008B01040F151FEB015E01AE18BF08C01724
:100A5000D10759F06991D601ED91FC910190F08197
:100A6000E02DC6010995892B79F7C501DF91CF915A
:100A70001F910F91FF90EF90DF90CF90BF90AF90BC
:100A800008953FB7F89480913F0190914001A09163
:100A90004101B091420126B5A89B05C02F3F19F036
:100AA0000196A11DB11D3FBFBA2FA92F982F8827EE
:100AB000BC01CD01620F711D811D911D42E0660FC9
:100AC000771F881F991F4A95D1F708958F929F929B
:100AD000AF92BF92CF92DF92EF92FF926B017C01B7
:100AE0000E9441054B015C01C114D104E104F104F1
:100AF000B9F00E944105681979098A099B09683E85
:100B000073408105910580F321E0C21AD108E10804
:100B1000F10888EE880E83E0981EA11CB11CE4CF7A
:100B2000FF90EF90DF90CF90BF90AF909F908F900D
:100B300008958F929F92AF92BF92CF92DF92EF92E1
:100B4000FF920F931F93CF93DF936C017B018A0178
:100B500080910F01882309F45CC080915C01882397
:100B600009F457C080914E0180FF05C08091E000DC
:100B700082608093E000E801B12C8AEFA82E93E018
:100B8000892E2AE3922E209711F4BB20D9F10E94DE
:100B9000DC0381110AC0AA94AA20D9F161E070E0B7
:100BA00080E090E00E946605EECF8C171D0611F0E4
:100BB0000CF08C2F9FB7F8948092E9002091E80008
:100BC00025FD02C09FBFDFCF282F30E0C21BD30B13
:100BD000F701815020F041914093F100FACFE20EED
:100BE000F31EBB2021F09092E800B12CEBCF809156
:100BF000E80085FDE7CF9092E800BB24B3942097EE
:100C000009F3F3CF5D9884E680934D011016110629
:100C10003CF081E090E0F6019383828310E000E0F5
:100C2000C801DF91CF911F910F91FF90EF90DF905E
:100C3000CF90BF90AF909F908F9008952D9A089578
:100C4000BC0190E080E00C9466058FB18095807FB8
:100C5000669B88601C9B8460089520E191E061FDA3
:100C600094E060FD990F62FD9295687F269FD00108
:100C70001124A80FA35ABE4F8C9140FF03C0892BAB
:100C80008C93089590958923FBCF2F923F924F929A
:100C90005F926F927F928F929F92AF92BF92CF920C
:100CA000DF92EF92FF920F931F93CF93DF93CDB715
:100CB000DEB728970FB6F894DEBF0FBECDBF9E8378
:100CC0008D836A3061F5DC0155968C91B8E08B9F7D
:100CD00090011124ED81FE8181899289820F931FF9
:100CE000928B818B108A178681E090E028960FB650
:100CF000F894DEBF0FBECDBFDF91CF911F910F9152
:100D0000FF90EF90DF90CF90BF90AF909F908F902B
:100D10007F906F905F904F903F902F9008956D302F
:100D200019F32D813E8138872F83D9011F960D91AC
:100D30001C915097003811050CF07CC05196AD9075
:100D4000BC90B0E4AB16B1040CF074C0F901258876
:100D500025E0C801229E800D911D11241816190648
:100D60000CF068C0622C712CC30133E0880F991F0E
:100D70003A95E1F78A0D9B1D181619060CF05AC01A
:100D8000F489FB83AF81B8855396BC91BC83629F85
:100D9000B0011124FB01E455FF4F2F011982F2012C
:100DA0008491F981F53009F480E0450128E02A8337
:100DB000A82FB0E0BE83AD833C8080FF3B80311024
:100DC00004C0BB81EC81BE17F9F078018E2D801B29
:100DD0008215D0F4D12CC12CC21490F4F0E8EF1697
:100DE000F10450F4B601680D791D6034710520F4EA
:100DF000432DC7010E942D062FEFC21AD20AECCF55
:100E00003FEFE31AF30AE2CF8D819E819595879596
:100E10009A8191509A83860C971C9111C9CFA98110
:100E2000AF5FA983BFEF4B1A5B0A060D171DA630F3
:100E300009F0B5CFEF81F8852589422F50E08785ED
:100E40009089F6E02F9F800D911D1124AF81B88508
:100E500050969C938E931F9756962C9156972223CB
:100E600009F442CF6AEF64039001659F300D1124AD
:100E700020583F4F281739070CF036CFED91FC91E1
:100E800011970190F081E02D6AE0CD0109952CCFFA
:100E90000895089590E080E008950C948A0E0E94D1
:100EA000A60E1F920F920FB60F9211248F939F934D
:100EB0008091E1009091E100937F9093E10083FFA6
:100EC0000FC01092E90091E09093EB001092EC00BB
:100ED00092E39093ED0010925C0198E09093F00003
:100EE00082FF22C093E09093E9009091F200992351
:100EF00019F09AE39093E80090914D01992341F005
:100F000090914D01915090934D01911101C05D9AC6
:100F100090915B01992341F090915B0191509093E6
:100F20005B01911101C0289A84FF18C08091E200F2
:100F30008E7E81608093E2008091E1008F7E8093BD
:100F4000E10080914E018E7E806180934E019F91E1
:100F50008F910F900FBE0F901F90189580FFF7CFC5
:100F60008091E2008E7E80618093E2008091E100BA
:100F70008E7E8093E10080914E018E7E8160E5CF70
:100F80001F920F920FB60F921124CF92DF92EF9221
:100F9000FF920F931F932F933F934F935F936F9302
:100FA0007F938F939F93AF93BF93EF93FF93CF93D1
:100FB000DF93CDB7DEB76C97DEBFCDBF1092E900EF
:100FC0008091E80083FF25C068E0CE0145960E942D
:100FD000070582EF8093E8008D8987FF39C09091E3
:100FE000E80090FFFCCF982F907609F034C19E89DD
:100FF0004F89588D2F89F88C911131C0803861F557
:1010000080914C018093F1001092F1008EEF80935B
:10101000E8006C960FB6F894DEBF0FBECDBFDF912F
:10102000CF91FF91EF91BF91AF919F918F917F9160
:101030006F915F914F913F912F911F910F91FF9071
:10104000EF90DF90CF900F900FBE0F901F901895EC
:101050009EEF9093E800C7CF1092F100D5CF91306A
:1010600059F48111D3CF4130510581F680914C0163
:101070008D7F80934C01CACF933049F48111C6CF44
:101080004130510519F680914C018260F2CF9530C4
:1010900041F48091E80080FFFCCF20682093E300BA
:1010A000B5CF963009F0A9C00B8D1C8D22E01092AF
:1010B000E90010924A0110924901F2122EC01092DA
:1010C0004801109247010E94D6041F8299E099833B
:1010D000FA8291E09E8390EA98879AEF998720910F
:1010E000490130914A01275F3F4F3C832B838D8319
:1010F0001092E90010924A011092490110934801A0
:101100000093470149E050E0BE016F5F7F4F80E0F0
:101110000E94B0040E94D60479CF10934801009336
:1011200047010E94ED03DC0112960D911C910115FF
:10113000110509F451C1D801ED91FC910480F581AC
:10114000E02DBE016B5E7F4FC8010995009709F045
:101150003EC1F80100851185EACFF3E0FF120EC011
:101160008F89882309F440C0823061F440E860E14F
:101170008FED96E00E943C0A811148CF81E2809376
:10118000EB0047CF813029F440E86BE083ED96E037
:10119000F1CF833099F70E94ED03DC011296ED90B8
:1011A000FC908E010F5F1F4F6801E114F10479F08C
:1011B000D701ED91FC910680F781E02DB801C701C0
:1011C0000995080F111DF701E084F184EECFD801D5
:1011D0001C92F60101900020E9F73197BF016C19CC
:1011E0007D0940E0C601C6CF6DEB76E0FB0144917E
:1011F00050E080E80E94B00409CF973009F4BECFD8
:10120000983021F481E08093F10000CF993009F00B
:10121000FDCE837009F0B2CFE1E1F1E081E031E091
:1012200096E32191222371F08093E9003093EB0043
:10123000DF0111972C912093EC009093ED008F5FCC
:10124000873079F78EE78093EA001092EA008F8961
:1012500080935C01DBCE8B8D9C8D1092E900109207
:101260004A01109249019093480180934701898D6A
:10127000811192C08E899D89913A49F4813209F099
:101280007DCF47E050E068E071E080E0B3CF91327D
:1012900009F074CF833269F48F89988DB0E0A0E0B3
:1012A0008093040190930501A0930601B093070178
:1012B000ADCE803269F48091E80082FFFCCF67E018
:1012C00088E091E00E9407058BEF8093E8009ECEB6
:1012D000823209F09BCE8F8980930F01EEEFFFE7FA
:1012E000859194918B3F9C4D51F1E0E0F8E0809125
:1012F000080190910901A0910A01B0910B01803B76
:101300009440A105B105F1F480910F0180FD1AC050
:10131000EE3F8AE0F80789F587E797E791838083B6
:101320008091600080934B0188E19BE00FB6F894B8
:10133000A895809360000FBE9093600067CEEEEF9B
:10134000FAE0D5CF808191818737974709F05ECE4B
:10135000A8958091600088618093600080914B0126
:1013600080936000EE3F2AE0F20789F08091FE0A48
:101370009091FF0A9183808349CE80819181873744
:10138000980751F29093FF0A8093FE0AC5CF1092FE
:10139000FF0A1092FE0A3ACE0E94ED03DC0112967B
:1013A0000D911C910115110509F4E8CED801ED91BC
:1013B000FC910190F081E02DBE016B5E7F4FC80172
:1013C0000995811123CEF80100851185EBCF181600
:1013D00019060CF41BCED2CEF1E0FF12BECE61ECAA
:1013E00076E004CF1F920F920FB60F9211242F9325
:1013F0003F938F939F93AF93BF93809143019091BD
:101400004401A0914501B091460130913E0123E095
:10141000230F2D3758F50196A11DB11D20933E01D4
:101420008093430190934401A0934501B0934601FA
:1014300080913F0190914001A0914101B091420102
:101440000196A11DB11D80933F0190934001A0938F
:101450004101B0934201BF91AF919F918F913F9114
:101460002F910F900FBE0F901F90189526E8230F15
:101470000296A11DB11DD2CFEF92FF920F931F9341
:10148000CF93DF93F82E192FE62E042F81E0860FDD
:10149000880F0E94820483E00E948204CF2DD12F06
:1014A000EC0EFD2EF11CCE15DF05B9F007FF13C0C1
:1014B000FE0184910E948204182F80E00E94820421
:1014C000812321968111EFCFDF91CF911F910F9151
:1014D000FF90EF9008958881EDCF81E0F5CF0F93D5
:1014E0001F93CF93DF938C0181E090E00E944D0722
:1014F00080FF32C08AE090E00E944D079FEF980F76
:101500009E3F50F522E330E0D80150963C932E9355
:101510001F9728E330E052963C932E935197CBE0EF
:10152000D0E0D801ED91FC910190F081E02D682F81
:10153000C8010995CE010E944D072196C131D10500
:1015400081F780E00E94A30388EE93E0DF91CF91C2
:101550001F910F910C942006DF91CF911F910F9155
:10156000089504970C946F0AEDE5F5E0138212825A
:1015700088EE93E0A0E0B0E084839583A683B783F0
:101580008BE191E0918380838FEF9FEF9587848734
:10159000EDEAF5E0138212821186128680E18387DC
:1015A0001086178215868DE291E0918380838BE30C
:1015B00091E095838483108A1786128A118A81E0CC
:1015C000838B148A858B168A0895CF93DF9300D07E
:1015D00000D0CDB7DEB7789484B5826084BD84B581
:1015E000816084BD85B5826085BD85B5816085BD1E
:1015F00080916E00816080936E00109281008091D6
:10160000810082608093810080918100816080935D
:1016100081008091800081608093800080919100A2
:10162000826080939100809191008160809391000D
:10163000809190008160809390008091C1008460CF
:101640008093C1008091C10082608093C10080912D
:10165000C10081608093C1008091C300816080934C
:10166000C3008091C00082608093C0008091C2005E
:1016700081608093C20080917A00846080937A00B8
:1016800080917A00826080937A0080917A008160F4
:1016900080937A0080917A00806880937A0010921B
:1016A0005C0110924C0110924E018091D700816034
:1016B0008093D70080EA8093D80089B5806189BD86
:1016C00089B5826089BD09B400FEFDCF61E070E09C
:1016D00080E090E00E9466058091D8008F7C806158
:1016E0008093D8008091E000807F8093E00080911B
:1016F000E1008E7E8093E1008DE08093E200559AB8
:10170000209A81EC80937C0085B1806F85B984B18B
:10171000877E84B984B1876E84B95E9A5F988AB1F6
:10172000806D8AB9769A6E9881B3806F81BB8998F3
:1017300080B38D7080BB80E58CBD81E08DBD85E080
:1017400090E00E9420065F9A85E090E00E942006CB
:101750005E985C98ECE5F6E089E696E024912EBD73
:1017600000000DB407FEFDCF31968E179F07B1F72D
:101770005C9A81E880936400809165008160809329
:10178000650080E00E94A3030E94250687FF15C024
:101790005C9885EA8EBD00000DB407FEFDCF5C9A13
:1017A0002E982F982D988091640080628093640019
:1017B00081E083BF889513BEFCCF0E94250682FF7F
:1017C00048C02D980E94250684788438E1F40E9450
:1017D0001E0688EC90E00E9420062F9882E090E0A0
:1017E0000E948A0E8F3F29F06FEF82E090E00E9406
:1017F000920E84EF91E00E9420062F9A0E94250607
:1018000084788438D9F30E94250684718431E1F408
:101810000E941E0688EC90E00E9420062E9882E02E
:1018200090E00E948A0E882329F060E082E090E038
:101830000E94920E84EF91E00E9420062E9A0E9450
:10184000250684718431D9F388EC90E00E9420064B
:10185000B4CF0E941E0682E090E00E944D078823CC
:1018600009F44CC03E9A3F9A81E090E00E944D07F7
:10187000082F0470902E81FF10C001112E9800EFE8
:101880001FEF1A83098308E010E00E94250686FFF7
:1018900038C02E9A2F9A0E941E0682E390E00E9482
:1018A00020060E9425068111F8CF82E48093B805B6
:1018B0006DE5E62E61E0F62E70E0272E70E0372E03
:1018C0008FB7F894409143015091440160914501D4
:1018D000709146018FBF8091B905942F981B80911C
:1018E000BA05882309F4A4C09093BB051092BA05E9
:1018F0002114310429F30E940000E2CF3E983F9862
:10190000B3CF992039F049815A814430510511F4FF
:101910002E9A2F9881E00E94A30329813A8137FFF4
:1019200003C03195219531092770332789819A8128
:1019300097FD0796F3E095958795FA95E1F7E9818C
:10194000FA81F7FF05C00197A801421B530B9A01CA
:10195000AC015695542F442757954795435A5E4FEF
:10196000F12CE12C3801621A730A8F3F6FEF960752
:10197000B4F1DA01AC56BF4F6A0170E060E0F701E4
:10198000E455FA4F5F018F3F980779F0F501E60FB4
:10199000F71FE491F0E02F01022E01C0440C0A94DD
:1019A000EAF7F60184884828448A2115310571F048
:1019B000F501E60FF71FE491F0E0062C02C0F59563
:1019C000E7950A94E2F7FC91EF2BEC936F5F7F4F62
:1019D0001196FFEFCF1ADF0A68357105A1F601965F
:1019E00068E5E60EF11C40585F4FB0EBEB16F104D2
:1019F00009F0BBCF80E00E94A3038FE090E00E943B
:101A00002006E981FA813196FA83E983799709F012
:101A10003CCF992011F02F9A2D9880E991E00E94F7
:101A200020060E941E068DEA95E00E946F0A35CFBF
:101A30002091B805921748F49F5F921708F058CF8D
:101A4000F1E0F3BF889513BE53CF01E00093BA05D0
:101A50004093B9052091B4053091B5052F5F3F4FF4
:101A60003093B5052093B405F70181118FEF002461
:101A700081938193819381930394D1F71092BF0551
:101A80001092BE051092BD051092BC058091B6055E
:101A90008093B7050E9425068093B6050E9425060F
:101AA00085FF09C0809102019091030101979093F5
:101AB0000301809302010E94250686FF09C08091E0
:101AC000020190910301019690930301809302011A
:101AD0000E94250687FF09C08091000190910101B5
:101AE000019790930101809300010E94250684FFD5
:101AF00009C080910001909101010196909301012C
:101B0000809300011A821982D12CC12C40E0B601C9
:101B100089819A810E942D061FEFC11AD10A4CE2D9
:101B2000C416D10499F709811A810F5F1F4F1A83D8
:101B300009830436110541F70AE010E01A8309838E
:101B4000D12CC12C41E0B60189819A810E942D06D9
:101B50001FEFC11AD10A4CE2C416D10499F70981CA
:101B60001A810F5F1F4F1A8309830633110541F74E
:101B70002091020130910301E1E7F6E0F491F9834D
:101B8000E2E7F6E0F491FB830981602F70E0DB016E
:101B9000A20FB31F1A161B060CF0B8C0203831056F
:101BA0000CF0B4C08091000190910101AC014F0F85
:101BB000511D141615060CF0A9C0803491050CF0C7
:101BC000A5C0482F4770942EFC0197FD379653E02F
:101BD000F595E7955A95E1F75E2F97FF04C0992098
:101BE00011F05FEF5E0F88279927821B930B37FD5B
:101BF00002C090E080E040E8542E521AA038B105AF
:101C00000CF45980581AE52F052E000CFF0BAE2F4F
:101C1000A0955F3F0CF0A0E041E0BB81B77009F4F4
:101C200040E0BB81B695B695B6954B0FE40FF11D1C
:101C3000399714F048E0451B8A2E850E082D10E8D0
:101C40000103F00111242E0F3F1F280F391FB98106
:101C5000BA9F800D911D11248C010D58194F1C83C2
:101C60000B83692C092C000C77088759994F442E57
:101C7000450E481409F44AC0D901A35ABE4F50E09A
:101C800040E04515B8F5FC01E40FF51FA490B12C18
:101C9000062C02C0AA0CBB1C0A94E2F7A094B094D4
:101CA000EB81FC81E40FF51FE491F0E08F01062C3D
:101CB00002C0000F111F0A94E2F71A83098387FC00
:101CC00004C0DC90DA20D02ADC92992079F016E06A
:101CD000181564F06D01E0E8CE0ED11CF6011081FC
:101CE000E12FEB211A811E2BF60110834F5F5F4F0E
:101CF0001196C7CF83940B811C81060F171F1C837D
:101D00000B83860F971F20583F4FB3CF80E00E9470
:101D1000A303EECDF999FECF92BD81BDF89A992724
:101D200080B50895262FF999FECF1FBA92BD81BDC7
:101D300020BD0FB6F894FA9AF99A0FBE019608954D
:101D4000EE0FFF1F0590F491E02D099481E090E0E3
:0A1D5000F8940C94AB0EF894FFCF4A
:101D5A000A000500FFFFFFFF00E10000000000008D
:101D6A0000C18081000000000000000104990522E2
:101D7A0004170468042604440400000000450614FD
:0E1D8A00054A0749076F0AFCFF0000B10A0076
:2070000055C000006EC000006CC000006AC0000068C0000066C0000064C0000062C0000043
:2070200060C000005EC00000F2C400005AC0000058C0000056C0000054C0000052C00000EE
:2070400050C0000078C000004CC000004AC0000048C0000046C0000044C0000042C00000BE
:2070600040C000003EC000003CC000003AC0000038C0000036C0000034C0000032C0000048
:2070800030C000002EC000002CC000002AC0000028C0000026C0000024C0000022C00000A8
:2070A00020C000001EC000001CC0000011241FBECFEFDAE0DEBFCDBF11E0A0E0B1E0E2E3BC
:2070C000FFE702C005900D92A83AB107D9F711E0A8EAB1E001C01D92AE3BB107E1F78FD30B
:2070E00026C78ECFF89410926F0010928100109285001092840081E085BF15BE47985D9AEB
:20710000289A0C94000008952091B2013091B3012F5F3F4F3093B3012093B201932F37FFA6
:2071200003C08EEF831B982F990F921710F447980895479A08951F920F920FB60F9211246E
:207140002F938F939F93EF93FF9310928500109284008091A8019091A901009741F00197D3
:207160009093A9018093A801892B09F45D9A8091AA019091AB01009741F001979093AB0126
:207180008093AA01892B09F4289AE0E0F0E0859194918F5F9F4F49F08091AC019091AD0151
:2071A00001969093AD018093AC01FF91EF919F918F912F910F900FBE0F901F90189584E0BC
:2071C0008093E9000DC08091E8008B778093E80003C08EB3882351F08091E80082FFF9CFBE
:2071E0008091E80085FFEFCF8091F1000895982F83E08093E9008091E80085FD0DC0809136
:20720000E8008E778093E80003C08EB3882369F08091E80080FFF9CF9093F1005D9884E6CB
:2072200090E09093A9018093A80108954F925F926F927F928F929F92AF92BF92CF92DF921E
:20724000EF92FF920F931F93CF93DF9384E08093E9008091E80082FF57C2289884E690E067
:207260009093AB018093AA01AADF182F853481F48CE49DE19093AD018093AC0107B600FC4B
:20728000FDCFF999FECF81E180935700E89503C0843519F494DF8DE00DC28C34E1F38035F9
:2072A000D1F3843721F484E4A2DF80E003C2813611F489E5FFC18134B1F481DF182F7FDFE3
:2072C00090E0880F991FAA2797FDA095BA2F312F330F20E0442737FD4095542F822B932B68
:2072E000A42BB52BB8C1803711F483E5E3C1833549F4C0E0D1E089917ADF21E0C730D20714
:20730000D1F7D9C1863521F481E371DF80E3D2C1833731F487E86BDF85E969DF8EE1CAC149
:207320008536B9F4E0E0F0E093E085E090935700E89507B600FCFDCF80935700E89507B65D
:2073400000FCFDCFE058FF4FA0E7E030FA0771F7A2CF823739F4E1E0F0E089E08093570024
:207360008491A8C1863439F4E0E0F0E089E08093570084919FC18E3439F4E3E0F0E089E0E5
:2073800080935700849196C1813539F4E2E0F0E089E08093570084918DC1823631F489E521
:2073A00026DF80E024DF80E885C1823419F0873609F0E5C01092AD011092AC0100DF082FE8
:2073C000FEDEF82EFCDE682E8554823008F071C1902F80E0CF2DD0E0C82BD92B10926F00B3
:2073E000173609F04BC081E180935700E895DD24CC24C3943FC0E090AE01F090AF010091CC
:20740000B0011091B101B6E46B16D9F4ED2DF0E0EE29FF29E4918E2FEADEDD2081F082E08D
:2074200090E0A0E0B0E0E80EF91E0A1F1B1FE092AE01F092AF010093B0011093B101DC2470
:2074400018C0D801C701B695A7959795879559D5CEDE82E090E0A0E0B0E0E80EF91E0A1FF2
:207460001B1FE092AE01F092AF010093B0011093B1012197209709F0BECF7DC08090AE01F5
:207480009090AF01A090B001B090B10196E4691609F05DC083E0F40180935700E89507B63E
:2074A00000FCFDCF54C0F6E46F1661F5772031F1E090AE01F090AF010091B0011091B1019E
:2074C0007EDED82ECC24852D90E08C299D29F7010C0140925700E895112482E090E0A0E08B
:2074E000B0E0E80EF91E0A1F1B1FE092AE01F092AF010093B0011093B10102C060DE582E1A
:20750000742423C0E090AE01F090AF010091B0011091B10116950795F794E79450DE682FFA
:20752000C701F7D48091AE019091AF01A091B001B091B1010296A11DB11D8093AE01909349
:20754000AF01A093B001B093B101219704C05524772444244394209709F0A5CF96E46916B6
:2075600041F485E0F40180935700E89507B600FCFDCF8DE03CDE82E080936F009CC0833492
:2075800071F40091AE011091AF0119DE90E021E0F8010C0120935700E89511247CCE8336C8
:2075A00019F5E090AE01F090AF010091B0011091B10105DEF701E16090E021E00C0120938C
:2075C0005700E895112482E090E0A0E0B0E0E80EF91E0A1F1B1FE092AE01F092AF0100936A
:2075E000B0011093B10157CE8D3661F4E091AE01F091AF0185E080935700E89507B600FCF2
:20760000FDCF49CE823551F4E091AE01F091AF0105911491812FEBDD802F4CC0843421F5FE
:20762000E090AE01F090AF010091B0011091B10116950795F794E794C2DD682FC70169D4DE
:207640008091AE019091AF01A091B001B091B1010296A11DB11D8093AE019093AF01A093D8
:20766000B001B093B10117CE843609F5E090AE01F090AF010091B0011091B101D801C70142
:20768000B695A795979587953CD4B1DD82E090E0A0E0B0E0E80EF91E0A1F1B1FE092AE010A
:2076A000F092AF010093B0011093B10104C08B3111F08FE39CDD83E08093E9009091E8002B
:2076C0008091E8008E778093E80095FF04C010C08EB38823C9F08091E80080FFF9CF809193
:2076E000E8008E778093E80003C08EB3882361F08091E80080FFF9CF84E08093E9008091F1
:20770000E8008B778093E800DF91CF911F910F91FF90EF90DF90CF90BF90AF909F908F90AC
:207720007F906F905F904F9008959091B601892F8F77813249F58091B7018032A1F081328A
:2077400019F5913A09F58091E800877F8093E8008DE091E067E070E00BD28091E8008B770B
:207760008093E8000895913279F48091E800877F8093E8008DE091E067E070E05DD2809192
:20778000E8008E778093E800089582E061EC42E0B5D083E061E842E1B1D084E060E842E1EF
:2077A000ADC084B7877F84BF88E10FB6F89480936000109260000FBE20E880E090E00FB63F
:2077C000F89420936100809361000FBE81E085BF92E095BF3F9A209A559AE1E6F0E02083A1
:2077E000108247985D9A289A109289008AEF8093880090936F0083E080938100F0C0409116
:20780000000850910108109201081092000894B714BE88E10FB6F8948093600010926000D5
:207820000FBE292F30E0F901E270F07091FD18C090FF05C0859194918F5F9F4F81F423FFFF
:207840000FC08091090190910A014817590741F0E0E0F0E0859194918F5F9F4F09F042DC64
:20786000A0DF78941092AD011092AC010CC0DEDC36D38091AC019091AD0181549F4110F00D
:207880001092140141DC80911401882381F78091E00081608093E00025DC80E090E0089598
:2078A000FA01923049F0933061F09130F9F485E191E022E130E01EC087E291E02EE330E04D
:2078C00019C0882329F485E691E024E030E012C0813029F489E691E022E230E00BC0823006
:2078E00029F48DE891E028E130E004C080E090E020E030E091838083C90108958093E9004E
:207900008091EB0081608093EB001092ED006093EC004093ED008091EE00881F8827881F62
:2079200008958091B60188238CF403C08EB38823B1F08091E80082FFF9CF8091E8008B772A
:207940008093E80008958EB3882349F08091E80080FFF9CF8091E8008E778093E800089594
:20796000EF92FF920F931F9345D04CD008ED10E0F80180818F77808380818068808380819B
:207980008F7D808319BC1EBA1092B40180EEE82EF12CF70180818B7F8083F8018081816052
:2079A000808380E060E042E0A9DFE1EEF0E080818E7F8083E2EEF0E0808181608083808144
:2079C00088608083F70180818E7F8083F8018081806180831F910F91FF90EF900895E7ED06
:2079E000F0E08081816080838AE482BF81E08093B501B6CFE8EDF0E080818E7F808310921C
:207A0000E20008951092DA001092E10008951F920F920FB60F9211242F933F934F935F93F6
:207A20006F937F938F939F93AF93BF93EF93FF938091DA0080FF1BC08091D80080FF17C0B2
:207A40008091DA008E7F8093DA008091D90080FF0BC080E189BD82E189BD09B400FEFDCF36
:207A600081E08EBB3BD203C019BC1EBA37D28091E10080FF17C08091E20080FF13C0809138
:207A8000E2008E7F8093E2008091E20080618093E2008091D80080628093D80019BC85E049
:207AA0008EBB1CD28091E10084FF2CC08091E20084FF28C080E189BD82E189BD09B400FEC5
:207AC000FDCF8091D8008F7D8093D8008091E1008F7E8093E1008091E2008F7E8093E20012
:207AE0008091E20081608093E2008091B401882331F48091E30087FD02C081E001C084E067
:207B00008EBBECD18091E10083FF21C08091E20083FF1DC08091E100877F8093E10082E06A
:207B20008EBB1092B4018091E1008E7F8093E1008091E2008E7F8093E2008091E2008061E9
:207B40008093E20080E060E042E0D8DEC7D1FF91EF91BF91AF919F918F917F916F915F9130
:207B60004F913F912F910F900FBE0F901F9018959C014091BC015091BD014617570718F49D
:207B8000F90190E044C06115710511F0AB01F8CF8091E8008E778093E80040E050E0F0CF0F
:207BA0008EB3882309F444C0853009F443C08091E80083FF02C081E008958091E80082FD70
:207BC00031C08091E80080FF22C08091F3009091F200782F60E0292F30E0262B372B07C07A
:207BE00081918093F100415050402F5F3F4F4115510519F02830310598F390E02830310566
:207C000009F491E08091E8008E778093E8004115510531F6992321F605C08EB3882341F075
:207C2000853041F08091E80082FFF7CF80E0089582E0089583E008959C016115710529F47C
:207C40008091E8008B778093E800F90126C08EB3882391F1853091F18091E80083FF02C06C
:207C600081E008958091E80082FFF1CF06C08091F10081936150704059F02091F300809191
:207C8000F200322F20E090E0822B932B892B79F78091E8008B778093E80061157105B9F601
:207CA00005C08EB3882341F0853041F08091E80080FFF7CF80E0089582E0089583E00895C2
:207CC0000F931F93DF93CF9300D0CDB7DEB7E6EBF1E08091F100819381E0EE3BF807C9F792
:207CE00024DD8091E80083FFE4C08091B6019091B701953009F46DC0963040F4913081F1A7
:207D0000913070F0933009F0D4C02AC0983009F4A3C0993009F4B2C0963009F0CAC07CC023
:207D2000803809F4C6C0823809F0C3C08091BA0187708093E9008091EB001092E9002091DB
:207D4000E800277F2093E80090E025E0969587952A95E1F781708093F1001092F10087C0D8
:207D6000882319F0823009F0A4C08F71823009F0A0C08091B801882331F52091BA01277097
:207D800009F497C02093E9008091EB0080FF1BC0933021F48091EB00806213C08091EB0018
:207DA00080618093EB0081E090E002C0880F991F2A95E2F78093EA001092EA008091EB00E5
:207DC00088608093EB001092E9008091E800877F51C0882309F06DC01091B8011F770FB79B
:207DE000F8948091E800877F8093E8009ADD8091E80080FFFCCF8091E3008078812B809398
:207E0000E30080688093E300112311F482E001C083E08EBB0FBF4DC08058823008F049C033
:207E20008091B8019091B9016091BA01AE014F5F5F4F36DDBC01009709F43BC08091E8008E
:207E4000877F8093E80089819A8192DE8091E8008B778093E8002DC0803859F58091E800AA
:207E6000877F8093E8008091B4018093F1008091E8008E778093E80054DD1BC08823C9F4CA
:207E80009091B8019230A8F48091E800877F8093E8009093B40145DD8091B401882331F420
:207EA0008091E30087FD02C081E001C084E08EBB6CDC8091E80083FF0AC08091EB0080624E
:207EC0008093EB008091E800877F8093E8000F900F90CF91DF911F910F91089508951F9360
:207EE0008EB3882361F01091E9001092E9008091E80083FF01C0E4DE17701093E9001F916F
:207F00000895F999FECF92BD81BDF89A992780B50895262FF999FECF1FBA92BD81BD20BDBD
:207F20000FB6F894FA9AF99A0FBE01960895F894FFCF4341544552494E4100777700080031
:207F40000000000000080112011001020000084123360001000201000109023E00020100FF
:207F600080320904000001020201000524001001042402040524060001070582030800FF0C
:207F800009040100020A000000070504021000010705830210000104030904220341007216
:207FA000006400750069006E006F0020004C0065006F006E006100720064006F0000001836
:1A7FC00003410072006400750069006E006F0020004C004C004300000000D7
:00000001FF
