:100000000C9472050C949A050C949A050C949A051C
:100010000C949A050C949A050C949A050C949A05E4
:100020000C949A050C949A050C94040D0C94730D81
:100030000C949A050C949A050C949A050C949A05C4
:100040000C949A050C949A050C949A050C949A05B4
:100050000C949A050C949A050C949A050C94A50F8F
:100060000C949A050C949A050C949A050C949A0594
:100070000C949A050C949A050C949A050C949A0584
:100080000C949A050C949A050C949A050C949A0574
:100090000C949A050C949A050C949A050C949A0564
:1000A0000C949A050C949A050C949A050000000093
:1000B000003E5B4F5B3E3E6B4F6B3E1C3E7C3E1CEE
:1000C000183C7E3C181C577D571C1C5E7F5E1C0034
:1000D000183C1800FFE7C3E7FF0018241800FFE7EB
:1000E000DBE7FF30483A060E2629792926407F05AE
:1000F0000507407F05253F5A3CE73C5A7F3E1C1CC4
:1001000008081C1C3E7F14227F22145F5F005F5F83
:1001100006097F017F006689956A6060606060946F
:10012000A2FFA29408047E040810207E2010080874
:100130002A1C08081C2A08081E101010100C1E0C7F
:100140001E0C30383E3830060E3E0E060000000011
:100150000000005F00000007000700147F147F14F8
:10016000242A7F2A1223130864623649562050003D
:1001700008070300001C2241000041221C002A1C29
:100180007F1C2A08083E0808008070300008080814
:100190000808000060600020100804023E51494534
:1001A0003E00427F400072494949462141494D3352
:1001B0001814127F1027454545393C4A49493141B9
:1001C000211109073649494936464949291E000087
:1001D00014000000403400000008142241141414DC
:1001E0001414004122140802015909063E415D59C8
:1001F0004E7C1211127C7F494949363E41414122D1
:100200007F4141413E7F494949417F090909013EFA
:10021000414151737F0808087F00417F4100204021
:10022000413F017F081422417F404040407F021C33
:10023000027F7F0408107F3E4141413E7F0909094A
:10024000063E4151215E7F09192946264949493216
:1002500003017F01033F4040403F1F2040201F3FDC
:100260004038403F63140814630304780403615961
:10027000494D43007F4141410204081020004141A3
:10028000417F04020102044040404040000307084F
:100290000020545478407F2844443838444444284B
:1002A000384444287F385454541800087E090218F2
:1002B000A4A49C787F0804047800447D400020407A
:1002C000403D007F1028440000417F40007C0478BE
:1002D00004787C080404783844444438FC18242406
:1002E0001818242418FC7C08040408485454542486
:1002F00004043F44243C4040207C1C2040201C3C03
:100300004030403C44281028444C9090907C4464F9
:10031000544C44000836410000007700000041368C
:10032000080002010204023C2623263C1EA1A16112
:10033000123A4040207A3854545559215555794144
:100340002154547841215554784020545579400C1B
:100350001E527212395555555939545454593955FC
:100360005454580000457C410002457D420001453F
:100370007C40F0292429F0F0282528F07C545545AC
:10038000002054547C547C0A097F4932494949323F
:100390003248484832324A4848303A4141217A3A54
:1003A00042402078009DA0A07D39444444393D401E
:1003B00040403D3C24FF2424487E4943662B2FFCCB
:1003C0002F2BFF0929F620C0887E09032054547979
:1003D000410000447D413048484A32384040227A4A
:1003E000007A0A0A727D0D19317D2629292F2826C7
:1003F0002929292630484D402038080808080808CF
:100400000808382F10C8ACBA2F102834FA00007B27
:10041000000008142A142222142A1408950022002D
:1004200095AA005500AAAA55AA55AA000000FF00E7
:10043000101010FF00141414FF001010FF00FF1024
:1004400010F010F0141414FC001414F700FF000056
:10045000FF00FF1414F404FC141417101F10101FD5
:10046000101F1414141F00101010F0000000001FC3
:10047000101010101F10101010F010000000FF10CE
:100480001010101010101010FF10000000FF1400CA
:1004900000FF00FF00001F10170000FC04F41414FC
:1004A0001710171414F404F40000FF00F7141414C8
:1004B00014141414F700F7141414171410101F1048
:1004C0001F141414F4141010F010F000001F101F6B
:1004D0000000001F14000000FC140000F010F010D9
:1004E00010FF10FF141414FF141010101F00000050
:1004F00000F010FFFFFFFFFFF0F0F0F0F0FFFFFF54
:100500000000000000FFFF0F0F0F0F0F38444438AA
:10051000447C2A2A3E147E02020606027E027E02E5
:1005200063554941633844443C04407E201E200604
:10053000027E020299A5E7A5991C2A492A1C4C7241
:1005400001724C304A4D4D303048784830BC625AC8
:10055000463D3E494949007E0101017E2A2A2A2A58
:100560002A44445F444440514A444040444A514034
:100570000000FF0103E080FF000008086B6B0836F5
:1005800012362436060F090F060000181800000066
:100590001010003040FF0101001F01011E00191D55
:1005A0001712003C3C3C3C0000000000F0F89C8E20
:1005B0008783878E9CF8F00000FEFF03030303038C
:1005C000070EFCF80000FEFF0303030303070EFC05
:1005D000F80000FFFF00000000000000FFFF000027
:1005E000FEFF8383838383C7EE7C380000F8FC0E14
:1005F00007030303070EFCF800003F7FE0C0808084
:10060000C0E07F3FFFFF01010101010101FFFF0089
:1006100000FFFF0C0C0C0C1C3E77E3C100007FFFB9
:10062000C0C0C0C0C0E0703F1F00001F3F70E0C0EE
:10063000C0C0E0703F1F00007FFFC1C1C1C1C1E366
:10064000773E1C00001F3F70E0C0C0C0E0703F1F3D
:10065000000000000001FFFF01000000D5F08D1434
:10066000A1C881CFD9F1AF2000080B00020202001F
:100670000009040000010202000005240010010529
:100680002401010104240206052406000107058156
:100690000310004009040100020A000000070502DF
:1006A0000240000007058302400000040309041211
:1006B000010002EF020140412336800001010203E4
:1006C0000141726475696E6F204C4C430041726445
:1006D00075696E6F204C656F6E6172646F002020CB
:1006E000000000000000000000000000000000000A
:1006F00000000000000000000000000000000000FA
:1007000000000000000000000000000000000000E9
:1007100000000000000000000000000000000000D9
:100720000000000000000000FE010202E2A2E2025E
:100730000202E2A2E2020201FE000000000000004C
:10074000000000000000000001020408097191543B
:1007500054549171090804020100000000000000D7
:100760000000000000000000000000000000000089
:100770000000000000000000000000000000000079
:100780000000000000000000000000000000000069
:100790000000000000000000000000000000000059
:1007A0000000000000000000FE0102027A6A7A02E6
:1007B00002027A6A7A020201FE00000000000000D4
:1007C00000000000000000000102040808709057BB
:1007D0005757907008080402010000000000000054
:1007E0000000000000000000000000000000000009
:1007F00000000000000000000000000000000000F9
:1008000000000000000000000000000000000000E8
:1008100000000000000000000000000000000000D8
:100820000000000000000000FE010202E2E2C2023D
:100830000202E2E2C2020201FE000000000000002B
:10084000000000000000000001020408087090543D
:1008500054549070080804020100000000000000D9
:100860000000000000000000000000000000000088
:100870000000000000000000000000000000000078
:100880000000000000000000000000000000000068
:100890000000000000000000000000000000000058
:1008A0000000000000000000FE010202422242029D
:1008B0000202422242020201FE000000000000008B
:1008C00000000000000000000102040808709052BF
:1008D000525290700908040201000000000000005C
:1008E0000000000000000000000000000000000008
:1008F00000000000000000000000000000000000F8
:1009000000000000000000000000000000000000E7
:1009100000000000000000000000000000000000D7
:100920000000000000000000FE01020202020202BC
:100930000202020202020201FE00000000000000AA
:10094000000000000000000001020408097191503D
:1009500054509171090804020100000000000000D9
:100960000000000000000000000000000000000087
:100970000000000000000000000000000000000077
:100980000000000000000000000000000000000067
:100990000000000000000000000000000000000057
:1009A0000000000000100000FE010202022202020C
:1009B0000202022202020201FE00024010000000B8
:1009C00000000100000001000102040808739050BB
:1009D000525090730808040201000000000000005B
:1009E0000000000000000000000000000000000007
:1009F00000000000000000000000000000000000F7
:100A0000000000000000000000000000000C3E128A
:100A10003E123E0C0000000000000000000000003C
:100A20000000000000000000FE01020242824202BB
:100A30000202428242020201FE00000000000000A9
:100A4000000000000000000001020408097091503D
:100A500054509170090804020100000000000000D9
:100A60000000000000000000000000000000000086
:100A70000000000000000000000000000000000076
:100A80000000000000000000000000000000000066
:100A90000000000000000000000000000000000056
:100AA0000000000000000000FE010202E282C2021B
:100AB0000202C282E2020201FE0000000000000009
:100AC00000000000000000000102040809719154B8
:100AD0005454917109080402010000000000000054
:100AE00037119B1711241FBECFEFDAE0DEBFCDBF59
:100AF00011E0A0E0B1E0ECE8F9E302C005900D924E
:100B0000A838B107D9F727E0A8E8B1E001C01D92E5
:100B1000A634B207E1F715E0C1E7D5E004C021979C
:100B2000FE010E94B31AC037D107C9F70E949E1276
:100B30000C94B91C0C940000CF92DF92EF92FF92BC
:100B40000F931F93CF93DF93EEEDF6E03491EFED2B
:100B5000F6E0E49140EE56E08823D1F061E070E0E9
:100B60009E2F977011F470E060E04E2F46954695E9
:100B70004695460F572F511D349FB001359F700D7C
:100B80001124869FA001879F500D11244052594F78
:100B90004115510509F444C0732F313508F070E553
:100BA00091E08E2F877009F490E0E695E695E69542
:100BB0009E0F983008F097E021E0290F61E0C0EB2C
:100BC000D0E0832F90E0261759F1DE01AD54BE4FDF
:100BD00010E000E00717F0F4FA01E00FF11FE491D4
:100BE00030E2E39F6001112467FF0DC07D01E0E862
:100BF000EE0EF11CF7013081307E3D2930830F5F0E
:100C00001F4F1196E7CF3C913F713C293C936730D1
:100C1000B4F7ECCF6F5F480F591FC058DF4FD3CFE9
:100C2000DF91CF911F910F91FF90EF90DF90CF90C8
:100C30000895480F592F511D1416150684F5803854
:100C400091056CF597FF02C090E080E041385105B6
:100C500014F040E850E0481BFB01E770FF2721E05B
:100C600001C0220FEA95EAF777FF02C0695F7F4F64
:100C7000FB0133E0F595E7953A95E1F7F695FE2F00
:100C8000EE27F795E795E80FF91FED54FE4F415019
:100C900030F08191DF011197822B8C93F8CF08956A
:100CA0002F923F924F925F926F927F928F929F927C
:100CB000AF92BF92CF92DF92EF92FF920F931F936A
:100CC000CF93DF93CDB7DEB72E970FB6F894DEBF84
:100CD0000FBECDBF7E876D875A0169012617370782
:100CE0000CF00AC1E616F7060CF41FC13D852E85EF
:100CF000DE86CD86C32ED22E382F292FC501A32EF6
:100D0000B22E2D853E852E153F05D1F5A816B906C4
:100D100054F0382F292F8A159B0514F43A2D2B2DCA
:100D20005C01832F922F0A151B052CF08017910769
:100D30000CF4C80185012D853E852034310508F06D
:100D400003C18F5F482F401BB901C8012E960FB613
:100D5000F894DEBF0FBECDBFDF91CF911F910F91F1
:100D6000FF90EF90DF90CF90BF90AF909F908F90CB
:100D70007F906F905F904F903F902F900C9419064A
:100D8000302F212F8C01832F922F3E2D2F2DED847C
:100D9000FE843D872E879501201B310B38872F83DA
:100DA00096012E193F093A8729873C01601A710A7A
:100DB0002D853E852E193F093A8329839C012A19E6
:100DC0003B093C832B838D859E858C199D099C87CF
:100DD0008B872D853E852C153D0509F442C0C60143
:100DE00001979E838D834701512C412C312C212C5E
:100DF0008D819E8188159905CCF1C10169857A851F
:100E00000E948B1A9B01200F311FC20169817A81D8
:100E10000E948B1A600F711F8F819885280E391ED2
:100E2000460C571C621773071CF4922F9B01692F05
:100E300090E48916910438F46F5F462F421BB40189
:100E4000C9010E9419062FEF821A920AD1CF3A2DBA
:100E50002B2D5C01832F922F3D852E85DE86CD863E
:100E600070C02D853E853E832D83BDCFC4018C1976
:100E70009D092B813C81829F6001839FD00C929FB2
:100E8000D00C1124C4018E199F09869D7001879D85
:100E9000F00C969DF00C11248D859E858815990582
:100EA0000CF452C0C6016B857C850E948B1A9B0195
:100EB0002A0D3B1DC70169817A810E948B1A600F40
:100EC000711F8B819C81C80ED91EE60CF71C62171E
:100ED00073071CF4922F9B01692F90E489169104EB
:100EE00038F46F5F462F421BB401C9010E941906F6
:100EF0002FEF821A920AD0CFE216F3060CF001CF40
:100F00002D853E85E216F3060CF4A1CF302F212F5C
:100F10008A015C01832F922F3C2D2D2DCD84DE8400
:100F2000FE86ED86E32EF22EE1CEE216F3060CF4F9
:100F300032CF302F212F8501A32EB22E3E2D2F2D03
:100F40007601C32ED22E27CF2E960FB6F894DEBF91
:100F50000FBECDBFDF91CF911F910F91FF90EF900A
:100F6000DF90CF90BF90AF909F908F907F906F90C9
:100F70005F904F903F902F900895E3EBF1E0A0E059
:100F8000B8E000800EBC8111012C1197A0FDFDCFAF
:100F90000192B9F70DB40895FC018091B201882344
:100FA00011F13FB7F89482E08093E9002091F200BC
:100FB000822F90E01816190614F481E090E088233F
:100FC00039F0289844E64093B1014091F100408304
:100FD000222339F02091F200211103C02BE6209347
:100FE000E8003FBF08958FEF9FEF08952FB7F89463
:100FF00083E08093E9009091E800892F807295FF4B
:1010000004C09091F20080E4891B2FBF0895809165
:10101000A90181110DC082E08093A50184E0809335
:10102000A6011092A8011092A70181E08093A90166
:1010300085EA91E00895CF93DF931F92CDB7DEB795
:101040006983DC01ED91FC910280F381E02D41E0A8
:1010500050E0BE016F5F7F4F09950F90DF91CF91F8
:10106000089583E08093E9008091F200882319F0CD
:101070008AE38093E80008950E94F60790E00895BF
:10108000CF93DF931F92CDB7DEB7FC0184859585A2
:1010900097FD08C02FEF3FEF358724870F90DF9132
:1010A000CF910895CE0101960E94CC07019719F4C3
:1010B000898190E0F3CF8FEF9FEFF0CF0F931F93D5
:1010C000CF93DF931F92CDB7DEB78C01FC018485EF
:1010D000958597FF0BC0CE0101960E94CC07019722
:1010E00071F4898190E0F80195878487F8018485FF
:1010F00095850F90DF91CF911F910F9108958FEFFC
:101100009FEFF1CFFC018485958597FD0BC09FB7BC
:10111000F89482E08093E9008091F2009FBF90E014
:10112000019608959FB7F89482E08093E90080913A
:10113000F2009FBF90E0089540919F015091A0015F
:1011400020919D0130919E0142175307B4F4909174
:10115000E8009570E1F39091E80092FD19C080934A
:10116000F10080919F019091A00101968F739927C2
:10117000892B19F48EEF8093E80080919F01909164
:10118000A00101969093A00180939F0181E00895B2
:1011900080E00895DF92EF92FF920F931F93CF9319
:1011A000DF93D82E8A01EB017B01E40EF51ECE15EC
:1011B000DF0559F0D7FE12C0FE0184910E949C0801
:1011C00021968111F4CF0FEF1FEFC801DF91CF916E
:1011D0001F910F91FF90EF90DF9008958881EECFDF
:1011E0000F931F93CF93DF931F92CDB7DEB782E0AB
:1011F000898342E450E069E676E080E80E94CA080C
:101200000E940708DC0112960D911C910115110531
:1012100089F0D801ED91FC910280F381E02DBE01AF
:101220006F5F7F4FC801099597FD04C0F8010085E5
:101230001185ECCF89810F90DF91CF911F910F9194
:101240000895615030F02091F100FC012083019657
:10125000F8CF289884E68093B1010895AF92BF92A9
:10126000CF92DF92EF92FF920F931F93CF93DF9372
:101270006C017B018B01040F151FEB015E01AE18A1
:10128000BF08C017D10759F06991D601ED91FC91C3
:101290000190F081E02DC6010995892B79F7C501F0
:1012A000DF91CF911F910F91FF90EF90DF90CF9042
:1012B000BF90AF9008953FB7F894809189019091C5
:1012C0008A01A0918B01B0918C0126B5A89B05C025
:1012D0002F3F19F00196A11DB11D3FBFBA2FA92FB5
:1012E000982F8827BC01CD01620F711D811D911DB2
:1012F00042E0660F771F881F991F4A95D1F708951E
:101300008F929F92AF92BF92CF92DF92EF92FF9215
:101310006B017C010E945B094B015C01C114D1048B
:10132000E104F104B9F00E945B09681979098A099E
:101330009B09683E73408105910580F321E0C21A44
:10134000D108E108F10888EE880E83E0981EA11C00
:10135000B11CE4CFFF90EF90DF90CF90BF90AF90A3
:101360009F908F9008958F929F92AF92BF92CF924D
:10137000DF92EF92FF920F931F93CF93DF936C0155
:101380007B018A0180910B01882309F45CC0809164
:10139000B201882309F457C08091A40180FF05C0E1
:1013A0008091E00082608093E000E801B12C8AEF38
:1013B000A82E93E0892E2AE3922E209711F4BB20C9
:1013C000D9F10E94F60781110AC0AA94AA20D9F186
:1013D00061E070E080E090E00E948009EECF8C1721
:1013E0001D0611F00CF08C2F9FB7F8948092E90045
:1013F0002091E80025FD02C09FBFDFCF282F30E0FD
:10140000C21BD30BF701815020F041914093F100B2
:10141000FACFE20EF31EBB2021F09092E800B12C2F
:10142000EBCF8091E80085FDE7CF9092E800BB24E8
:10143000B394209709F3F3CF5D9884E68093A301DA
:10144000101611063CF081E090E0F6019383828350
:1014500010E000E0C801DF91CF911F910F91FF9044
:10146000EF90DF90CF90BF90AF909F908F900895B6
:101470002D9A0895BC0190E080E00C9480098FB112
:101480008095807F669B88601C9B8460089520E126
:1014900091E061FD94E060FD990F62FD9295687F97
:1014A000269FD0011124A80FAD54BE4F8C9140FF50
:1014B00003C0892B8C93089590958923FBCF2F929D
:1014C0003F924F925F926F927F928F929F92AF92D4
:1014D000BF92CF92DF92EF92FF920F931F93CF9321
:1014E000DF93CDB7DEB728970FB6F894DEBF0FBEF7
:1014F000CDBF9E838D836A3061F5DC0155968C915A
:10150000B8E08B9F90011124ED81FE818189928941
:10151000820F931F928B818B108A178681E090E057
:1015200028960FB6F894DEBF0FBECDBFDF91CF91E6
:101530001F910F91FF90EF90DF90CF90BF90AF90F1
:101540009F908F907F906F905F904F903F902F90E3
:1015500008956D3019F32D813E8138872F83D9018D
:101560001F960D911C915097003811050CF07CC00E
:101570005196AD90BC90B0E4AB16B1040CF074C0C1
:10158000F901258825E0C801229E800D911D1124B6
:10159000181619060CF068C0622C712CC30133E0D8
:1015A000880F991F3A95E1F78A0D9B1D18161906A9
:1015B0000CF05AC0F489FB83AF81B8855396BC9177
:1015C000BC83629FB0011124FB01E455FF4F2F0142
:1015D0001982F2018491F981F53009F480E0450126
:1015E00028E02A83A82FB0E0BE83AD833C8080FF33
:1015F0003B80311004C0BB81EC81BE17F9F078014B
:101600008E2D801B8215D0F4D12CC12CC21490F4E5
:10161000F0E8EF16F10450F4B601680D791D60345E
:10162000710520F4432DC7010E94470A2FEFC21A0B
:10163000D20AECCF3FEFE31AF30AE2CF8D819E810D
:10164000959587959A8191509A83860C971C911154
:10165000C9CFA981AF5FA983BFEF4B1A5B0A060D03
:10166000171DA63009F0B5CFEF81F8852589422FE7
:1016700050E087859089F6E02F9F800D911D112401
:10168000AF81B88550969C938E931F9756962C9158
:101690005697222309F442CF6AEF64039001659FB5
:1016A000300D112420583F4F281739070CF036CF42
:1016B000ED91FC9111970190F081E02D6AE0CD0150
:1016C00009952CCF0895089590E080E00895FC01DD
:1016D00001900020E9F73197AF01481B590BBC017D
:1016E00083E096E00C942E098F929F92AF92BF9266
:1016F0000F931F93CF93DF93CDB7DEB7A1970FB6AC
:10170000F894DEBF0FBECDBF19A2423008F44AE004
:101710008E010F5D1F4F842E912CB12CA12CA501A1
:1017200094010E944A19E62FB901CA01EA30F4F483
:10173000E05DD801EE938D01232B242B252B79F727
:1017400090E080E0109719F0CD010E94670BA19600
:101750000FB6F894DEBF0FBECDBFDF91CF911F91C2
:101760000F91BF90AF909F908F900895E95CE1CF6B
:101770004F925F926F927F928F929F92AF92BF92A1
:10178000CF92DF92EF92FF920F931F93CF936B0153
:101790007C01742EAC019B010E94861A882399F06B
:1017A0008FE391E0CF911F910F91FF90EF90DF9029
:1017B000CF90BF90AF909F908F907F906F905F90F1
:1017C0004F900C94670B46015701E894B7F82FEF40
:1017D0003FEF4FE75FE7C501B4010E94861A811110
:1017E0000DC02FEF3FEF4FE75FE7C501B4010E9447
:1017F000D91718161CF483E491E0D4CF2FEF3FEFF4
:101800004FE75FE4C701B6010E94811A18161CF465
:1018100087E491E0C7CF2FEF3FEF4FE75FECC701C1
:10182000B6010E94D91787FDF3CF20E030E0A9016F
:10183000C701B6010E94D91710E000E087FF0AC077
:101840006DE283E096E00E945F0A8C01F7FAF09463
:10185000F7F8F094C0E060E070E080E09FE37C1671
:1018600041F020E030E040E251E40E94D919CF5F1E
:10187000F6CFA70196010E946D192B013C010E9431
:10188000521A4B015C014AE00E94740B7C01E00E8D
:10189000F11ECC23C1F1C501B4010E94DE179B01EA
:1018A000AC01C301B2010E946C194B015C016EE2F4
:1018B00083E096E00E945F0AE80EF91EC15018F11D
:1018C00020E030E040E251E4C501B4010E943F183D
:1018D0002B013C010E94521A4B01B12CA12C4AE071
:1018E000C501B4010E94740BE80EF91EC501B401D4
:1018F0000E94DE179B01AC01C301B2010E946C196A
:101900004B015C01DBCFC701CF911F910F91FF907D
:10191000EF90DF90CF90BF90AF909F908F907F908F
:101920006F905F904F9008950C94FD180E949B1C3F
:101930000F931F93CF93DF93EC01888199810097D8
:1019400059F02A813B812617370730F081E0DF917B
:10195000CF911F910F9108958B016F5F7F4F0E9470
:10196000DE1B009759F0998388831B830A832C819F
:101970003D81232B59F7FC011082E8CF80E0E7CFAF
:10198000CF93DF93EC0188819981009711F00E9439
:10199000551B198218821D821C821B821A82DF91BC
:1019A000CF910895EF92FF920F931F93CF93DF9300
:1019B000EC018617970781F0FB0100811181011569
:1019C000110539F0E480F580B7010E94980C81116F
:1019D0000BC0CE010E94C00CCE01DF91CF911F91B0
:1019E0000F91FF90EF900895FD82EC82B8018881FD
:1019F00099810E94B21CF0CFFC01808191810097F7
:101A000011F00C94551B08951F920F920FB60F9270
:101A100011248F939F938091E1009091E100937F37
:101A20009093E10083FF0FC01092E90091E0909342
:101A3000EB001092EC0092E39093ED001092B20153
:101A400098E09093F00082FF22C093E09093E90029
:101A50009091F200992319F09AE39093E800909105
:101A6000A301992341F09091A30191509093A30178
:101A7000911101C05D9A9091B101992341F090912B
:101A8000B10191509093B101911101C0289A84FF46
:101A900018C08091E2008E7E81608093E200809188
:101AA000E1008F7E8093E1008091A4018E7E8061B1
:101AB0008093A4019F918F910F900FBE0F901F9064
:101AC000189580FFF7CF8091E2008E7E8061809331
:101AD000E2008091E1008E7E8093E1008091A4017C
:101AE0008E7E8160E5CF1F920F920FB60F92112468
:101AF000CF92DF92EF92FF920F931F932F933F931A
:101B00004F935F936F937F938F939F93AF93BF9305
:101B1000EF93FF93CF93DF93CDB7DEB76C97DEBF24
:101B2000CDBF1092E9008091E80083FF25C068E0F6
:101B3000CE0145960E94210982EF8093E8008D89AD
:101B400087FF39C09091E80090FFFCCF982F9076E6
:101B500009F034C19E894F89588D2F89F88C9111D5
:101B600031C0803861F58091A2018093F10010921C
:101B7000F1008EEF8093E8006C960FB6F894DEBF0C
:101B80000FBECDBFDF91CF91FF91EF91BF91AF918C
:101B90009F918F917F916F915F914F913F912F9185
:101BA0001F910F91FF90EF90DF90CF900F900FBE9D
:101BB0000F901F9018959EEF9093E800C7CF10925A
:101BC000F100D5CF913059F48111D3CF4130510577
:101BD00081F68091A2018D7F8093A201CACF9330BC
:101BE00049F48111C6CF4130510519F68091A20107
:101BF0008260F2CF953041F48091E80080FFFCCF05
:101C000020682093E300B5CF963009F0A9C00B8D72
:101C10001C8D22E01092E9001092A00110929F0109
:101C2000F2122EC010929E0110929D010E94F008A7
:101C30001F8299E09983FA8291E09E8390EA9887C7
:101C40009AEF998720919F013091A001275F3F4F24
:101C50003C832B838D831092E9001092A001109297
:101C60009F0110939E0100939D0149E050E0BE0149
:101C70006F5F7F4F80E00E94CA080E94F00879CF12
:101C800010939E0100939D010E940708DC011296AB
:101C90000D911C910115110509F451C1D801ED9167
:101CA000FC910480F581E02DBE016B5E7F4FC80181
:101CB0000995009709F03EC1F80100851185EACF2A
:101CC000F3E0FF120EC08F89882309F440C08230F0
:101CD00061F440E860E18DEC96E00E94EF0F811125
:101CE00048CF81E28093EB0047CF813029F440E870
:101CF0006BE081EC96E0F1CF833099F70E94070802
:101D0000DC011296ED90FC908E010F5F1F4F680171
:101D1000E114F10479F0D701ED91FC910680F7818F
:101D2000E02DB801C7010995080F111DF701E084E6
:101D3000F184EECFD8011C92F60101900020E9F762
:101D40003197BF016C197D0940E0C601C6CF6BEA2F
:101D500076E0FB01449150E080E80E94CA0809CF78
:101D6000973009F4BECF983021F481E08093F100E0
:101D700000CF993009F0FDCE837009F0B2CFE3E1D6
:101D8000F1E081E031E096E32191222371F080932C
:101D9000E9003093EB00DF0111972C912093EC00C8
:101DA0009093ED008F5F873079F78EE78093EA009C
:101DB0001092EA008F898093B201DBCE8B8D9C8DCF
:101DC0001092E9001092A00110929F0190939E0141
:101DD00080939D01898D811192C08E899D89913A50
:101DE00049F4813209F07DCF47E050E064E071E0D2
:101DF00080E0B3CF913209F074CF833269F48F89D8
:101E0000988DB0E0A0E08093000190930101A09331
:101E10000201B0930301ADCE803269F48091E800F5
:101E200082FFFCCF67E084E091E00E9421098BEF04
:101E30008093E8009ECE823209F09BCE8F898093FA
:101E40000B01EEEFFFE7859194918B3F9C4D51F193
:101E5000E0E0F8E08091040190910501A091060175
:101E6000B0910701803B9440A105B105F1F4809148
:101E70000B0180FD1AC0EE3F8AE0F80789F587E77D
:101E800097E791838083809160008093A10188E12E
:101E90009BE00FB6F894A895809360000FBE9093D6
:101EA000600067CEEEEFFAE0D5CF80819181873771
:101EB000974709F05ECEA895809160008861809375
:101EC00060008091A10180936000EE3F2AE0F2075C
:101ED00089F08091FE0A9091FF0A9183808349CE18
:101EE000808191818737980751F29093FF0A809300
:101EF000FE0AC5CF1092FF0A1092FE0A3ACE0E9447
:101F00000708DC0112960D911C910115110509F4C9
:101F1000E8CED801ED91FC910190F081E02DBE0159
:101F20006B5E7F4FC8010995811123CEF8010085B2
:101F30001185EBCF181619060CF41BCED2CEF1E0AA
:101F4000FF12BECE6FEA76E004CF1F920F920FB65B
:101F50000F9211242F933F938F939F93AF93BF932F
:101F600080918D0190918E01A0918F01B09190018F
:101F70003091880123E0230F2D3758F50196A11DDC
:101F8000B11D2093880180938D0190938E01A093C1
:101F90008F01B09390018091890190918A01A09165
:101FA0008B01B0918C010196A11DB11D8093890117
:101FB00090938A01A0938B01B0938C01BF91AF9154
:101FC0009F918F913F912F910F900FBE0F901F9077
:101FD000189526E8230F0296A11DB11DD2CFEF92CE
:101FE000FF920F931F93CF93DF93F82E192FE62EB6
:101FF000042F81E0860F880F0E949C0883E00E94D6
:102000009C08CF2DD12FEC0EFD2EF11CCE15DF0537
:10201000B9F007FF13C0FE0184910E949C08182F9D
:1020200080E00E949C08812321968111EFCFDF91EF
:10203000CF911F910F91FF90EF9008958881EDCF80
:1020400081E0F5CFFC01138212821186128680E1B5
:1020500083871086178215868FE291E091838083B3
:102060008DE391E095838483108A1786128A118A02
:1020700081E0838B148A858B168A0895CF93DF9332
:10208000EC0183E096E00E942210E3E0F6E0108E7F
:10209000178A8A819B81938382838F819885908719
:1020A0008783898581878A8582878B8583878C85CD
:1020B00084878D8585878E8586878F859889908B87
:1020C000878789899A89928B818B8B89838B8C896D
:1020D000848B8D89858B8E89868BDF91CF91089536
:1020E000CF93DF93EC018EE196E00E942210EEE1A7
:1020F000F6E08A819B81938382838F819885908784
:102100008783898581878A8582878B8583878C856C
:1021100084878D8585878E8586878F859889908B26
:10212000878789899A89928B818B8B89838B8C890C
:10213000848B8D89858B8E89868BDF91CF910895D5
:102140000F931F93CF93DF93EC018B0119821882B9
:102150001B821A821D821C820E94D20CF801868189
:1021600097819F838E8380859185998788878285D3
:1021700093859B878A8784859585A685B7858C8777
:102180009D87AE87BF8780899189A289B389888B13
:10219000998BAA8BBB8BDF91CF911F910F910895E3
:1021A000EF92FF920F931F93CF93DF93EC017B018C
:1021B000198218821B821A821D821C82FB010190E7
:1021C0000020E9F731978F01061B170BB8010E9419
:1021D000980C811109C0CE01DF91CF911F910F9111
:1021E000FF90EF900C94C00C1D830C83B701888185
:1021F0009981DF91CF911F910F91FF90EF900C94F7
:10220000B21C8F929F92AF92BF92CF92DF92EF92C9
:10221000FF920F931F93CF93DF93EC016B017A0131
:10222000480159016FE771E00E94D010B601CE015C
:102230000E94D20CFF82EE821986188685E090E01B
:102240009B878A871C861D861E861F86888A998A98
:10225000AA8ABB8ADF91CF911F910F91FF90EF90D7
:10226000DF90CF90BF90AF909F908F900895CF92C6
:10227000DF92EF92FF920F931F93CF93DF93CDB72F
:10228000DEB767970FB6F894DEBF0FBECDBFE3EBA6
:10229000F5E01382128288EE93E0A0E0B0E0848340
:1022A0009583A683B7838DE191E0918380838FEF3F
:1022B0009FEF958784876BE471E080E397E00E944D
:1022C000D01060E571E086E397E00E94D01065E5EC
:1022D00071E08CE397E00E94D01069E571E080E046
:1022E00097E00E94D0106FE571E086E097E00E94D1
:1022F000D01066E671E08CE097E00E94D0106CE6AA
:1023000071E082E197E00E94D01060E771E088E11F
:1023100097E00E94D01066E771E08EE197E00E949E
:10232000D0106BE771E084E297E00E94D01060E883
:1023300071E08AE297E00E94D0106FE571E0CE0173
:1023400001960E94D01000E010E020E83FE34AE050
:1023500050E0BE016F5F7F4F8CEE96E00E9401114E
:10236000CE0101960E94FC0C66E671E0CE0101965A
:102370000E94D01000E010E020E03FE34AE050E08F
:10238000BE016F5F7F4F88ED96E00E940111CE0184
:1023900001960E94FC0C6CE671E0CE0101960E9451
:1023A000D01000E010E020E83EE34AE050E0BE013B
:1023B0006F5F7F4F84EC96E00E940111CE01019681
:1023C0000E94FC0C60E871E0CE0101960E94D010E2
:1023D00000E010E0980142E350E0BE016F5F7F4FE4
:1023E00080EB96E00E940111CE0101960E94FC0C48
:1023F0006BE771E0CE0101960E94D01000E010E082
:1024000020E83FE34AE050E0BE016F5F7F4F8CE978
:1024100096E00E940111CE0101960E94FC0C6CEE28
:1024200076E08CE496E00E94A01068ED76E080E60D
:1024300096E00E94A01064EC76E084E796E00E94AB
:10244000A01060EB76E088E896E00E94A01085E39B
:1024500096E00E94221005E316E0F8018281938144
:102460009C838B83878190859987888781858A87DC
:1024700082858B8783858C8784858D8785858E87EC
:1024800086858F878FE2C82E81E0D82EDA82C982B6
:102490009DE3E92E91E0F92EFE82ED8287859089F9
:1024A000998B888B818992899B8B8A8B83898C8B72
:1024B00084898D8B85898E8B86898F8BCE01019641
:1024C0000E947010F801828193819C838B838781A5
:1024D00090859987888781858A8782858B87838580
:1024E0008C8784858D8785858E8786858F87DA8220
:1024F000C982FE82ED8287859089998B888B81893C
:1025000092899B8B8A8B83898C8B84898D8B85891F
:102510008E8B86898F8BCE0101960E943E10679626
:102520000FB6F894DEBF0FBECDBFDF91CF911F91E4
:102530000F91FF90EF90DF90CF900895789484B53D
:10254000826084BD84B5816084BD85B5826085BDAF
:1025500085B5816085BD80916E00816080936E003D
:10256000109281008091810082608093810080912F
:1025700081008160809381008091800081608093E0
:102580008000809191008260809391008091910001
:102590008160809391008091900081608093900091
:1025A0008091C10084608093C1008091C1008260ED
:1025B0008093C1008091C10081608093C1008091AF
:1025C000C30081608093C3008091C00082608093CB
:1025D000C0008091C20081608093C20080917A0027
:1025E000846080937A0080917A00826080937A0080
:1025F00080917A00816080937A0080917A0080686F
:1026000080937A001092B2011092A2011092A4015C
:102610008091D70081608093D70080EA8093D800B2
:1026200089B5806189BD89B5826089BD09B400FE24
:10263000FDCF61E070E080E090E00E948009809131
:10264000D8008F7C80618093D8008091E000807FEB
:102650008093E0008091E1008E7E8093E1008DE028
:102660008093E200559A209A81EC80937C0085B19A
:10267000806F85B984B1877E84B984B1876E84B94F
:102680005E9A5F988AB1806D8AB9769A6E9881B3A6
:10269000806F81BB899880B38D7080BB80E58CBDD5
:1026A00081E08DBD85E090E00E943A0A5F9A85E066
:1026B00090E00E943A0A5E985C98ECE5F6E084911E
:1026C0008EBD00000DB407FEFDCF319626E0E93641
:1026D000F207A9F75C9A81E8809364008091650015
:1026E00081608093650080E00E94BD070E943F0AE0
:1026F00087FF15C05C9885EA8EBD00000DB407FE0B
:10270000FDCF5C9A2E982F982D988091640080625E
:102710008093640081E083BF889513BEFCCF0E9444
:102720003F0A82FF48C02D980E943F0A847884386F
:10273000E1F40E94380A88EC90E00E943A0A2F984F
:1027400082E090E00E94FD188F3F29F06FEF82E059
:1027500090E00E94051984EF91E00E943A0A2F9AB6
:102760000E943F0A84788438D9F30E943F0A84711A
:102770008431E1F40E94380A88EC90E00E943A0A21
:102780002E9882E090E00E94FD18882329F060E0F6
:1027900082E090E00E94051984EF91E00E943A0ADD
:1027A0002E9A0E943F0A84718431D9F388EC90E01C
:1027B0000E943A0AB4CF0E94380A82E090E00E9458
:1027C000940C882309F44AC03E9A3F9A81E090E035
:1027D0000E94940C382F3470932E81FF0EC031115B
:1027E0002E98C0EFDFEF08E010E00E943F0A86FF5E
:1027F00038C02E9A2F9A0E94380A82E390E00E94F5
:102800003A0A0E943F0A8111F8CF82E48093400681
:1028100032E0432E512C9924939426E0822E8FB7D8
:10282000F89440918D0150918E0160918F017091CB
:1028300090018FBF80914106942F981B8091420692
:10284000882309F4A2C0909343061092420680E0C8
:1028500090E0892B21F30E940000DDCF3E983F9845
:10286000B5CF992029F0C430D10511F42E9A2F98B4
:1028700081E00E94BD079E01D7FF04C022273327B5
:102880002C1B3D0B27703327CE01D7FD079673E035
:10289000959587957A95E1F7D7FF05C00197A8012F
:1028A000421B530B9A01AC015695542F4427579560
:1028B00047954D545E4FD12CC12C3801621A730AD2
:1028C0008F3F6FEF96070CF43AC07A01E4E9EE0E01
:1028D000F11CDA0170E060E0F601E455FA4F5F01A7
:1028E0008F3F980781F0F501E60FF71FE491022E64
:1028F00001C0EE0F0A94EAF75496FC915497EF2B1F
:102900005496EC9354972115310581F0F501E60FAB
:10291000F71FE491F0E02F01062C02C05594479474
:102920000A94E2F7F7018080482840826F5F7F4F6A
:10293000FFEFEF1AFF0A11966835710589F60196C7
:1029400068E5C60ED11C40585F4FE0EBCE16D104AF
:1029500009F0B6CF80E00E94BD078FE090E00E94B2
:102960003A0A2196C931D10509F03FCF992011F0DB
:102970002F9A2D9880E991E00E943A0A0E94380A25
:1029800085E396E00E94561738CF209140069217B3
:1029900040F49F5F921708F05ACF93BE889513BEFC
:1029A00056CF909242064093410620913C063091CA
:1029B0003D062F5F3F4F30933D0620933C06E3EBEF
:1029C000F1E081118FEF00248193819381938193B2
:1029D0000394D1F7109247061092460610924506CE
:1029E0001092440680913E0680933F060E943F0A63
:1029F00080933E0690913F0695FD10C085FF0EC066
:102A000020919B0130919C01121613060CF04DC0D1
:102A10002150310930939C0120939B0196FD10C0F9
:102A200086FF0EC020919B0130919C012230310520
:102A30000CF040C02F5F3F4F30939C0120939B01CF
:102A400093FD7CC083FF7AC080919B0190919C0193
:102A5000C0911A06D0911B06009789F56091540623
:102A600070915506072E000C880B990B0E94E017F9
:102A7000609358067093590680935A0690935B06AC
:102A80002197A1F56091B8067091B906072E000C48
:102A9000880B990B0E94E01760939406709395063B
:102AA000809396069093970649C050929C0140925D
:102AB0009B01B4CF10929C0110929B01C1CF813039
:102AC000910519F56091680670916906072E000C52
:102AD000880B990B0E94E01760936C0670936D064B
:102AE00080936E0690936F06229761F220E030E0AB
:102AF00040E85FE360919406709195068091960698
:102B0000909197060E946D19C7CF0297A9F4609122
:102B10007C0670917D06072E000C880B990B0E9495
:102B2000E0176093800670938106809382069093ED
:102B300083062397D9F6A6CFCD2BC1F680919A01B3
:102B40008111B9C08FB7F894C0908D01D0908E01DB
:102B5000E0908F01F09090018FBF8091960190914D
:102B60009701A0919801B0919901A7019601281BA6
:102B7000390B4A0B5B0BDA01C901883E9340A10572
:102B8000B10508F44FC08091940190919501019690
:102B900090939501809394018C33910509F077C04F
:102BA00041E050E05093930140939201CCE4D6E091
:102BB000288939894A895B896C857D858E859F85C1
:102BC0000E946D196C877D878E879F87649696E03B
:102BD000CC39D90769F780919101882309F403C1A1
:102BE0002091AC063091AD064091AE065091AF06F3
:102BF0006091A8067091A9068091AA069091AB06F3
:102C00000E946D196093A8067093A9068093AA0686
:102C10009093AB06C0929601D0929701E0929801F2
:102C2000F0929901CCE4D6E010E000E0B12CA12CA8
:102C30006C857D858E859F850E944B1A1B018A8538
:102C40009B85821593050CF0FCC06C807D8090E024
:102C5000C92E97E0D92EF12CE12CF60184819581C3
:102C60006816790609F0E2C08881998160817181D6
:102C7000009709F4C9C06115710509F0BFC061145E
:102C8000710409F4CFC0FC01808190E0C9C088378D
:102C9000910529F4509293014092920187CF883593
:102CA000924009F083CF90929A0186E090E0909351
:102CB0001B0680931A0684E690E090931306809397
:102CC000120610921506109214066091A8067091D3
:102CD000A9068091AA069091AB0642E00E94B80B2B
:102CE0000CE416E0D0E0C0E0109213061092120639
:102CF000D0931506C0931406F80164857585868502
:102D0000978542E00E94B80B2A960C5E1F4FC8328E
:102D1000D10551F71092130610921206D0931506A2
:102D2000C093140680911A0690911B06889EF001AC
:102D3000899EF00D1124E050F94F44815581608146
:102D4000718183E096E00E942E0980911A060E940C
:102D50009C05D0E0C0E041E064E370E0CE010E9459
:102D6000470A2196C038D105B1F726E330E0309309
:102D70002E0620932D0647E350E0509330064093F3
:102D80002F0680919B0190919C01889EF001899E65
:102D9000F00D1124E05DF84F44815581608171810F
:102DA0008EE196E00E942E098DE3E82EF12C03E0DF
:102DB00010E027E330E043E050E06AE370E090E0A9
:102DC00080E00E9450060CE710E027E330E04CE77B
:102DD00050E06AE370E08FE790E00E94500680E0E8
:102DE0000E94BD0734CD6091A4067091A506072E00
:102DF000000C880B990B0E94E01704CF0E94A91CBD
:102E00000FC01092910131C06115710559F0611424
:102E1000710441F0FB01808190E0919581959109C9
:102E2000892B21F40115110509F48701FFEFEF1A31
:102E3000FF0A26E0C20ED11C38E0E316F10409F0C7
:102E40000CCF8E819F81821593051CF44FEFA41A3D
:102E5000B40A649656E0CC39D50709F0E9CEAB2820
:102E600081F29092910105E010E06091A2067091CC
:102E7000A306072E000C880B990B0E94E0179B01FC
:102E8000AC016091A8067091A9068091AA06909164
:102E9000AB060E94811A181624F490929A0106E05B
:102EA00010E010931B0600931A0605CF0F931F9393
:102EB000CF93DF938C0181E090E00E94940C80FF1F
:102EC00032C08AE090E00E94940C9FEF980F9E3FE2
:102ED00050F522E330E0D80150963C932E931F9793
:102EE00028E330E052963C932E935197CBE0D0E00C
:102EF000D801ED91FC910190F081E02D682FC8017F
:102F00000995CE010E94940C2196C131D10581F71B
:102F100080E00E94BD0788EE93E0DF91CF911F9182
:102F20000F910C943A0ADF91CF911F910F91089560
:102F300004970C945617CF93DF9388E896E00E948D
:102F4000FC0C84E796E00E94FC0C80E696E00E9470
:102F5000FC0C8CE496E00E94FC0C8CE996E00E944C
:102F6000FC0C80EB96E00E94FC0C84EC96E00E9446
:102F7000FC0C88ED96E00E94FC0C8CEE96E00E9422
:102F8000FC0CC0E3D7E02697CE010E94FC0C87E042
:102F9000C030D807C1F78CE397E00E94FC0C86E3B1
:102FA00097E00E94FC0C80E397E0DF91CF910C94B6
:102FB000FC0C0E941B1808F481E00895E89409C0F5
:102FC00097FB3EF490958095709561957F4F8F4F5C
:102FD0009F4F9923A9F0F92F96E9BB279395F69572
:102FE000879577956795B795F111F8CFFAF4BB0FF0
:102FF00011F460FF1BC06F5F7F4F8F4F9F4F16C054
:10300000882311F096E911C0772321F09EE8872FDD
:10301000762F05C0662371F096E8862F70E060E099
:103020002AF09A95660F771F881FDAF7880F969512
:10303000879597F90895990F0008550FAA0BE0E8B6
:10304000FEEF16161706E807F907C0F0121613066A
:10305000E407F50798F0621B730B840B950B39F4AA
:103060000A2661F0232B242B252B21F408950A2610
:1030700009F4A140A6958FEF811D811D08950E943E
:1030800052180C94C3180E94B51838F00E94BC184E
:1030900020F0952311F00C94AC180C94B218112464
:1030A0000C94F7180E94D41870F3959FC1F3950FF4
:1030B00050E0551F629FF001729FBB27F00DB11DBC
:1030C000639FAA27F00DB11DAA1F649F6627B00D4C
:1030D000A11D661F829F2227B00DA11D621F739F35
:1030E000B00DA11D621F839FA00D611D221F749F43
:1030F0003327A00D611D231F849F600D211D822F8A
:10310000762F6A2F11249F5750409AF0F1F08823B0
:103110004AF0EE0FFF1FBB1F661F771F881F9150DD
:103120005040A9F79E3F510580F00C94AC180C94C8
:10313000F7185F3FE4F3983ED4F38695779567954B
:10314000B795F795E7959F5FC1F7FE2B880F911D07
:103150009695879597F9089597F99F6780E870E0AD
:1031600060E008959FEF80EC089500240A941616FD
:10317000170618060906089500240A941216130665
:10318000140605060895092E0394000C11F48823F3
:1031900052F0BB0F40F4BF2B11F460FF04C06F5F0F
:1031A0007F4F8F4F9F4F089557FD9058440F551FE5
:1031B00059F05F3F71F04795880F97FB991F61F0B9
:1031C0009F3F79F087950895121613061406551F30
:1031D000F2CF4695F1DF08C0161617061806991F9C
:1031E000F1CF86957105610508940895E894BB2791
:1031F00066277727CB0197F90895F999FECF92BDFD
:1032000081BDF89A992780B50895262FF999FECFA8
:103210001FBA92BD81BD20BD0FB6F894FA9AF99AF3
:103220000FBE019608952F923F924F925F926F9238
:103230007F928F929F92AF92BF92CF92DF92EF9246
:10324000FF920F931F93CF93DF93CDB7DEB7CA1BC7
:10325000DB0B0FB6F894DEBF0FBECDBF09942A88F2
:10326000398848885F846E847D848C849B84AA849A
:10327000B984C884DF80EE80FD800C811B81AA8127
:10328000B981CE0FD11D0FB6F894DEBF0FBECDBFF2
:10329000ED010895A1E21A2EAA1BBB1BFD010DC072
:1032A000AA1FBB1FEE1FFF1FA217B307E407F507F6
:1032B00020F0A21BB30BE40BF50B661F771F881FD2
:1032C000991F1A9469F760957095809590959B0168
:1032D000AC01BD01CF0108955058BB27AA270E9419
:1032E00084190C94C3180E94B51838F00E94BC18B9
:1032F00020F039F49F3F19F426F40C94B2180EF420
:10330000E095E7FB0C94AC18E92F0E94D41858F311
:10331000BA17620773078407950720F079F4A6F5BA
:103320000C94F6180EF4E0950B2EBA2FA02D0B017D
:10333000B90190010C01CA01A0011124FF27591BFA
:1033400099F0593F50F4503E68F11A16F040A22F00
:10335000232F342F4427585FF3CF46953795279571
:10336000A795F0405395C9F77EF41F16BA0B620B70
:10337000730B840BBAF09150A1F0FF0FBB1F661FB7
:10338000771F881FC2F70EC0BA0F621F731F841FFA
:1033900048F4879577956795B795F7959E3F08F020
:1033A000B0CF9395880F08F09927EE0F97958795E2
:1033B00008950E94ED190C94C3180E94BC1858F08F
:1033C0000E94B51840F029F45F3F29F00C94AC1826
:1033D00051110C94F7180C94B2180E94D41868F389
:1033E0009923B1F3552391F3951B550BBB27AA27BE
:1033F00062177307840738F09F5F5F4F220F331FF8
:10340000441FAA1FA9F335D00E2E3AF0E0E832D0BF
:1034100091505040E695001CCAF72BD0FE2F29D0C2
:10342000660F771F881FBB1F261737074807AB0794
:10343000B0E809F0BB0B802DBF01FF2793585F4F09
:103440003AF09E3F510578F00C94AC180C94F718A4
:103450005F3FE4F3983ED4F3869577956795B795EB
:10346000F7959F5FC9F7880F911D9695879597F9F6
:103470000895E1E0660F771F881FBB1F621773076F
:103480008407BA0720F0621B730B840BBA0BEE1F84
:1034900088F7E09508950E94521A6894B1110C942F
:1034A000F71808950E94DC1888F09F5798F0B92FFC
:1034B0009927B751B0F0E1F0660F771F881F991F69
:1034C0001AF0BA95C9F714C0B13091F00E94F618FD
:1034D000B1E008950C94F618672F782F8827B85F0D
:1034E00039F0B93FCCF3869577956795B395D9F7C1
:1034F0003EF490958095709561957F4F8F4F9F4FCB
:1035000008950E941B1808F48FEF08950E941B185D
:10351000880B990B089597FB072E16F4009407D09B
:1035200077FD09D00E949F1A07FC05D03EF49095C4
:1035300081959F4F0895709561957F4F0895AA1BBF
:10354000BB1B51E107C0AA1FBB1FA617B70710F08E
:10355000A61BB70B881F991F5A95A9F780959095C0
:10356000BC01CD010895EE0FFF1F0590F491E02DF1
:1035700009940F931F93CF93DF938230910510F43A
:1035800082E090E0E0914407F091450730E020E0D0
:10359000B0E0A0E0309799F42115310509F44AC054
:1035A000281B390B24303105D8F58A819B816115A0
:1035B000710589F1FB0193838283FE0111C0408173
:1035C00051810281138148175907E0F048175907C4
:1035D00099F4109761F012960C93129713961C931E
:1035E0003296CF01DF91CF911F910F9108950093F3
:1035F000440710934507F4CF2115310551F04217C8
:10360000530738F0A901DB019A01BD01DF01F80180
:10361000C1CFEF01F9CF9093450780934407CDCFF9
:10362000FE01E20FF31F81939193225031093983F8
:103630002883D7CF2091420730914307232B41F4B1
:1036400020910E0130910F013093430720934207E0
:1036500020910C0130910D012115310541F42DB758
:103660003EB74091100150911101241B350BE091A0
:103670004207F0914307E217F307A0F42E1B3F0B1C
:103680002817390778F0AC014E5F5F4F24173507D4
:1036900048F04E0F5F1F50934307409342078193BA
:1036A00091939FCFF0E0E0E09CCFCF93DF93009722
:1036B000E9F0FC01329713821282A0914407B09185
:1036C0004507ED0130E020E01097A1F42081318121
:1036D000820F931F20914207309143072817390723
:1036E00009F061C0F0934307E0934207DF91CF9167
:1036F0000895EA01CE17DF07E8F54A815B819E0154
:1037000041155105B1F7E901FB83EA8349915991CC
:10371000C40FD51FEC17FD0761F4808191810296DB
:10372000840F951FE90199838883828193819B830C
:103730008A83F0E0E0E012968D919C9113970097B8
:10374000B9F52D913C911197CD010296820F931FEF
:1037500020914207309143072817390739F63097EF
:1037600051F51092450710924407B0934307A09378
:103770004207BCCFD383C28340815181840F951F00
:10378000C817D90761F44E5F5F4F88819981480F50
:10379000591F518340838A819B81938382832115A2
:1037A000310509F0B0CFF0934507E09344079ECF71
:1037B000FD01DC01C0CF13821282D7CFB0E0A0E0C0
:1037C000E4EEFBE10C9415198C01009751F4CB0148
:1037D0000E94B91A8C01C801CDB7DEB7E0E10C94A4
:1037E0003119FC01E60FF71F9C0122503109E21745
:1037F000F30708F49DC0D901CD91DC911197C6174C
:10380000D70798F0C530D10530F3CE01049786175D
:10381000970708F3C61BD70B2297C193D1936D93DB
:103820007C93CF010E94551BD6CF5B01AC1ABD0A19
:103830004C018C0E9D1EA0914407B0914507512C60
:10384000412CF12CE12C109731F580914207909199
:1038500043078815990509F05CC04616570608F01D
:1038600058C080910C0190910D01009741F48DB7E3
:103870009EB74091100150911101841B950BE817E0
:10388000F90708F055C0F0934307E0934207F901A8
:1038900071836083A0CF8D919C91119712966C904B
:1038A000129713967C901397A815B90559F56C01DA
:1038B00042E0C40ED11CCA14DB0420F1AC014A1949
:1038C0005B09DA011296159780F062827382518348
:1038D0004083D9016D937C93E114F10471F0D70119
:1038E0001396FC93EE93129776CF22968C0F9D1F22
:1038F000F90191838083F301EFCFF0934507E093C3
:10390000440769CF4816590608F42C017D01D301FC
:103910009ACFCB010E94B91A7C01009749F0AE0101
:10392000B8010E94A01CC8010E94551B870153CFFB
:1039300010E000E050CF81E090E0F8940C94B91CC6
:10394000FB01DC0102C001900D9241505040D8F7BC
:103950000895FB01DC018D91019080190110D9F3CC
:10396000990B0895FB01DC0101900D920020E1F715
:10397000089515E0C1E7D5E004C0FE010E94B31A26
:0C3980002196C237D107C9F7F894FFCF99
:10398C00FFFFFFFF00E10000000000000000460701
:10399C00800000C18081000000000000001B08B303
:1039AC00093C083108820840085E08000000005FEE
:1039BC000A2E09640B630B5617FCFF000098176E58
:1039CC00616E00696E66006F766600464545440080
:1039DC00504C4159005045540048415050590048F2
:1039EC00554E47525900424F5245440053414400F2
:1039FC005449524544005349434B0044454144000B
:083A0C00414E4E4F59454400A4
:2070000055C000006EC000006CC000006AC0000068C0000066C0000064C0000062C0000043
:2070200060C000005EC00000F2C400005AC0000058C0000056C0000054C0000052C00000EE
:2070400050C0000078C000004CC000004AC0000048C0000046C0000044C0000042C00000BE
:2070600040C000003EC000003CC000003AC0000038C0000036C0000034C0000032C0000048
:2070800030C000002EC000002CC000002AC0000028C0000026C0000024C0000022C00000A8
:2070A00020C000001EC000001CC0000011241FBECFEFDAE0DEBFCDBF11E0A0E0B1E0E2E3BC
:2070C000FFE702C005900D92A83AB107D9F711E0A8EAB1E001C01D92AE3BB107E1F78FD30B
:2070E00026C78ECFF89410926F0010928100109285001092840081E085BF15BE47985D9AEB
:20710000289A0C94000008952091B2013091B3012F5F3F4F3093B3012093B201932F37FFA6
:2071200003C08EEF831B982F990F921710F447980895479A08951F920F920FB60F9211246E
:207140002F938F939F93EF93FF9310928500109284008091A8019091A901009741F00197D3
:207160009093A9018093A801892B09F45D9A8091AA019091AB01009741F001979093AB0126
:207180008093AA01892B09F4289AE0E0F0E0859194918F5F9F4F49F08091AC019091AD0151
:2071A00001969093AD018093AC01FF91EF919F918F912F910F900FBE0F901F90189584E0BC
:2071C0008093E9000DC08091E8008B778093E80003C08EB3882351F08091E80082FFF9CFBE
:2071E0008091E80085FFEFCF8091F1000895982F83E08093E9008091E80085FD0DC0809136
:20720000E8008E778093E80003C08EB3882369F08091E80080FFF9CF9093F1005D9884E6CB
:2072200090E09093A9018093A80108954F925F926F927F928F929F92AF92BF92CF92DF921E
:20724000EF92FF920F931F93CF93DF9384E08093E9008091E80082FF57C2289884E690E067
:207260009093AB018093AA01AADF182F853481F48CE49DE19093AD018093AC0107B600FC4B
:20728000FDCFF999FECF81E180935700E89503C0843519F494DF8DE00DC28C34E1F38035F9
:2072A000D1F3843721F484E4A2DF80E003C2813611F489E5FFC18134B1F481DF182F7FDFE3
:2072C00090E0880F991FAA2797FDA095BA2F312F330F20E0442737FD4095542F822B932B68
:2072E000A42BB52BB8C1803711F483E5E3C1833549F4C0E0D1E089917ADF21E0C730D20714
:20730000D1F7D9C1863521F481E371DF80E3D2C1833731F487E86BDF85E969DF8EE1CAC149
:207320008536B9F4E0E0F0E093E085E090935700E89507B600FCFDCF80935700E89507B65D
:2073400000FCFDCFE058FF4FA0E7E030FA0771F7A2CF823739F4E1E0F0E089E08093570024
:207360008491A8C1863439F4E0E0F0E089E08093570084919FC18E3439F4E3E0F0E089E0E5
:2073800080935700849196C1813539F4E2E0F0E089E08093570084918DC1823631F489E521
:2073A00026DF80E024DF80E885C1823419F0873609F0E5C01092AD011092AC0100DF082FE8
:2073C000FEDEF82EFCDE682E8554823008F071C1902F80E0CF2DD0E0C82BD92B10926F00B3
:2073E000173609F04BC081E180935700E895DD24CC24C3943FC0E090AE01F090AF010091CC
:20740000B0011091B101B6E46B16D9F4ED2DF0E0EE29FF29E4918E2FEADEDD2081F082E08D
:2074200090E0A0E0B0E0E80EF91E0A1F1B1FE092AE01F092AF010093B0011093B101DC2470
:2074400018C0D801C701B695A7959795879559D5CEDE82E090E0A0E0B0E0E80EF91E0A1FF2
:207460001B1FE092AE01F092AF010093B0011093B1012197209709F0BECF7DC08090AE01F5
:207480009090AF01A090B001B090B10196E4691609F05DC083E0F40180935700E89507B63E
:2074A00000FCFDCF54C0F6E46F1661F5772031F1E090AE01F090AF010091B0011091B1019E
:2074C0007EDED82ECC24852D90E08C299D29F7010C0140925700E895112482E090E0A0E08B
:2074E000B0E0E80EF91E0A1F1B1FE092AE01F092AF010093B0011093B10102C060DE582E1A
:20750000742423C0E090AE01F090AF010091B0011091B10116950795F794E79450DE682FFA
:20752000C701F7D48091AE019091AF01A091B001B091B1010296A11DB11D8093AE01909349
:20754000AF01A093B001B093B101219704C05524772444244394209709F0A5CF96E46916B6
:2075600041F485E0F40180935700E89507B600FCFDCF8DE03CDE82E080936F009CC0833492
:2075800071F40091AE011091AF0119DE90E021E0F8010C0120935700E89511247CCE8336C8
:2075A00019F5E090AE01F090AF010091B0011091B10105DEF701E16090E021E00C0120938C
:2075C0005700E895112482E090E0A0E0B0E0E80EF91E0A1F1B1FE092AE01F092AF0100936A
:2075E000B0011093B10157CE8D3661F4E091AE01F091AF0185E080935700E89507B600FCF2
:20760000FDCF49CE823551F4E091AE01F091AF0105911491812FEBDD802F4CC0843421F5FE
:20762000E090AE01F090AF010091B0011091B10116950795F794E794C2DD682FC70169D4DE
:207640008091AE019091AF01A091B001B091B1010296A11DB11D8093AE019093AF01A093D8
:20766000B001B093B10117CE843609F5E090AE01F090AF010091B0011091B101D801C70142
:20768000B695A795979587953CD4B1DD82E090E0A0E0B0E0E80EF91E0A1F1B1FE092AE010A
:2076A000F092AF010093B0011093B10104C08B3111F08FE39CDD83E08093E9009091E8002B
:2076C0008091E8008E778093E80095FF04C010C08EB38823C9F08091E80080FFF9CF809193
:2076E000E8008E778093E80003C08EB3882361F08091E80080FFF9CF84E08093E9008091F1
:20770000E8008B778093E800DF91CF911F910F91FF90EF90DF90CF90BF90AF909F908F90AC
:207720007F906F905F904F9008959091B601892F8F77813249F58091B7018032A1F081328A
:2077400019F5913A09F58091E800877F8093E8008DE091E067E070E00BD28091E8008B770B
:207760008093E8000895913279F48091E800877F8093E8008DE091E067E070E05DD2809192
:20778000E8008E778093E800089582E061EC42E0B5D083E061E842E1B1D084E060E842E1EF
:2077A000ADC084B7877F84BF88E10FB6F89480936000109260000FBE20E880E090E00FB63F
:2077C000F89420936100809361000FBE81E085BF92E095BF3F9A209A559AE1E6F0E02083A1
:2077E000108247985D9A289A109289008AEF8093880090936F0083E080938100F0C0409116
:20780000000850910108109201081092000894B714BE88E10FB6F8948093600010926000D5
:207820000FBE292F30E0F901E270F07091FD18C090FF05C0859194918F5F9F4F81F423FFFF
:207840000FC08091090190910A014817590741F0E0E0F0E0859194918F5F9F4F09F042DC64
:20786000A0DF78941092AD011092AC010CC0DEDC36D38091AC019091AD0181549F4110F00D
:207880001092140141DC80911401882381F78091E00081608093E00025DC80E090E0089598
:2078A000FA01923049F0933061F09130F9F485E191E022E130E01EC087E291E02EE330E04D
:2078C00019C0882329F485E691E024E030E012C0813029F489E691E022E230E00BC0823006
:2078E00029F48DE891E028E130E004C080E090E020E030E091838083C90108958093E9004E
:207900008091EB0081608093EB001092ED006093EC004093ED008091EE00881F8827881F62
:2079200008958091B60188238CF403C08EB38823B1F08091E80082FFF9CF8091E8008B772A
:207940008093E80008958EB3882349F08091E80080FFF9CF8091E8008E778093E800089594
:20796000EF92FF920F931F9345D04CD008ED10E0F80180818F77808380818068808380819B
:207980008F7D808319BC1EBA1092B40180EEE82EF12CF70180818B7F8083F8018081816052
:2079A000808380E060E042E0A9DFE1EEF0E080818E7F8083E2EEF0E0808181608083808144
:2079C00088608083F70180818E7F8083F8018081806180831F910F91FF90EF900895E7ED06
:2079E000F0E08081816080838AE482BF81E08093B501B6CFE8EDF0E080818E7F808310921C
:207A0000E20008951092DA001092E10008951F920F920FB60F9211242F933F934F935F93F6
:207A20006F937F938F939F93AF93BF93EF93FF938091DA0080FF1BC08091D80080FF17C0B2
:207A40008091DA008E7F8093DA008091D90080FF0BC080E189BD82E189BD09B400FEFDCF36
:207A600081E08EBB3BD203C019BC1EBA37D28091E10080FF17C08091E20080FF13C0809138
:207A8000E2008E7F8093E2008091E20080618093E2008091D80080628093D80019BC85E049
:207AA0008EBB1CD28091E10084FF2CC08091E20084FF28C080E189BD82E189BD09B400FEC5
:207AC000FDCF8091D8008F7D8093D8008091E1008F7E8093E1008091E2008F7E8093E20012
:207AE0008091E20081608093E2008091B401882331F48091E30087FD02C081E001C084E067
:207B00008EBBECD18091E10083FF21C08091E20083FF1DC08091E100877F8093E10082E06A
:207B20008EBB1092B4018091E1008E7F8093E1008091E2008E7F8093E2008091E2008061E9
:207B40008093E20080E060E042E0D8DEC7D1FF91EF91BF91AF919F918F917F916F915F9130
:207B60004F913F912F910F900FBE0F901F9018959C014091BC015091BD014617570718F49D
:207B8000F90190E044C06115710511F0AB01F8CF8091E8008E778093E80040E050E0F0CF0F
:207BA0008EB3882309F444C0853009F443C08091E80083FF02C081E008958091E80082FD70
:207BC00031C08091E80080FF22C08091F3009091F200782F60E0292F30E0262B372B07C07A
:207BE00081918093F100415050402F5F3F4F4115510519F02830310598F390E02830310566
:207C000009F491E08091E8008E778093E8004115510531F6992321F605C08EB3882341F075
:207C2000853041F08091E80082FFF7CF80E0089582E0089583E008959C016115710529F47C
:207C40008091E8008B778093E800F90126C08EB3882391F1853091F18091E80083FF02C06C
:207C600081E008958091E80082FFF1CF06C08091F10081936150704059F02091F300809191
:207C8000F200322F20E090E0822B932B892B79F78091E8008B778093E80061157105B9F601
:207CA00005C08EB3882341F0853041F08091E80080FFF7CF80E0089582E0089583E00895C2
:207CC0000F931F93DF93CF9300D0CDB7DEB7E6EBF1E08091F100819381E0EE3BF807C9F792
:207CE00024DD8091E80083FFE4C08091B6019091B701953009F46DC0963040F4913081F1A7
:207D0000913070F0933009F0D4C02AC0983009F4A3C0993009F4B2C0963009F0CAC07CC023
:207D2000803809F4C6C0823809F0C3C08091BA0187708093E9008091EB001092E9002091DB
:207D4000E800277F2093E80090E025E0969587952A95E1F781708093F1001092F10087C0D8
:207D6000882319F0823009F0A4C08F71823009F0A0C08091B801882331F52091BA01277097
:207D800009F497C02093E9008091EB0080FF1BC0933021F48091EB00806213C08091EB0018
:207DA00080618093EB0081E090E002C0880F991F2A95E2F78093EA001092EA008091EB00E5
:207DC00088608093EB001092E9008091E800877F51C0882309F06DC01091B8011F770FB79B
:207DE000F8948091E800877F8093E8009ADD8091E80080FFFCCF8091E3008078812B809398
:207E0000E30080688093E300112311F482E001C083E08EBB0FBF4DC08058823008F049C033
:207E20008091B8019091B9016091BA01AE014F5F5F4F36DDBC01009709F43BC08091E8008E
:207E4000877F8093E80089819A8192DE8091E8008B778093E8002DC0803859F58091E800AA
:207E6000877F8093E8008091B4018093F1008091E8008E778093E80054DD1BC08823C9F4CA
:207E80009091B8019230A8F48091E800877F8093E8009093B40145DD8091B401882331F420
:207EA0008091E30087FD02C081E001C084E08EBB6CDC8091E80083FF0AC08091EB0080624E
:207EC0008093EB008091E800877F8093E8000F900F90CF91DF911F910F91089508951F9360
:207EE0008EB3882361F01091E9001092E9008091E80083FF01C0E4DE17701093E9001F916F
:207F00000895F999FECF92BD81BDF89A992780B50895262FF999FECF1FBA92BD81BD20BDBD
:207F20000FB6F894FA9AF99A0FBE01960895F894FFCF4341544552494E4100777700080031
:207F40000000000000080112011001020000084123360001000201000109023E00020100FF
:207F600080320904000001020201000524001001042402040524060001070582030800FF0C
:207F800009040100020A000000070504021000010705830210000104030904220341007216
:207FA000006400750069006E006F0020004C0065006F006E006100720064006F0000001836
:1A7FC00003410072006400750069006E006F0020004C004C004300000000D7
:00000001FF
