:100000000C9474090C949C090C949C090C949C0904
:100010000C949C090C949C090C949C090C949C09CC
:100020000C949C090C949C090C94FF100C946E1178
:100030000C949C090C949C090C949C090C949C09AC
:100040000C949C090C949C090C949C090C949C099C
:100050000C949C090C949C090C949C090C94A0137E
:100060000C949C090C949C090C949C090C949C097C
:100070000C949C090C949C090C949C090C949C096C
:100080000C949C090C949C090C949C090C949C095C
:100090000C949C090C949C090C949C090C949C094C
:1000A0000C949C090C949C090C949C090000000081
:1000B000003E5B4F5B3E3E6B4F6B3E1C3E7C3E1CEE
:1000C000183C7E3C181C577D571C1C5E7F5E1C0034
:1000D000183C1800FFE7C3E7FF0018241800FFE7EB
:1000E000DBE7FF30483A060E2629792926407F05AE
:1000F0000507407F05253F5A3CE73C5A7F3E1C1CC4
:1001000008081C1C3E7F14227F22145F5F005F5F83
:1001100006097F017F006689956A6060606060946F
:10012000A2FFA29408047E040810207E2010080874
:100130002A1C08081C2A08081E101010100C1E0C7F
:100140001E0C30383E3830060E3E0E060000000011
:100150000000005F00000007000700147F147F14F8
:10016000242A7F2A1223130864623649562050003D
:1001700008070300001C2241000041221C002A1C29
:100180007F1C2A08083E0808008070300008080814
:100190000808000060600020100804023E51494534
:1001A0003E00427F400072494949462141494D3352
:1001B0001814127F1027454545393C4A49493141B9
:1001C000211109073649494936464949291E000087
:1001D00014000000403400000008142241141414DC
:1001E0001414004122140802015909063E415D59C8
:1001F0004E7C1211127C7F494949363E41414122D1
:100200007F4141413E7F494949417F090909013EFA
:10021000414151737F0808087F00417F4100204021
:10022000413F017F081422417F404040407F021C33
:10023000027F7F0408107F3E4141413E7F0909094A
:10024000063E4151215E7F09192946264949493216
:1002500003017F01033F4040403F1F2040201F3FDC
:100260004038403F63140814630304780403615961
:10027000494D43007F4141410204081020004141A3
:10028000417F04020102044040404040000307084F
:100290000020545478407F2844443838444444284B
:1002A000384444287F385454541800087E090218F2
:1002B000A4A49C787F0804047800447D400020407A
:1002C000403D007F1028440000417F40007C0478BE
:1002D00004787C080404783844444438FC18242406
:1002E0001818242418FC7C08040408485454542486
:1002F00004043F44243C4040207C1C2040201C3C03
:100300004030403C44281028444C9090907C4464F9
:10031000544C44000836410000007700000041368C
:10032000080002010204023C2623263C1EA1A16112
:10033000123A4040207A3854545559215555794144
:100340002154547841215554784020545579400C1B
:100350001E527212395555555939545454593955FC
:100360005454580000457C410002457D420001453F
:100370007C40F0292429F0F0282528F07C545545AC
:10038000002054547C547C0A097F4932494949323F
:100390003248484832324A4848303A4141217A3A54
:1003A00042402078009DA0A07D39444444393D401E
:1003B00040403D3C24FF2424487E4943662B2FFCCB
:1003C0002F2BFF0929F620C0887E09032054547979
:1003D000410000447D413048484A32384040227A4A
:1003E000007A0A0A727D0D19317D2629292F2826C7
:1003F0002929292630484D402038080808080808CF
:100400000808382F10C8ACBA2F102834FA00007B27
:10041000000008142A142222142A1408950022002D
:1004200095AA005500AAAA55AA55AA000000FF00E7
:10043000101010FF00141414FF001010FF00FF1024
:1004400010F010F0141414FC001414F700FF000056
:10045000FF00FF1414F404FC141417101F10101FD5
:10046000101F1414141F00101010F0000000001FC3
:10047000101010101F10101010F010000000FF10CE
:100480001010101010101010FF10000000FF1400CA
:1004900000FF00FF00001F10170000FC04F41414FC
:1004A0001710171414F404F40000FF00F7141414C8
:1004B00014141414F700F7141414171410101F1048
:1004C0001F141414F4141010F010F000001F101F6B
:1004D0000000001F14000000FC140000F010F010D9
:1004E00010FF10FF141414FF141010101F00000050
:1004F00000F010FFFFFFFFFFF0F0F0F0F0FFFFFF54
:100500000000000000FFFF0F0F0F0F0F38444438AA
:10051000447C2A2A3E147E02020606027E027E02E5
:1005200063554941633844443C04407E201E200604
:10053000027E020299A5E7A5991C2A492A1C4C7241
:1005400001724C304A4D4D303048784830BC625AC8
:10055000463D3E494949007E0101017E2A2A2A2A58
:100560002A44445F444440514A444040444A514034
:100570000000FF0103E080FF000008086B6B0836F5
:1005800012362436060F090F060000181800000066
:100590001010003040FF0101001F01011E00191D55
:1005A0001712003C3C3C3C0000000000F0F89C8E20
:1005B0008783878E9CF8F00000FEFF03030303038C
:1005C000070EFCF80000FEFF0303030303070EFC05
:1005D000F80000FFFF00000000000000FFFF000027
:1005E000FEFF8383838383C7EE7C380000F8FC0E14
:1005F00007030303070EFCF800003F7FE0C0808084
:10060000C0E07F3FFFFF01010101010101FFFF0089
:1006100000FFFF0C0C0C0C1C3E77E3C100007FFFB9
:10062000C0C0C0C0C0E0703F1F00001F3F70E0C0EE
:10063000C0C0E0703F1F00007FFFC1C1C1C1C1E366
:10064000773E1C00001F3F70E0C0C0C0E0703F1F3D
:10065000000000000001FFFF01000000D5F08D1434
:10066000A1C881CFD9F1AF2000202000000000F008
:1006700008081020202020202020202020202020BA
:100680002020100808F0000000000000000000FF1B
:10069000000000100000000000000000000000004A
:1006A0000010000000FF000000000000000000003B
:1006B00003848848301010101013121310101010FB
:1006C00030488884030000000000000000000000A3
:1006D00003040404629A8780403008304080879A7F
:1006E000620404040300000000000000000000F0A9
:1006F000080810202020202020202020202020203A
:100700002020100808F0000000000000000000FF9A
:10071000000000100000000000C0C0C00000000089
:100720000010000000FF00000000000000000000BA
:100730000384884830101010101313131010101079
:100740003048888403000000000000000000000022
:1007500003040404629A8780403008304080879AFE
:10076000620404040300000000000000000000F028
:1007700008081020202020202020202020202020B9
:100780002020100808F0000000000000000000FF1A
:100790000000000001000000000000000000000058
:1007A0000000010000FF0000000000000000000049
:1007B0000384884830101010101010121010101000
:1007C00030488884030000000000000000000000A2
:1007D00003040404629A8780403008304080879A7E
:1007E000620404040300000000000000000000F0A8
:1007F0000808102020202020202020202020202039
:100800002020100808F0000000000000000000FF99
:1008100000000010000000000000000000000000C8
:100820004010000000FF0000000000000000000079
:10083000038488483010101010121212101010107B
:100840003048888403000000000000000000000021
:1008500003040404629A8780403008304080879AFD
:10086000620404040300000000000000000000F027
:1008700008081020202020202020202020202020B8
:100880002020100808F0000000000000000000FF19
:100890000000004040400000000000000000004058
:1008A0004040000000FF00000000000000000000C9
:1008B00003848848301010101012121210101010FB
:1008C00030488884030000000000000000000000A1
:1008D00003040404629A8780403008304080879A7D
:1008E000620404040300000000000000000000F0A7
:1008F0000808102020202020202020202020202038
:100900002020100808F0000000000000000000FF98
:1009100000000018180080000000000000008000A7
:100920001818000000FF0000000000000000000098
:100930000384884830131410101012101010141370
:100940003048888403000000000000000000000020
:1009500003040404629A8780403008304080879AFC
:10096000620404040300000000000000000000C056
:100970002020408080808080808080808080808077
:100980008080402020C0000000000000000000FF28
:100990000000A040A00000000000000000000000D7
:1009A000A040A00000FF00000000000000000003C5
:1009B0000C90A060404040404044444C4C4040407B
:1009C0004060A0900C030000000000000000000048
:1009D00003040404629A8780403008304080879A7C
:1009E000620404040300000000000000000000F0A6
:1009F0000808102020202020202020202020202037
:100A00002020100808F0000000000000000000FF97
:100A10000000001812040800000000000000080494
:100A20001218000000FF000000000000000000009D
:100A30000384884830101010101212121010101079
:100A4000304888840300000000000000000000001F
:100A500003040404629A8780403008304080879AFB
:100A600062040404030000000000002020000000D5
:100A70000000000000000000000000000000000076
:100A80000000000000000000000000000000000066
:100A9000000000E0101020404040404040404040F6
:100AA00040404040201010E0000000000000000026
:100AB0000000007F80000000001000008000800027
:100AC000001000000000807F000000000000000017
:100AD00000000000010204040878884829292948F8
:100AE00088780804040201000000000000000000F3
:100AF00000000000000000000000000000000000F6
:100B000000000000000000000000000000000000E5
:100B1000000000E010102040404040404040404075
:100B200040404040201010E00000000000000000A5
:100B30000000007F8000000000100000C0C0C00066
:100B4000001000000000807F000000000000000096
:100B50000000000001020404087888482929294877
:100B60008878080404020100000000000000000072
:100B70000000000000000000000000000000000075
:100B80000000000000000000000000000000000065
:100B9000000000E0101020404040404040404040F5
:100BA00040404040201010E0000000000000000025
:100BB0000000007F80000000000000020000000034
:100BC000000000020000807F000000000000000024
:100BD00000000000010204040878884829292948F7
:100BE00088780804040201000000000000000000F2
:100BF00000000000000000000000000000000000F5
:100C000000000000000000000000000000000000E4
:100C1000000000E010102040404040404040404074
:100C200040404040201010E00000000000000000A4
:100C30000000007F800000000010000000000000A5
:100C4000001040000000807F000000000000000055
:100C50000000000001020404087888482929294876
:100C60008878080404020100000000000000000071
:100C70000000000000000000000000000000000074
:100C80000000000000000000000000000000000064
:100C9000000000E0101020404040404040404040F4
:100CA00040404040201010E0000000000000000024
:100CB0000000007F800000000040400000000000B5
:100CC000404000000000807F0000000000000000A5
:100CD00000000000010204040878884829292948F6
:100CE00088780804040201000000000000000000F1
:100CF00000000000000000000000000000000000F4
:100D000000000000000000000000000000000000E3
:100D1000000000E010102040404040404040404073
:100D200040404040201010E00000000000000000A3
:100D30000000007F80000000001080000000000024
:100D4000801000000000807F008000000000001084
:100D5000000004200102040408798A482829284850
:100D60008A79080404020104000008000000000061
:100D700000000000000000000000008080808080F3
:100D80000000000000000000000000000000000063
:100D9000000000E0101020404040434F444F444FBB
:100DA00043404040201010E0000000000000000020
:100DB0000000007F800000002810280000000000D4
:100DC000281028000000807F0000000000000000C4
:100DD00000000000010204040878884829292948F5
:100DE00088780804040201000000000000000000F0
:100DF00000000000000000000000000000000000F3
:100E000000000000000000000000000000000000E2
:100E1000000000E010102040404040404040404072
:100E200040404040201010E00000000000000000A2
:100E30000000007F8000000018100000000000008B
:100E4000001018000000807F00000000000000007B
:100E50000000000001020404087888482929294874
:100E6000887808040402010000000000002020002F
:100E70000000000000000000000000000000000072
:100E80000000000000000000000000000000000062
:100E90000000000000000000000000000000000052
:100EA0000000000000000000000000000000000042
:100EB00000000000000000FE010202E2A2E20202C5
:100EC00002E2A2E2020201FE0000000000000000B7
:100ED0000000000000000001020408097191545450
:100EE0005491710908040201000000000000000094
:100EF00000000000000000000000000000000000F2
:100F000000000000000000000000000000000000E1
:100F100000000000000000000000000000000000D1
:100F200000000000000000000000000000000000C1
:100F300000000000000000FE0102027A6A7A02024C
:100F4000027A6A7A020201FE00000000000000003E
:100F500000000000000000010204080870905757CC
:100F60005790700808040201000000000000000013
:100F70000000000000000000000000000000000071
:100F80000000000000000000000000000000000061
:100F90000000000000000000000000000000000051
:100FA0000000000000000000000000000000000041
:100FB00000000000000000FE010202E2E2C20202A4
:100FC00002E2E2C2020201FE000000000000000096
:100FD0000000000000000001020408087090545452
:100FE0005490700808040201000000000000000096
:100FF00000000000000000000000000000000000F1
:1010000000000000000000000000000000000000E0
:1010100000000000000000000000000000000000D0
:1010200000000000000000000000000000000000C0
:1010300000000000000000FE010202422242020203
:1010400002422242020201FE0000000000000000F5
:1010500000000000000000010204080870905252D5
:101060005290700908040201000000000000000016
:101070000000000000000000000000000000000070
:101080000000000000000000000000000000000060
:101090000000000000000000000000000000000050
:1010A0000000000000000000000000000000000040
:1010B00000000000000000FE010202020202020223
:1010C00002020202020201FE000000000000000015
:1010D0000000000000000001020408097191505452
:1010E0005091710908040201000000000000000096
:1010F00000000000000000000000000000000000F0
:1011000000000000000000000000000000000000DF
:1011100000000000000000000000000000000000CF
:1011200000000000000000000000000000000000BF
:1011300000000000100000FE010202022202020272
:1011400002022202020201FE000240100000000022
:1011500000010000000100010204080873905052D1
:101160005090730808040201000000000000000015
:10117000000000000000000000000000000000006F
:10118000000000000000000000000000000000005F
:101190000000000000000000000000000C3E123EB5
:1011A000123E0C00000000000000000000000000E3
:1011B00000000000000000FE010202428242020222
:1011C00002428242020201FE000000000000000014
:1011D0000000000000000001020408097091505452
:1011E0005091700908040201000000000000000096
:1011F00000000000000000000000000000000000EF
:1012000000000000000000000000000000000000DE
:1012100000000000000000000000000000000000CE
:1012200000000000000000000000000000000000BE
:1012300000000000000000FE010202E282C2020281
:1012400002C282E2020201FE000000000000000073
:1012500000000000000000010204080971915454CC
:101260005491710908040201000000000000000808
:101270000B0002020200000904000001020200004B
:10128000052400100105240101010424020605249F
:101290000600010705810310004009040100020A4D
:1012A000000000070502024000000705830240001D
:1012B000000403090412010002EF02014041233639
:1012C0008000010102030141726475696E6F204C58
:1012D0004C430041726475696E6F204C656F6E619E
:1012E00072646F0032158D1C11241FBECFEFDAE03F
:1012F000DEBFCDBF11E0A0E0B1E0EEE7F3E402C055
:1013000005900D92A43DB107D9F727E0A4EDB1E017
:1013100001C01D92A73EB207E1F719E0C3E7D9E08B
:1013200004C02197FE010E94AC1FC237D107C9F744
:101330000E94E0160C94B2210C940000CF92DF9230
:10134000EF92FF920F931F93CF93DF93FC01449191
:101350003196249102966623D1F0A1E0B0E0322FBD
:10136000377011F4B0E0A0E0E22FE695E695E6953F
:10137000EA0FFB2FF11D4E9FD0014F9FB00D11249E
:101380006A9FF0016B9FF00D11248E0F9F1F009735
:1013900009F441C0742F413508F070E5E1E0322FC7
:1013A000377009F4E0E02695269526952E0F283013
:1013B00008F027E02F5F31E000EB10E050E023174A
:1013C00051F1D801AE5FBD4FD0E0C0E0C717E8F4DF
:1013D000FC01EC0FFD1FE49160E2E69F6001112427
:1013E00037FF0CC07D01E0E8EE0EF11CF7016081D3
:1013F000607E6D29608321961196E8CF6C916F71A4
:101400006C296C933730BCF7EDCF3F5F840F951F8D
:1014100000581F4FD4CFDF91CF911F910F91FF90B4
:10142000EF90DF90CF900895480F592F511D14165B
:10143000150684F5803891056CF597FF02C090E0A1
:1014400080E04138510514F040E850E0481BFB01B2
:10145000E770FF2721E001C0220FEA95EAF777FF46
:1014600002C0695F7F4FFB0133E0F595E7953A9540
:10147000E1F7F695FE2FEE27F795E795E80FF91FB0
:10148000EE5FFD4F415030F08191DF011197822BCB
:101490008C93F8CF08952F923F924F925F926F9264
:1014A0007F928F929F92AF92BF92CF92DF92EF92F4
:1014B000FF920F931F93CF93DF93CDB7DEB72E9795
:1014C0000FB6F894DEBF0FBECDBF7E876D875A0181
:1014D0006901261737070CF00AC1E616F7060CF467
:1014E0001FC13D852E85DE86CD86C32ED22E382F98
:1014F000292FC501A32EB22E2D853E852E153F0521
:10150000D1F5A816B90654F0382F292F8A159B0556
:1015100014F43A2D2B2D5C01832F922F0A151B05F5
:101520002CF0801791070CF4C80185012D853E85AC
:101530002034310508F003C18F5F482F401BB901EB
:10154000C8012E960FB6F894DEBF0FBECDBFDF9157
:10155000CF911F910F91FF90EF90DF90CF90BF90B0
:10156000AF909F908F907F906F905F904F903F9043
:101570002F900C94140A302F212F8C01832F922F3F
:101580003E2D2F2DED84FE843D872E879501201B57
:10159000310B38872F8396012E193F093A87298707
:1015A0003C01601A710A2D853E852E193F093A8348
:1015B00029839C012A193B093C832B838D859E85B9
:1015C0008C199D099C878B872D853E852C153D05A3
:1015D00009F442C0C60101979E838D834701512CB7
:1015E000412C312C212C8D819E8188159905CCF1BF
:1015F000C10169857A850E94841F9B01200F311FDC
:10160000C20169817A810E94841F600F711F8F81DE
:101610009885280E391E460C571C621773071CF458
:10162000922F9B01692F90E48916910438F46F5F23
:10163000462F421BB401C9010E94140A2FEF821ADF
:10164000920AD1CF3A2D2B2D5C01832F922F3D850D
:101650002E85DE86CD8670C02D853E853E832D830A
:10166000BDCFC4018C199D092B813C81829F6001F3
:10167000839FD00C929FD00C1124C4018E199F0916
:10168000869D7001879DF00C969DF00C11248D8530
:101690009E85881599050CF452C0C6016B857C8522
:1016A0000E94841F9B012A0D3B1DC70169817A811D
:1016B0000E94841F600F711F8B819C81C80ED91EF0
:1016C000E60CF71C621773071CF4922F9B01692F1D
:1016D00090E48916910438F46F5F462F421BB401E1
:1016E000C9010E94140A2FEF821A920AD0CFE21683
:1016F000F3060CF001CF2D853E85E216F3060CF4BF
:10170000A1CF302F212F8A015C01832F922F3C2DF6
:101710002D2DCD84DE84FE86ED86E32EF22EE1CEE5
:10172000E216F3060CF432CF302F212F8501A32EC1
:10173000B22E3E2D2F2D7601C32ED22E27CF2E96E0
:101740000FB6F894DEBF0FBECDBFDF91CF911F91D2
:101750000F91FF90EF90DF90CF90BF90AF909F9050
:101760008F907F906F905F904F903F902F90089553
:10177000E2E0F2E0A0E0B8E000800EBC8111012CB4
:101780001197A0FDFDCF0192B9F70DB40895FC01AA
:1017900080910102882311F13FB7F89482E0809391
:1017A000E9002091F200822F90E01816190614F437
:1017B00081E090E0882339F0289844E640930002C5
:1017C0004091F1004083222339F02091F200211151
:1017D00003C02BE62093E8003FBF08958FEF9FEFF3
:1017E00008952FB7F89483E08093E9009091E80082
:1017F000892F807295FF04C09091F20080E4891BCC
:101800002FBF08958091F80181110DC082E080936F
:10181000F40184E08093F5011092F7011092F60133
:1018200081E08093F80184EF91E00895CF93DF93F6
:101830001F92CDB7DEB76983DC01ED91FC91028088
:10184000F381E02D41E050E0BE016F5F7F4F0995CD
:101850000F90DF91CF91089583E08093E90080910C
:10186000F200882319F08AE38093E80008950E942B
:10187000F10B90E00895CF93DF931F92CDB7DEB7C1
:10188000FC018485958597FD08C02FEF3FEF3587D4
:1018900024870F90DF91CF910895CE0101960E9489
:1018A000C70B019719F4898190E0F3CF8FEF9FEF79
:1018B000F0CF0F931F93CF93DF931F92CDB7DEB777
:1018C0008C01FC018485958597FF0BC0CE010196A4
:1018D0000E94C70B019771F4898190E0F801958708
:1018E0008487F801848595850F90DF91CF911F91B2
:1018F0000F9108958FEF9FEFF1CFFC0184859585BF
:1019000097FD0BC09FB7F89482E08093E900809127
:10191000F2009FBF90E0019608959FB7F89482E08F
:101920008093E9008091F2009FBF90E0089540917C
:10193000EE015091EF012091EC013091ED01421741
:101940005307B4F49091E8009570E1F39091E800AA
:1019500092FD19C08093F1008091EE019091EF010A
:1019600001968F739927892B19F48EEF8093E800E5
:101970008091EE019091EF0101969093EF01809399
:10198000EE0181E0089580E00895DF92EF92FF92EA
:101990000F931F93CF93DF93D82E8A01EB017B0126
:1019A000E40EF51ECE15DF0559F0D7FE12C0FE017C
:1019B00084910E94970C21968111F4CF0FEF1FEFB5
:1019C000C801DF91CF911F910F91FF90EF90DF90B1
:1019D00008958881EECF0F931F93CF93DF931F92CB
:1019E000CDB7DEB782E0898342E450E06FE672E172
:1019F00080E80E94C50C0E94020CDC0112960D9139
:101A00001C910115110589F0D801ED91FC9102801E
:101A1000F381E02DBE016F5F7F4FC801099597FDEF
:101A200004C0F80100851185ECCF89810F90DF910A
:101A3000CF911F910F910895615030F02091F100E6
:101A4000FC0120830196F8CF289884E68093000259
:101A50000895AF92BF92CF92DF92EF92FF920F93D1
:101A60001F93CF93DF936C017B018B01040F151F34
:101A7000EB015E01AE18BF08C017D10759F069919C
:101A8000D601ED91FC910190F081E02DC601099500
:101A9000892B79F7C501DF91CF911F910F91FF90AD
:101AA000EF90DF90CF90BF90AF9008953FB7F8943C
:101AB0008091D5019091D601A091D701B091D80124
:101AC00026B5A89B05C02F3F19F00196A11DB11D99
:101AD0003FBFBA2FA92F982F8827BC01CD01620FD5
:101AE000711D811D911D42E0660F771F881F991F90
:101AF0004A95D1F708958F929F92AF92BF92CF925D
:101B0000DF92EF92FF926B017C010E94560D4B0118
:101B10005C01C114D104E104F104B9F00E94560D36
:101B2000681979098A099B09683E73408105910506
:101B300080F321E0C21AD108E108F10888EE880E8E
:101B400083E0981EA11CB11CE4CFFF90EF90DF90C2
:101B5000CF90BF90AF909F908F9008958F929F925B
:101B6000AF92BF92CF92DF92EF92FF920F931F93AB
:101B7000CF93DF936C017B018A0180910B01882355
:101B800009F45CC080910102882309F457C0809158
:101B9000F30180FF05C08091E00082608093E00047
:101BA000E801B12C8AEFA82E93E0892E2AE3922E29
:101BB000209711F4BB20D9F10E94F10B81110AC0CA
:101BC000AA94AA20D9F161E070E080E090E00E9440
:101BD0007B0DEECF8C171D0611F00CF08C2F9FB7EC
:101BE000F8948092E9002091E80025FD02C09FBF93
:101BF000DFCF282F30E0C21BD30BF701815020F03C
:101C000041914093F100FACFE20EF31EBB2021F088
:101C10009092E800B12CEBCF8091E80085FDE7CFF2
:101C20009092E800BB24B394209709F3F3CF5D981A
:101C300084E68093F201101611063CF081E090E0FA
:101C4000F6019383828310E000E0C801DF91CF9119
:101C50001F910F91FF90EF90DF90CF90BF90AF90CA
:101C60009F908F9008952D9A0895BC0190E080E098
:101C70000C947B0D8FB18095807F669B88601C9B48
:101C80008460089520E191E061FD94E060FD990F8A
:101C900062FD9295687F269FD0011124A80FAE5F48
:101CA000BD4F8C9140FF03C0892B8C930895909574
:101CB0008923FBCF2F923F924F925F926F927F9238
:101CC0008F929F92AF92BF92CF92DF92EF92FF924C
:101CD0000F931F93CF93DF93CDB7DEB728970FB63F
:101CE000F894DEBF0FBECDBF9E838D836A3061F551
:101CF000DC0155968C91B8E08B9F90011124ED8109
:101D0000FE8181899289820F931F928B818B108A29
:101D1000178681E090E028960FB6F894DEBF0FBEDC
:101D2000CDBFDF91CF911F910F91FF90EF90DF908A
:101D3000CF90BF90AF909F908F907F906F905F906B
:101D40004F903F902F9008956D3019F32D813E8173
:101D500038872F83D9011F960D911C915097003819
:101D600011050CF07CC05196AD90BC90B0E4AB1660
:101D7000B1040CF074C0F901258825E0C801229E49
:101D8000800D911D1124181619060CF068C0622CE4
:101D9000712CC30133E0880F991F3A95E1F78A0D42
:101DA0009B1D181619060CF05AC0F489FB83AF81ED
:101DB000B8855396BC91BC83629FB0011124FB018E
:101DC000E455FF4F2F011982F2018491F981F5301A
:101DD00009F480E0450128E02A83A82FB0E0BE8303
:101DE000AD833C8080FF3B80311004C0BB81EC811F
:101DF000BE17F9F078018E2D801B8215D0F4D12CFE
:101E0000C12CC21490F4F0E8EF16F10450F4B601BE
:101E1000680D791D6034710520F4432DC7010E94BF
:101E2000420E2FEFC21AD20AECCF3FEFE31AF30AA9
:101E3000E2CF8D819E81959587959A8191509A8365
:101E4000860C971C9111C9CFA981AF5FA983BFEF01
:101E50004B1A5B0A060D171DA63009F0B5CFEF81AE
:101E6000F8852589422F50E087859089F6E02F9FDD
:101E7000800D911D1124AF81B88550969C938E934F
:101E80001F9756962C915697222309F442CF6AEF5A
:101E900064039001659F300D112420583F4F28178F
:101EA00039070CF036CFED91FC9111970190F0813C
:101EB000E02D6AE0CD0109952CCF0895089590E0BA
:101EC00080E00895FC0101900020E9F73197AF010F
:101ED000481B590BBC0182E596E00C94290D8F92AA
:101EE0009F92AF92BF920F931F93CF93DF93CDB783
:101EF000DEB7A1970FB6F894DEBF0FBECDBF19A213
:101F0000423008F44AE08E010F5D1F4F842E912C61
:101F1000B12CA12CA50194010E94431EE62FB9010A
:101F2000CA01EA30F4F4E05DD801EE938D01232B71
:101F3000242B252B79F790E080E0109719F0CD0144
:101F40000E94620FA1960FB6F894DEBF0FBECDBF00
:101F5000DF91CF911F910F91BF90AF909F908F9085
:101F60000895E95CE1CF4F925F926F927F928F92DA
:101F70009F92AF92BF92CF92DF92EF92FF920F9318
:101F80001F93CF936B017C01742EAC019B010E94C7
:101F90007F1F882399F08FE391E0CF911F910F91DC
:101FA000FF90EF90DF90CF90BF90AF909F908F9079
:101FB0007F906F905F904F900C94620F4601570195
:101FC000E894B7F82FEF3FEF4FE75FE7C501B401A3
:101FD0000E947F1F81110DC02FEF3FEF4FE75FE79A
:101FE000C501B4010E94D21C18161CF483E491E0D0
:101FF000D4CF2FEF3FEF4FE75FE4C701B6010E9458
:102000007A1F18161CF487E491E0C7CF2FEF3FEF3B
:102010004FE75FECC701B6010E94D21C87FDF3CFEA
:1020200020E030E0A901C701B6010E94D21C10E0F7
:1020300000E087FF0AC06DE282E596E00E945A0E3A
:102040008C01F7FAF094F7F8F094C0E060E070E0EB
:1020500080E09FE37C1641F020E030E040E251E474
:102060000E94D21ECF5FF6CFA70196010E94661E86
:102070002B013C010E944B1F4B015C014AE00E9476
:102080006F0F7C01E00EF11ECC23C1F1C501B4013C
:102090000E94D71C9B01AC01C301B2010E94651EC6
:1020A0004B015C016EE282E596E00E945A0EE80E5A
:1020B000F91EC15018F120E030E040E251E4C501C2
:1020C000B4010E94381D2B013C010E944B1F4B01A3
:1020D000B12CA12C4AE0C501B4010E946F0FE80E9B
:1020E000F91EC501B4010E94D71C9B01AC01C301BC
:1020F000B2010E94651E4B015C01DBCFC701CF918D
:102100001F910F91FF90EF90DF90CF90BF90AF9015
:102110009F908F907F906F905F904F9008950C9458
:10212000F61D0E9494210F931F93CF93DF93EC0130
:1021300088819981009759F02A813B8126173707BA
:1021400030F081E0DF91CF911F910F9108958B01C5
:102150006F5F7F4F0E94D720009759F09983888343
:102160001B830A832C813D81232B59F7FC011082AC
:10217000E8CF80E0E7CFCF93DF93EC0188819981AE
:10218000009711F00E944E20198218821D821C8235
:102190001B821A82DF91CF910895EF92FF920F93E5
:1021A0001F93CF93DF93EC018617970781F0FB0114
:1021B000008111810115110539F0E480F580B70126
:1021C0000E94931081110BC0CE010E94BB10CE0162
:1021D000DF91CF911F910F91FF90EF900895FD82B5
:1021E000EC82B801888199810E94AB21F0CFFC017B
:1021F00080819181009711F00C944E2008951F92D8
:102200000F920FB60F9211248F939F938091E1004C
:102210009091E100937F9093E10083FF0FC01092B3
:10222000E90091E09093EB001092EC0092E3909320
:10223000ED001092010298E09093F00082FF22C01E
:1022400093E09093E9009091F200992319F09AE3BA
:102250009093E8009091F201992341F09091F2015E
:1022600091509093F201911101C05D9A90910002FA
:10227000992341F0909100029150909300029111A6
:1022800001C0289A84FF18C08091E2008E7E816090
:102290008093E2008091E1008F7E8093E100809145
:1022A000F3018E7E80618093F3019F918F910F9057
:1022B0000FBE0F901F90189580FFF7CF8091E2001E
:1022C0008E7E80618093E2008091E1008E7E80931B
:1022D000E1008091F3018E7E8160E5CF1F920F9225
:1022E0000FB60F921124CF92DF92EF92FF920F93CD
:1022F0001F932F933F934F935F936F937F938F938E
:102300009F93AF93BF93EF93FF93CF93DF93CDB79B
:10231000DEB76C97DEBFCDBF1092E9008091E80078
:1023200083FF25C068E0CE0145960E941C0D82EF18
:102330008093E8008D8987FF39C09091E80090FF75
:10234000FCCF982F907609F034C19E894F89588D23
:102350002F89F88C911131C0803861F58091F1019D
:102360008093F1001092F1008EEF8093E8006C965C
:102370000FB6F894DEBF0FBECDBFDF91CF91FF91B6
:10238000EF91BF91AF919F918F917F916F915F91ED
:102390004F913F912F911F910F91FF90EF90DF9000
:1023A000CF900F900FBE0F901F9018959EEF9093B7
:1023B000E800C7CF1092F100D5CF913059F48111C8
:1023C000D3CF4130510581F68091F1018D7F80930B
:1023D000F101CACF933049F48111C6CF4130510584
:1023E00019F68091F1018260F2CF953041F480912D
:1023F000E80080FFFCCF20682093E300B5CF963043
:1024000009F0A9C00B8D1C8D22E01092E9001092FA
:10241000EF011092EE01F2122EC01092ED01109217
:10242000EC010E94EB0C1F8299E09983FA8291E003
:102430009E8390EA98879AEF99872091EE013091D8
:10244000EF01275F3F4F3C832B838D831092E90080
:102450001092EF011092EE011093ED010093EC0148
:1024600049E050E0BE016F5F7F4F80E00E94C50CE5
:102470000E94EB0C79CF1093ED010093EC010E94C8
:10248000020CDC0112960D911C910115110509F445
:1024900051C1D801ED91FC910480F581E02DBE0180
:1024A0006B5E7F4FC8010995009709F03EC1F801A6
:1024B00000851185EACFF3E0FF120EC08F898823D3
:1024C00009F440C0823061F440E860E183ED92E1BC
:1024D0000E94EA13811148CF81E28093EB0047CF3D
:1024E000813029F440E86BE087EC92E1F1CF833052
:1024F00099F70E94020CDC011296ED90FC908E017F
:102500000F5F1F4F6801E114F10479F0D701ED91DD
:10251000FC910680F781E02DB801C7010995080FED
:10252000111DF701E084F184EECFD8011C92F60171
:1025300001900020E9F73197BF016C197D0940E057
:10254000C601C6CF61EB72E1FB01449150E080E827
:102550000E94C50C09CF973009F4BECF983021F402
:1025600081E08093F10000CF993009F0FDCE8370B7
:1025700009F0B2CFE3E1F1E081E031E096E32191AF
:10258000222371F08093E9003093EB00DF01119773
:102590002C912093EC009093ED008F5F873079F7BA
:1025A0008EE78093EA001092EA008F8980930102FF
:1025B000DBCE8B8D9C8D1092E9001092EF01109272
:1025C000EE019093ED018093EC01898D811192C011
:1025D0008E899D89913A49F4813209F07DCF47E097
:1025E00050E064E071E080E0B3CF913209F074CF45
:1025F000833269F48F89988DB0E0A0E08093000168
:1026000090930101A0930201B0930301ADCE8032FB
:1026100069F48091E80082FFFCCF67E084E091E0FC
:102620000E941C0D8BEF8093E8009ECE823209F051
:102630009BCE8F8980930B01EEEFFFE785919491FC
:102640008B3F9C4D51F1E0E0F8E0809104019091C6
:102650000501A0910601B0910701803B9440A105BE
:10266000B105F1F480910B0180FD1AC0EE3F8AE0C4
:10267000F80789F587E797E7918380838091600069
:102680008093F00188E19BE00FB6F894A8958093C1
:1026900060000FBE9093600067CEEEEFFAE0D5CFFA
:1026A000808191818737974709F05ECEA895809108
:1026B00060008861809360008091F00180936000E9
:1026C000EE3F2AE0F20789F08091FE0A9091FF0A1E
:1026D0009183808349CE808191818737980751F219
:1026E0009093FF0A8093FE0AC5CF1092FF0A1092C2
:1026F000FE0A3ACE0E94020CDC0112960D911C914A
:102700000115110509F4E8CED801ED91FC91019075
:10271000F081E02DBE016B5E7F4FC80109958111EC
:1027200023CEF80100851185EBCF181619060CF49D
:102730001BCED2CEF1E0FF12BECE65EB72E104CF2C
:102740001F920F920FB60F9211242F933F938F93E6
:102750009F93AF93BF938091D9019091DA01A0919B
:10276000DB01B091DC013091D40123E0230F2D3740
:1027700058F50196A11DB11D2093D4018093D90174
:102780009093DA01A093DB01B093DC018091D50135
:102790009091D601A091D701B091D8010196A11DC9
:1027A000B11D8093D5019093D601A093D701B0932A
:1027B000D801BF91AF919F918F913F912F910F9031
:1027C0000FBE0F901F90189526E8230F0296A11DAB
:1027D000B11DD2CFEF92FF920F931F93CF93DF9350
:1027E000F82E192FE62E042F81E0860F880F0E9405
:1027F000970C83E00E94970CCF2DD12FEC0EFD2E6D
:10280000F11CCE15DF05B9F007FF13C0FE0184915E
:102810000E94970C182F80E00E94970C812321962C
:102820008111EFCFDF91CF911F910F91FF90EF902A
:1028300008958881EDCF81E0F5CFFC0113821282EB
:102840001186128680E183871086178215868FE2B3
:1028500091E0918380838DE391E095838483108A56
:102860001786128A118A81E0838B148A858B168AD7
:102870000895CF93DF93EC0182E596E00E941D144A
:10288000E2E5F6E0108E178A8A819B81938382832A
:102890008F81988590878783898581878A858287BC
:1028A0008B8583878C8584878D8585878E858687B4
:1028B0008F859889908B878789899A89928B818B5C
:1028C0008B89838B8C89848B8D89858B8E89868B74
:1028D000DF91CF910895CF93DF93EC018DE696E0E1
:1028E0000E941D14EDE6F6E08A819B81938382832A
:1028F0008F81988590878783898581878A8582875C
:102900008B8583878C8584878D8585878E85868753
:102910008F859889908B878789899A89928B818BFB
:102920008B89838B8C89848B8D89858B8E89868B13
:10293000DF91CF9108950F931F93CF93DF93EC0115
:102940008B01198218821B821A821D821C820E94AE
:10295000CD10F801868197819F838E838085918534
:1029600099878887828593859B878A8784859585C3
:10297000A685B7858C879D87AE87BF87808991891B
:10298000A289B389888B998BAA8BBB8BDF91CF915E
:102990001F910F910895EF92FF920F931F93CF9382
:1029A000DF93EC017B01198218821B821A821D823F
:1029B0001C82FB0101900020E9F731978F01061B73
:1029C000170BB8010E949310811109C0CE01DF914D
:1029D000CF911F910F91FF90EF900C94BB101D832E
:1029E0000C83B70188819981DF91CF911F910F915D
:1029F000FF90EF900C94AB218F929F92AF92BF9279
:102A0000CF92DF92EF92FF920F931F93CF93DF93BA
:102A1000EC016B017A014801590163ED71E00E94FC
:102A2000CB14B601CE010E94CD10FF82EE82198632
:102A3000188685E090E09B878A871C861D861E8607
:102A40001F86888A998AAA8ABB8ADF91CF911F91B3
:102A50000F91FF90EF90DF90CF90BF90AF909F903D
:102A60008F900895CF92DF92EF92FF920F931F9372
:102A7000CF93DF93CDB7DEB767970FB6F894DEBF7D
:102A80000FBECDBFE2E0F6E01382128288EE93E043
:102A9000A0E0B0E084839583A683B7838DE191E0C5
:102AA000918380838FEF9FEF958784876BE471E03C
:102AB00087EA97E00E94CB1460E571E08DEA97E029
:102AC0000E94CB1465E571E083EB97E00E94CB1484
:102AD00069E571E089EB97E00E94CB146DE571E048
:102AE0008FEB97E00E94CB1462E671E085EC97E0F3
:102AF0000E94CB1467E671E08BEC97E00E94CB1448
:102B00006DE671E081ED97E00E94CB1464E771E01F
:102B100087ED97E00E94CB146EE771E08DED97E0B2
:102B20000E94CB1464E871E087E797E00E94CB1421
:102B30006AE871E08DE797E00E94CB1461E971E0EB
:102B400083E897E00E94CB1467E971E089E897E099
:102B50000E94CB146BE971E08FE897E00E94CB14E0
:102B600061EA71E085E997E00E94CB1466EA71E0C2
:102B70008BE997E00E94CB146BEA71E081EA97E061
:102B80000E94CB146AE871E0CE0101960E94CB143A
:102B900000E010E020E83FE34AE050E0BE016F5F54
:102BA0007F4F83E697E00E94FC14CE0101960E94BD
:102BB000F71061E971E0CE0101960E94CB1400E0AC
:102BC00010E020E03FE34AE050E0BE016F5F7F4F3E
:102BD0008FE497E00E94FC14CE0101960E94F7104A
:102BE00067E971E0CE0101960E94CB1400E010E08D
:102BF00020E83EE34AE050E0BE016F5F7F4F8BE389
:102C000097E00E94FC14CE0101960E94F7106BEA37
:102C100071E0CE0101960E94CB1400E010E0980113
:102C200042E350E0BE016F5F7F4F87E297E00E9472
:102C3000FC14CE0101960E94F7106BE971E0CE0101
:102C400001960E94CB140DEC1CEC2CEC3DE34AE009
:102C500050E0BE016F5F7F4F83E197E00E94FC145C
:102C6000CE0101960E94F71066EA71E0CE0101964E
:102C70000E94CB1400E010E020E83FE34AE050E07F
:102C8000BE016F5F7F4F8FEF96E00E94FC14CE0174
:102C900001960E94F71063E677E08BE996E00E94C8
:102CA0009B146FE477E08FEA96E00E949B146BE33D
:102CB00077E083EC96E00E949B1467E277E087ED73
:102CC00096E00E949B1463E177E08BEE96E00E9411
:102CD0009B1484E896E00E941D1404E816E0F801B5
:102CE000828193819C838B83878190859987888754
:102CF00081858A8782858B8783858C8784858D876C
:102D000085858E8786858F878FE2C82E81E0D82EB5
:102D1000DA82C9829DE3E92E91E0F92EFE82ED82EE
:102D200087859089998B888B818992899B8B8A8BE7
:102D300083898C8B84898D8B85898E8B86898F8BFB
:102D4000CE0101960E946B14F801828193819C83CD
:102D50008B83878190859987888781858A878285FB
:102D60008B8783858C8784858D8785858E878685EF
:102D70008F87DA82C982FE82ED8287859089998B5E
:102D8000888B818992899B8B8A8B83898C8B8489A0
:102D90008D8B85898E8B86898F8BCE0101960E94C3
:102DA000391467960FB6F894DEBF0FBECDBFDF9122
:102DB000CF911F910F91FF90EF90DF90CF900895EA
:102DC000789484B5826084BD84B5816084BD85B506
:102DD000826085BD85B5816085BD80916E00816012
:102DE00080936E00109281008091810082608093B8
:102DF00081008091810081608093810080918000BA
:102E00008160809380008091910082608093910026
:102E10008091910081608093910080919000816009
:102E2000809390008091C10084608093C100809164
:102E3000C10082608093C1008091C1008160809355
:102E4000C1008091C30081608093C3008091C00065
:102E500082608093C0008091C20081608093C20034
:102E600080917A00846080937A0080917A008260F9
:102E700080937A0080917A00816080937A008091BB
:102E80007A00806880937A00109201021092F1011A
:102E90001092F3018091D70081608093D70080EA7F
:102EA0008093D80089B5806189BD89B5826089BD6C
:102EB00009B400FEFDCF61E070E080E090E00E9488
:102EC0007B0D8091D8008F7C80618093D8008091A9
:102ED000E000807F8093E0008091E1008E7E80930F
:102EE000E1008DE08093E200559A209A81EC809376
:102EF0007C0085B1806F85B984B1877E84B984B147
:102F0000876E84B95E9A5F988AB1806D8AB9769A25
:102F10006E9881B3806F81BB899880B38D7080BBC0
:102F200080E58CBD81E08DBD85E090E00E94350E8E
:102F30005F9A85E090E00E94350E5E985C98ECE523
:102F4000F6E089E696E024912EBD00000DB407FE60
:102F5000FDCF31968E179F07B1F75C9A81E8809379
:102F600064008091650081608093650080E00E942C
:102F7000B80B0E943A0E87FF15C05C9885EA8EBD9B
:102F800000000DB407FEFDCF5C9A2E982F982D9867
:102F90008091640080628093640081E083BF8895A3
:102FA00013BEFCCF0E943A0E82FF48C02D980E94AB
:102FB0003A0E84788438E1F40E94330E88EC90E075
:102FC0000E94350E2F9882E090E00E94F61D8F3F00
:102FD00029F06FEF82E090E00E94FE1D84EF91E007
:102FE0000E94350E2F9A0E943A0E84788438D9F3C5
:102FF0000E943A0E84718431E1F40E94330E88EC11
:1030000090E00E94350E2E9882E090E00E94F61D1E
:10301000882329F060E082E090E00E94FE1D84EFAA
:1030200091E00E94350E2E9A0E943A0E84718431EE
:10303000D9F388EC90E00E94350EB4CF0E94330E95
:1030400082E090E00E948F10882309F44CC03E9AE1
:103050003F9A81E090E00E948F10282F2470922EDA
:1030600081FF0EC021112E98C0EFDFEF08E010E0C5
:103070000E943A0E86FF3AC02E9A2F9A0E94330E73
:1030800082E390E00E94350E0E943A0E8111F8CF43
:10309000109290008AE08093910082E480938F06E2
:1030A00058E0252E312C2FB7F8948091D9019091BA
:1030B000DA01A091DB01B091DC012FBF20919006D5
:1030C000F82FF21B2F2F30919106332309F49DC066
:1030D000F09392061092910680E090E0892B19F30C
:1030E0000E940000E0CF3E983F98B3CF992029F08E
:1030F000C430D10511F42E9A2F9881E00E94B80BAC
:103100009E01D7FF04C0222733272C1B3D0B2770BD
:103110003327CE01D7FD079673E0959587957A956D
:10312000E1F7D7FF05C00197A801421B530B9A0195
:10313000AC015695542F4427579547954E5F5D4FE8
:10314000D12CC12C3801621A730A8F3F6FEF96079A
:10315000B4F1DA01AC56BF4F7A0170E060E0F601DD
:10316000E455FA4F5F018F3F980779F0F501E60FBC
:10317000F71FE491F0E02F01022E01C0440C0A94E5
:10318000EAF7F70184884828448A2115310571F04F
:10319000F501E60FF71FE491F0E0062C02C0F5956B
:1031A000E7950A94E2F7FC91EF2BEC936F5F7F4F6A
:1031B0001196FFEFEF1AFF0A68357105A1F6019627
:1031C00068E5C60ED11C40585F4FE0EBCE16D10427
:1031D00009F0BBCF80E00E94B80B8FE090E00E9426
:1031E000350E2196C931D10509F042CF992011F051
:1031F0002F9A2D9880E991E00E94350E0E94330E9F
:1032000084E896E00E94481C3BCF30918F06F3176C
:1032100048F42F5F231708F05FCF81E083BF8895C4
:1032200013BE5ACF21E0209391068093900680919F
:103230008B0690918C06019690938C0680938B065A
:103240008091EB01882339F081508093EB0181114B
:1032500002C01092900080E0E2E0F2E081118FEF76
:10326000002481938193819381930394D1F71092E9
:1032700096061092950610929406109293068091ED
:103280008D0680938E060E943A0E80938D06909153
:103290008E0695FD0FC085FF0DC02091E90130918C
:1032A000EA0112161306B4F5215031093093EA01F0
:1032B0002093E90196FD0FC086FF0DC02091E90122
:1032C0003091EA012930310544F52F5F3F4F3093AB
:1032D000EA012093E90193FD93C083FF91C080919F
:1032E000E8018823F9F01092E8016091E1067091FD
:1032F000E2066F5F7F4F072E000C880B990B0E9430
:10330000D91C6093E3067093E4068093E5069093DE
:10331000E60676C029E030E0C9CF1092EA011092AB
:10332000E901D9CF8091E9019091EA010097E9F490
:103330006091A3067091A406072E000C880B990BD0
:103340000E94D91C6093A7067093A8068093A906D3
:103350009093AA068091690690916A06019701F5FB
:1033600060912F0770913007C6CF8130910539F5F4
:103370006091B7067091B806072E000C880B990B68
:103380000E94D91C6093BB067093BC068093BD0657
:103390009093BE068091690690916A06029701F3A8
:1033A00020E030E040E85FE36091E3067091E406DE
:1033B0008091E5069091E6060E94661EA2CF8230BB
:1033C0009105C9F46091CB067091CC06072E000CD4
:1033D000880B990B0E94D91C6093CF067093D0067E
:1033E0008093D1069093D2068091690690916A06E7
:1033F0000397B1F6B5CF039799F681E08093E80182
:103400008091E7018111F4C08FB7F894C090D90181
:10341000D090DA01E090DB01F090DC018FBF809169
:10342000E3019091E401A091E501B091E601A701CB
:103430009601281B390B4A0B5B0BDA01C901883E48
:103440009340A105B10508F485C08091E1019091F8
:10345000E20101969093E2018093E1018C339105A2
:1034600009F0ADC041E050E05093E0014093DF012E
:103470008091E801882369F14090F7065090F806A2
:103480006090F9067090FA066091F3067091F40668
:10349000072E000C880B990B0E94D91C4B015C0174
:1034A000AC019B01C301B2010E947A1F18160CF0F7
:1034B00077C120E030E040E85FE3C301B2010E9441
:1034C000651E6093F7067093F8068093F906909353
:1034D000FA068091E801811116C0CBE9D6E028896F
:1034E00039894A895B896C857D858E859F850E9497
:1034F000661E6C877D878E879F8764964FEF56E0A8
:103500004C175D0761F78091DD01882309F453C1F1
:1035100020910F0730911007409111075091120729
:1035200060910B0770910C0780910D0790910E0729
:103530000E94661E60930B0770930C0780930D0723
:1035400090930E07C092E301D092E401E092E5016E
:10355000F092E601CBE9D6E010E000E0B12CA12C1E
:103560006C857D858E859F850E94441F4B018A85D1
:103570009B85881599050CF054C16C807D8047E7C8
:10358000E42E47E0F42ED12CC12CF70184819581E3
:103590006816790609F03AC1888199816081718144
:1035A000009709F421C16115710509F00FC161147B
:1035B000710409F427C1FC01808190E021C18837A2
:1035C000910539F482E090E09093E0018093DF016F
:1035D0004FCF8C32914009F04BCF81E08093E701CF
:1035E00026E030E030936A06209369068093DE017E
:1035F00084E690E0909362068093610610926406E0
:103600001092630660910B0770910C0780910D0773
:1036100090910E0742E00E94B30F0BE916E0D0E054
:10362000C0E01092620610926106D0936406C093C7
:103630006306F801648575858685978542E00E945A
:10364000B30F2A960C5E1F4FC233D10551F724E603
:1036500030E0309362062093610648E250E05093D8
:103660006406409363068091690690916A0626E09D
:10367000289FF001299FF00D1124E958F84F44814B
:1036800055816081718182E596E00E94290D8091CB
:10369000E801882331F084E090E090936A068093FB
:1036A00069068091DF019091E0016091690618162A
:1036B00019060CF491C08DE69EE00E949E0980914F
:1036C000DE018823C1F0109262061092610610920A
:1036D00064061092630683EB91E00E94620F1092E1
:1036E000620610926106309264062092630689ECAD
:1036F00091E00E94620FD0E0C0E041E064E370E03E
:10370000CE010E94420E2196C038D105B1F78091BA
:10371000E9019091EA0126E0289FF001299FF00D30
:103720001124E955F84F4481558125E0249FC001BB
:10373000259F900D11249695879520E430E0281B55
:10374000390B30937D0620937C0687E390E09093BD
:103750007F0680937E06608171818DE696E00E94EF
:10376000290D3DE3E32EF12C03E010E027E330E0E8
:1037700043E050E06AE370E090E080E00E944B0A92
:103780000CE710E027E330E04CE750E06AE370E03C
:103790008FE790E00E944B0A80E00E94B80B9CCC1F
:1037A0008092F7069092F806A092F906B092FA0677
:1037B0001092E8018ECE6091070770910807072EDE
:1037C000000C880B990B0E94D91CB4CE0E94A22138
:1037D00017C01092DD013AC0019719F48BE69AE008
:1037E0006CCF89E696E069CF6115710559F06114D7
:1037F000710441F0FB01808190E0919581959109E0
:10380000892B21F40115110509F48601FFEFCF1A68
:10381000DF0A26E0E20EF11C38E0C316D10409F0FD
:10382000B4CE8E819F81881599051CF44FEFA41AA0
:10383000B40A649656E0CF3FD50709F091CEAB2885
:1038400041F281E08093DD0105E010E06091050721
:1038500070910607072E000C880B990B0E94D91C4B
:103860009B01AC0160910B0770910C0780910D07D3
:1038700090910E070E947A1F18162CF481E0809315
:10388000E70106E010E010936A0600936906B0CEE7
:103890000F931F93CF93DF938C0181E090E00E9400
:1038A0008F1080FF32C08AE090E00E948F109FEF5F
:1038B000980F9E3F50F522E330E0D80150963C939C
:1038C0002E931F9728E330E052963C932E93519706
:1038D000CBE0D0E0D801ED91FC910190F081E02D9A
:1038E000682FC8010995CE010E948F102196C13121
:1038F000D10581F780E00E94B80B88EE93E0DF915C
:10390000CF911F910F910C94350EDF91CF911F91A4
:103910000F91089504970C94481CCF93DF938BEE7E
:1039200096E00E94F71087ED96E00E94F71083EC76
:1039300096E00E94F7108FEA96E00E94F7108BE95C
:1039400096E00E94F7108FEF96E00E94F71083E157
:1039500097E00E94F71087E297E00E94F7108BE350
:1039600097E00E94F7108FE497E00E94F71083E63B
:1039700097E00E94F710C7EAD7E02697CE010E9491
:10398000F71087E0C737D807C1F7C3EED7E026970F
:10399000CE010E94F71087E0C73AD807C1F7DF9140
:1039A000CF9108950E94141D08F481E00895E894D1
:1039B00009C097FB3EF490958095709561957F4F77
:1039C0008F4F9F4F9923A9F0F92F96E9BB27939525
:1039D000F695879577956795B795F111F8CFFAF435
:1039E000BB0F11F460FF1BC06F5F7F4F8F4F9F4F66
:1039F00016C0882311F096E911C0772321F09EE8C4
:103A0000872F762F05C0662371F096E8862F70E029
:103A100060E02AF09A95660F771F881FDAF7880F03
:103A20009695879597F90895990F0008550FAA0B59
:103A3000E0E8FEEF16161706E807F907C0F01216C1
:103A40001306E407F50798F0621B730B840B950BC4
:103A500039F40A2661F0232B242B252B21F4089519
:103A60000A2609F4A140A6958FEF811D811D0895B6
:103A70000E944B1D0C94BC1D0E94AE1D38F00E948C
:103A8000B51D20F0952311F00C94A51D0C94AB1DD1
:103A900011240C94F01D0E94CD1D70F3959FC1F36D
:103AA000950F50E0551F629FF001729FBB27F00DEC
:103AB000B11D639FAA27F00DB11DAA1F649F662741
:103AC000B00DA11D661F829F2227B00DA11D621F90
:103AD000739FB00DA11D621F839FA00D611D221F4A
:103AE000749F3327A00D611D231F849F600D211D2E
:103AF000822F762F6A2F11249F5750409AF0F1F0B1
:103B000088234AF0EE0FFF1FBB1F661F771F881F19
:103B100091505040A9F79E3F510580F00C94A51D8F
:103B20000C94F01D5F3FE4F3983ED4F386957795AF
:103B30006795B795F795E7959F5FC1F7FE2B880FBF
:103B4000911D9695879597F9089597F99F6780E855
:103B500070E060E008959FEF80EC089500240A94DF
:103B60001616170618060906089500240A94121658
:103B70001306140605060895092E0394000C11F48B
:103B8000882352F0BB0F40F4BF2B11F460FF04C038
:103B90006F5F7F4F8F4F9F4F089557FD9058440F91
:103BA000551F59F05F3F71F04795880F97FB991F9C
:103BB00061F09F3F79F08795089512161306140659
:103BC000551FF2CF4695F1DF08C0161617061806E6
:103BD000991FF1CF86957105610508940895E894C1
:103BE000BB2766277727CB0197F90895F999FECF70
:103BF00092BD81BDF89A992780B50895262FF9992D
:103C0000FECF1FBA92BD81BD20BD0FB6F894FA9ABF
:103C1000F99A0FBE019608952F923F924F925F92AC
:103C20006F927F928F929F92AF92BF92CF92DF92CC
:103C3000EF92FF920F931F93CF93DF93CDB7DEB731
:103C4000CA1BDB0B0FB6F894DEBF0FBECDBF0994C5
:103C50002A88398848885F846E847D848C849B841C
:103C6000AA84B984C884DF80EE80FD800C811B812A
:103C7000AA81B981CE0FD11D0FB6F894DEBF0FBE59
:103C8000CDBFED010895A1E21A2EAA1BBB1BFD01B9
:103C90000DC0AA1FBB1FEE1FFF1FA217B307E4072B
:103CA000F50720F0A21BB30BE40BF50B661F771F83
:103CB000881F991F1A9469F7609570958095909563
:103CC0009B01AC01BD01CF0108955058BB27AA2725
:103CD0000E947D1E0C94BC1D0E94AE1D38F00E94F7
:103CE000B51D20F039F49F3F19F426F40C94AB1D58
:103CF0000EF4E095E7FB0C94A51DE92F0E94CD1D65
:103D000058F3BA17620773078407950720F079F410
:103D1000A6F50C94EF1D0EF4E0950B2EBA2FA02DF6
:103D20000B01B90190010C01CA01A0011124FF2768
:103D3000591B99F0593F50F4503E68F11A16F04063
:103D4000A22F232F342F4427585FF3CF4695379562
:103D50002795A795F0405395C9F77EF41F16BA0B27
:103D6000620B730B840BBAF09150A1F0FF0FBB1FD5
:103D7000661F771F881FC2F70EC0BA0F621F731F1E
:103D8000841F48F4879577956795B795F7959E3F7B
:103D900008F0B0CF9395880F08F09927EE0F97950C
:103DA000879508950E94E61E0C94BC1D0E94B51DC7
:103DB00058F00E94AE1D40F029F45F3F29F00C94AA
:103DC000A51D51110C94F01D0C94AB1D0E94CD1D2E
:103DD00068F39923B1F3552391F3951B550BBB273A
:103DE000AA2762177307840738F09F5F5F4F220F7F
:103DF000331F441FAA1FA9F335D00E2E3AF0E0E876
:103E000032D091505040E695001CCAF72BD0FE2FBF
:103E100029D0660F771F881FBB1F26173707480753
:103E2000AB07B0E809F0BB0B802DBF01FF2793580B
:103E30005F4F3AF09E3F510578F00C94A51D0C940D
:103E4000F01D5F3FE4F3983ED4F386957795679530
:103E5000B795F7959F5FC9F7880F911D9695879540
:103E600097F90895E1E0660F771F881FBB1F62175F
:103E700073078407BA0720F0621B730B840BBA0B1D
:103E8000EE1F88F7E09508950E944B1F6894B111CA
:103E90000C94F01D08950E94D51D88F09F5798F04E
:103EA000B92F9927B751B0F0E1F0660F771F881F3F
:103EB000991F1AF0BA95C9F714C0B13091F00E9459
:103EC000EF1DB1E008950C94EF1D672F782F882720
:103ED000B85F39F0B93FCCF3869577956795B39580
:103EE000D9F73EF490958095709561957F4F8F4FEF
:103EF0009F4F08950E94141D08F48FEF08950E94AB
:103F0000141D880B990B089597FB072E16F4009447
:103F100007D077FD09D00E94981F07FC05D03EF41A
:103F2000909581959F4F0895709561957F4F089565
:103F3000AA1BBB1B51E107C0AA1FBB1FA617B707CF
:103F400010F0A61BB70B881F991F5A95A9F78095EB
:103F50009095BC01CD010895EE0FFF1F0590F491DF
:103F6000E02D09940F931F93CF93DF938230910537
:103F700010F482E090E0E091E507F091E60730E090
:103F800020E0B0E0A0E0309799F42115310509F464
:103F90004AC0281B390B24303105D8F58A819B8112
:103FA0006115710589F1FB0193838283FE0111C0C4
:103FB000408151810281138148175907E0F0481769
:103FC000590799F4109761F012960C931297139673
:103FD0001C933296CF01DF91CF911F910F910895DD
:103FE0000093E5071093E607F4CF2115310551F052
:103FF0004217530738F0A901DB019A01BD01DF0127
:10400000F801C1CFEF01F9CF9093E6078093E50760
:10401000CDCFFE01E20FF31F81939193225031091E
:1040200039832883D7CF2091E3073091E407232BEE
:1040300041F420910E0130910F013093E407209359
:10404000E30720910C0130910D012115310541F458
:104050002DB73EB74091100150911101241B350B33
:10406000E091E307F091E407E217F307A0F42E1BB9
:104070003F0B2817390778F0AC014E5F5F4F2417CC
:10408000350748F04E0F5F1F5093E4074093E30756
:10409000819391939FCFF0E0E0E09CCFCF93DF93AB
:1040A0000097E9F0FC01329713821282A091E50794
:1040B000B091E607ED0130E020E01097A1F42081F7
:1040C0003181820F931F2091E3073091E407281775
:1040D000390709F061C0F093E407E093E307DF914B
:1040E000CF910895EA01CE17DF07E8F54A815B8199
:1040F0009E0141155105B1F7E901FB83EA8349911E
:104100005991C40FD51FEC17FD0761F4808191818F
:104110000296840F951FE901998388838281938198
:104120009B838A83F0E0E0E012968D919C91139737
:104130000097B9F52D913C911197CD010296820F10
:10414000931F2091E3073091E4072817390739F6C8
:10415000309751F51092E6071092E507B093E40707
:10416000A093E307BCCFD383C28340815181840FE6
:10417000951FC817D90761F44E5F5F4F88819981F9
:10418000480F591F518340838A819B819383828387
:104190002115310509F0B0CFF093E607E093E5076C
:1041A0009ECFFD01DC01C0CF13821282D7CFB0E0D9
:1041B000A0E0EDEDF0E20C940E1E8C01009751F49E
:1041C000CB010E94B21F8C01C801CDB7DEB7E0E180
:1041D0000C942A1EFC01E60FF71F9C0122503109A6
:1041E000E217F30708F49DC0D901CD91DC91119736
:1041F000C617D70798F0C530D10530F3CE01049724
:104200008617970708F3C61BD70B2297C193D19344
:104210006D937C93CF010E944E20D6CF5B01AC1AE8
:10422000BD0A4C018C0E9D1EA091E507B091E607DA
:10423000512C412CF12CE12C109731F58091E307A2
:104240009091E4078815990509F05CC04616570659
:1042500008F058C080910C0190910D01009741F435
:104260008DB79EB74091100150911101841B950BA1
:10427000E817F90708F055C0F093E407E093E30767
:10428000F90171836083A0CF8D919C911197129653
:104290006C90129713967C901397A815B90559F551
:1042A0006C0142E0C40ED11CCA14DB0420F1AC0145
:1042B0004A195B09DA011296159780F062827382BF
:1042C00051834083D9016D937C93E114F10471F023
:1042D000D7011396FC93EE93129776CF22968C0F0C
:1042E0009D1FF90191838083F301EFCFF093E607DF
:1042F000E093E50769CF4816590608F42C017D01C3
:10430000D3019ACFCB010E94B21F7C01009749F0E4
:10431000AE01B8010E949921C8010E944E20870178
:1043200053CF10E000E050CF81E090E0F8940C947F
:10433000B221FB01DC0102C001900D9241505040BE
:10434000D8F70895FB01DC018D91019080190110CF
:10435000D9F3990B0895FB01DC0101900D92002027
:10436000E1F7089519E0C3E7D9E004C0FE010E9417
:0E437000AC1F2196C437D107C9F7F894FFCFD0
:10437E00FFFFFFFF00E10000000000000000E70764
:10438E00800000C1808100000000000000160CAE0D
:10439E000D370C2C0C7D0C3B0C590C000000005AF8
:1043AE000E290D5F0F5E0F481CFCFF00008A1C6E6D
:1043BE00616E00696E66006F766600464545440084
:1043CE00504C415900504554004E4150004A4F4BFD
:1043DE00450054414C4B0054454143480049474E1B
:1043EE004F52450056414343494E415445004241C8
:1043FE005448450048415050590048554E4752596F
:10440E0000424F52454400534144005449524544E2
:10441E00005349434B004445414400414E4E4F59D1
:10442E00454400596F752064696564206F66206F7E
:10443E006C64206167652E2E006572722E2E2077B9
:04444E006F6E21006C
:00000001FF
