:100000000C9471030C9499030C9499030C94990328
:100010000C9499030C9499030C9499030C949903F0
:100020000C9499030C9499030C94860A0C94F50A89
:100030000C9499030C9499030C9499030C949903D0
:100040000C9499030C9499030C9499030C949903C0
:100050000C9499030C9499030C9499030C94270D18
:100060000C9499030C9499030C9499030C949903A0
:100070000C9499030C9499030C9499030C94990390
:100080000C9499030C9499030C9499030C94990380
:100090000C9499030C9499030C9499030C94990370
:1000A0000C9499030C9499030C949903000000009C
:1000B000003E5B4F5B3E3E6B4F6B3E1C3E7C3E1CEE
:1000C000183C7E3C181C577D571C1C5E7F5E1C0034
:1000D000183C1800FFE7C3E7FF0018241800FFE7EB
:1000E000DBE7FF30483A060E2629792926407F05AE
:1000F0000507407F05253F5A3CE73C5A7F3E1C1CC4
:1001000008081C1C3E7F14227F22145F5F005F5F83
:1001100006097F017F006689956A6060606060946F
:10012000A2FFA29408047E040810207E2010080874
:100130002A1C08081C2A08081E101010100C1E0C7F
:100140001E0C30383E3830060E3E0E060000000011
:100150000000005F00000007000700147F147F14F8
:10016000242A7F2A1223130864623649562050003D
:1001700008070300001C2241000041221C002A1C29
:100180007F1C2A08083E0808008070300008080814
:100190000808000060600020100804023E51494534
:1001A0003E00427F400072494949462141494D3352
:1001B0001814127F1027454545393C4A49493141B9
:1001C000211109073649494936464949291E000087
:1001D00014000000403400000008142241141414DC
:1001E0001414004122140802015909063E415D59C8
:1001F0004E7C1211127C7F494949363E41414122D1
:100200007F4141413E7F494949417F090909013EFA
:10021000414151737F0808087F00417F4100204021
:10022000413F017F081422417F404040407F021C33
:10023000027F7F0408107F3E4141413E7F0909094A
:10024000063E4151215E7F09192946264949493216
:1002500003017F01033F4040403F1F2040201F3FDC
:100260004038403F63140814630304780403615961
:10027000494D43007F4141410204081020004141A3
:10028000417F04020102044040404040000307084F
:100290000020545478407F2844443838444444284B
:1002A000384444287F385454541800087E090218F2
:1002B000A4A49C787F0804047800447D400020407A
:1002C000403D007F1028440000417F40007C0478BE
:1002D00004787C080404783844444438FC18242406
:1002E0001818242418FC7C08040408485454542486
:1002F00004043F44243C4040207C1C2040201C3C03
:100300004030403C44281028444C9090907C4464F9
:10031000544C44000836410000007700000041368C
:10032000080002010204023C2623263C1EA1A16112
:10033000123A4040207A3854545559215555794144
:100340002154547841215554784020545579400C1B
:100350001E527212395555555939545454593955FC
:100360005454580000457C410002457D420001453F
:100370007C40F0292429F0F0282528F07C545545AC
:10038000002054547C547C0A097F4932494949323F
:100390003248484832324A4848303A4141217A3A54
:1003A00042402078009DA0A07D39444444393D401E
:1003B00040403D3C24FF2424487E4943662B2FFCCB
:1003C0002F2BFF0929F620C0887E09032054547979
:1003D000410000447D413048484A32384040227A4A
:1003E000007A0A0A727D0D19317D2629292F2826C7
:1003F0002929292630484D402038080808080808CF
:100400000808382F10C8ACBA2F102834FA00007B27
:10041000000008142A142222142A1408950022002D
:1004200095AA005500AAAA55AA55AA000000FF00E7
:10043000101010FF00141414FF001010FF00FF1024
:1004400010F010F0141414FC001414F700FF000056
:10045000FF00FF1414F404FC141417101F10101FD5
:10046000101F1414141F00101010F0000000001FC3
:10047000101010101F10101010F010000000FF10CE
:100480001010101010101010FF10000000FF1400CA
:1004900000FF00FF00001F10170000FC04F41414FC
:1004A0001710171414F404F40000FF00F7141414C8
:1004B00014141414F700F7141414171410101F1048
:1004C0001F141414F4141010F010F000001F101F6B
:1004D0000000001F14000000FC140000F010F010D9
:1004E00010FF10FF141414FF141010101F00000050
:1004F00000F010FFFFFFFFFFF0F0F0F0F0FFFFFF54
:100500000000000000FFFF0F0F0F0F0F38444438AA
:10051000447C2A2A3E147E02020606027E027E02E5
:1005200063554941633844443C04407E201E200604
:10053000027E020299A5E7A5991C2A492A1C4C7241
:1005400001724C304A4D4D303048784830BC625AC8
:10055000463D3E494949007E0101017E2A2A2A2A58
:100560002A44445F444440514A444040444A514034
:100570000000FF0103E080FF000008086B6B0836F5
:1005800012362436060F090F060000181800000066
:100590001010003040FF0101001F01011E00191D55
:1005A0001712003C3C3C3C0000000000F0F89C8E20
:1005B0008783878E9CF8F00000FEFF03030303038C
:1005C000070EFCF80000FEFF0303030303070EFC05
:1005D000F80000FFFF00000000000000FFFF000027
:1005E000FEFF8383838383C7EE7C380000F8FC0E14
:1005F00007030303070EFCF800003F7FE0C0808084
:10060000C0E07F3FFFFF01010101010101FFFF0089
:1006100000FFFF0C0C0C0C1C3E77E3C100007FFFB9
:10062000C0C0C0C0C0E0703F1F00001F3F70E0C0EE
:10063000C0C0E0703F1F00007FFFC1C1C1C1C1E366
:10064000773E1C00001F3F70E0C0C0C0E0703F1F3D
:10065000000000000001FFFF01000000D5F08D1434
:10066000A1C881CFD9F1AF2000080B00020202001F
:100670000009040000010202000005240010010529
:100680002401010104240206052406000107058156
:100690000310004009040100020A000000070502DF
:1006A0000240000007058302400000040309041211
:1006B000010002EF020140412336800001010203E4
:1006C0000141726475696E6F204C4C430041726445
:1006D00075696E6F204C656F6E6172646F00B20E4B
:1006E0008A1411241FBECFEFDAE0DEBFCDBF11E0C8
:1006F000A0E0B1E0EAE5F3E302C005900D92A03876
:10070000B107D9F727E0A0E8B1E001C01D92AB30F6
:10071000B207E1F713E0C0E7D3E004C02197FE0180
:100720000E949A17CF36D107C9F70E94EF0F0C9499
:10073000A0190C940000480F592F511D14161506CE
:1007400084F5803891056CF597FF02C090E080E059
:100750004138510514F040E850E0481BFB01E770B8
:10076000FF2721E001C0220FEA95EAF777FF02C0D8
:10077000695F7F4FFB0133E0F595E7953A95E1F727
:10078000F695FE2FEE27F795E795E80FF91FEA5546
:10079000FE4F415030F08191DF011197822B8C93F5
:1007A000F8CF08952F923F924F925F926F927F926F
:1007B0008F929F92AF92BF92CF92DF92EF92FF9271
:1007C0000F931F93CF93DF93CDB7DEB72E970FB65E
:1007D000F894DEBF0FBECDBF7E876D875A016901D9
:1007E000261737070CF00AC1E616F7060CF41FC1EE
:1007F0003D852E85DE86CD86C32ED22E382F292F1D
:10080000C501A32EB22E2D853E852E153F05D1F5AF
:10081000A816B90654F0382F292F8A159B0514F411
:100820003A2D2B2D5C01832F922F0A151B052CF0DE
:10083000801791070CF4C80185012D853E85203471
:10084000310508F003C18F5F482F401BB901C80173
:100850002E960FB6F894DEBF0FBECDBFDF91CF91BD
:100860001F910F91FF90EF90DF90CF90BF90AF90CE
:100870009F908F907F906F905F904F903F902F90C0
:100880000C949B03302F212F8C01832F922F3E2D10
:100890002F2DED84FE843D872E879501201B310B83
:1008A00038872F8396012E193F093A8729873C0103
:1008B000601A710A2D853E852E193F093A832983D6
:1008C0009C012A193B093C832B838D859E858C19BD
:1008D0009D099C878B872D853E852C153D0509F448
:1008E00042C0C60101979E838D834701512C412C44
:1008F000312C212C8D819E8188159905CCF1C10167
:1009000069857A850E9472179B01200F311FC201F1
:1009100069817A810E947217600F711F8F8198859B
:10092000280E391E460C571C621773071CF4922FB1
:100930009B01692F90E48916910438F46F5F462F6C
:10094000421BB401C9010E949B032FEF821A920A35
:10095000D1CF3A2D2B2D5C01832F922F3D852E85F3
:10096000DE86CD8670C02D853E853E832D83BDCF2E
:10097000C4018C199D092B813C81829F6001839F5A
:10098000D00C929FD00C1124C4018E199F09869D12
:100990007001879DF00C969DF00C11248D859E852D
:1009A000881599050CF452C0C6016B857C850E94A0
:1009B00072179B012A0D3B1DC70169817A810E9434
:1009C0007217600F711F8B819C81C80ED91EE60CB7
:1009D000F71C621773071CF4922F9B01692F90E498
:1009E0008916910438F46F5F462F421BB401C90188
:1009F0000E949B032FEF821A920AD0CFE216F306D1
:100A00000CF001CF2D853E85E216F3060CF4A1CF44
:100A1000302F212F8A015C01832F922F3C2D2D2D09
:100A2000CD84DE84FE86ED86E32EF22EE1CEE21644
:100A3000F3060CF432CF302F212F8501A32EB22ED6
:100A40003E2D2F2D7601C32ED22E27CF2E960FB6F8
:100A5000F894DEBF0FBECDBFDF91CF911F910F91F4
:100A6000FF90EF90DF90CF90BF90AF909F908F90CE
:100A70007F906F905F904F903F902F900895E6EA9F
:100A8000F1E0A0E0B8E000800EBC8111012C1197CC
:100A9000A0FDFDCF0192B9F70DB40895FC0180913E
:100AA000A501882311F13FB7F89482E08093E90013
:100AB0002091F200822F90E01816190614F481E0BC
:100AC00090E0882339F0289844E64093A4014091AF
:100AD000F1004083222339F02091F200211103C05C
:100AE0002BE62093E8003FBF08958FEF9FEF089516
:100AF0002FB7F89483E08093E9009091E800892F64
:100B0000807295FF04C09091F20080E4891B2FBF92
:100B1000089580919C0181110DC082E0809398011D
:100B200084E08093990110929B0110929A0181E0D8
:100B300080939C0188E991E00895CF93DF931F9201
:100B4000CDB7DEB76983DC01ED91FC910280F381C2
:100B5000E02D41E050E0BE016F5F7F4F09950F909F
:100B6000DF91CF91089583E08093E9008091F200B6
:100B7000882319F08AE38093E80008950E9478059D
:100B800090E00895CF93DF931F92CDB7DEB7FC01BD
:100B90008485958597FD08C02FEF3FEF3587248723
:100BA0000F90DF91CF910895CE0101960E944E05DE
:100BB000019719F4898190E0F3CF8FEF9FEFF0CF89
:100BC0000F931F93CF93DF931F92CDB7DEB78C01A6
:100BD000FC018485958597FF0BC0CE0101960E948C
:100BE0004E05019771F4898190E0F801958784871B
:100BF000F801848595850F90DF91CF911F910F911A
:100C000008958FEF9FEFF1CFFC018485958597FDC7
:100C10000BC09FB7F89482E08093E9008091F200C6
:100C20009FBF90E0019608959FB7F89482E080936B
:100C3000E9008091F2009FBF90E0089540919201F9
:100C400050919301209190013091910142175307E7
:100C5000B4F49091E8009570E1F39091E80092FD72
:100C600019C08093F10080919201909193010196B7
:100C70008F739927892B19F48EEF8093E800809168
:100C80009201909193010196909393018093920128
:100C900081E0089580E00895DF92EF92FF920F9334
:100CA0001F93CF93DF93D82E8A01EB017B01E40ED3
:100CB000F51ECE15DF0559F0D7FE12C0FE01849156
:100CC0000E941E0621968111F4CF0FEF1FEFC8017D
:100CD000DF91CF911F910F91FF90EF90DF900895DA
:100CE0008881EECF0F931F93CF93DF931F92CDB7E1
:100CF000DEB782E0898342E450E069E676E080E88E
:100D00000E944C060E948905DC0112960D911C91EF
:100D10000115110589F0D801ED91FC910280F38154
:100D2000E02DBE016F5F7F4FC801099597FD04C09C
:100D3000F80100851185ECCF89810F90DF91CF916B
:100D40001F910F910895615030F02091F100FC0146
:100D500020830196F8CF289884E68093A401089513
:100D6000AF92BF92CF92DF92EF92FF920F931F93B9
:100D7000CF93DF936C017B018B01040F151FEB01F7
:100D80005E01AE18BF08C017D10759F06991D601AE
:100D9000ED91FC910190F081E02DC6010995892B20
:100DA00079F7C501DF91CF911F910F91FF90EF90DF
:100DB000DF90CF90BF90AF9008953FB7F8948091A7
:100DC000810190918201A0918301B091840126B5A7
:100DD000A89B05C02F3F19F00196A11DB11D3FBF73
:100DE000BA2FA92F982F8827BC01CD01620F711D42
:100DF000811D911D42E0660F771F881F991F4A953C
:100E0000D1F708958F929F92AF92BF92CF92DF92C7
:100E1000EF92FF926B017C010E94DD064B015C01A9
:100E2000C114D104E104F104B9F00E94DD0668198F
:100E300079098A099B09683E73408105910580F311
:100E400021E0C21AD108E108F10888EE880E83E09B
:100E5000981EA11CB11CE4CFFF90EF90DF90CF90C3
:100E6000BF90AF909F908F9008958F929F92AF9276
:100E7000BF92CF92DF92EF92FF920F931F93CF9387
:100E8000DF936C017B018A0180910B01882309F4B7
:100E90005CC08091A501882309F457C08091970117
:100EA00080FF05C08091E00082608093E000E8014F
:100EB000B12C8AEFA82E93E0892E2AE3922E209758
:100EC00011F4BB20D9F10E94780581110AC0AA94BF
:100ED000AA20D9F161E070E080E090E00E94020772
:100EE000EECF8C171D0611F00CF08C2F9FB7F894E5
:100EF0008092E9002091E80025FD02C09FBFDFCF6E
:100F0000282F30E0C21BD30BF701815020F0419114
:100F10004093F100FACFE20EF31EBB2021F0909235
:100F2000E800B12CEBCF8091E80085FDE7CF9092EF
:100F3000E800BB24B394209709F3F3CF5D9884E6CF
:100F400080939601101611063CF081E090E0F601C6
:100F50009383828310E000E0C801DF91CF911F915D
:100F60000F91FF90EF90DF90CF90BF90AF909F9048
:100F70008F9008952D9A0895BC0190E080E00C9424
:100F800002078FB18095807F669B88601C9B846080
:100F9000089520E191E061FD94E060FD990F62FD0C
:100FA0009295687F269FD0011124A80FAA55BE4FA5
:100FB0008C9140FF03C0892B8C93089590958923D1
:100FC000FBCF2F923F924F925F926F927F928F92C0
:100FD0009F92AF92BF92CF92DF92EF92FF920F93C8
:100FE0001F93CF93DF93CDB7DEB728970FB6F89452
:100FF000DEBF0FBECDBF9E838D836A3061F5DC01FD
:1010000055968C91B8E08B9F90011124ED81FE8163
:1010100081899289820F931F928B818B108A178608
:1010200081E090E028960FB6F894DEBF0FBECDBFEA
:10103000DF91CF911F910F91FF90EF90DF90CF90B4
:10104000BF90AF909F908F907F906F905F904F90E8
:101050003F902F9008956D3019F32D813E81388790
:101060002F83D9011F960D911C91509700381105BF
:101070000CF07CC05196AD90BC90B0E4AB16B104BE
:101080000CF074C0F901258825E0C801229E800D6E
:10109000911D1124181619060CF068C0622C712CD1
:1010A000C30133E0880F991F3A95E1F78A0D9B1D24
:1010B000181619060CF05AC0F489FB83AF81B88565
:1010C0005396BC91BC83629FB0011124FB01E4558F
:1010D000FF4F2F011982F2018491F981F53009F453
:1010E00080E0450128E02A83A82FB0E0BE83AD83CD
:1010F0003C8080FF3B80311004C0BB81EC81BE1777
:10110000F9F078018E2D801B8215D0F4D12CC12CE2
:10111000C21490F4F0E8EF16F10450F4B601680D33
:10112000791D6034710520F4432DC7010E94C90761
:101130002FEFC21AD20AECCF3FEFE31AF30AE2CF45
:101140008D819E81959587959A8191509A83860C81
:10115000971C9111C9CFA981AF5FA983BFEF4B1A2B
:101160005B0A060D171DA63009F0B5CFEF81F88593
:101170002589422F50E087859089F6E02F9F800DCA
:10118000911D1124AF81B88550969C938E931F9723
:1011900056962C915697222309F442CF6AEF6403A6
:1011A0009001659F300D112420583F4F28173907B3
:1011B0000CF036CFED91FC9111970190F081E02D6C
:1011C0006AE0CD0109952CCF0895089590E080E064
:1011D0000895FC0101900020E9F73197AF01481B09
:1011E000590BBC0186EF95E00C94B0068F929F924C
:1011F000AF92BF920F931F93CF93DF93CDB7DEB71C
:10120000A1970FB6F894DEBF0FBECDBF19A2423032
:1012100008F44AE08E010F5D1F4F842E912CB12CF3
:10122000A12CA50194010E943116E62FB901CA0133
:10123000EA30F4F4E05DD801EE938D01232B242BEA
:10124000252B79F790E080E0109719F0CD010E94EE
:10125000E908A1960FB6F894DEBF0FBECDBFDF91AF
:10126000CF911F910F91BF90AF909F908F90089555
:10127000E95CE1CF4F925F926F927F928F929F9243
:10128000AF92BF92CF92DF92EF92FF920F931F9394
:10129000CF936B017C01742EAC019B010E946D17F2
:1012A000882399F08FE391E0CF911F910F91FF90E8
:1012B000EF90DF90CF90BF90AF909F908F907F90F6
:1012C0006F905F904F900C94E90846015701E894A5
:1012D000B7F82FEF3FEF4FE75FE7C501B4010E947A
:1012E0006D1781110DC02FEF3FEF4FE75FE7C5018D
:1012F000B4010E94C01418161CF483E491E0D4CF0A
:101300002FEF3FEF4FE75FE4C701B6010E94681778
:1013100018161CF487E491E0C7CF2FEF3FEF4FE79B
:101320005FECC701B6010E94C01487FDF3CF20E037
:1013300030E0A901C701B6010E94C01410E000E02E
:1013400087FF0AC06DE286EF95E00E94E1078C01FD
:10135000F7FAF094F7F8F094C0E060E070E080E015
:101360009FE37C1641F020E030E040E251E40E942F
:10137000C016CF5FF6CFA70196010E9454162B012D
:101380003C010E9439174B015C014AE00E94F608BB
:101390007C01E00EF11ECC23C1F1C501B4010E9415
:1013A000C5149B01AC01C301B2010E9453164B014D
:1013B0005C016EE286EF95E00E94E107E80EF91EFF
:1013C000C15018F120E030E040E251E4C501B40121
:1013D0000E9426152B013C010E9439174B01B12CAC
:1013E000A12C4AE0C501B4010E94F608E80EF91EDE
:1013F000C501B4010E94C5149B01AC01C301B20137
:101400000E9453164B015C01DBCFC701CF911F91A6
:101410000F91FF90EF90DF90CF90BF90AF909F9093
:101420008F907F906F905F904F9008950C94E4158B
:101430000E9482190F931F93CF93DF93EC01888151
:101440009981009759F02A813B812617370730F0A0
:1014500081E0DF91CF911F910F9108958B016F5F14
:101460007F4F0E94C518009759F0998388831B838A
:101470000A832C813D81232B59F7FC011082E8CF90
:1014800080E0E7CFCF93DF93EC01888199810097CB
:1014900011F00E943C18198218821D821C821B8246
:1014A0001A82DF91CF910895EF92FF920F931F93CD
:1014B000CF93DF93EC018617970781F0FB01008142
:1014C00011810115110539F0E480F580B7010E9402
:1014D0001A0A81110BC0CE010E94420ACE01DF918F
:1014E000CF911F910F91FF90EF900895FD82EC82B4
:1014F000B801888199810E949919F0CFFC018081FF
:101500009181009711F00C943C1808951F920F924E
:101510000FB60F9211248F939F938091E1009091C9
:10152000E100937F9093E10083FF0FC01092E900E8
:1015300091E09093EB001092EC0092E39093ED0019
:101540001092A50198E09093F00082FF22C093E0F2
:101550009093E9009091F200992319F09AE3909307
:10156000E80090919601992341F090919601915055
:1015700090939601911101C05D9A9091A4019923D5
:1015800041F09091A40191509093A401911101C058
:10159000289A84FF18C08091E2008E7E816080933B
:1015A000E2008091E1008F7E8093E10080919701BD
:1015B0008E7E8061809397019F918F910F900FBED7
:1015C0000F901F90189580FFF7CF8091E2008E7EDC
:1015D00080618093E2008091E1008E7E8093E10043
:1015E000809197018E7E8160E5CF1F920F920FB69A
:1015F0000F921124CF92DF92EF92FF920F931F93DD
:101600002F933F934F935F936F937F938F939F930A
:10161000AF93BF93EF93FF93CF93DF93CDB7DEB735
:101620006C97DEBFCDBF1092E9008091E80083FF88
:1016300025C068E0CE0145960E94A30682EF809304
:10164000E8008D8987FF39C09091E80090FFFCCFBA
:10165000982F907609F034C19E894F89588D2F8933
:10166000F88C911131C0803861F58091950180939B
:10167000F1001092F1008EEF8093E8006C960FB6A7
:10168000F894DEBF0FBECDBFDF91CF91FF91EF91F8
:10169000BF91AF919F918F917F916F915F914F918A
:1016A0003F912F911F910F91FF90EF90DF90CF907E
:1016B0000F900FBE0F901F9018959EEF9093E8002B
:1016C000C7CF1092F100D5CF913059F48111D3CF0B
:1016D0004130510581F6809195018D7F8093950170
:1016E000CACF933049F48111C6CF4130510519F664
:1016F000809195018260F2CF953041F48091E800AD
:1017000080FFFCCF20682093E300B5CF963009F02E
:10171000A9C00B8D1C8D22E01092E900109293015C
:1017200010929201F2122EC010929101109290012B
:101730000E9472061F8299E09983FA8291E09E834B
:1017400090EA98879AEF99872091920130919301BE
:10175000275F3F4F3C832B838D831092E9001092CB
:10176000930110929201109391010093900149E02E
:1017700050E0BE016F5F7F4F80E00E944C060E94E8
:10178000720679CF10939101009390010E94890510
:10179000DC0112960D911C910115110509F451C13E
:1017A000D801ED91FC910480F581E02DBE016B5EC6
:1017B0007F4FC8010995009709F03EC1F8010085E7
:1017C0001185EACFF3E0FF120EC08F89882309F458
:1017D00040C0823061F440E860E18DEC96E00E9408
:1017E000710D811148CF81E28093EB0047CF8130AA
:1017F00029F440E86BE081EC96E0F1CF833099F773
:101800000E948905DC011296ED90FC908E010F5F1D
:101810001F4F6801E114F10479F0D701ED91FC91BB
:101820000680F781E02DB801C7010995080F111D49
:10183000F701E084F184EECFD8011C92F60101900B
:101840000020E9F73197BF016C197D0940E0C6011E
:10185000C6CF6BEA76E0FB01449150E080E80E943D
:101860004C0609CF973009F4BECF983021F481E0BF
:101870008093F10000CF993009F0FDCE837009F01C
:10188000B2CFE3E1F1E081E031E096E32191222360
:1018900071F08093E9003093EB00DF0111972C91F8
:1018A0002093EC009093ED008F5F873079F78EE7FF
:1018B0008093EA001092EA008F898093A501DBCE25
:1018C0008B8D9C8D1092E9001092930110929201E1
:1018D0009093910180939001898D811192C08E899E
:1018E0009D89913A49F4813209F07DCF47E050E07B
:1018F00064E071E080E0B3CF913209F074CF8332BD
:1019000069F48F89988DB0E0A0E0809300019093F6
:101910000101A0930201B0930301ADCE803269F4BE
:101920008091E80082FFFCCF67E084E091E00E94B4
:10193000A3068BEF8093E8009ECE823209F09BCE07
:101940008F8980930B01EEEFFFE7859194918B3F98
:101950009C4D51F1E0E0F8E0809104019091050187
:10196000A0910601B0910701803B9440A105B1050B
:10197000F1F480910B0180FD1AC0EE3F8AE0F80778
:1019800089F587E797E79183808380916000809352
:10199000940188E19BE00FB6F894A89580936000CD
:1019A0000FBE9093600067CEEEEFFAE0D5CF808156
:1019B00091818737974709F05ECEA89580916000A6
:1019C0008861809360008091940180936000EE3F75
:1019D0002AE0F20789F08091FE0A9091FF0A918334
:1019E000808349CE808191818737980751F2909307
:1019F000FF0A8093FE0AC5CF1092FF0A1092FE0ADA
:101A00003ACE0E948905DC0112960D911C910115B8
:101A1000110509F4E8CED801ED91FC910190F08117
:101A2000E02DBE016B5E7F4FC8010995811123CE69
:101A3000F80100851185EBCF181619060CF41BCEA2
:101A4000D2CEF1E0FF12BECE6FEA76E004CF1F9255
:101A50000F920FB60F9211242F933F938F939F9362
:101A6000AF93BF938091850190918601A0918701EA
:101A7000B09188013091800123E0230F2D3758F574
:101A80000196A11DB11D2093800180938501909343
:101A90008601A0938701B093880180918101909184
:101AA0008201A0918301B09184010196A11DB11D15
:101AB0008093810190938201A0938301B09384016C
:101AC000BF91AF919F918F913F912F910F900FBE3A
:101AD0000F901F90189526E8230F0296A11DB11DA7
:101AE000D2CFEF92FF920F931F93CF93DF93F82EF5
:101AF000192FE62E042F81E0860F880F0E941E0604
:101B000083E00E941E06CF2DD12FEC0EFD2EF11C7E
:101B1000CE15DF05B9F007FF13C0FE0184910E94C6
:101B20001E06182F80E00E941E0681232196811137
:101B3000EFCFDF91CF911F910F91FF90EF9008951C
:101B40008881EDCF81E0F5CFFC01138212821186EE
:101B5000128680E183871086178215868FE291E0D6
:101B6000918380838DE391E095838483108A178627
:101B7000128A118A81E0838B148A858B168A0895D4
:101B8000CF93DF93EC0186EF95E00E94A40DE6EF82
:101B9000F5E0108E178A8A819B81938382838F81DF
:101BA000988590878783898581878A8582878B85B9
:101BB00083878C8584878D8585878E8586878F85AD
:101BC0009889908B878789899A89928B818B8B8959
:101BD000838B8C89848B8D89858B8E89868BDF9115
:101BE000CF910895CF93DF93EC0181E196E00E94BD
:101BF000A40DE1E1F6E08A819B81938382838F814A
:101C0000988590878783898581878A8582878B8558
:101C100083878C8584878D8585878E8586878F854C
:101C20009889908B878789899A89928B818B8B89F8
:101C3000838B8C89848B8D89858B8E89868BDF91B4
:101C4000CF9108950F931F93CF93DF93EC018B01F6
:101C5000198218821B821A821D821C820E94540AD9
:101C6000F801868197819F838E83808591859987EE
:101C70008887828593859B878A8784859585A685B5
:101C8000B7858C879D87AE87BF8780899189A28918
:101C9000B389888B998BAA8BBB8BDF91CF911F91D6
:101CA0000F910895EF92FF920F931F93CF93DF93BD
:101CB000EC017B01198218821B821A821D821C8210
:101CC000FB0101900020E9F731978F01061B170BEC
:101CD000B8010E941A0A811109C0CE01DF91CF918B
:101CE0001F910F91FF90EF900C94420A1D830C837B
:101CF000B70188819981DF91CF911F910F91FF905A
:101D0000EF900C949919CF92DF92EF92FF920F937C
:101D10001F93CF93DF93EC018B0169017A016FE789
:101D200071E00E94520EB801CE010E94540A8AE06E
:101D300090E09F838E831986188685E090E09B87CC
:101D40008A871C861D861E861F86C88AD98AEA8ACB
:101D5000FB8ADF91CF911F910F91FF90EF90DF9061
:101D6000CF900895CF92DF92EF92FF920F931F933F
:101D7000CF93DF93CDB7DEB767970FB6F894DEBF8A
:101D80000FBECDBFE6EAF5E01382128288EE93E043
:101D9000A0E0B0E084839583A683B7838DE191E0D2
:101DA000918380838FEF9FEF958784876BE471E049
:101DB00085EF96E00E94520E60E571E08BEF96E0B1
:101DC0000E94520E65E571E081E097E00E94520E9C
:101DD00069E571E08BEC96E00E94520E6FE571E0D0
:101DE00081ED96E00E94520E66E671E087ED96E086
:101DF0000E94520E6CE671E08DED96E00E94520E4C
:101E000060E771E083EE96E00E94520E66E771E0B3
:101E100089EE96E00E94520E6BE771E08FEE96E03D
:101E20000E94520E6FE571E0CE0101960E94520EA3
:101E300020E030E040E85FE3BE016F5F7F4F87EB5B
:101E400096E00E94830ECE0101960E947E0A66E60D
:101E500071E0CE0101960E94520E20E030E040E099
:101E60005FE3BE016F5F7F4F83EA96E00E94830EBF
:101E7000CE0101960E947E0A6CE671E0CE010196C9
:101E80000E94520E20E030E040E85EE3BE016F5F4A
:101E90007F4F8FE896E00E94830ECE0101960E944C
:101EA0007E0A6BE771E0CE0101960E94520E20E09F
:101EB00030E040E85FE3BE016F5F7F4F8BE796E065
:101EC0000E94830ECE0101960E947E0A67EB76E0A7
:101ED0008FE396E00E94220E63EA76E083E596E0C7
:101EE0000E94220E6FE876E087E696E00E94220EBE
:101EF00088E296E00E94A40D08E216E0F8018281D3
:101F000093819C838B83878190859987888781853E
:101F10008A8782858B8783858C8784858D87858555
:101F20008E8786858F878FE2C82E81E0D82EDA8251
:101F3000C9829DE3E92E91E0F92EFE82ED8287852C
:101F40009089998B888B818992899B8B8A8B8389D5
:101F50008C8B84898D8B85898E8B86898F8BCE0126
:101F600001960E94F20DF801828193819C838B83FC
:101F7000878190859987888781858A8782858B87E5
:101F800083858C8784858D8785858E8786858F87D9
:101F9000DA82C982FE82ED8287859089998B888B4F
:101FA000818992899B8B8A8B83898C8B84898D8B89
:101FB00085898E8B86898F8BCE0101960E94C00DFC
:101FC00067960FB6F894DEBF0FBECDBFDF91CF91FD
:101FD0001F910F91FF90EF90DF90CF90089578942C
:101FE00084B5826084BD84B5816084BD85B582601E
:101FF00085BD85B5816085BD80916E0081608093CF
:102000006E00109281008091810082608093810037
:102010008091810081608093810080918000816047
:1020200080938000809191008260809391008091E4
:1020300091008160809391008091900081608093F5
:1020400090008091C10084608093C1008091C100A4
:1020500082608093C1008091C10081608093C10043
:102060008091C30081608093C3008091C000826032
:102070008093C0008091C20081608093C2008091F3
:102080007A00846080937A0080917A0082608093E5
:102090007A0080917A00816080937A0080917A0042
:1020A000806880937A001092A50110929501109299
:1020B00097018091D70081608093D70080EA809358
:1020C000D80089B5806189BD89B5826089BD09B4B0
:1020D00000FEFDCF61E070E080E090E00E9402072A
:1020E0008091D8008F7C80618093D8008091E0003F
:1020F000807F8093E0008091E1008E7E8093E100FC
:102100008DE08093E200559A209A81EC80937C00C8
:1021100085B1806F85B984B1877E84B984B1876EBB
:1021200084B95E9A5F988AB1806D8AB9769A6E9802
:1021300081B3806F81BB899880B38D7080BB80E54F
:102140008CBD81E08DBD85E090E00E94BC075F9A68
:1021500085E090E00E94BC075E985C98ECE5F6E0B4
:1021600084918EBD00000DB407FEFDCF319626E0B0
:10217000E936F207A9F75C9A81E8809364008091C0
:10218000650081608093650080E00E943F050E94A9
:10219000C10787FF15C05C9885EA8EBD00000DB4AD
:1021A00007FEFDCF5C9A2E982F982D9880916400A1
:1021B00080628093640081E083BF889513BEFCCF6A
:1021C0000E94C10782FF48C02D980E94C1078478F1
:1021D0008438E1F40E94BA0788EC90E00E94BC07C2
:1021E0002F9882E090E00E94E4158F3F29F06FEF76
:1021F00082E090E00E94EC1584EF91E00E94BC0721
:102200002F9A0E94C10784788438D9F30E94C107AD
:1022100084718431E1F40E94BA0788EC90E00E9456
:10222000BC072E9882E090E00E94E415882329F0F4
:1022300060E082E090E00E94EC1584EF91E00E9463
:10224000BC072E9A0E94C10784718431D9F388ECAF
:1022500090E00E94BC07B4CF0E94BA0782E090E0F1
:102260000E94160A882309F447C03E9A3F9A81E0EB
:1022700090E00E94160A382F3470932E81FF0EC012
:1022800031112E98C0EFDFEF08E010E00E94C10787
:1022900086FF35C02E9A2F9A0E94BA0782E390E0FB
:1022A0000E94BC070E94C1078111F8CF82E480938D
:1022B00033069924939436E0832E8FB7F894409197
:1022C00085015091860160918701709188018FBFCF
:1022D00080913406942F981B80913506882309F449
:1022E000A2C09093360610923506E0E0F0E0EF2BA6
:1022F00021F30E940000DDCF3E983F98B8CF99208F
:1023000029F0C430D10511F42E9A2F9881E00E9453
:102310003F059E01D7FF04C0222733272C1B3D0B0E
:1023200027703327CE01D7FD079673E095958795E3
:102330007A95E1F7D7FF05C00197A801421B530B1F
:102340009A01AC015695542F4427579547954A5505
:102350005E4FD12CC12C3801621A730A8F3F6FEF88
:1023600096070CF43AC07A01E4E9EE0EF11CDA01AA
:1023700070E060E0F601E455FA4F5F018F3F980787
:1023800081F0F501E60FF71FE491022E01C0EE0F78
:102390000A94EAF75496FC915497EF2B5496EC93D9
:1023A00054972115310581F0F501E60FF71FE491EF
:1023B000F0E02F01062C02C0559447940A94E2F7EE
:1023C000F7018080482840826F5F7F4FFFEFEF1A50
:1023D000FF0A11966835710589F6019668E5C60E03
:1023E000D11C40585F4FE0EBCE16D10409F0B6CFB8
:1023F00080E00E943F058FE090E00E94BC0721969C
:10240000C931D10509F042CF992011F02F9A2D98AA
:1024100080E991E00E94BC070E94BA0788E296E03A
:102420000E9445143BCF20913306921740F49F5FE2
:10243000921708F05ACF93BE889513BE56CF90924C
:1024400035064093340620912F06309130062F5FD9
:102450003F4F3093300620932F06E6EAF1E08111DA
:102460008FEF002481938193819381930394D1F71B
:1024700010923A06109239061092380610923706DA
:1024800080913106809332060E94C1078093310605
:102490009091320695FD10C085FF0EC020918E01EF
:1024A00030918F01121613060CF0CAC02150310969
:1024B00030938F0120938E0196FD10C086FF0EC0D1
:1024C00020918E0130918F01223031050CF0BBC07C
:1024D0002F5F3F4F30938F0120938E0193FD1BC0E0
:1024E00083FF19C080918E0190918F01009709F0B0
:1024F000AFC06091470670914806072E000C880B0C
:10250000990B0E94C71460934B0670934C068093FE
:102510004D0690934E068FB7F894C0908501D090E9
:102520008601E0908701F09088018FBF80918A0139
:1025300090918B01A0918C01B0918D01A701960122
:10254000281B390B4A0B5B0BDA01C901883E93400B
:10255000A105B105E8F1CFE3D6E0288939894A8998
:102560005B896C857D858E859F850E9454166C875E
:102570007D878E879F8764964BE756E04C175D07F3
:1025800061F780918901882309F48EC020918B0620
:1025900030918C0640918D0650918E066091870691
:1025A000709188068091890690918A060E9454163F
:1025B00060938706709388068093890690938A06B5
:1025C000C0928A01D0928B01E0928C01F0928D0131
:1025D0002FE3422E26E0522EE20110E000E0B12C63
:1025E000A12C6C857D858E859F850E9432171B01ED
:1025F0008A859B85821593050CF084C06C807D8054
:102600009BECE92E96E0F92ED12CC12CF7018481A8
:1026100095816816790609F06AC088819981608180
:102620007181009709F451C06115710509F047C027
:102630006114710409F457C0FC01808190E051C01D
:1026400022E030E035CF10928F0110928E0146CFFC
:102650008130910599F460915B0670915C06072EBC
:10266000000C880B990B0E94C71460935F0670934F
:10267000600680936106909362064DCF029709F041
:102680004ACF60916F0670917006072E000C880B80
:10269000990B0E94C714609373067093740680931D
:1026A00075069093760637CF609183067091840605
:1026B000072E000C880B990B0E94C71479CF0E943B
:1026C00090190FC01092890131C06115710559F040
:1026D0006114710441F0FB01808190E09195819536
:1026E0009109892B21F40115110509F48601FFEFE9
:1026F000CF1ADF0A26E0E20EF11C37E0C316D10440
:1027000009F084CF8E819F81821593051CF44FEFD1
:10271000A41AB40A649656E0CB37D50709F061CF06
:10272000AB2881F29092890105E010E0C090870605
:10273000D0908806E0908906F0908A066091810624
:1027400070918206072E000C880B990B0E94C7140B
:102750009B01AC01C701B6010E946817181614F45A
:1027600006E010E010930E0600930D061092060688
:10277000109205068EE190E090930806809307067C
:1027800042E0C701B6010E943A09D0E0C0E01092D1
:10279000060610920506D0930806C0930706F201BC
:1027A000648575858685978542E00E943A092A9658
:1027B000F4E14F0E511CCE31D10549F710920606B7
:1027C0001092050628E230E03093080620930706B1
:1027D00080910D0690910E06889EF001899EF00D65
:1027E0001124E553F94F448155816081718186EF51
:1027F00095E00E94B006D0E0C0E041E064E370E004
:10280000CE010E94C9072196C038D105B1F74CE22C
:1028100050E0509321064093200687E390E0909388
:1028200023068093220680918E0190918F01889ECD
:10283000F001899EF00D1124EB50F94F4481558130
:102840006081718181E196E00E94B0068DE3E82EFF
:10285000F12C03E010E027E330E043E050E06AE3CE
:1028600070E090E080E00E94D2030CE710E027E3E4
:1028700030E04CE750E06AE370E08FE790E00E94C0
:10288000D20380E00E943F0530CD0F931F93CF937A
:10289000DF938C0181E090E00E94160A80FF32C035
:1028A0008AE090E00E94160A9FEF980F9E3F50F535
:1028B00022E330E0D80150963C932E931F9728E3F3
:1028C00030E052963C932E935197CBE0D0E0D80164
:1028D000ED91FC910190F081E02D682FC8010995E0
:1028E000CE010E94160A2196C131D10581F780E000
:1028F0000E943F0588EE93E0DF91CF911F910F91E9
:102900000C94BC07DF91CF911F910F91089504970C
:102910000C944514CF93DF9387E696E00E947E0ADD
:1029200083E596E00E947E0A8FE396E00E947E0A8D
:102930008BE796E00E947E0A8FE896E00E947E0A6E
:1029400083EA96E00E947E0A87EB96E00E947E0A68
:10295000C5EFD6E02697CE010E947E0A86E0CB3CEA
:10296000D807C1F781E097E00E947E0A8BEF96E0DE
:102970000E947E0A85EF96E0DF91CF910C947E0A4B
:102980000E94021508F481E00895E89409C097FBBD
:102990003EF490958095709561957F4F8F4F9F4F36
:1029A0009923A9F0F92F96E9BB279395F69587957A
:1029B00077956795B795F111F8CFFAF4BB0F11F43D
:1029C00060FF1BC06F5F7F4F8F4F9F4F16C08823E4
:1029D00011F096E911C0772321F09EE8872F762F1A
:1029E00005C0662371F096E8862F70E060E02AF05B
:1029F0009A95660F771F881FDAF7880F9695879547
:102A000097F90895990F0008550FAA0BE0E8FEEF1B
:102A100016161706E807F907C0F012161306E407A2
:102A2000F50798F0621B730B840B950B39F40A269B
:102A300061F0232B242B252B21F408950A2609F479
:102A4000A140A6958FEF811D811D08950E94391523
:102A50000C94AA150E949C1538F00E94A31520F032
:102A6000952311F00C9493150C94991511240C9442
:102A7000DE150E94BB1570F3959FC1F3950F50E0D2
:102A8000551F629FF001729FBB27F00DB11D639F20
:102A9000AA27F00DB11DAA1F649F6627B00DA11DC6
:102AA000661F829F2227B00DA11D621F739FB00D6C
:102AB000A11D621F839FA00D611D221F749F3327DC
:102AC000A00D611D231F849F600D211D822F762F75
:102AD0006A2F11249F5750409AF0F1F088234AF052
:102AE000EE0FFF1FBB1F661F771F881F91505040BE
:102AF000A9F79E3F510580F00C9493150C94DE15B8
:102B00005F3FE4F3983ED4F3869577956795B79544
:102B1000F795E7959F5FC1F7FE2B880F911D96955E
:102B2000879597F9089597F99F6780E870E060E0CE
:102B300008959FEF80EC089500240A941616170656
:102B400018060906089500240A941216130614069E
:102B500005060895092E0394000C11F4882352F001
:102B6000BB0F40F4BF2B11F460FF04C06F5F7F4FB9
:102B70008F4F9F4F089557FD9058440F551F59F0A0
:102B80005F3F71F04795880F97FB991F61F09F3F5A
:102B900079F087950895121613061406551FF2CF83
:102BA0004695F1DF08C0161617061806991FF1CFD3
:102BB00086957105610508940895E894BB276627FA
:102BC0007727CB0197F90895F999FECF92BD81BD82
:102BD000F89A992780B50895262FF999FECF1FBA44
:102BE00092BD81BD20BD0FB6F894FA9AF99A0FBE36
:102BF000019608952F923F924F925F926F927F922B
:102C00008F929F92AF92BF92CF92DF92EF92FF92FC
:102C10000F931F93CF93DF93CDB7DEB7CA1BDB0BA8
:102C20000FB6F894DEBF0FBECDBF09942A8839884D
:102C300048885F846E847D848C849B84AA84B98454
:102C4000C884DF80EE80FD800C811B81AA81B98160
:102C5000CE0FD11D0FB6F894DEBF0FBECDBFED0174
:102C60000895A1E21A2EAA1BBB1BFD010DC0AA1FCD
:102C7000BB1FEE1FFF1FA217B307E407F50720F0E5
:102C8000A21BB30BE40BF50B661F771F881F991F60
:102C90001A9469F760957095809590959B01AC01A9
:102CA000BD01CF0108955058BB27AA270E946B167B
:102CB0000C94AA150E949C1538F00E94A31520F0D0
:102CC00039F49F3F19F426F40C9499150EF4E0950D
:102CD000E7FB0C949315E92F0E94BB1558F3BA1724
:102CE000620773078407950720F079F4A6F50C9422
:102CF000DD150EF4E0950B2EBA2FA02D0B01B901B6
:102D000090010C01CA01A0011124FF27591B99F061
:102D1000593F50F4503E68F11A16F040A22F232F6D
:102D2000342F4427585FF3CF469537952795A795BD
:102D3000F0405395C9F77EF41F16BA0B620B730B64
:102D4000840BBAF09150A1F0FF0FBB1F661F771FD5
:102D5000881FC2F70EC0BA0F621F731F841F48F48A
:102D6000879577956795B795F7959E3F08F0B0CF13
:102D70009395880F08F09927EE0F979587950895FA
:102D80000E94D4160C94AA150E94A31558F00E9414
:102D90009C1540F029F45F3F29F00C9493155111D4
:102DA0000C94DE150C9499150E94BB1568F39923B9
:102DB000B1F3552391F3951B550BBB27AA27621737
:102DC0007307840738F09F5F5F4F220F331F441F44
:102DD000AA1FA9F335D00E2E3AF0E0E832D0915078
:102DE0005040E695001CCAF72BD0FE2F29D0660F65
:102DF000771F881FBB1F261737074807AB07B0E8A8
:102E000009F0BB0B802DBF01FF2793585F4F3AF0AD
:102E10009E3F510578F00C9493150C94DE155F3F9E
:102E2000E4F3983ED4F3869577956795B795F79533
:102E30009F5FC9F7880F911D9695879597F908951B
:102E4000E1E0660F771F881FBB1F621773078407B7
:102E5000BA0720F0621B730B840BBA0BEE1F88F7C6
:102E6000E09508950E9439176894B1110C94DE150D
:102E700008950E94C31588F09F5798F0B92F99279D
:102E8000B751B0F0E1F0660F771F881F991F1AF055
:102E9000BA95C9F714C0B13091F00E94DD15B1E0C8
:102EA00008950C94DD15672F782F8827B85F39F0C7
:102EB000B93FCCF3869577956795B395D9F73EF4EE
:102EC00090958095709561957F4F8F4F9F4F089596
:102ED0000E94021508F48FEF08950E940215880BD6
:102EE000990B089597FB072E16F4009407D077FDF1
:102EF00009D00E94861707FC05D03EF49095819575
:102F00009F4F0895709561957F4F0895AA1BBB1B35
:102F100051E107C0AA1FBB1FA617B70710F0A61BD9
:102F2000B70B881F991F5A95A9F780959095BC01FA
:102F3000CD010895EE0FFF1F0590F491E02D099447
:102F40000F931F93CF93DF938230910510F482E0AB
:102F500090E0E0910907F0910A0730E020E0B0E04E
:102F6000A0E0309799F42115310509F44AC0281BD7
:102F7000390B24303105D8F58A819B8161157105A3
:102F800089F1FB0193838283FE0111C0408151814D
:102F90000281138148175907E0F04817590799F43F
:102FA000109761F012960C93129713961C93329619
:102FB000CF01DF91CF911F910F91089500930907E1
:102FC00010930A07F4CF2115310551F0421753072A
:102FD00038F0A901DB019A01BD01DF01F801C1CF81
:102FE000EF01F9CF90930A0780930907CDCFFE0137
:102FF000E20FF31F81939193225031093983288383
:10300000D7CF2091070730910807232B41F4209157
:103010000E0130910F01309308072093070720918C
:103020000C0130910D012115310541F42DB73EB74A
:103030004091100150911101241B350BE0910707BD
:10304000F0910807E217F307A0F42E1B3F0B281797
:10305000390778F0AC014E5F5F4F2417350748F011
:103060004E0F5F1F5093080740930707819391937A
:103070009FCFF0E0E0E09CCFCF93DF930097E9F0A3
:10308000FC01329713821282A0910907B0910A07BE
:10309000ED0130E020E01097A1F420813181820F12
:1030A000931F20910707309108072817390709F067
:1030B00061C0F0930807E0930707DF91CF9108956F
:1030C000EA01CE17DF07E8F54A815B819E014115D1
:1030D0005105B1F7E901FB83EA8349915991C40F86
:1030E000D51FEC17FD0761F4808191810296840F52
:1030F000951FE90199838883828193819B838A83C9
:10310000F0E0E0E012968D919C9113970097B9F54D
:103110002D913C911197CD010296820F931F209122
:103120000707309108072817390739F6309751F506
:1031300010920A0710920907B0930807A093070797
:10314000BCCFD383C28340815181840F951FC817A0
:10315000D90761F44E5F5F4F88819981480F591FED
:10316000518340838A819B8193838283211531051A
:1031700009F0B0CFF0930A07E09309079ECFFD0155
:10318000DC01C0CF13821282D7CFB0E0A0E0EBEC1D
:10319000F8E10C94FC158C01009751F4CB010E94CE
:1031A000A0178C01C801CDB7DEB7E0E10C9418166A
:1031B000FC01E60FF71F9C0122503109E217F307CB
:1031C00008F49DC0D901CD91DC911197C617D7079E
:1031D00098F0C530D10530F3CE01049786179707D4
:1031E00008F3C61BD70B2297C193D1936D937C93A1
:1031F000CF010E943C18D6CF5B01AC1ABD0A4C012E
:103200008C0E9D1EA0910907B0910A07512C412CEC
:10321000F12CE12C109731F5809107079091080768
:103220008815990509F05CC04616570608F058C085
:1032300080910C0190910D01009741F48DB79EB7DC
:103240004091100150911101841B950BE817F9076B
:1032500008F055C0F0930807E0930707F901718360
:103260006083A0CF8D919C91119712966C901297CC
:1032700013967C901397A815B90559F56C0142E097
:10328000C40ED11CCA14DB0420F1AC014A195B093D
:10329000DA011296159780F062827382518340831F
:1032A000D9016D937C93E114F10471F0D701139669
:1032B000FC93EE93129776CF22968C0F9D1FF90107
:1032C00091838083F301EFCFF0930A07E09309071E
:1032D00069CF4816590608F42C017D01D3019ACF15
:1032E000CB010E94A0177C01009749F0AE01B80104
:1032F0000E948719C8010E943C18870153CF10E033
:1033000000E050CF81E090E0F8940C94A019FB010C
:10331000DC0102C001900D9241505040D8F7089551
:10332000FB01DC018D91019080190110D9F3990BFB
:103330000895FB01DC0101900D920020E1F7089552
:1033400013E0C0E7D3E004C0FE010E949A17219663
:0A335000C137D107C9F7F894FFCF89
:10335A00FFFFFFFF00E100000000000000000B0774
:10336A00800000C18081000000000000009D05353A
:10337A0007BE05B3050406C205E00500000000E12A
:10338A0007B006E608E5084514FCFF000087146E3E
:10339A00616E00696E66006F7666004645454400B8
:1033AA00504C41590050455400484150505900482A
:1033BA00554E47525900424F52454400534144002A
:1033CA005449524544005349434B00444541440043
:00000001FF
