:100000000C9474090C949C090C949C090C949C0904
:100010000C949C090C949C090C949C090C949C09CC
:100020000C949C090C949C090C94D20F0C944110D4
:100030000C949C090C949C090C949C090C949C09AC
:100040000C949C090C949C090C949C090C949C099C
:100050000C949C090C949C090C949C090C947312AC
:100060000C949C090C949C090C949C090C949C097C
:100070000C949C090C949C090C949C090C949C096C
:100080000C949C090C949C090C949C090C949C095C
:100090000C949C090C949C090C949C090C949C094C
:1000A0000C949C090C949C090C949C090000000081
:1000B000003E5B4F5B3E3E6B4F6B3E1C3E7C3E1CEE
:1000C000183C7E3C181C577D571C1C5E7F5E1C0034
:1000D000183C1800FFE7C3E7FF0018241800FFE7EB
:1000E000DBE7FF30483A060E2629792926407F05AE
:1000F0000507407F05253F5A3CE73C5A7F3E1C1CC4
:1001000008081C1C3E7F14227F22145F5F005F5F83
:1001100006097F017F006689956A6060606060946F
:10012000A2FFA29408047E040810207E2010080874
:100130002A1C08081C2A08081E101010100C1E0C7F
:100140001E0C30383E3830060E3E0E060000000011
:100150000000005F00000007000700147F147F14F8
:10016000242A7F2A1223130864623649562050003D
:1001700008070300001C2241000041221C002A1C29
:100180007F1C2A08083E0808008070300008080814
:100190000808000060600020100804023E51494534
:1001A0003E00427F400072494949462141494D3352
:1001B0001814127F1027454545393C4A49493141B9
:1001C000211109073649494936464949291E000087
:1001D00014000000403400000008142241141414DC
:1001E0001414004122140802015909063E415D59C8
:1001F0004E7C1211127C7F494949363E41414122D1
:100200007F4141413E7F494949417F090909013EFA
:10021000414151737F0808087F00417F4100204021
:10022000413F017F081422417F404040407F021C33
:10023000027F7F0408107F3E4141413E7F0909094A
:10024000063E4151215E7F09192946264949493216
:1002500003017F01033F4040403F1F2040201F3FDC
:100260004038403F63140814630304780403615961
:10027000494D43007F4141410204081020004141A3
:10028000417F04020102044040404040000307084F
:100290000020545478407F2844443838444444284B
:1002A000384444287F385454541800087E090218F2
:1002B000A4A49C787F0804047800447D400020407A
:1002C000403D007F1028440000417F40007C0478BE
:1002D00004787C080404783844444438FC18242406
:1002E0001818242418FC7C08040408485454542486
:1002F00004043F44243C4040207C1C2040201C3C03
:100300004030403C44281028444C9090907C4464F9
:10031000544C44000836410000007700000041368C
:10032000080002010204023C2623263C1EA1A16112
:10033000123A4040207A3854545559215555794144
:100340002154547841215554784020545579400C1B
:100350001E527212395555555939545454593955FC
:100360005454580000457C410002457D420001453F
:100370007C40F0292429F0F0282528F07C545545AC
:10038000002054547C547C0A097F4932494949323F
:100390003248484832324A4848303A4141217A3A54
:1003A00042402078009DA0A07D39444444393D401E
:1003B00040403D3C24FF2424487E4943662B2FFCCB
:1003C0002F2BFF0929F620C0887E09032054547979
:1003D000410000447D413048484A32384040227A4A
:1003E000007A0A0A727D0D19317D2629292F2826C7
:1003F0002929292630484D402038080808080808CF
:100400000808382F10C8ACBA2F102834FA00007B27
:10041000000008142A142222142A1408950022002D
:1004200095AA005500AAAA55AA55AA000000FF00E7
:10043000101010FF00141414FF001010FF00FF1024
:1004400010F010F0141414FC001414F700FF000056
:10045000FF00FF1414F404FC141417101F10101FD5
:10046000101F1414141F00101010F0000000001FC3
:10047000101010101F10101010F010000000FF10CE
:100480001010101010101010FF10000000FF1400CA
:1004900000FF00FF00001F10170000FC04F41414FC
:1004A0001710171414F404F40000FF00F7141414C8
:1004B00014141414F700F7141414171410101F1048
:1004C0001F141414F4141010F010F000001F101F6B
:1004D0000000001F14000000FC140000F010F010D9
:1004E00010FF10FF141414FF141010101F00000050
:1004F00000F010FFFFFFFFFFF0F0F0F0F0FFFFFF54
:100500000000000000FFFF0F0F0F0F0F38444438AA
:10051000447C2A2A3E147E02020606027E027E02E5
:1005200063554941633844443C04407E201E200604
:10053000027E020299A5E7A5991C2A492A1C4C7241
:1005400001724C304A4D4D303048784830BC625AC8
:10055000463D3E494949007E0101017E2A2A2A2A58
:100560002A44445F444440514A444040444A514034
:100570000000FF0103E080FF000008086B6B0836F5
:1005800012362436060F090F060000181800000066
:100590001010003040FF0101001F01011E00191D55
:1005A0001712003C3C3C3C0000000000F0F89C8E20
:1005B0008783878E9CF8F00000FEFF03030303038C
:1005C000070EFCF80000FEFF0303030303070EFC05
:1005D000F80000FFFF00000000000000FFFF000027
:1005E000FEFF8383838383C7EE7C380000F8FC0E14
:1005F00007030303070EFCF800003F7FE0C0808084
:10060000C0E07F3FFFFF01010101010101FFFF0089
:1006100000FFFF0C0C0C0C1C3E77E3C100007FFFB9
:10062000C0C0C0C0C0E0703F1F00001F3F70E0C0EE
:10063000C0C0E0703F1F00007FFFC1C1C1C1C1E366
:10064000773E1C00001F3F70E0C0C0C0E0703F1F3D
:10065000000000000001FFFF01000000D5F08D1434
:10066000A1C881CFD9F1AF2000202000000000F008
:1006700008081020202020202020202020202020BA
:100680002020100808F0000000000000000000FF1B
:10069000000000100000000000000000000000004A
:1006A0000010000000FF000000000000000000003B
:1006B00003848848301010101013121310101010FB
:1006C00030488884030000000000000000000000A3
:1006D00003040404629A8780403008304080879A7F
:1006E000620404040300000000000000000000F0A9
:1006F000080810202020202020202020202020203A
:100700002020100808F0000000000000000000FF9A
:10071000000000100000000000C0C0C00000000089
:100720000010000000FF00000000000000000000BA
:100730000384884830101010101313131010101079
:100740003048888403000000000000000000000022
:1007500003040404629A8780403008304080879AFE
:10076000620404040300000000000000000000F028
:1007700008081020202020202020202020202020B9
:100780002020100808F0000000000000000000FF1A
:100790000000000001000000000000000000000058
:1007A0000000010000FF0000000000000000000049
:1007B0000384884830101010101010121010101000
:1007C00030488884030000000000000000000000A2
:1007D00003040404629A8780403008304080879A7E
:1007E000620404040300000000000000000000F0A8
:1007F0000808102020202020202020202020202039
:100800002020100808F0000000000000000000FF99
:1008100000000010000000000000000000000000C8
:100820004010000000FF0000000000000000000079
:10083000038488483010101010121212101010107B
:100840003048888403000000000000000000000021
:1008500003040404629A8780403008304080879AFD
:10086000620404040300000000000000000000F027
:1008700008081020202020202020202020202020B8
:100880002020100808F0000000000000000000FF19
:100890000000004040400000000000000000004058
:1008A0004040000000FF00000000000000000000C9
:1008B00003848848301010101012121210101010FB
:1008C00030488884030000000000000000000000A1
:1008D00003040404629A8780403008304080879A7D
:1008E000620404040300000000000000000000F0A7
:1008F0000808102020202020202020202020202038
:100900002020100808F0000000000000000000FF98
:1009100000000018180080000000000000008000A7
:100920001818000000FF0000000000000000000098
:100930000384884830131410101012101010141370
:100940003048888403000000000000000000000020
:1009500003040404629A8780403008304080879AFC
:10096000620404040300000000000000000000C056
:100970002020408080808080808080808080808077
:100980008080402020C0000000000000000000FF28
:100990000000A040A00000000000000000000000D7
:1009A000A040A00000FF00000000000000000003C5
:1009B0000C90A060404040404044444C4C4040407B
:1009C0004060A0900C030000000000000000000048
:1009D00003040404629A8780403008304080879A7C
:1009E000620404040300000000000000000000F0A6
:1009F0000808102020202020202020202020202037
:100A00002020100808F0000000000000000000FF97
:100A10000000001812040800000000000000080494
:100A20001218000000FF000000000000000000009D
:100A30000384884830101010101212121010101079
:100A4000304888840300000000000000000000001F
:100A500003040404629A8780403008304080879AFB
:100A600062040404030000000000002020000000D5
:100A70000000000000000000000000000000000076
:100A80000000000000000000000000000000000066
:100A9000000000E0101020404040404040404040F6
:100AA00040404040201010E0000000000000000026
:100AB0000000007F80000000001000008000800027
:100AC000001000000000807F000000000000000017
:100AD00000000000010204040878884829292948F8
:100AE00088780804040201000000000000000000F3
:100AF00000000000000000000000000000000000F6
:100B000000000000000000000000000000000000E5
:100B1000000000E010102040404040404040404075
:100B200040404040201010E00000000000000000A5
:100B30000000007F8000000000100000C0C0C00066
:100B4000001000000000807F000000000000000096
:100B50000000000001020404087888482929294877
:100B60008878080404020100000000000000000072
:100B70000000000000000000000000000000000075
:100B80000000000000000000000000000000000065
:100B9000000000E0101020404040404040404040F5
:100BA00040404040201010E0000000000000000025
:100BB0000000007F80000000000000020000000034
:100BC000000000020000807F000000000000000024
:100BD00000000000010204040878884829292948F7
:100BE00088780804040201000000000000000000F2
:100BF00000000000000000000000000000000000F5
:100C000000000000000000000000000000000000E4
:100C1000000000E010102040404040404040404074
:100C200040404040201010E00000000000000000A4
:100C30000000007F800000000010000000000000A5
:100C4000001040000000807F000000000000000055
:100C50000000000001020404087888482929294876
:100C60008878080404020100000000000000000071
:100C70000000000000000000000000000000000074
:100C80000000000000000000000000000000000064
:100C9000000000E0101020404040404040404040F4
:100CA00040404040201010E0000000000000000024
:100CB0000000007F800000000040400000000000B5
:100CC000404000000000807F0000000000000000A5
:100CD00000000000010204040878884829292948F6
:100CE00088780804040201000000000000000000F1
:100CF00000000000000000000000000000000000F4
:100D000000000000000000000000000000000000E3
:100D1000000000E010102040404040404040404073
:100D200040404040201010E00000000000000000A3
:100D30000000007F80000000001080000000000024
:100D4000801000000000807F008000000000001084
:100D5000000004200102040408798A482829284850
:100D60008A79080404020104000008000000000061
:100D700000000000000000000000008080808080F3
:100D80000000000000000000000000000000000063
:100D9000000000E0101020404040434F444F444FBB
:100DA00043404040201010E0000000000000000020
:100DB0000000007F800000002810280000000000D4
:100DC000281028000000807F0000000000000000C4
:100DD00000000000010204040878884829292948F5
:100DE00088780804040201000000000000000000F0
:100DF00000000000000000000000000000000000F3
:100E000000000000000000000000000000000000E2
:100E1000000000E010102040404040404040404072
:100E200040404040201010E00000000000000000A2
:100E30000000007F8000000018100000000000008B
:100E4000001018000000807F00000000000000007B
:100E50000000000001020404087888482929294874
:100E6000887808040402010000000000002020002F
:100E70000000000000000000000000000000000072
:100E80000000000000000000000000000000000062
:100E90000000000000000000000000000000000052
:100EA0000000000000000000000000000000000042
:100EB00000000000000000FE010202E2A2E20202C5
:100EC00002E2A2E2020201FE0000000000000000B7
:100ED0000000000000000001020408097191545450
:100EE0005491710908040201000000000000000094
:100EF00000000000000000000000000000000000F2
:100F000000000000000000000000000000000000E1
:100F100000000000000000000000000000000000D1
:100F200000000000000000000000000000000000C1
:100F300000000000000000FE0102027A6A7A02024C
:100F4000027A6A7A020201FE00000000000000003E
:100F500000000000000000010204080870905757CC
:100F60005790700808040201000000000000000013
:100F70000000000000000000000000000000000071
:100F80000000000000000000000000000000000061
:100F90000000000000000000000000000000000051
:100FA0000000000000000000000000000000000041
:100FB00000000000000000FE010202E2E2C20202A4
:100FC00002E2E2C2020201FE000000000000000096
:100FD0000000000000000001020408087090545452
:100FE0005490700808040201000000000000000096
:100FF00000000000000000000000000000000000F1
:1010000000000000000000000000000000000000E0
:1010100000000000000000000000000000000000D0
:1010200000000000000000000000000000000000C0
:1010300000000000000000FE010202422242020203
:1010400002422242020201FE0000000000000000F5
:1010500000000000000000010204080870905252D5
:101060005290700908040201000000000000000016
:101070000000000000000000000000000000000070
:101080000000000000000000000000000000000060
:101090000000000000000000000000000000000050
:1010A0000000000000000000000000000000000040
:1010B00000000000000000FE010202020202020223
:1010C00002020202020201FE000000000000000015
:1010D0000000000000000001020408097191505452
:1010E0005091710908040201000000000000000096
:1010F00000000000000000000000000000000000F0
:1011000000000000000000000000000000000000DF
:1011100000000000000000000000000000000000CF
:1011200000000000000000000000000000000000BF
:1011300000000000100000FE010202022202020272
:1011400002022202020201FE000240100000000022
:1011500000010000000100010204080873905052D1
:101160005090730808040201000000000000000015
:10117000000000000000000000000000000000006F
:10118000000000000000000000000000000000005F
:101190000000000000000000000000000C3E123EB5
:1011A000123E0C00000000000000000000000000E3
:1011B00000000000000000FE010202428242020222
:1011C00002428242020201FE000000000000000014
:1011D0000000000000000001020408097091505452
:1011E0005091700908040201000000000000000096
:1011F00000000000000000000000000000000000EF
:1012000000000000000000000000000000000000DE
:1012100000000000000000000000000000000000CE
:1012200000000000000000000000000000000000BE
:1012300000000000000000FE010202E282C2020281
:1012400002C282E2020201FE000000000000000073
:1012500000000000000000010204080971915454CC
:101260005491710908040201000000000000000808
:101270000B0002020200000904000001020200004B
:10128000052400100105240101010424020605249F
:101290000600010705810310004009040100020A4D
:1012A000000000070502024000000705830240001D
:1012B000000403090412010002EF02014041233639
:1012C0008000010102030141726475696E6F204C58
:1012D0004C430041726475696E6F204C656F6E619E
:1012E00072646F000514A11A11241FBECFEFDAE05B
:1012F000DEBFCDBF11E0A0E0B1E0E0E8FDE302C059
:1013000005900D92A43CB107D9F727E0A4ECB1E019
:1013100001C01D92A63AB207E1F719E0C3E7D9E090
:1013200004C02197FE010E94AD1CC237D107C9F746
:101330000E9490150C94B31E0C940000CF92DF9283
:10134000EF92FF920F931F93CF93DF93FC01449191
:101350003196249102966623D1F0A1E0B0E0322FBD
:10136000377011F4B0E0A0E0E22FE695E695E6953F
:10137000EA0FFB2FF11D4E9FD0014F9FB00D11249E
:101380006A9FF0016B9FF00D11248E0F9F1F009735
:1013900009F441C0742F413508F070E5E1E0322FC7
:1013A000377009F4E0E02695269526952E0F283013
:1013B00008F027E02F5F31E000EB10E050E023174A
:1013C00051F1D801A151BE4FD0E0C0E0C717E8F4F9
:1013D000FC01EC0FFD1FE49160E2E69F6001112427
:1013E00037FF0CC07D01E0E8EE0EF11CF7016081D3
:1013F000607E6D29608321961196E8CF6C916F71A4
:101400006C296C933730BCF7EDCF3F5F840F951F8D
:1014100000581F4FD4CFDF91CF911F910F91FF90B4
:10142000EF90DF90CF900895480F592F511D14165B
:10143000150684F5803891056CF597FF02C090E0A1
:1014400080E04138510514F040E850E0481BFB01B2
:10145000E770FF2721E001C0220FEA95EAF777FF46
:1014600002C0695F7F4FFB0133E0F595E7953A9540
:10147000E1F7F695FE2FEE27F795E795E80FF91FB0
:10148000E151FE4F415030F08191DF011197822BE5
:101490008C93F8CF08952F923F924F925F926F9264
:1014A0007F928F929F92AF92BF92CF92DF92EF92F4
:1014B000FF920F931F93CF93DF93CDB7DEB72E9795
:1014C0000FB6F894DEBF0FBECDBF7E876D875A0181
:1014D0006901261737070CF00AC1E616F7060CF467
:1014E0001FC13D852E85DE86CD86C32ED22E382F98
:1014F000292FC501A32EB22E2D853E852E153F0521
:10150000D1F5A816B90654F0382F292F8A159B0556
:1015100014F43A2D2B2D5C01832F922F0A151B05F5
:101520002CF0801791070CF4C80185012D853E85AC
:101530002034310508F003C18F5F482F401BB901EB
:10154000C8012E960FB6F894DEBF0FBECDBFDF9157
:10155000CF911F910F91FF90EF90DF90CF90BF90B0
:10156000AF909F908F907F906F905F904F903F9043
:101570002F900C94140A302F212F8C01832F922F3F
:101580003E2D2F2DED84FE843D872E879501201B57
:10159000310B38872F8396012E193F093A87298707
:1015A0003C01601A710A2D853E852E193F093A8348
:1015B00029839C012A193B093C832B838D859E85B9
:1015C0008C199D099C878B872D853E852C153D05A3
:1015D00009F442C0C60101979E838D834701512CB7
:1015E000412C312C212C8D819E8188159905CCF1BF
:1015F000C10169857A850E94851C9B01200F311FDE
:10160000C20169817A810E94851C600F711F8F81E0
:101610009885280E391E460C571C621773071CF458
:10162000922F9B01692F90E48916910438F46F5F23
:10163000462F421BB401C9010E94140A2FEF821ADF
:10164000920AD1CF3A2D2B2D5C01832F922F3D850D
:101650002E85DE86CD8670C02D853E853E832D830A
:10166000BDCFC4018C199D092B813C81829F6001F3
:10167000839FD00C929FD00C1124C4018E199F0916
:10168000869D7001879DF00C969DF00C11248D8530
:101690009E85881599050CF452C0C6016B857C8522
:1016A0000E94851C9B012A0D3B1DC70169817A811F
:1016B0000E94851C600F711F8B819C81C80ED91EF2
:1016C000E60CF71C621773071CF4922F9B01692F1D
:1016D00090E48916910438F46F5F462F421BB401E1
:1016E000C9010E94140A2FEF821A920AD0CFE21683
:1016F000F3060CF001CF2D853E85E216F3060CF4BF
:10170000A1CF302F212F8A015C01832F922F3C2DF6
:101710002D2DCD84DE84FE86ED86E32EF22EE1CEE5
:10172000E216F3060CF432CF302F212F8501A32EC1
:10173000B22E3E2D2F2D7601C32ED22E27CF2E96E0
:101740000FB6F894DEBF0FBECDBFDF91CF911F91D2
:101750000F91FF90EF90DF90CF90BF90AF909F9050
:101760008F907F906F905F904F903F902F90089553
:10177000EFEEF1E0A0E0B8E000800EBC8111012C9A
:101780001197A0FDFDCF0192B9F70DB40895FC01AA
:101790008091EE01882311F13FB7F89482E08093A5
:1017A000E9002091F200822F90E01816190614F437
:1017B00081E090E0882339F0289844E64093ED01D9
:1017C0004091F1004083222339F02091F200211151
:1017D00003C02BE62093E8003FBF08958FEF9FEFF3
:1017E00008952FB7F89483E08093E9009091E80082
:1017F000892F807295FF04C09091F20080E4891BCC
:101800002FBF08958091E50181110DC082E0809382
:10181000E10184E08093E2011092E4011092E3017F
:1018200081E08093E50181EE91E00895CF93DF930D
:101830001F92CDB7DEB76983DC01ED91FC91028088
:10184000F381E02D41E050E0BE016F5F7F4F0995CD
:101850000F90DF91CF91089583E08093E90080910C
:10186000F200882319F08AE38093E80008950E942B
:10187000F10B90E00895CF93DF931F92CDB7DEB7C1
:10188000FC018485958597FD08C02FEF3FEF3587D4
:1018900024870F90DF91CF910895CE0101960E9489
:1018A000C70B019719F4898190E0F3CF8FEF9FEF79
:1018B000F0CF0F931F93CF93DF931F92CDB7DEB777
:1018C0008C01FC018485958597FF0BC0CE010196A4
:1018D0000E94C70B019771F4898190E0F801958708
:1018E0008487F801848595850F90DF91CF911F91B2
:1018F0000F9108958FEF9FEFF1CFFC0184859585BF
:1019000097FD0BC09FB7F89482E08093E900809127
:10191000F2009FBF90E0019608959FB7F89482E08F
:101920008093E9008091F2009FBF90E0089540917C
:10193000DB015091DC012091D9013091DA0142178D
:101940005307B4F49091E8009570E1F39091E800AA
:1019500092FD19C08093F1008091DB019091DC0130
:1019600001968F739927892B19F48EEF8093E800E5
:101970008091DB019091DC0101969093DC018093D2
:10198000DB0181E0089580E00895DF92EF92FF92FD
:101990000F931F93CF93DF93D82E8A01EB017B0126
:1019A000E40EF51ECE15DF0559F0D7FE12C0FE017C
:1019B00084910E94970C21968111F4CF0FEF1FEFB5
:1019C000C801DF91CF911F910F91FF90EF90DF90B1
:1019D00008958881EECF0F931F93CF93DF931F92CB
:1019E000CDB7DEB782E0898342E450E06FE672E172
:1019F00080E80E94C50C0E94020CDC0112960D9139
:101A00001C910115110589F0D801ED91FC9102801E
:101A1000F381E02DBE016F5F7F4FC801099597FDEF
:101A200004C0F80100851185ECCF89810F90DF910A
:101A3000CF911F910F910895615030F02091F100E6
:101A4000FC0120830196F8CF289884E68093ED016D
:101A50000895AF92BF92CF92DF92EF92FF920F93D1
:101A60001F93CF93DF936C017B018B01040F151F34
:101A7000EB015E01AE18BF08C017D10759F069919C
:101A8000D601ED91FC910190F081E02DC601099500
:101A9000892B79F7C501DF91CF911F910F91FF90AD
:101AA000EF90DF90CF90BF90AF9008953FB7F8943C
:101AB0008091C5019091C601A091C701B091C80164
:101AC00026B5A89B05C02F3F19F00196A11DB11D99
:101AD0003FBFBA2FA92F982F8827BC01CD01620FD5
:101AE000711D811D911D42E0660F771F881F991F90
:101AF0004A95D1F708958F929F92AF92BF92CF925D
:101B0000DF92EF92FF926B017C010E94560D4B0118
:101B10005C01C114D104E104F104B9F00E94560D36
:101B2000681979098A099B09683E73408105910506
:101B300080F321E0C21AD108E108F10888EE880E8E
:101B400083E0981EA11CB11CE4CFFF90EF90DF90C2
:101B5000CF90BF90AF909F908F9008958F929F925B
:101B6000AF92BF92CF92DF92EF92FF920F931F93AB
:101B7000CF93DF936C017B018A0180910B01882355
:101B800009F45CC08091EE01882309F457C080916C
:101B9000E00180FF05C08091E00082608093E0005A
:101BA000E801B12C8AEFA82E93E0892E2AE3922E29
:101BB000209711F4BB20D9F10E94F10B81110AC0CA
:101BC000AA94AA20D9F161E070E080E090E00E9440
:101BD0007B0DEECF8C171D0611F00CF08C2F9FB7EC
:101BE000F8948092E9002091E80025FD02C09FBF93
:101BF000DFCF282F30E0C21BD30BF701815020F03C
:101C000041914093F100FACFE20EF31EBB2021F088
:101C10009092E800B12CEBCF8091E80085FDE7CFF2
:101C20009092E800BB24B394209709F3F3CF5D981A
:101C300084E68093DF01101611063CF081E090E00D
:101C4000F6019383828310E000E0C801DF91CF9119
:101C50001F910F91FF90EF90DF90CF90BF90AF90CA
:101C60009F908F9008952D9A0895BC0190E080E098
:101C70000C947B0D8FB18095807F669B88601C9B48
:101C80008460089520E191E061FD94E060FD990F8A
:101C900062FD9295687F269FD0011124A80FA15163
:101CA000BE4F8C9140FF03C0892B8C930895909573
:101CB0008923FBCF2F923F924F925F926F927F9238
:101CC0008F929F92AF92BF92CF92DF92EF92FF924C
:101CD0000F931F93CF93DF93CDB7DEB728970FB63F
:101CE000F894DEBF0FBECDBF9E838D836A3061F551
:101CF000DC0155968C91B8E08B9F90011124ED8109
:101D0000FE8181899289820F931F928B818B108A29
:101D1000178681E090E028960FB6F894DEBF0FBEDC
:101D2000CDBFDF91CF911F910F91FF90EF90DF908A
:101D3000CF90BF90AF909F908F907F906F905F906B
:101D40004F903F902F9008956D3019F32D813E8173
:101D500038872F83D9011F960D911C915097003819
:101D600011050CF07CC05196AD90BC90B0E4AB1660
:101D7000B1040CF074C0F901258825E0C801229E49
:101D8000800D911D1124181619060CF068C0622CE4
:101D9000712CC30133E0880F991F3A95E1F78A0D42
:101DA0009B1D181619060CF05AC0F489FB83AF81ED
:101DB000B8855396BC91BC83629FB0011124FB018E
:101DC000E455FF4F2F011982F2018491F981F5301A
:101DD00009F480E0450128E02A83A82FB0E0BE8303
:101DE000AD833C8080FF3B80311004C0BB81EC811F
:101DF000BE17F9F078018E2D801B8215D0F4D12CFE
:101E0000C12CC21490F4F0E8EF16F10450F4B601BE
:101E1000680D791D6034710520F4432DC7010E94BF
:101E2000420E2FEFC21AD20AECCF3FEFE31AF30AA9
:101E3000E2CF8D819E81959587959A8191509A8365
:101E4000860C971C9111C9CFA981AF5FA983BFEF01
:101E50004B1A5B0A060D171DA63009F0B5CFEF81AE
:101E6000F8852589422F50E087859089F6E02F9FDD
:101E7000800D911D1124AF81B88550969C938E934F
:101E80001F9756962C915697222309F442CF6AEF5A
:101E900064039001659F300D112420583F4F28178F
:101EA00039070CF036CFED91FC9111970190F0813C
:101EB000E02D6AE0CD0109952CCF0895089590E0BA
:101EC00080E008950C94901B0E94951E0F931F9321
:101ED000CF93DF93EC0188819981009759F02A8193
:101EE0003B812617370730F081E0DF91CF911F91BA
:101EF0000F9108958B016F5F7F4F0E94D81D00974F
:101F000059F0998388831B830A832C813D81232B7D
:101F100059F7FC011082E8CF80E0E7CFCF93DF9341
:101F2000EC0188819981009711F00E944F1D198260
:101F300018821D821C821B821A82DF91CF91089524
:101F4000EF92FF920F931F93CF93DF93EC018617CD
:101F5000970781F0FB01008111810115110539F00E
:101F6000E480F580B7010E94660F81110BC0CE019D
:101F70000E948E0FCE01DF91CF911F910F91FF90A4
:101F8000EF900895FD82EC82B801888199810E94CA
:101F9000AC1EF0CFFC0180819181009711F00C9470
:101FA0004F1D08951F920F920FB60F9211248F9319
:101FB0009F938091E1009091E100937F9093E100E5
:101FC00083FF0FC01092E90091E09093EB00109214
:101FD000EC0092E39093ED001092EE0198E0909364
:101FE000F00082FF22C093E09093E9009091F2000C
:101FF000992319F09AE39093E8009091DF019923D7
:1020000041F09091DF0191509093DF01911101C057
:102010005D9A9091ED01992341F09091ED019150DD
:102020009093ED01911101C0289A84FF18C080910E
:10203000E2008E7E81608093E2008091E1008F7EDD
:102040008093E1008091E0018E7E80618093E001C9
:102050009F918F910F900FBE0F901F90189580FF4A
:10206000F7CF8091E2008E7E80618093E2008091C4
:10207000E1008E7E8093E1008091E0018E7E8160A0
:10208000E5CF1F920F920FB60F921124CF92DF92DD
:10209000EF92FF920F931F932F933F934F935F9372
:1020A0006F937F938F939F93AF93BF93EF93FF9320
:1020B000CF93DF93CDB7DEB76C97DEBFCDBF109265
:1020C000E9008091E80083FF25C068E0CE014596D5
:1020D0000E941C0D82EF8093E8008D8987FF39C034
:1020E0009091E80090FFFCCF982F907609F034C1D2
:1020F0009E894F89588D2F89F88C911131C0803875
:1021000061F58091DE018093F1001092F1008EEF75
:102110008093E8006C960FB6F894DEBF0FBECDBF7B
:10212000DF91CF91FF91EF91BF91AF919F918F91EF
:102130007F916F915F914F913F912F911F910F91DF
:10214000FF90EF90DF90CF900F900FBE0F901F90F9
:1021500018959EEF9093E800C7CF1092F100D5CF6D
:10216000913059F48111D3CF4130510581F68091DE
:10217000DE018D7F8093DE01CACF933049F4811157
:10218000C6CF4130510519F68091DE018260F2CF51
:10219000953041F48091E80080FFFCCF20682093C7
:1021A000E300B5CF963009F0A9C00B8D1C8D22E05D
:1021B0001092E9001092DC011092DB01F2122EC0A5
:1021C0001092DA011092D9010E94EB0C1F8299E063
:1021D0009983FA8291E09E8390EA98879AEF998793
:1021E0002091DB013091DC01275F3F4F3C832B8343
:1021F0008D831092E9001092DC011092DB011093A4
:10220000DA010093D90149E050E0BE016F5F7F4FD2
:1022100080E00E94C50C0E94EB0C79CF1093DA018C
:102220000093D9010E94020CDC0112960D911C91C1
:102230000115110509F451C1D801ED91FC910480FB
:10224000F581E02DBE016B5E7F4FC80109950097B7
:1022500009F03EC1F80100851185EACFF3E0FF12D5
:102260000EC08F89882309F440C0823061F440E8B1
:1022700060E183ED92E10E94BD12811148CF81E2BD
:102280008093EB0047CF813029F440E86BE087EC86
:1022900092E1F1CF833099F70E94020CDC01129693
:1022A000ED90FC908E010F5F1F4F6801E114F10467
:1022B00079F0D701ED91FC910680F781E02DB8010E
:1022C000C7010995080F111DF701E084F184EECFD5
:1022D000D8011C92F60101900020E9F73197BF0167
:1022E0006C197D0940E0C601C6CF61EB72E1FB01CC
:1022F000449150E080E80E94C50C09CF973009F462
:10230000BECF983021F481E08093F10000CF993066
:1023100009F0FDCE837009F0B2CFE3E1F1E081E096
:1023200031E096E32191222371F08093E90030930C
:10233000EB00DF0111972C912093EC009093ED00BE
:102340008F5F873079F78EE78093EA001092EA007A
:102350008F898093EE01DBCE8B8D9C8D1092E900EE
:102360001092DC011092DB019093DA018093D90185
:10237000898D811192C08E899D89913A49F481326B
:1023800009F07DCF47E050E064E071E080E0B3CF3A
:10239000913209F074CF833269F48F89988DB0E05F
:1023A000A0E08093000190930101A0930201B093FB
:1023B0000301ADCE803269F48091E80082FFFCCF4A
:1023C00067E084E091E00E941C0D8BEF8093E800B1
:1023D0009ECE823209F09BCE8F8980930B01EEEF67
:1023E000FFE7859194918B3F9C4D51F1E0E0F8E03F
:1023F0008091040190910501A0910601B09107011F
:10240000803B9440A105B105F1F480910B0180FD62
:102410001AC0EE3F8AE0F80789F587E797E79183CE
:102420008083809160008093DD0188E19BE00FB69E
:10243000F894A895809360000FBE9093600067CEDB
:10244000EEEFFAE0D5CF808191818737974709F089
:102450005ECEA89580916000886180936000809135
:10246000DD0180936000EE3F2AE0F20789F0809161
:10247000FE0A9091FF0A9183808349CE80819181E9
:102480008737980751F29093FF0A8093FE0AC5CFD1
:102490001092FF0A1092FE0A3ACE0E94020CDC0152
:1024A00012960D911C910115110509F4E8CED80181
:1024B000ED91FC910190F081E02DBE016B5E7F4FAC
:1024C000C8010995811123CEF80100851185EBCF54
:1024D000181619060CF41BCED2CEF1E0FF12BECEB8
:1024E00065EB72E104CF1F920F920FB60F92112489
:1024F0002F933F938F939F93AF93BF938091C90185
:102500009091CA01A091CB01B091CC013091C4014E
:1025100023E0230F2D3758F50196A11DB11D2093FF
:10252000C4018093C9019093CA01A093CB01B093D9
:10253000CC018091C5019091C601A091C701B091D5
:10254000C8010196A11DB11D8093C5019093C601DC
:10255000A093C701B093C801BF91AF919F918F9194
:102560003F912F910F900FBE0F901F90189526E866
:10257000230F0296A11DB11DD2CFEF92FF920F93B0
:102580001F93CF93DF93F82E192FE62E042F81E0AF
:10259000860F880F0E94970C83E00E94970CCF2D26
:1025A000D12FEC0EFD2EF11CCE15DF05B9F007FF83
:1025B00013C0FE0184910E94970C182F80E00E94A6
:1025C000970C812321968111EFCFDF91CF911F913D
:1025D0000F91FF90EF9008958881EDCF81E0F5CFC6
:1025E000FC01138212821186128680E18387108695
:1025F000178215868FE291E0918380838DE391E0CD
:1026000095838483108A1786128A118A81E0838BCE
:10261000148A858B168A0895CF93DF93EC018FE39C
:1026200096E00E94F012EFE3F6E0108E178A8A819E
:102630009B81938382838F81988590878783898507
:1026400081878A8582878B8583878C8584878D8522
:1026500085878E8586878F859889908B87878989DE
:102660009A89928B818B8B89838B8C89848B8D89C2
:10267000858B8E89868BDF91CF910895CF93DF93E1
:10268000EC018AE596E00E94F012EAE5F6E08A8124
:102690009B81938382838F819885908787838985A7
:1026A00081878A8582878B8583878C8584878D85C2
:1026B00085878E8586878F859889908B878789897E
:1026C0009A89928B818B8B89838B8C89848B8D8962
:1026D000858B8E89868BDF91CF9108950F931F9301
:1026E000CF93DF93EC018B01198218821B821A822F
:1026F0001D821C820E94A00FF801868197819F8312
:102700008E838085918599878887828593859B872D
:102710008A8784859585A685B7858C879D87AE87B2
:10272000BF8780899189A289B389888B998BAA8B6D
:10273000BB8BDF91CF911F910F910895EF92FF9284
:102740000F931F93CF93DF93EC017B0119821882C3
:102750001B821A821D821C82FB0101900020E9F776
:1027600031978F01061B170BB8010E94660F81116C
:1027700009C0CE01DF91CF911F910F91FF90EF9093
:102780000C948E0F1D830C83B70188819981DF9192
:10279000CF911F910F91FF90EF900C94AC1E8F92F0
:1027A0009F92AF92BF92CF92DF92EF92FF920F93E0
:1027B0001F93CF93DF93EC016B017A01480159011C
:1027C00063EC71E00E949E13B601CE010E94A00F3F
:1027D000FF82EE821986188685E090E09B878A87C3
:1027E0001C861D861E861F86888A998AAA8ABB8AAD
:1027F000DF91CF911F910F91FF90EF90DF90CF90DD
:10280000BF90AF909F908F900895CF92DF92EF92FC
:10281000FF920F931F93CF93DF93CDB7DEB76797E8
:102820000FB6F894DEBF0FBECDBFEFEEF5E013821A
:10283000128288EE93E0A0E0B0E084839583A683C3
:10284000B7838DE191E0918380838FEF9FEF958730
:1028500084876FE371E08CE697E00E949E1364E446
:1028600071E082E797E00E949E1369E471E088E7D7
:1028700097E00E949E136DE471E08EE797E00E945E
:102880009E1362E571E084E897E00E949E1367E57D
:1028900071E08AE897E00E949E136DE571E080E99F
:1028A00097E00E949E1364E671E086E997E00E943B
:1028B0009E136EE671E08CE997E00E949E1364E738
:1028C00071E08CE397E00E949E136AE771E082E476
:1028D00097E00E949E1361E871E088E497E00E940F
:1028E0009E1367E871E08EE497E00E949E136BE808
:1028F00071E084E597E00E949E1361E971E08AE54A
:1029000097E00E949E1366E971E080E697E00E94DE
:102910009E136BE971E086E697E00E949E136AE7DA
:1029200071E0CE0101960E949E1300E010E020E8C5
:102930003FE34AE050E0BE016F5F7F4F88E297E0DF
:102940000E94CF13CE0101960E94CA0F61E871E088
:10295000CE0101960E949E1300E010E020E03FE3CC
:102960004AE050E0BE016F5F7F4F84E197E00E9434
:10297000CF13CE0101960E94CA0F67E871E0CE0125
:1029800001960E949E1300E010E020E83EE34AE03A
:1029900050E0BE016F5F7F4F80E097E00E94CF1351
:1029A000CE0101960E94CA0F6BE971E0CE0101963B
:1029B0000E949E1300E010E0980142E350E0BE0147
:1029C0006F5F7F4F8CEE96E00E94CF13CE01019691
:1029D0000E94CA0F66E971E0CE0101960E949E1323
:1029E00000E010E020E83FE34AE050E0BE016F5F06
:1029F0007F4F88ED96E00E94CF13CE0101960E9492
:102A0000CA0F68E277E088E896E00E946E1364E1FE
:102A100077E08CE996E00E946E1360E077E080EB4F
:102A200096E00E946E136CEE76E084EC96E00E94D5
:102A30006E1381E796E00E94F01201E716E0F801BC
:102A4000828193819C838B838781908599878887F6
:102A500081858A8782858B8783858C8784858D870E
:102A600085858E8786858F878FE2C82E81E0D82E58
:102A7000DA82C9829DE3E92E91E0F92EFE82ED8291
:102A800087859089998B888B818992899B8B8A8B8A
:102A900083898C8B84898D8B85898E8B86898F8B9E
:102AA000CE0101960E943E13F801828193819C839E
:102AB0008B83878190859987888781858A8782859E
:102AC0008B8783858C8784858D8785858E87868592
:102AD0008F87DA82C982FE82ED8287859089998B01
:102AE000888B818992899B8B8A8B83898C8B848943
:102AF0008D8B85898E8B86898F8BCE0101960E9466
:102B00000C1367960FB6F894DEBF0FBECDBFDF91F2
:102B1000CF911F910F91FF90EF90DF90CF9008958C
:102B2000789484B5826084BD84B5816084BD85B5A8
:102B3000826085BD85B5816085BD80916E008160B4
:102B400080936E001092810080918100826080935A
:102B5000810080918100816080938100809180005C
:102B600081608093800080919100826080939100C9
:102B700080919100816080939100809190008160AC
:102B8000809390008091C10084608093C100809107
:102B9000C10082608093C1008091C10081608093F8
:102BA000C1008091C30081608093C3008091C00008
:102BB00082608093C0008091C20081608093C200D7
:102BC00080917A00846080937A0080917A0082609C
:102BD00080937A0080917A00816080937A0080915E
:102BE0007A00806880937A001092EE011092DE01E4
:102BF0001092E0018091D70081608093D70080EA35
:102C00008093D80089B5806189BD89B5826089BD0E
:102C100009B400FEFDCF61E070E080E090E00E942A
:102C20007B0D8091D8008F7C80618093D80080914B
:102C3000E000807F8093E0008091E1008E7E8093B1
:102C4000E1008DE08093E200559A209A81EC809318
:102C50007C0085B1806F85B984B1877E84B984B1E9
:102C6000876E84B95E9A5F988AB1806D8AB9769AC8
:102C70006E9881B3806F81BB899880B38D7080BB63
:102C800080E58CBD81E08DBD85E090E00E94350E31
:102C90005F9A85E090E00E94350E5E985C98ECE5C6
:102CA000F6E084918EBD00000DB407FEFDCF319695
:102CB00026E0E936F207A9F75C9A81E88093640080
:102CC0008091650081608093650080E00E94B80B70
:102CD0000E943A0E87FF15C05C9885EA8EBD000001
:102CE0000DB407FEFDCF5C9A2E982F982D988091F9
:102CF000640080628093640081E083BF889513BE86
:102D0000FCCF0E943A0E82FF48C02D980E943A0ED6
:102D100084788438E1F40E94330E88EC90E00E94BD
:102D2000350E2F9882E090E00E94901B8F3F29F093
:102D30006FEF82E090E00E94981B84EF91E00E9488
:102D4000350E2F9A0E943A0E84788438D9F30E9467
:102D50003A0E84718431E1F40E94330E88EC90E0E5
:102D60000E94350E2E9882E090E00E94901B8823EE
:102D700029F060E082E090E00E94981B84EF91E0EF
:102D80000E94350E2E9A0E943A0E84718431D9F336
:102D900088EC90E00E94350EB4CF0E94330E82E0A2
:102DA00090E00E94620F882309F44AC03E9A3F9A3D
:102DB00081E090E00E94620F382F3470932E81FFE3
:102DC0000EC031112E98C0EFDFEF08E010E00E9436
:102DD0003A0E86FF38C02E9A2F9A0E94330E82E355
:102DE00090E00E94350E0E943A0E8111F8CF82E4E5
:102DF00080937C0668E0462E512C9924939456E0EB
:102E0000852E8FB7F8944091C9015091CA01609105
:102E1000CB017091CC018FBF80917D06942F981BC0
:102E200080917E06882309F49DC090937F061092BE
:102E30007E06E0E0F0E0EF2B21F30E940000DDCF02
:102E40003E983F98B5CF992029F0C430D10511F4B0
:102E50002E9A2F9881E00E94B80B9E01D7FF04C0E4
:102E6000222733272C1B3D0B27703327CE01D7FD9C
:102E70000796E3E095958795EA95E1F7D7FF05C0BA
:102E80000197A801421B530B9A01AC015695542F90
:102E900044275795479541515E4FD12CC12C38019D
:102EA000621A730A8F3F6FEF9607B4F1DA01AC56DE
:102EB000BF4F7A0170E060E0F601E455FA4F5F0120
:102EC0008F3F980779F0F501E60FF71FE491F0E0E6
:102ED0001F01022E01C0220C0A94EAF7F701848830
:102EE0002828248A2115310571F0F501E60FF71F16
:102EF000E491F0E0062C02C0F595E7950A94E2F71C
:102F0000FC91EF2BEC936F5F7F4F1196FFEFEF1A61
:102F1000FF0A68357105A1F6019668E5C60ED11C59
:102F200040585F4FE0EBCE16D10409F0BBCF80E0F4
:102F30000E94B80B8FE090E00E94350E2196C931B7
:102F4000D10509F044CF992011F02F9A2D9880E9EE
:102F500091E00E94350E0E94330E81E796E00E94B8
:102F60005C1A3DCF20917C06921740F49F5F921728
:102F700008F05FCF93BE889513BE5BCF90927E061C
:102F800040937D0620917806309179062F5F3F4F60
:102F90003093790620937806EFEEF1E081118FEF00
:102FA000002481938193819381930394D1F71092AC
:102FB00083061092820610928106109280068091FC
:102FC0007A0680937B060E943A0E80937A0690914F
:102FD0007B0695FD10C085FF0EC02091D701309172
:102FE000D801121613060CF0F7C0215031093093A6
:102FF000D8012093D70196FD10C086FF0EC0209106
:10300000D7013091D801283031050CF0EAC02F5F8C
:103010003F4F3093D8012093D70193FD34C083FFF5
:1030200032C08091D7019091D801009709F0DEC09D
:103030006091900670919106072E000C880B990BF9
:103040000E94E01A6093940670939506809396060A
:10305000909397068091560690915706019709F034
:10306000E1C06091F4067091F506072E000C880B04
:10307000990B0E94E01A6093D0067093D10680935A
:10308000D2069093D3068091D60181110BC18FB7E0
:10309000F894C090C901D090CA01E090CB01F090A3
:1030A000CC018FBF8091D2019091D301A091D40126
:1030B000B091D501A7019601281B390B4A0B5B0B78
:1030C000DA01C901883E9340A105B10508F44FC05B
:1030D0008091D0019091D10101969093D10180937C
:1030E000D0018C33910509F0C7C041E050E0509306
:1030F000CF014093CE01C8E8D6E0288939894A89B2
:103100005B896C857D858E859F850E94DE1B6C8723
:103110007D878E879F87649636E0C83DD30769F721
:103120008091CD01882309F45CC12091E80630919B
:10313000E9064091EA065091EB066091E406709131
:10314000E5068091E6069091E7060E94DE1B6093FB
:10315000E4067093E5068093E6069093E706C09236
:10316000D201D092D301E092D401F092D501C8E807
:10317000D6E010E000E0B12CA12C6C857D858E8519
:103180009F850E944A1C1B018A859B858215930599
:103190000CF05DC16C807D804CE3E42E47E0F42EA2
:1031A000D12CC12CF701848195816816790609F02C
:1031B00043C18881998160817181009709F42AC196
:1031C0006115710509F018C16114710409F430C169
:1031D000FC01808190E02AC15092D8014092D70131
:1031E0000ACF1092D8011092D70117CF81309105E4
:1031F00041F56091A4067091A506072E000C880B7E
:10320000990B0E94E01A6093A8067093A906809318
:10321000AA069093AB0680915606909157060297A6
:1032200009F41FCF20E030E040E85FE36091D00672
:103230007091D1068091D2069091D3060E94DE1B38
:103240001ACF029779F76091B8067091B906072EE8
:10325000000C880B990B0E94E01A6093BC067093D7
:10326000BD068093BE069093BF068091560690914E
:1032700057060397B9F6F5CE8837910539F482E001
:1032800090E09093CF018093CE0135CF8C32914066
:1032900009F031CF9092D60126E030E03093570606
:1032A0002093560610924F0610924E0688E290E048
:1032B0009093510680935006809156069091570640
:1032C000889EF001899EF00D1124E45CF84F448142
:1032D0005581608171818FE396E00E94290D809174
:1032E000CE019091CF0160915606181619060CF484
:1032F00089C08DE69EE00E949E0910924F061092B2
:103300004E06109251061092500645E150E063EAD5
:1033100071E08FE396E00E94290D10924F06109203
:103320004E0650925106409250064AE050E069EB3A
:1033300071E08FE396E00E94290DD0E0C0E041E00B
:1033400064E370E0CE010E94420E2196C038D105A0
:10335000B1F78091D7019091D801889EF001899EA4
:10336000F00D1124E459F84F4481558125E0249F44
:10337000C001259F900D11249695879520E430E09B
:10338000281B390B30936A062093690687E390E087
:1033900090936C0680936B06608171818AE596E05C
:1033A0000E94290D3DE3E32EF12C03E010E027E31A
:1033B00030E043E050E06AE370E090E080E00E949B
:1033C0004B0A0CE710E027E330E04CE750E06AE3FB
:1033D00070E08FE790E00E944B0A80E00E94B80BFB
:1033E00028CD6091E0067091E106072E000C880B55
:1033F000990B0E94E01AABCE0E94A31E17C0109238
:10340000CD0139C0019719F48BE69AE074CF89E6B3
:1034100096E071CF6115710559F06114710441F0A6
:10342000FB01808190E0919581959109892B21F490
:103430000115110509F48601FFEFCF1ADF0A26E016
:10344000E20EF11C38E0C316D10409F0ABCE8E8138
:103450009F81821593051CF44FEFA41AB40A649659
:1034600056E0C83DD50709F088CEAB2841F29092CE
:10347000CD0105E010E06091DE067091DF06072EB9
:10348000000C880B990B0E94E01A9B01AC01609123
:10349000E4067091E5068091E6069091E7060E94A9
:1034A000801C181624F49092D60106E010E01093C8
:1034B000570600935606F6CE0F931F93CF93DF93D4
:1034C0008C0181E090E00E94620F80FF32C08AE0B0
:1034D00090E00E94620F9FEF980F9E3F50F522E30D
:1034E00030E0D80150963C932E931F9728E330E0AC
:1034F00052963C932E935197CBE0D0E0D801ED91BA
:10350000FC910190F081E02D682FC8010995CE0152
:103510000E94620F2196C131D10581F780E00E949F
:10352000B80B88EE93E0DF91CF911F910F910C942F
:10353000350EDF91CF911F910F91089504970C9450
:103540005C1ACF93DF9384EC96E00E94CA0F80EB65
:1035500096E00E94CA0F8CE996E00E94CA0F88E8A4
:1035600096E00E94CA0F88ED96E00E94CA0F8CEE8A
:1035700096E00E94CA0F80E097E00E94CA0F84E1A3
:1035800097E00E94CA0F88E297E00E94CA0FCCE63B
:10359000D7E02697CE010E94CA0F87E0CC33D80728
:1035A000C1F7C2EAD7E02697CE010E94CA0F87E092
:1035B000CC36D807C1F7DF91CF910895E89409C0C0
:1035C00097FB3EF490958095709561957F4F8F4F56
:1035D0009F4F9923A9F0F92F96E9BB279395F6956C
:1035E000879577956795B795F111F8CFFAF4BB0FEA
:1035F00011F460FF1BC06F5F7F4F8F4F9F4F16C04E
:10360000882311F096E911C0772321F09EE8872FD7
:10361000762F05C0662371F096E8862F70E060E093
:103620002AF09A95660F771F881FDAF7880F96950C
:10363000879597F90895990F0008550FAA0BE0E8B0
:10364000FEEF16161706E807F907C0F01216130664
:10365000E407F50798F0621B730B840B950B39F4A4
:103660000A2661F0232B242B252B21F408950A260A
:1036700009F4A140A6958FEF811D811D089597F94A
:103680009F6780E870E060E008959FEF80EC089508
:1036900000240A9416161706180609060895002431
:1036A0000A9412161306140605060895092E0394AB
:1036B000000C11F4882352F0BB0F40F4BF2B11F41F
:1036C00060FF04C06F5F7F4F8F4F9F4F089557FD7E
:1036D0009058440F551F59F05F3F71F04795880F80
:1036E00097FB991F61F09F3F79F087950895121617
:1036F00013061406551FF2CF4695F1DF08C01616C3
:1037000017061806991FF1CF869571056105089473
:103710000895E894BB2766277727CB0197F908958A
:10372000F999FECF92BD81BDF89A992780B5089589
:10373000262FF999FECF1FBA92BD81BD20BD0FB6CD
:10374000F894FA9AF99A0FBE019608952F923F9233
:103750004F925F926F927F928F929F92AF92BF92A1
:10376000CF92DF92EF92FF920F931F93CF93DF934D
:10377000CDB7DEB7CA1BDB0B0FB6F894DEBF0FBEAA
:10378000CDBF09942A88398848885F846E847D84F7
:103790008C849B84AA84B984C884DF80EE80FD80F9
:1037A0000C811B81AA81B981CE0FD11D0FB6F8946F
:1037B000DEBF0FBECDBFED0108955058BB27AA272D
:1037C0000E94F51B0C94561B0E94481B38F00E9467
:1037D0004F1B20F039F49F3F19F426F40C94451B3D
:1037E0000EF4E095E7FB0C943F1BE92F0E94671B4A
:1037F00058F3BA17620773078407950720F079F426
:10380000A6F50C94891B0EF4E0950B2EBA2FA02D73
:103810000B01B90190010C01CA01A0011124FF277D
:10382000591B99F0593F50F4503E68F11A16F04078
:10383000A22F232F342F4427585FF3CF4695379577
:103840002795A795F0405395C9F77EF41F16BA0B3C
:10385000620B730B840BBAF09150A1F0FF0FBB1FEA
:10386000661F771F881FC2F70EC0BA0F621F731F33
:10387000841F48F4879577956795B795F7959E3F90
:1038800008F0B0CF9395880F08F09927EE0F979521
:10389000879508950E94511C6894B1110C948A1B5D
:1038A00008950E946F1B88F09F5798F0B92F9927B1
:1038B000B751B0F0E1F0660F771F881F991F1AF01B
:1038C000BA95C9F714C0B13091F00E94891BB1E0DC
:1038D00008950C94891B672F782F8827B85F39F0DB
:1038E000B93FCCF3869577956795B395D9F73EF4B4
:1038F00090958095709561957F4F8F4F9F4F08955C
:103900000E941B1B08F48FEF089597FB072E16F4F7
:10391000009407D077FD09D00E94991C07FC05D0C0
:103920003EF4909581959F4F0895709561957F4FD6
:103930000895AA1BBB1B51E107C0AA1FBB1FA617F6
:10394000B70710F0A61BB70B881F991F5A95A9F748
:1039500080959095BC01CD010895EE0FFF1F059055
:10396000F491E02D09940F931F93CF93DF9382304E
:10397000910510F482E090E0E091A407F091A50792
:1039800030E020E0B0E0A0E0309799F42115310557
:1039900009F44AC0281B390B24303105D8F58A8137
:1039A0009B816115710589F1FB0193838283FE017F
:1039B00011C0408151810281138148175907E0F0FD
:1039C0004817590799F4109761F012960C931297C3
:1039D00013961C933296CF01DF91CF911F910F91D7
:1039E00008950093A4071093A507F4CF211531057E
:1039F00051F04217530738F0A901DB019A01BD01CC
:103A0000DF01F801C1CFEF01F9CF9093A5078093B3
:103A1000A407CDCFFE01E20FF31F819391932250B3
:103A2000310939832883D7CF2091A2073091A3078A
:103A3000232B41F420910E0130910F013093A30705
:103A40002093A20720910C0130910D012115310521
:103A500041F42DB73EB74091100150911101241B44
:103A6000350BE091A207F091A307E217F307A0F44A
:103A70002E1B3F0B2817390778F0AC014E5F5F4FC4
:103A80002417350748F04E0F5F1F5093A30740934C
:103A9000A207819391939FCFF0E0E0E09CCFCF937A
:103AA000DF930097E9F0FC01329713821282A09114
:103AB000A407B091A507ED0130E020E01097A1F434
:103AC00020813181820F931F2091A2073091A3079B
:103AD0002817390709F061C0F093A307E093A20704
:103AE000DF91CF910895EA01CE17DF07E8F54A810B
:103AF0005B819E0141155105B1F7E901FB83EA8322
:103B000049915991C40FD51FEC17FD0761F48081CD
:103B100091810296840F951FE901998388838281A0
:103B200093819B838A83F0E0E0E012968D919C91D3
:103B300013970097B9F52D913C911197CD010296FD
:103B4000820F931F2091A2073091A30728173907EE
:103B500039F6309751F51092A5071092A407B0934B
:103B6000A307A093A207BCCFD383C2834081518116
:103B7000840F951FC817D90761F44E5F5F4F888186
:103B80009981480F591F518340838A819B81938378
:103B900082832115310509F0B0CFF093A507E0939A
:103BA000A4079ECFFD01DC01C0CF13821282D7CFC4
:103BB000B0E0A0E0EEEDFDE10C94A81B8C010097B5
:103BC00051F4CB010E94B31C8C01C801CDB7DEB704
:103BD000E0E10C94C41BFC01E60FF71F9C0122508E
:103BE0003109E217F30708F49DC0D901CD91DC91AA
:103BF0001197C617D70798F0C530D10530F3CE011D
:103C000004978617970708F3C61BD70B2297C19313
:103C1000D1936D937C93CF010E944F1DD6CF5B0152
:103C2000AC1ABD0A4C018C0E9D1EA091A407B09148
:103C3000A507512C412CF12CE12C109731F58091E6
:103C4000A2079091A3078815990509F05CC0461654
:103C5000570608F058C080910C0190910D01009713
:103C600041F48DB79EB74091100150911101841B12
:103C7000950BE817F90708F055C0F093A307E093F8
:103C8000A207F90171836083A0CF8D919C91119758
:103C900012966C90129713967C901397A815B905FD
:103CA00059F56C0142E0C40ED11CCA14DB0420F1AA
:103CB000AC014A195B09DA011296159780F062820D
:103CC000738251834083D9016D937C93E114F10495
:103CD00071F0D7011396FC93EE93129776CF22964C
:103CE0008C0F9D1FF90191838083F301EFCFF09337
:103CF000A507E093A40769CF4816590608F42C01DC
:103D00007D01D3019ACFCB010E94B31C7C010097A7
:103D100049F0AE01B8010E949A1EC8010E944F1DD1
:103D2000870153CF10E000E050CF81E090E0F8949D
:103D30000C94B31EFB01DC0102C001900D924150B6
:103D40005040D8F70895FB01DC018D910190801956
:103D50000110D9F3990B0895FB01DC0101900D923C
:103D60000020E1F7089519E0C3E7D9E004C0FE019F
:103D70000E94AD1C2196C437D107C9F7F894FFCF34
:103D8000FFFFFFFF00E10000000000000000A607A9
:103D9000800000C1808100000000000000160CAE11
:103DA0000D370C2C0C7D0C3B0C590C000000005AFC
:103DB0000E290D5F0F5E0F5C1AFCFF00009E1A4675
:103DC00045454400504C415900504554004A4F4B22
:103DD000450054414C4B0054454143480049474E2F
:103DE0004F52450056414343494E415445004241DC
:103DF0005448450048415050590048554E47525983
:103E000000424F52454400534144005449524544F6
:103E1000005349434B004445414400414E4E4F59E5
:103E2000454400596F752064696564206F66206F92
:103E30006C64206167652E2E006572722E2E2077CD
:043E40006F6E210080
:2070000055C000006EC000006CC000006AC0000068C0000066C0000064C0000062C0000043
:2070200060C000005EC00000F2C400005AC0000058C0000056C0000054C0000052C00000EE
:2070400050C0000078C000004CC000004AC0000048C0000046C0000044C0000042C00000BE
:2070600040C000003EC000003CC000003AC0000038C0000036C0000034C0000032C0000048
:2070800030C000002EC000002CC000002AC0000028C0000026C0000024C0000022C00000A8
:2070A00020C000001EC000001CC0000011241FBECFEFDAE0DEBFCDBF11E0A0E0B1E0E2E3BC
:2070C000FFE702C005900D92A83AB107D9F711E0A8EAB1E001C01D92AE3BB107E1F78FD30B
:2070E00026C78ECFF89410926F0010928100109285001092840081E085BF15BE47985D9AEB
:20710000289A0C94000008952091B2013091B3012F5F3F4F3093B3012093B201932F37FFA6
:2071200003C08EEF831B982F990F921710F447980895479A08951F920F920FB60F9211246E
:207140002F938F939F93EF93FF9310928500109284008091A8019091A901009741F00197D3
:207160009093A9018093A801892B09F45D9A8091AA019091AB01009741F001979093AB0126
:207180008093AA01892B09F4289AE0E0F0E0859194918F5F9F4F49F08091AC019091AD0151
:2071A00001969093AD018093AC01FF91EF919F918F912F910F900FBE0F901F90189584E0BC
:2071C0008093E9000DC08091E8008B778093E80003C08EB3882351F08091E80082FFF9CFBE
:2071E0008091E80085FFEFCF8091F1000895982F83E08093E9008091E80085FD0DC0809136
:20720000E8008E778093E80003C08EB3882369F08091E80080FFF9CF9093F1005D9884E6CB
:2072200090E09093A9018093A80108954F925F926F927F928F929F92AF92BF92CF92DF921E
:20724000EF92FF920F931F93CF93DF9384E08093E9008091E80082FF57C2289884E690E067
:207260009093AB018093AA01AADF182F853481F48CE49DE19093AD018093AC0107B600FC4B
:20728000FDCFF999FECF81E180935700E89503C0843519F494DF8DE00DC28C34E1F38035F9
:2072A000D1F3843721F484E4A2DF80E003C2813611F489E5FFC18134B1F481DF182F7FDFE3
:2072C00090E0880F991FAA2797FDA095BA2F312F330F20E0442737FD4095542F822B932B68
:2072E000A42BB52BB8C1803711F483E5E3C1833549F4C0E0D1E089917ADF21E0C730D20714
:20730000D1F7D9C1863521F481E371DF80E3D2C1833731F487E86BDF85E969DF8EE1CAC149
:207320008536B9F4E0E0F0E093E085E090935700E89507B600FCFDCF80935700E89507B65D
:2073400000FCFDCFE058FF4FA0E7E030FA0771F7A2CF823739F4E1E0F0E089E08093570024
:207360008491A8C1863439F4E0E0F0E089E08093570084919FC18E3439F4E3E0F0E089E0E5
:2073800080935700849196C1813539F4E2E0F0E089E08093570084918DC1823631F489E521
:2073A00026DF80E024DF80E885C1823419F0873609F0E5C01092AD011092AC0100DF082FE8
:2073C000FEDEF82EFCDE682E8554823008F071C1902F80E0CF2DD0E0C82BD92B10926F00B3
:2073E000173609F04BC081E180935700E895DD24CC24C3943FC0E090AE01F090AF010091CC
:20740000B0011091B101B6E46B16D9F4ED2DF0E0EE29FF29E4918E2FEADEDD2081F082E08D
:2074200090E0A0E0B0E0E80EF91E0A1F1B1FE092AE01F092AF010093B0011093B101DC2470
:2074400018C0D801C701B695A7959795879559D5CEDE82E090E0A0E0B0E0E80EF91E0A1FF2
:207460001B1FE092AE01F092AF010093B0011093B1012197209709F0BECF7DC08090AE01F5
:207480009090AF01A090B001B090B10196E4691609F05DC083E0F40180935700E89507B63E
:2074A00000FCFDCF54C0F6E46F1661F5772031F1E090AE01F090AF010091B0011091B1019E
:2074C0007EDED82ECC24852D90E08C299D29F7010C0140925700E895112482E090E0A0E08B
:2074E000B0E0E80EF91E0A1F1B1FE092AE01F092AF010093B0011093B10102C060DE582E1A
:20750000742423C0E090AE01F090AF010091B0011091B10116950795F794E79450DE682FFA
:20752000C701F7D48091AE019091AF01A091B001B091B1010296A11DB11D8093AE01909349
:20754000AF01A093B001B093B101219704C05524772444244394209709F0A5CF96E46916B6
:2075600041F485E0F40180935700E89507B600FCFDCF8DE03CDE82E080936F009CC0833492
:2075800071F40091AE011091AF0119DE90E021E0F8010C0120935700E89511247CCE8336C8
:2075A00019F5E090AE01F090AF010091B0011091B10105DEF701E16090E021E00C0120938C
:2075C0005700E895112482E090E0A0E0B0E0E80EF91E0A1F1B1FE092AE01F092AF0100936A
:2075E000B0011093B10157CE8D3661F4E091AE01F091AF0185E080935700E89507B600FCF2
:20760000FDCF49CE823551F4E091AE01F091AF0105911491812FEBDD802F4CC0843421F5FE
:20762000E090AE01F090AF010091B0011091B10116950795F794E794C2DD682FC70169D4DE
:207640008091AE019091AF01A091B001B091B1010296A11DB11D8093AE019093AF01A093D8
:20766000B001B093B10117CE843609F5E090AE01F090AF010091B0011091B101D801C70142
:20768000B695A795979587953CD4B1DD82E090E0A0E0B0E0E80EF91E0A1F1B1FE092AE010A
:2076A000F092AF010093B0011093B10104C08B3111F08FE39CDD83E08093E9009091E8002B
:2076C0008091E8008E778093E80095FF04C010C08EB38823C9F08091E80080FFF9CF809193
:2076E000E8008E778093E80003C08EB3882361F08091E80080FFF9CF84E08093E9008091F1
:20770000E8008B778093E800DF91CF911F910F91FF90EF90DF90CF90BF90AF909F908F90AC
:207720007F906F905F904F9008959091B601892F8F77813249F58091B7018032A1F081328A
:2077400019F5913A09F58091E800877F8093E8008DE091E067E070E00BD28091E8008B770B
:207760008093E8000895913279F48091E800877F8093E8008DE091E067E070E05DD2809192
:20778000E8008E778093E800089582E061EC42E0B5D083E061E842E1B1D084E060E842E1EF
:2077A000ADC084B7877F84BF88E10FB6F89480936000109260000FBE20E880E090E00FB63F
:2077C000F89420936100809361000FBE81E085BF92E095BF3F9A209A559AE1E6F0E02083A1
:2077E000108247985D9A289A109289008AEF8093880090936F0083E080938100F0C0409116
:20780000000850910108109201081092000894B714BE88E10FB6F8948093600010926000D5
:207820000FBE292F30E0F901E270F07091FD18C090FF05C0859194918F5F9F4F81F423FFFF
:207840000FC08091090190910A014817590741F0E0E0F0E0859194918F5F9F4F09F042DC64
:20786000A0DF78941092AD011092AC010CC0DEDC36D38091AC019091AD0181549F4110F00D
:207880001092140141DC80911401882381F78091E00081608093E00025DC80E090E0089598
:2078A000FA01923049F0933061F09130F9F485E191E022E130E01EC087E291E02EE330E04D
:2078C00019C0882329F485E691E024E030E012C0813029F489E691E022E230E00BC0823006
:2078E00029F48DE891E028E130E004C080E090E020E030E091838083C90108958093E9004E
:207900008091EB0081608093EB001092ED006093EC004093ED008091EE00881F8827881F62
:2079200008958091B60188238CF403C08EB38823B1F08091E80082FFF9CF8091E8008B772A
:207940008093E80008958EB3882349F08091E80080FFF9CF8091E8008E778093E800089594
:20796000EF92FF920F931F9345D04CD008ED10E0F80180818F77808380818068808380819B
:207980008F7D808319BC1EBA1092B40180EEE82EF12CF70180818B7F8083F8018081816052
:2079A000808380E060E042E0A9DFE1EEF0E080818E7F8083E2EEF0E0808181608083808144
:2079C00088608083F70180818E7F8083F8018081806180831F910F91FF90EF900895E7ED06
:2079E000F0E08081816080838AE482BF81E08093B501B6CFE8EDF0E080818E7F808310921C
:207A0000E20008951092DA001092E10008951F920F920FB60F9211242F933F934F935F93F6
:207A20006F937F938F939F93AF93BF93EF93FF938091DA0080FF1BC08091D80080FF17C0B2
:207A40008091DA008E7F8093DA008091D90080FF0BC080E189BD82E189BD09B400FEFDCF36
:207A600081E08EBB3BD203C019BC1EBA37D28091E10080FF17C08091E20080FF13C0809138
:207A8000E2008E7F8093E2008091E20080618093E2008091D80080628093D80019BC85E049
:207AA0008EBB1CD28091E10084FF2CC08091E20084FF28C080E189BD82E189BD09B400FEC5
:207AC000FDCF8091D8008F7D8093D8008091E1008F7E8093E1008091E2008F7E8093E20012
:207AE0008091E20081608093E2008091B401882331F48091E30087FD02C081E001C084E067
:207B00008EBBECD18091E10083FF21C08091E20083FF1DC08091E100877F8093E10082E06A
:207B20008EBB1092B4018091E1008E7F8093E1008091E2008E7F8093E2008091E2008061E9
:207B40008093E20080E060E042E0D8DEC7D1FF91EF91BF91AF919F918F917F916F915F9130
:207B60004F913F912F910F900FBE0F901F9018959C014091BC015091BD014617570718F49D
:207B8000F90190E044C06115710511F0AB01F8CF8091E8008E778093E80040E050E0F0CF0F
:207BA0008EB3882309F444C0853009F443C08091E80083FF02C081E008958091E80082FD70
:207BC00031C08091E80080FF22C08091F3009091F200782F60E0292F30E0262B372B07C07A
:207BE00081918093F100415050402F5F3F4F4115510519F02830310598F390E02830310566
:207C000009F491E08091E8008E778093E8004115510531F6992321F605C08EB3882341F075
:207C2000853041F08091E80082FFF7CF80E0089582E0089583E008959C016115710529F47C
:207C40008091E8008B778093E800F90126C08EB3882391F1853091F18091E80083FF02C06C
:207C600081E008958091E80082FFF1CF06C08091F10081936150704059F02091F300809191
:207C8000F200322F20E090E0822B932B892B79F78091E8008B778093E80061157105B9F601
:207CA00005C08EB3882341F0853041F08091E80080FFF7CF80E0089582E0089583E00895C2
:207CC0000F931F93DF93CF9300D0CDB7DEB7E6EBF1E08091F100819381E0EE3BF807C9F792
:207CE00024DD8091E80083FFE4C08091B6019091B701953009F46DC0963040F4913081F1A7
:207D0000913070F0933009F0D4C02AC0983009F4A3C0993009F4B2C0963009F0CAC07CC023
:207D2000803809F4C6C0823809F0C3C08091BA0187708093E9008091EB001092E9002091DB
:207D4000E800277F2093E80090E025E0969587952A95E1F781708093F1001092F10087C0D8
:207D6000882319F0823009F0A4C08F71823009F0A0C08091B801882331F52091BA01277097
:207D800009F497C02093E9008091EB0080FF1BC0933021F48091EB00806213C08091EB0018
:207DA00080618093EB0081E090E002C0880F991F2A95E2F78093EA001092EA008091EB00E5
:207DC00088608093EB001092E9008091E800877F51C0882309F06DC01091B8011F770FB79B
:207DE000F8948091E800877F8093E8009ADD8091E80080FFFCCF8091E3008078812B809398
:207E0000E30080688093E300112311F482E001C083E08EBB0FBF4DC08058823008F049C033
:207E20008091B8019091B9016091BA01AE014F5F5F4F36DDBC01009709F43BC08091E8008E
:207E4000877F8093E80089819A8192DE8091E8008B778093E8002DC0803859F58091E800AA
:207E6000877F8093E8008091B4018093F1008091E8008E778093E80054DD1BC08823C9F4CA
:207E80009091B8019230A8F48091E800877F8093E8009093B40145DD8091B401882331F420
:207EA0008091E30087FD02C081E001C084E08EBB6CDC8091E80083FF0AC08091EB0080624E
:207EC0008093EB008091E800877F8093E8000F900F90CF91DF911F910F91089508951F9360
:207EE0008EB3882361F01091E9001092E9008091E80083FF01C0E4DE17701093E9001F916F
:207F00000895F999FECF92BD81BDF89A992780B50895262FF999FECF1FBA92BD81BD20BDBD
:207F20000FB6F894FA9AF99A0FBE01960895F894FFCF4341544552494E4100777700080031
:207F40000000000000080112011001020000084123360001000201000109023E00020100FF
:207F600080320904000001020201000524001001042402040524060001070582030800FF0C
:207F800009040100020A000000070504021000010705830210000104030904220341007216
:207FA000006400750069006E006F0020004C0065006F006E006100720064006F0000001836
:1A7FC00003410072006400750069006E006F0020004C004C004300000000D7
:00000001FF
