:100000000C94F60B0C941E0C0C941E0C0C941E0CF1
:100010000C941E0C0C941E0C0C941E0C0C941E0CB8
:100020000C941E0C0C941E0C0C94AE120C941D130C
:100030000C941E0C0C941E0C0C941E0C0C941E0C98
:100040000C941E0C0C941E0C0C941E0C0C941E0C88
:100050000C941E0C0C941E0C0C941E0C0C944F153E
:100060000C941E0C0C941E0C0C941E0C0C941E0C68
:100070000C941E0C0C941E0C0C941E0C0C941E0C58
:100080000C941E0C0C941E0C0C941E0C0C941E0C48
:100090000C941E0C0C941E0C0C941E0C0C941E0C38
:1000A0000C941E0C0C941E0C0C941E0C00000000F2
:1000B000003E5B4F5B3E3E6B4F6B3E1C3E7C3E1CEE
:1000C000183C7E3C181C577D571C1C5E7F5E1C0034
:1000D000183C1800FFE7C3E7FF0018241800FFE7EB
:1000E000DBE7FF30483A060E2629792926407F05AE
:1000F0000507407F05253F5A3CE73C5A7F3E1C1CC4
:1001000008081C1C3E7F14227F22145F5F005F5F83
:1001100006097F017F006689956A6060606060946F
:10012000A2FFA29408047E040810207E2010080874
:100130002A1C08081C2A08081E101010100C1E0C7F
:100140001E0C30383E3830060E3E0E060000000011
:100150000000005F00000007000700147F147F14F8
:10016000242A7F2A1223130864623649562050003D
:1001700008070300001C2241000041221C002A1C29
:100180007F1C2A08083E0808008070300008080814
:100190000808000060600020100804023E51494534
:1001A0003E00427F400072494949462141494D3352
:1001B0001814127F1027454545393C4A49493141B9
:1001C000211109073649494936464949291E000087
:1001D00014000000403400000008142241141414DC
:1001E0001414004122140802015909063E415D59C8
:1001F0004E7C1211127C7F494949363E41414122D1
:100200007F4141413E7F494949417F090909013EFA
:10021000414151737F0808087F00417F4100204021
:10022000413F017F081422417F404040407F021C33
:10023000027F7F0408107F3E4141413E7F0909094A
:10024000063E4151215E7F09192946264949493216
:1002500003017F01033F4040403F1F2040201F3FDC
:100260004038403F63140814630304780403615961
:10027000494D43007F4141410204081020004141A3
:10028000417F04020102044040404040000307084F
:100290000020545478407F2844443838444444284B
:1002A000384444287F385454541800087E090218F2
:1002B000A4A49C787F0804047800447D400020407A
:1002C000403D007F1028440000417F40007C0478BE
:1002D00004787C080404783844444438FC18242406
:1002E0001818242418FC7C08040408485454542486
:1002F00004043F44243C4040207C1C2040201C3C03
:100300004030403C44281028444C9090907C4464F9
:10031000544C44000836410000007700000041368C
:10032000080002010204023C2623263C1EA1A16112
:10033000123A4040207A3854545559215555794144
:100340002154547841215554784020545579400C1B
:100350001E527212395555555939545454593955FC
:100360005454580000457C410002457D420001453F
:100370007C40F0292429F0F0282528F07C545545AC
:10038000002054547C547C0A097F4932494949323F
:100390003248484832324A4848303A4141217A3A54
:1003A00042402078009DA0A07D39444444393D401E
:1003B00040403D3C24FF2424487E4943662B2FFCCB
:1003C0002F2BFF0929F620C0887E09032054547979
:1003D000410000447D413048484A32384040227A4A
:1003E000007A0A0A727D0D19317D2629292F2826C7
:1003F0002929292630484D402038080808080808CF
:100400000808382F10C8ACBA2F102834FA00007B27
:10041000000008142A142222142A1408950022002D
:1004200095AA005500AAAA55AA55AA000000FF00E7
:10043000101010FF00141414FF001010FF00FF1024
:1004400010F010F0141414FC001414F700FF000056
:10045000FF00FF1414F404FC141417101F10101FD5
:10046000101F1414141F00101010F0000000001FC3
:10047000101010101F10101010F010000000FF10CE
:100480001010101010101010FF10000000FF1400CA
:1004900000FF00FF00001F10170000FC04F41414FC
:1004A0001710171414F404F40000FF00F7141414C8
:1004B00014141414F700F7141414171410101F1048
:1004C0001F141414F4141010F010F000001F101F6B
:1004D0000000001F14000000FC140000F010F010D9
:1004E00010FF10FF141414FF141010101F00000050
:1004F00000F010FFFFFFFFFFF0F0F0F0F0FFFFFF54
:100500000000000000FFFF0F0F0F0F0F38444438AA
:10051000447C2A2A3E147E02020606027E027E02E5
:1005200063554941633844443C04407E201E200604
:10053000027E020299A5E7A5991C2A492A1C4C7241
:1005400001724C304A4D4D303048784830BC625AC8
:10055000463D3E494949007E0101017E2A2A2A2A58
:100560002A44445F444440514A444040444A514034
:100570000000FF0103E080FF000008086B6B0836F5
:1005800012362436060F090F060000181800000066
:100590001010003040FF0101001F01011E00191D55
:1005A0001712003C3C3C3C0000000000F0F89C8E20
:1005B0008783878E9CF8F00000FEFF03030303038C
:1005C000070EFCF80000FEFF0303030303070EFC05
:1005D000F80000FFFF00000000000000FFFF000027
:1005E000FEFF8383838383C7EE7C380000F8FC0E14
:1005F00007030303070EFCF800003F7FE0C0808084
:10060000C0E07F3FFFFF01010101010101FFFF0089
:1006100000FFFF0C0C0C0C1C3E77E3C100007FFFB9
:10062000C0C0C0C0C0E0703F1F00001F3F70E0C0EE
:10063000C0C0E0703F1F00007FFFC1C1C1C1C1E366
:10064000773E1C00001F3F70E0C0C0C0E0703F1F3D
:10065000000000000001FFFF01000000D5F08D1434
:10066000A1C881CFD9F1AF2000202000000000F008
:1006700008081020202020202020202020202020BA
:100680002020100808F0000000000000000000FF1B
:10069000000000100000000000000000000000004A
:1006A0000010000000FF000000000000000000003B
:1006B00003848848301010101013121310101010FB
:1006C00030488884030000000000000000000000A3
:1006D00003040404629A8780403008304080879A7F
:1006E000620404040300000000000000000000F0A9
:1006F000080810202020202020202020202020203A
:100700002020100808F0000000000000000000FF9A
:10071000000000100000000000C0C0C00000000089
:100720000010000000FF00000000000000000000BA
:100730000384884830101010101313131010101079
:100740003048888403000000000000000000000022
:1007500003040404629A8780403008304080879AFE
:10076000620404040300000000000000000000F028
:1007700008081020202020202020202020202020B9
:100780002020100808F0000000000000000000FF1A
:100790000000000001000000000000000000000058
:1007A0000000010000FF0000000000000000000049
:1007B0000384884830101010101010121010101000
:1007C00030488884030000000000000000000000A2
:1007D00003040404629A8780403008304080879A7E
:1007E000620404040300000000000000000000F0A8
:1007F0000808102020202020202020202020202039
:100800002020100808F0000000000000000000FF99
:1008100000000010000000000000000000000000C8
:100820004010000000FF0000000000000000000079
:10083000038488483010101010121212101010107B
:100840003048888403000000000000000000000021
:1008500003040404629A8780403008304080879AFD
:10086000620404040300000000000000000000F027
:1008700008081020202020202020202020202020B8
:100880002020100808F0000000000000000000FF19
:100890000000004040400000000000000000004058
:1008A0004040000000FF00000000000000000000C9
:1008B00003848848301010101012121210101010FB
:1008C00030488884030000000000000000000000A1
:1008D00003040404629A8780403008304080879A7D
:1008E000620404040300000000000000000000F0A7
:1008F0000808102020202020202020202020202038
:100900002020100808F0000000000000000000FF98
:1009100000000018180080000000000000008000A7
:100920001818000000FF0000000000000000000098
:100930000384884830131410101012101010141370
:100940003048888403000000000000000000000020
:1009500003040404629A8780403008304080879AFC
:10096000620404040300000000000000000000C056
:100970002020408080808080808080808080808077
:100980008080402020C0000000000000000000FF28
:100990000000A040A00000000000000000000000D7
:1009A000A040A00000FF00000000000000000003C5
:1009B0000C90A060404040404044444C4C4040407B
:1009C0004060A0900C030000000000000000000048
:1009D00003040404629A8780403008304080879A7C
:1009E000620404040300000000000000000000F0A6
:1009F0000808102020202020202020202020202037
:100A00002020100808F0000000000000000000FF97
:100A10000000001812040800000000000000080494
:100A20001218000000FF000000000000000000009D
:100A30000384884830101010101212121010101079
:100A4000304888840300000000000000000000001F
:100A500003040404629A8780403008304080879AFB
:100A600062040404030000000000002020000000D5
:100A70000000000000000000000000000000000076
:100A80000000000000000000000000000000000066
:100A9000000000E0101020404040404040404040F6
:100AA00040404040201010E0000000000000000026
:100AB0000000007F80000000001000008000800027
:100AC000001000000000807F000000000000000017
:100AD00000000000010204040878884829292948F8
:100AE00088780804040201000000000000000000F3
:100AF00000000000000000000000000000000000F6
:100B000000000000000000000000000000000000E5
:100B1000000000E010102040404040404040404075
:100B200040404040201010E00000000000000000A5
:100B30000000007F8000000000100000C0C0C00066
:100B4000001000000000807F000000000000000096
:100B50000000000001020404087888482929294877
:100B60008878080404020100000000000000000072
:100B70000000000000000000000000000000000075
:100B80000000000000000000000000000000000065
:100B9000000000E0101020404040404040404040F5
:100BA00040404040201010E0000000000000000025
:100BB0000000007F80000000000000020000000034
:100BC000000000020000807F000000000000000024
:100BD00000000000010204040878884829292948F7
:100BE00088780804040201000000000000000000F2
:100BF00000000000000000000000000000000000F5
:100C000000000000000000000000000000000000E4
:100C1000000000E010102040404040404040404074
:100C200040404040201010E00000000000000000A4
:100C30000000007F800000000010000000000000A5
:100C4000001040000000807F000000000000000055
:100C50000000000001020404087888482929294876
:100C60008878080404020100000000000000000071
:100C70000000000000000000000000000000000074
:100C80000000000000000000000000000000000064
:100C9000000000E0101020404040404040404040F4
:100CA00040404040201010E0000000000000000024
:100CB0000000007F800000000040400000000000B5
:100CC000404000000000807F0000000000000000A5
:100CD00000000000010204040878884829292948F6
:100CE00088780804040201000000000000000000F1
:100CF00000000000000000000000000000000000F4
:100D000000000000000000000000000000000000E3
:100D1000000000E010102040404040404040404073
:100D200040404040201010E00000000000000000A3
:100D30000000007F80000000001080000000000024
:100D4000801000000000807F008000000000001084
:100D5000000004200102040408798A482829284850
:100D60008A79080404020104000008000000000061
:100D700000000000000000000000008080808080F3
:100D80000000000000000000000000000000000063
:100D9000000000E0101020404040434F444F444FBB
:100DA00043404040201010E0000000000000000020
:100DB0000000007F800000002810280000000000D4
:100DC000281028000000807F0000000000000000C4
:100DD00000000000010204040878884829292948F5
:100DE00088780804040201000000000000000000F0
:100DF00000000000000000000000000000000000F3
:100E000000000000000000000000000000000000E2
:100E1000000000E010102040404040404040404072
:100E200040404040201010E00000000000000000A2
:100E30000000007F8000000018100000000000008B
:100E4000001018000000807F00000000000000007B
:100E50000000000001020404087888482929294874
:100E6000887808040402010000000000002020002F
:100E70000000000000000000000000000000000072
:100E80000000000000000000000000000000000062
:100E90000000000000000000000000000000000052
:100EA0000000000000000000000000000000000042
:100EB00000000000000000FE010202E2A2E20202C5
:100EC00002E2A2E2020201FE0000000000000000B7
:100ED0000000000000000001020408097191545450
:100EE0005491710908040201000000000000000094
:100EF00000000000000000000000000000000000F2
:100F000000000000000000000000000000000000E1
:100F100000000000000000000000000000000000D1
:100F200000000000000000000000000000000000C1
:100F300000000000000000FE0102027A6A7A02024C
:100F4000027A6A7A020201FE00000000000000003E
:100F500000000000000000010204080870905757CC
:100F60005790700808040201000000000000000013
:100F70000000000000000000000000000000000071
:100F80000000000000000000000000000000000061
:100F90000000000000000000000000000000000051
:100FA0000000000000000000000000000000000041
:100FB00000000000000000FE010202E2E2C20202A4
:100FC00002E2E2C2020201FE000000000000000096
:100FD0000000000000000001020408087090545452
:100FE0005490700808040201000000000000000096
:100FF00000000000000000000000000000000000F1
:1010000000000000000000000000000000000000E0
:1010100000000000000000000000000000000000D0
:1010200000000000000000000000000000000000C0
:1010300000000000000000FE010202422242020203
:1010400002422242020201FE0000000000000000F5
:1010500000000000000000010204080870905252D5
:101060005290700908040201000000000000000016
:101070000000000000000000000000000000000070
:101080000000000000000000000000000000000060
:101090000000000000000000000000000000000050
:1010A0000000000000000000000000000000000040
:1010B00000000000000000FE010202020202020223
:1010C00002020202020201FE000000000000000015
:1010D0000000000000000001020408097191505452
:1010E0005091710908040201000000000000000096
:1010F00000000000000000000000000000000000F0
:1011000000000000000000000000000000000000DF
:1011100000000000000000000000000000000000CF
:1011200000000000000000000000000000000000BF
:1011300000000000100000FE010202022202020272
:1011400002022202020201FE000240100000000022
:1011500000010000000100010204080873905052D1
:101160005090730808040201000000000000000015
:10117000000000000000000000000000000000006F
:10118000000000000000000000000000000000005F
:101190000000000000000000000000000C3E123EB5
:1011A000123E0C00000000000000000000000000E3
:1011B00000000000000000FE010202428242020222
:1011C00002428242020201FE000000000000000014
:1011D0000000000000000001020408097091505452
:1011E0005091700908040201000000000000000096
:1011F00000000000000000000000000000000000EF
:1012000000000000000000000000000000000000DE
:1012100000000000000000000000000000000000CE
:1012200000000000000000000000000000000000BE
:1012300000000000000000FE010202E282C2020281
:1012400002C282E2020201FE000000000000000073
:1012500000000000000000010204080971915454CC
:1012600054917109080402010000000000000020F0
:10127000200000000000000000000000000000400E
:1012800040C040000000000000000000000000001E
:101290000000000000000024342C240000000002A4
:1012A0000302020000000000000000000000000037
:1012B0000000121A161200000000000000000000DA
:1012C000000000000000000000000000000000001E
:1012D000000000000000000000000000000000000E
:1012E00000000000000000000000000000000000FE
:1012F00000000000000000000000808080800000EE
:10130000000024342C240000000000000000000035
:1013100000000000004040C040000406050400003A
:1013200000000000000000000000000000000000BD
:1013300000000000000203020200000000000000A4
:10134000000000000000000000000000000000009D
:10135000000000000000000000000000000000008D
:10136000000000000000000000000000000000007D
:10137000008040000000000000000000000000802D
:10138000F0F010101010101010101010101010109D
:10139000906000000000000000000000000000005D
:1013A000000000000000000000000000000000003D
:1013B000000000000000000000000000000000002D
:1013C00000000000000000000000000040000000DD
:1013D000000000000000000000000000000000000D
:1013E00000000000000040000000000000000000BD
:1013F0000000000000000000000000000080F8FF76
:101400000F000000704E424242C20202020202027B
:1014100001000000000000000000000000000000CB
:1014200000000000000000000000000000000000BC
:1014300000000000000000000000000000000000AC
:10144000000000000000000000000400000000F0A8
:1014500008081020202020202020202020202020CC
:101460002020100808F00000000400000000000028
:10147000000000000000000000000080F8FF0F00E6
:1014800000E01C040404040406018078060202E261
:10149000FE3C0602C23A0600001C22222129C9098C
:1014A00011E5030000001C22222129C90911E503CE
:1014B000008078070101C13D03807807010181792F
:1014C000070000000000000000000000000000FF16
:1014D00000000810080000000000000000000000EC
:1014E0000810080000FF00000000000000000000DD
:1014F00000000000000000000000000F0F080808B6
:101500000E010000000000000000030408080808A5
:10151000080804020100000C0B0909090909080860
:10152000040300000C0B0909090909080804030059
:1015300000078890909090919151200000F807004A
:10154000000000000000000000000000000000009B
:1015500003040808101010101012121210101010AE
:101560001008080403000000000000000000000054
:10157000000000000000000000000000000000006B
:10158000000000000000000000000000000000005B
:10159000000000000000000000000000000000004B
:1015A00000807807010181F967100806816111093F
:1015B000070384642424A46404048442414078071B
:1015C00001017947C04080404040780701017947D8
:1015D000C04000000000000000000000000000000B
:1015E00000000000000000000000000000000000FB
:1015F00000000000000000000000000000000000EB
:1016000000000000000000000000000000000000DA
:1016100000000000000000000000000000000000CA
:10162000F00F000000E001000038C60100000000DB
:1016300000F0131212F2030000000302F20E000089
:10164000F00E020203000302F20E0000F00E02028E
:101650000300E01C040404F40C00E01C040404E493
:101660001C0000000000000000000000000000005E
:10167000000000000000000000000000000000006A
:10168000000000000000000000000000000000005A
:101690000000000000000000000000000000704F8B
:1016A000404040700F07784040404F70000000708D
:1016B0004F4040700F0000000000704F4040700F1E
:1016C000000000000000704F4040700F000000005C
:1016D000001E21404040434444C6010000E01E017A
:1016E00000000000000000000000000000000000FA
:1016F00000000000000000000000000000000000EA
:1017000000000000000000000000000000000000D9
:1017100000000000000000000000000000000000C9
:1017200000000000000000000000000000000000B9
:1017300000000000000000000000000000000000A9
:101740000000000000000000000000000000000099
:101750001824242424222222121108080601000041
:101760000000000000000000000000000000000079
:10177000000000080B000202020000090400000142
:1017800002020000052400100105240101010424C7
:101790000206052406000107058103100040090424
:1017A0000100020A000000070502024000000705D0
:1017B00083024000000403090412010002EF020149
:1017C00040412336800001010203014172647569C2
:1017D0006E6F204C4C430041726475696E6F204CF3
:1017E000656F6E6172646F00E916561E11241FBE8C
:1017F000CFEFDAE0DEBFCDBF11E0A0E0B1E0EAEF6D
:10180000F4E402C005900D92A83CB107D9F727E097
:10181000A8ECB1E001C01D92A33FB207E1F71BE0C5
:10182000C5EFDBE004C02197FE010E946A20C43F9F
:10183000D107C9F70E9497180C9470220C940000ED
:10184000E8EFF1E0A0E0B8E000800EBC8111012CCF
:101850001197A0FDFDCF0192B9F70DB408959091B5
:101860008406982329F490918306982381E009F453
:1018700080E00895480F592F511D1416150684F560
:10188000803891056CF597FF02C090E080E0413808
:10189000510514F040E850E0481BFB01E770FF27BA
:1018A00021E001C0220FEA95EAF777FF02C0695FE5
:1018B0007F4FFB0133E0F595E7953A95E1F7F69513
:1018C000FE2FEE27F795E795E80FF91FE850FE4F3A
:1018D000415030F08191DF011197822B8C93F8CF2A
:1018E00008952F923F924F925F926F927F928F92C4
:1018F0009F92AF92BF92CF92DF92EF92FF920F939F
:101900001F93CF93DF93CDB7DEB72E970FB6F89422
:10191000DEBF0FBECDBF7E876D875A0169012617D6
:1019200037070CF00AC1E616F7060CF41FC13D8517
:101930002E85DE86CD86C32ED22E382F292FC501C7
:10194000A32EB22E2D853E852E153F05D1F5A81666
:10195000B90654F0382F292F8A159B0514F43A2D17
:101960002B2D5C01832F922F0A151B052CF080175D
:1019700091070CF4C80185012D853E852034310581
:1019800008F003C18F5F482F401BB901C8012E9694
:101990000FB6F894DEBF0FBECDBFDF91CF911F9180
:1019A0000F91FF90EF90DF90CF90BF90AF909F90FE
:1019B0008F907F906F905F904F903F902F900C94FE
:1019C0003A0C302F212F8C01832F922F3E2D2F2D5B
:1019D000ED84FE843D872E879501201B310B3887CF
:1019E0002F8396012E193F093A8729873C01601AF7
:1019F000710A2D853E852E193F093A8329839C0162
:101A00002A193B093C832B838D859E858C199D0962
:101A10009C878B872D853E852C153D0509F442C09A
:101A2000C60101979E838D834701512C412C312C97
:101A3000212C8D819E8188159905CCF1C101698584
:101A40007A850E9442209B01200F311FC2016981CB
:101A50007A810E944220600F711F8F819885280E25
:101A6000391E460C571C621773071CF4922F9B01FA
:101A7000692F90E48916910438F46F5F462F421B5A
:101A8000B401C9010E943A0C2FEF821A920AD1CFF9
:101A90003A2D2B2D5C01832F922F3D852E85DE86DE
:101AA000CD8670C02D853E853E832D83BDCFC4017C
:101AB0008C199D092B813C81829F6001839FD00CF2
:101AC000929FD00C1124C4018E199F09869D70012C
:101AD000879DF00C969DF00C11248D859E858815B0
:101AE00099050CF452C0C6016B857C850E9442208A
:101AF0009B012A0D3B1DC70169817A810E9442200A
:101B0000600F711F8B819C81C80ED91EE60CF71CDB
:101B1000621773071CF4922F9B01692F90E48916BA
:101B2000910438F46F5F462F421BB401C9010E9433
:101B30003A0C2FEF821A920AD0CFE216F3060CF07D
:101B400001CF2D853E85E216F3060CF4A1CF302F90
:101B5000212F8A015C01832F922F3C2D2D2DCD84C6
:101B6000DE84FE86ED86E32EF22EE1CEE216F3064B
:101B70000CF432CF302F212F8501A32EB22E3E2D13
:101B80002F2D7601C32ED22E27CF2E960FB6F89486
:101B9000DEBF0FBECDBFDF91CF911F910F91FF90A0
:101BA000EF90DF90CF90BF90AF909F908F907F90FD
:101BB0006F905F904F903F902F900895FC0180911F
:101BC000F701882311F13FB7F89482E08093E90090
:101BD0002091F200822F90E01816190614F481E08B
:101BE00090E0882339F0289844E64093F60140912C
:101BF000F1004083222339F02091F200211103C02B
:101C00002BE62093E8003FBF08958FEF9FEF0895E4
:101C10002FB7F89483E08093E9009091E800892F32
:101C2000807295FF04C09091F20080E4891B2FBF61
:101C300008958091EE0181110DC082E08093EA0148
:101C400084E08093EB011092ED011092EC0181E0B1
:101C50008093EE018AEE91E00895CF93DF931F9277
:101C6000CDB7DEB76983DC01ED91FC910280F38191
:101C7000E02D41E050E0BE016F5F7F4F09950F906E
:101C8000DF91CF91089583E08093E9008091F20085
:101C9000882319F08AE38093E80008950E94080ED3
:101CA00090E00895CF93DF931F92CDB7DEB7FC018C
:101CB0008485958597FD08C02FEF3FEF35872487F2
:101CC0000F90DF91CF910895CE0101960E94DE0D15
:101CD000019719F4898190E0F3CF8FEF9FEFF0CF58
:101CE0000F931F93CF93DF931F92CDB7DEB78C0175
:101CF000FC018485958597FF0BC0CE0101960E945B
:101D0000DE0D019771F4898190E0F8019587848751
:101D1000F801848595850F90DF91CF911F910F91E8
:101D200008958FEF9FEFF1CFFC018485958597FD96
:101D30000BC09FB7F89482E08093E9008091F20095
:101D40009FBF90E0019608959FB7F89482E080933A
:101D5000E9008091F2009FBF90E008954091E40176
:101D60005091E5012091E2013091E30142175307C0
:101D7000B4F49091E8009570E1F39091E80092FD41
:101D800019C08093F1008091E4019091E5010196E2
:101D90008F739927892B19F48EEF8093E800809137
:101DA000E4019091E50101969093E5018093E401AF
:101DB00081E0089580E00895DF92EF92FF920F9303
:101DC0001F93CF93DF93D82E8A01EB017B01E40EA2
:101DD000F51ECE15DF0559F0D7FE12C0FE01849125
:101DE0000E94AE0E21968111F4CF0FEF1FEFC801B4
:101DF000DF91CF911F910F91FF90EF90DF900895A9
:101E00008881EECF0F931F93CF93DF931F92CDB7AF
:101E1000DEB782E0898342E450E063E777E180E85F
:101E20000E94DC0E0E94190EDC0112960D911C918D
:101E30000115110589F0D801ED91FC910280F38123
:101E4000E02DBE016F5F7F4FC801099597FD04C06B
:101E5000F80100851185ECCF89810F90DF91CF913A
:101E60001F910F910895615030F02091F100FC0115
:101E700020830196F8CF289884E68093F601089590
:101E8000AF92BF92CF92DF92EF92FF920F931F9388
:101E9000CF93DF936C017B018B01040F151FEB01C6
:101EA0005E01AE18BF08C017D10759F06991D6017D
:101EB000ED91FC910190F081E02DC6010995892BEF
:101EC00079F7C501DF91CF911F910F91FF90EF90AE
:101ED000DF90CF90BF90AF9008953FB7F894809176
:101EE000C9019091CA01A091CB01B091CC0126B556
:101EF000A89B05C02F3F19F00196A11DB11D3FBF42
:101F0000BA2FA92F982F8827BC01CD01620F711D10
:101F1000811D911D42E0660F771F881F991F4A950A
:101F2000D1F708958F929F92AF92BF92CF92DF9296
:101F3000EF92FF926B017C010E946D0F4B015C01DF
:101F4000C114D104E104F104B9F00E946D0F6819C5
:101F500079098A099B09683E73408105910580F3E0
:101F600021E0C21AD108E108F10888EE880E83E06A
:101F7000981EA11CB11CE4CFFF90EF90DF90CF9092
:101F8000BF90AF909F908F9008958F929F92AF9245
:101F9000BF92CF92DF92EF92FF920F931F93CF9356
:101FA000DF936C017B018A0180910B01882309F486
:101FB0005CC08091F701882309F457C08091E90142
:101FC00080FF05C08091E00082608093E000E8011E
:101FD000B12C8AEFA82E93E0892E2AE3922E209727
:101FE00011F4BB20D9F10E94080E81110AC0AA94F5
:101FF000AA20D9F161E070E080E090E00E94920FA9
:10200000EECF8C171D0611F00CF08C2F9FB7F894B3
:102010008092E9002091E80025FD02C09FBFDFCF3C
:10202000282F30E0C21BD30BF701815020F04191E3
:102030004093F100FACFE20EF31EBB2021F0909204
:10204000E800B12CEBCF8091E80085FDE7CF9092BE
:10205000E800BB24B394209709F3F3CF5D9884E69E
:102060008093E801101611063CF081E090E0F60143
:102070009383828310E000E0C801DF91CF911F912C
:102080000F91FF90EF90DF90CF90BF90AF909F9017
:102090008F9008954F925F926F927F928F929F924E
:1020A000AF92BF92CF92DF92EF92FF920F931F9366
:1020B000CF93DF93DC01FA0194903196E4914E5F67
:1020C0005F4F092D10E02223E1F0C1E0D0E09E2F08
:1020D000977011F4D0E0C0E08E2F86958695869596
:1020E0008C0F9D2F911D809FE001819FD00D909FAF
:1020F000D00D11242C9FC0012D9F900D1124480F4D
:10210000591FC8018A0F9B1F009709F477C09B01D4
:102110002E0F311D232B09F471C04115510509F40F
:102120006DC0F62FF7707F2E23E0759567952A9581
:10213000E1F7862E803891051CF080E8982E9A1AD7
:1021400091E08E2F877009F490E0E695E695E6958C
:102150009E0F9B01290F311D2930310514F098E0A5
:10216000961B9B013695322F222737952795A20F74
:10217000B31FC72C072C000CDD082FEF30E0072C15
:1021800002C0220F331F0A94E2F720953095632E88
:10219000882D861B891790F5ED01C850DE4FF12C74
:1021A000E12CE91428F5FA01EE0DFF1DE491F0E0B1
:1021B0002F010C2C02C0440C551C0A94E2F787FC3A
:1021C00004C08881822384298883772061F086E097
:1021D00088154CF05E01E0E8AE0EB11CF50180817F
:1021E000862185298083FFEFEF1AFF0A2196D9CF38
:1021F000400F511FA058BF4F8394CACFDF91CF919A
:102200001F910F91FF90EF90DF90CF90BF90AF9014
:102210009F908F907F906F905F904F9008952D9A30
:102220000895BC0190E080E00C94920F8FB18095EE
:10223000807F669B88601C9B8460089520E191E00C
:1022400061FD94E060FD990F62FD9295687F269F85
:10225000D0011124A80FA850BE4F8C9140FF03C09D
:10226000892B8C93089590958923FBCF2F923F92D1
:102270004F925F926F927F928F929F92AF92BF9296
:10228000CF92DF92EF92FF920F931F93CF93DF9342
:10229000CDB7DEB728970FB6F894DEBF0FBECDBF1F
:1022A0009E838D836A3061F5DC0155968C91B8E090
:1022B0008B9F90011124ED81FE8181899289820F8B
:1022C000931F928B818B108A178681E090E028966D
:1022D0000FB6F894DEBF0FBECDBFDF91CF911F9137
:1022E0000F91FF90EF90DF90CF90BF90AF909F90B5
:1022F0008F907F906F905F904F903F902F900895B8
:102300006D3019F32D813E8138872F83D9011F96B7
:102310000D911C915097003811050CF07CC051961E
:10232000AD90BC90B0E4AB16B1040CF074C0F901F0
:10233000258825E0C801229E800D911D11241816C4
:1023400019060CF068C0622C712CC30133E0880FB1
:10235000991F3A95E1F78A0D9B1D181619060CF086
:102360005AC0F489FB83AF81B8855396BC91BC8376
:10237000629FB0011124FB01E455FF4F2F01198228
:10238000F2018491F981F53009F480E0450128E0FB
:102390002A83A82FB0E0BE83AD833C8080FF3B80C2
:1023A000311004C0BB81EC81BE17F9F078018E2D8D
:1023B000801B8215D0F4D12CC12CC21490F4F0E80B
:1023C000EF16F10450F4B601680D791D6034710503
:1023D00020F4432DC7010E941E112FEFC21AD20A0A
:1023E000ECCF3FEFE31AF30AE2CF8D819E81959502
:1023F00087959A8191509A83860C971C9111C9CF29
:10240000A981AF5FA983BFEF4B1A5B0A060D171DA9
:10241000A63009F0B5CFEF81F8852589422F50E02D
:1024200087859089F6E02F9F800D911D1124AF8143
:10243000B88550969C938E931F9756962C915697DD
:10244000222309F442CF6AEF64039001659F300DA7
:10245000112420583F4F281739070CF036CFED9143
:10246000FC9111970190F081E02D6AE0CD01099572
:102470002CCF0895089590E080E008950C944D1FAE
:102480000E9452220F931F93CF93DF93EC01888118
:102490009981009759F02A813B812617370730F040
:1024A00081E0DF91CF911F910F9108958B016F5FB4
:1024B0007F4F0E949521009759F0998388831B8351
:1024C0000A832C813D81232B59F7FC011082E8CF30
:1024D00080E0E7CFCF93DF93EC018881998100976B
:1024E00011F00E940C21198218821D821C821B820D
:1024F0001A82DF91CF910895EF92FF920F931F936D
:10250000CF93DF93EC018617970781F0FB010081E1
:1025100011810115110539F0E480F580B7010E94A1
:10252000421281110BC0CE010E946A12CE01DF91CE
:10253000CF911F910F91FF90EF900895FD82EC8253
:10254000B801888199810E946922F0CFFC018081C5
:102550009181009711F00C940C2108951F920F9215
:102560000FB60F9211248F939F938091E100909169
:10257000E100937F9093E10083FF0FC01092E90088
:1025800091E09093EB001092EC0092E39093ED00B9
:102590001092F70198E09093F00082FF22C093E040
:1025A0009093E9009091F200992319F09AE39093A7
:1025B000E8009091E801992341F09091E801915051
:1025C0009093E801911101C05D9A9091F6019923D1
:1025D00041F09091F60191509093F601911101C054
:1025E000289A84FF18C08091E2008E7E81608093DB
:1025F000E2008091E1008F7E8093E1008091E9010B
:102600008E7E80618093E9019F918F910F900FBE24
:102610000F901F90189580FFF7CF8091E2008E7E7B
:1026200080618093E2008091E1008E7E8093E100E2
:102630008091E9018E7E8160E5CF1F920F920FB6E7
:102640000F921124CF92DF92EF92FF920F931F937C
:102650002F933F934F935F936F937F938F939F93AA
:10266000AF93BF93EF93FF93CF93DF93CDB7DEB7D5
:102670006C97DEBFCDBF1092E9008091E80083FF28
:1026800025C068E0CE0145960E94330F82EF80930B
:10269000E8008D8987FF39C09091E80090FFFCCF5A
:1026A000982F907609F034C19E894F89588D2F89D3
:1026B000F88C911131C0803861F58091E7018093E9
:1026C000F1001092F1008EEF8093E8006C960FB647
:1026D000F894DEBF0FBECDBFDF91CF91FF91EF9198
:1026E000BF91AF919F918F917F916F915F914F912A
:1026F0003F912F911F910F91FF90EF90DF90CF901E
:102700000F900FBE0F901F9018959EEF9093E800CA
:10271000C7CF1092F100D5CF913059F48111D3CFAA
:102720004130510581F68091E7018D7F8093E7016B
:10273000CACF933049F48111C6CF4130510519F603
:102740008091E7018260F2CF953041F48091E800FA
:1027500080FFFCCF20682093E300B5CF963009F0CE
:10276000A9C00B8D1C8D22E01092E9001092E501AA
:102770001092E401F2122EC01092E3011092E201D5
:102780000E94020F1F8299E09983FA8291E09E8352
:1027900090EA98879AEF99872091E4013091E501BA
:1027A000275F3F4F3C832B838D831092E90010926B
:1027B000E5011092E4011093E3010093E20149E086
:1027C00050E0BE016F5F7F4F80E00E94DC0E0E94F0
:1027D000020F79CF1093E3010093E2010E94190EDA
:1027E000DC0112960D911C910115110509F451C1DE
:1027F000D801ED91FC910480F581E02DBE016B5E66
:102800007F4FC8010995009709F03EC1F801008586
:102810001185EACFF3E0FF120EC08F89882309F4F7
:1028200040C0823061F440E860E187ED97E10E94AA
:102830009915811148CF81E28093EB0047CF813019
:1028400029F440E86BE08BEC97E1F1CF833099F706
:102850000E94190EDC011296ED90FC908E010F5F24
:102860001F4F6801E114F10479F0D701ED91FC915B
:102870000680F781E02DB801C7010995080F111DE9
:10288000F701E084F184EECFD8011C92F6010190AB
:102890000020E9F73197BF016C197D0940E0C601BE
:1028A000C6CF65EB77E1FB01449150E080E80E94E0
:1028B000DC0E09CF973009F4BECF983021F481E0C7
:1028C0008093F10000CF993009F0FDCE837009F0BC
:1028D000B2CFE3E1F1E081E031E096E32191222300
:1028E00071F08093E9003093EB00DF0111972C9198
:1028F0002093EC009093ED008F5F873079F78EE79F
:102900008093EA001092EA008F898093F701DBCE72
:102910008B8D9C8D1092E9001092E5011092E401DC
:102920009093E3018093E201898D811192C08E8999
:102930009D89913A49F4813209F07DCF47E050E01A
:1029400064E071E080E0B3CF913209F074CF83325C
:1029500069F48F89988DB0E0A0E080930001909396
:102960000101A0930201B0930301ADCE803269F45E
:102970008091E80082FFFCCF67E084E091E00E9454
:10298000330F8BEF8093E8009ECE823209F09BCE0E
:102990008F8980930B01EEEFFFE7859194918B3F38
:1029A0009C4D51F1E0E0F8E0809104019091050127
:1029B000A0910601B0910701803B9440A105B105AB
:1029C000F1F480910B0180FD1AC0EE3F8AE0F80718
:1029D00089F587E797E791838083809160008093F2
:1029E000E60188E19BE00FB6F894A895809360001B
:1029F0000FBE9093600067CEEEEFFAE0D5CF8081F6
:102A000091818737974709F05ECEA8958091600045
:102A10008861809360008091E60180936000EE3FC2
:102A20002AE0F20789F08091FE0A9091FF0A9183D3
:102A3000808349CE808191818737980751F29093A6
:102A4000FF0A8093FE0AC5CF1092FF0A1092FE0A79
:102A50003ACE0E94190EDC0112960D911C910115BF
:102A6000110509F4E8CED801ED91FC910190F081B7
:102A7000E02DBE016B5E7F4FC8010995811123CE09
:102A8000F80100851185EBCF181619060CF41BCE42
:102A9000D2CEF1E0FF12BECE69EB77E104CF1F92F8
:102AA0000F920FB60F9211242F933F938F939F9302
:102AB000AF93BF938091CD019091CE01A091CF01B2
:102AC000B091D0013091C80123E0230F2D3758F584
:102AD0000196A11DB11D2093C8018093CD01909353
:102AE000CE01A093CF01B093D0018091C901909104
:102AF000CA01A091CB01B091CC010196A11DB11DDD
:102B00008093C9019093CA01A093CB01B093CC01EB
:102B1000BF91AF919F918F913F912F910F900FBED9
:102B20000F901F90189526E8230F0296A11DB11D46
:102B3000D2CFEF92FF920F931F93CF93DF93F82E94
:102B4000192FE62E042F81E0860F880F0E94AE0E0B
:102B500083E00E94AE0ECF2DD12FEC0EFD2EF11C86
:102B6000CE15DF05B9F007FF13C0FE0184910E9466
:102B7000AE0E182F80E00E94AE0E812321968111A7
:102B8000EFCFDF91CF911F910F91FF90EF900895BC
:102B90008881EDCF81E0F5CFFC011382128211868E
:102BA000128680E183871086178215868FE291E076
:102BB000918380838DE391E095838483108A1786C7
:102BC000128A118A81E0838B148A858B168A089574
:102BD000CF93DF93EC0188E496E00E94CC15E8E403
:102BE000F6E0108E178A8A819B81938382838F817E
:102BF000988590878783898581878A8582878B8559
:102C000083878C8584878D8585878E8586878F854C
:102C10009889908B878789899A89928B818B8B89F8
:102C2000838B8C89848B8D89858B8E89868BDF91B4
:102C3000CF910895CF93DF93EC0183E696E00E9455
:102C4000CC15E3E6F6E08A819B81938382838F81B2
:102C5000988590878783898581878A8582878B85F8
:102C600083878C8584878D8585878E8586878F85EC
:102C70009889908B878789899A89928B818B8B8998
:102C8000838B8C89848B8D89858B8E89868BDF9154
:102C9000CF9108950F931F93CF93DF93EC018B0196
:102CA000198218821B821A821D821C820E947C1249
:102CB000F801868197819F838E838085918599878E
:102CC000888782859385A485B5858A879B87AC870D
:102CD000BD8786859785A089B1898E879F87A88BB8
:102CE000B98B82899389A489B5898A8B9B8BAC8B9C
:102CF000BD8BDF91CF911F910F910895EF92FF92BD
:102D00000F931F93CF93DF93EC017B0119821882FD
:102D10001B821A821D821C82FB0101900020E9F7B0
:102D200031978F01061B170BB8010E9442128111C7
:102D300009C0CE01DF91CF911F910F91FF90EF90CD
:102D40000C946A121D830C83B70188819981DF91ED
:102D5000CF911F910F91FF90EF900C9469228F9269
:102D60009F92AF92BF92CF92DF92EF92FF920F931A
:102D70001F93CF93DF93EC016B017A014801590156
:102D800067EC71E00E947E16B601CE010E947C12B3
:102D9000FF82EE821986188680E090E0A0EAB0E417
:102DA0008A879B87AC87BD871E861F86188A198AEB
:102DB0008A8A9B8AAC8ABD8ADF91CF911F910F913D
:102DC000FF90EF90DF90CF90BF90AF909F908F904B
:102DD0000895CF92DF92EF92FF920F931F93CF93BC
:102DE000DF93CDB7DEB767970FB6F894DEBF0FBE9F
:102DF000CDBFE8EFF5E01382128288EE93E0A0E009
:102E0000B0E084839583A683B7838DE191E09183BD
:102E100080838FEF9FEF958784876FE371E083EB6B
:102E200097E00E947E1664E471E089EB97E00E94CF
:102E30007E1669E471E08FEB97E00E947E166DE4E8
:102E400071E085EC97E00E947E1661E571E08BEC05
:102E500097E00E947E1666E571E081ED97E00E94A2
:102E60007E166BE571E087ED97E00E947E1661E6C5
:102E700071E08DED97E00E947E1668E671E083EECA
:102E800097E00E947E1662E771E089EE97E00E946B
:102E90007E1668E771E083E897E00E947E166EE791
:102EA00071E089E897E00E947E1665E871E08FE89E
:102EB00097E00E947E166BE871E085E997E00E943A
:102EC0007E166FE871E08BE997E00E947E1665E957
:102ED00071E081EA97E00E947E166AE971E087EA74
:102EE00097E00E947E166FE971E08DEA97E00E94FC
:102EF0007E166EE771E0CE0101960E947E1600E01C
:102F000010E020E83FE34AE050E0BE016F5F7F4FF2
:102F10008DE697E00E94AF16CE0101960E94A612A0
:102F200065E871E0CE0101960E947E1600E010E097
:102F300020E03FE34AE050E0BE016F5F7F4F87E54E
:102F400097E00E94AF16CE0101960E94A6126BE890
:102F500071E0CE0101960E947E1600E010E020E8AC
:102F60003EE34AE050E0BE016F5F7F4F81E497E0AF
:102F70000E94AF16CE0101960E94A6126FE971E081
:102F8000CE0101960E947E1600E010E0980142E317
:102F900050E0BE016F5F7F4F8BE297E00E94AF165B
:102FA000CE0101960E94A6126FE871E0CE01019653
:102FB0000E947E160DEC1CEC2CEC3DE34AE050E048
:102FC000BE016F5F7F4F85E197E00E94AF16CE0193
:102FD00001960E94A6126AE971E0CE0101960E9454
:102FE0007E1600E010E020E83FE34AE050E0BE013A
:102FF0006F5F7F4F8FEF96E00E94AF16CE01019674
:103000000E94A6126DE677E081E996E00E944A16DA
:1030100067E577E087EA96E00E944A1661E477E088
:103020008DEB96E00E944A166BE277E083ED96E026
:103030000E944A1665E177E089EE96E00E944A1602
:103040008AE796E00E94CC150AE716E0F801828133
:1030500093819C838B8387819085998788878185DD
:103060008A8782858B8783858C8784858D878585F4
:103070008E8786858F878FE2C82E81E0D82EDA82F0
:10308000C9829DE3E92E91E0F92EFE82ED828785CB
:103090009089998B888B818992899B8B8A8B838974
:1030A0008C8B84898D8B85898E8B86898F8BCE01C5
:1030B00001960E941A16F801828193819C838B836A
:1030C000878190859987888781858A8782858B8784
:1030D00083858C8784858D8785858E8786858F8778
:1030E000DA82C982FE82ED8287859089998B888BEE
:1030F000818992899B8B8A8B83898C8B84898D8B28
:1031000085898E8B86898F8BCE0101960E94E8156A
:1031100067960FB6F894DEBF0FBECDBFDF91CF919B
:103120001F910F91FF90EF90DF90CF9008957894CA
:1031300084B5826084BD84B5816084BD85B58260BC
:1031400085BD85B5816085BD80916E00816080936D
:103150006E001092810080918100826080938100D6
:1031600080918100816080938100809180008160E6
:103170008093800080919100826080939100809183
:103180009100816080939100809190008160809394
:1031900090008091C10084608093C1008091C10043
:1031A00082608093C1008091C10081608093C100E2
:1031B0008091C30081608093C3008091C0008260D1
:1031C0008093C0008091C20081608093C200809192
:1031D0007A00846080937A0080917A008260809384
:1031E0007A0080917A00816080937A0080917A00E1
:1031F000806880937A001092F7011092E701109294
:10320000E9018091D70081608093D70080EA8093A4
:10321000D80089B5806189BD89B5826089BD09B44E
:1032200000FEFDCF61E070E080E090E00E94920F30
:103230008091D8008F7C80618093D8008091E000DD
:10324000807F8093E0008091E1008E7E8093E1009A
:103250008DE08093E200559A209A81EC80937C0067
:1032600085B1806F85B984B1877E84B984B1876E5A
:1032700084B95E9A5F988AB1806D8AB9769A6E98A1
:1032800081B3806F81BB899880B38D7080BB80E5EE
:103290008CBD81E08DBD85E090E00E9411115F9AA8
:1032A00085E090E00E9411115E985C98ECE5F6E0F4
:1032B00084918EBD00000DB407FEFDCF319626E04F
:1032C000E936F207A9F75C9A81E88093640080915F
:1032D000650081608093650080E00E94200C0E9460
:1032E000161187FF15C05C9885EA8EBD00000DB4ED
:1032F00007FEFDCF5C9A2E982F982D988091640040
:1033000080628093640081E083BF889513BEFCCF08
:103310000E94161182FF48C02D980E9416118478D1
:103320008438E1F40E940F1188EC90E00E941111A2
:103330002F9882E090E00E944D1F8F3F29F06FEFA1
:1033400082E090E00E94551F84EF91E00E941111ED
:103350002F9A0E94161184788438D9F30E9416118E
:1033600084718431E1F40E940F1188EC90E00E9496
:1033700011112E9882E090E00E944D1F882329F0C1
:1033800060E082E090E00E94551F84EF91E00E948F
:1033900011112E9A0E94161184718431D9F388EC90
:1033A00090E00E941111B4CF0E940F1182E090E0D2
:1033B0000E943E12882309F449C03E9A3F9A81E058
:1033C00090E00E943E12382F3470932E81FF0EC081
:1033D00031112E98C0EFDFEF08E010E00E941611C7
:1033E00086FF37C02E9A2F9A0E940F1182E390E039
:1033F0000E9411110E9416118111F8CF10929000B5
:103400008AE08093910082E4809385062FB7F89438
:103410008091CD019091CE01A091CF01B091D001CA
:103420002FBF20918606F82FF21B2F2F3091870691
:10343000332309F4A2C0F093880610928706E0E0D7
:10344000F0E0EF2B19F30E940000E0CF3E983F9888
:10345000B6CF992029F0C430D10511F42E9A2F98B7
:1034600081E00E94200C9E01D7FF04C02227332751
:103470002C1B3D0B27703327CE01D7FD079673E039
:10348000959587957A95E1F7D7FF05C00197A80133
:10349000421B530B9A01AC015695542F4427579564
:1034A000479548505E4FD12CC12C3801621A730ADF
:1034B0008F3F6FEF96070CF43AC07A01E4E9EE0E05
:1034C000F11CDA0170E060E0F601E455FA4F5F01AB
:1034D0008F3F980781F0F501E60FF71FE491022E68
:1034E00001C0EE0F0A94EAF75496FC915497EF2B23
:1034F0005496EC9354972115310581F0F501E60FB0
:10350000F71FE491F0E02F01062C02C05594479478
:103510000A94E2F7F7018080482840826F5F7F4F6E
:10352000FFEFEF1AFF0A11966835710589F60196CB
:1035300068E5C60ED11C40585F4FE0EBCE16D104B3
:1035400009F0B6CF80E00E94200C8FE090E00E944E
:1035500011112196C931D10509F040CF992011F000
:103560002F9A2D9880E991E00E9411110E940F116D
:103570008AE796E00E94111E39CF30918506F31735
:1035800048F42F5F231708F05ACF21E023BF889516
:1035900013BE55CF31E03093870680938606809125
:1035A000810690918206019690938206809381060F
:1035B0008091DF01882339F081508093DF018111F0
:1035C00002C01092900080E0E8EFF1E081118FEFEF
:1035D000002481938193819381930394D1F7109276
:1035E0008C0610928B0610928A06109289068091A2
:1035F0008306809384060E9416118093830680912F
:10360000E0019091E101892BC1F420E041E753E111
:1036100070E060E090E080E00E944A1088E00E9444
:103620002F0C882331F041E050E05093E1014093AA
:10363000E00180E00E94200C02CF80E20E942F0C6B
:10364000882361F08091DD019091DE011816190642
:103650008CF501979093DE018093DD0180E40E9458
:103660002F0C882361F08091DD019091DE0189307B
:1036700091051CF501969093DE018093DD0188E0B1
:103680000E942F0C882309F497C08091DC018823C5
:10369000C9F01092DC0120E030E040E85FE3609187
:1036A000DD067091DE068091DF069091E0060E94B3
:1036B0009B1F30C089E090E0CDCF1092DE011092C8
:1036C000DD01DDCF8091DD019091DE01009759F59C
:1036D0006091990670919A06072E000C880B990B41
:1036E0000E949D1E60939F067093A0068093A10682
:1036F0009093A20680915F0690916006019771F504
:103700006091330770913407072E000C880B990BDA
:103710000E949D1E6093E1067093E2068093E3068B
:103720009093E40649C08130910529F56091AF0678
:103730007091B006072E000C880B990B0E949D1EFD
:103740006093B5067093B6068093B7069093B8065B
:1037500080915F0690916006029791F220E030E040
:1037600040E85FE36091E1067091E2068091E30634
:103770009091E4069CCF82309105C9F46091C50612
:103780007091C606072E000C880B990B0E949D1E97
:103790006093CB067093CC068093CD069093CE06B3
:1037A00080915F06909160060397C1F6A9CF0397B9
:1037B000A9F691E09093DC018091D6018111F5C0CA
:1037C0008FB7F8948090CD019090CE01A090CF015A
:1037D000B090D0018FBF8091D2019091D301A09180
:1037E000D401B091D501A5019401281B390B4A0BD6
:1037F0005B0BDA01C901883E9340A105B10508F4CD
:1038000084C08091DA019091DB0101969093DB01F5
:103810008093DA018C33910509F0AEC041E050E0AD
:103820005093D9014093D8018091DC01882369F13C
:10383000C090F706D090F806E090F906F090FA06EE
:103840006091F1067091F206072E000C880B990B1F
:103850000E949D1E2B013C01AC019B01C701B601DA
:103860000E943D2018160CF067C120E030E040E8CF
:103870005FE3C701B6010E949A1F6093F706709339
:10388000F8068093F9069093FA068091DC01811185
:1038900015C0C1E9D6E02A893B894C895D896E85CE
:1038A0007F85888999890E949B1F6E877F87888B77
:1038B000998B669636E0CF3FD30769F78091D101A7
:1038C000882309F444C120911107309112074091D7
:1038D00013075091140760910D0770910E078091A6
:1038E0000F07909110070E949B1F60930D07709324
:1038F0000E0780930F07909310078092D201909249
:10390000D301A092D401B092D501C1E9D6E010E074
:1039100000E0912C812C2E843F84488859882A8588
:103920003B854C855D85C201B1010E943D20181682
:103930000CF03BC16C807D8043E8A42E47E0B42EA0
:10394000F12CE12CF501848195816816790609F046
:1039500021C18881998160817181009709F408C132
:103960006115710509F0FEC06114710409F40EC1FE
:10397000FC01808190E008C18837910539F482E02C
:1039800090E09093D9018093D8014ECF8C32914032
:1039900009F04ACFF1E0F093D60126E030E0309311
:1039A000600620935F06F093D7011092580610929C
:1039B000570628E230E030935A062093590680914A
:1039C0005F069091600626E0289FF001299FF00D88
:1039D0001124ED57F84F448155816081718188E44D
:1039E00096E00E94400F8091DC018823B1F044E012
:1039F00050E05093600640935F062091DA013091C9
:103A0000DB0120953095217033274FE652E165E0C8
:103A100070E083E590E00E944A108091D801909177
:103A2000D90120915F064DE65EE01816190634F4C0
:103A30004BE65AE0019711F049E656E06DE070E080
:103A400080E390E00E944A108091D701882311F111
:103A5000109258061092570610925A061092590664
:103A600045E150E067EA71E088E496E00E94400F8B
:103A7000109258061092570688E090E090935A06EC
:103A8000809359064AE050E06DEB71E088E496E0DF
:103A90000E94400FD0E0C0E041E064E370E0CE015E
:103AA0000E941E112196C038D105B1F78091DD0129
:103AB0009091DE0126E0289FF001299FF00D11244E
:103AC000ED54F84F4481558125E0249FC001259F86
:103AD000900D11249695879520E430E0281B390B32
:103AE000309373062093720687E390E090937506F7
:103AF000809374066081718183E696E00E94400F96
:103B00003DE3E32EF12C03E010E027E330E043E057
:103B100050E06AE370E090E080E00E94710C0CE7F6
:103B200010E027E330E04CE750E06AE370E08FE715
:103B300090E00E94710C7DCD4092F7065092F806FD
:103B40006092F9067092FA061092DC019ECE6091A6
:103B5000070770910807072E000C880B990B0E942D
:103B60009D1EC3CE0E9460220FC01092D10137C0AB
:103B70006115710559F06114710441F0FB018081F8
:103B800090E0919581959109892B21F401151105FA
:103B900009F48701FFEFEF1AFF0A26E0A20EB11C1D
:103BA00038E0E316F10409F0CDCEC201B1010E9464
:103BB00007202E813F81261737071CF44FEF841A08
:103BC000940A66968FEF96E08C179D0709F0A3CEB6
:103BD000892859F291E09093D10105E010E06091BD
:103BE000050770910607072E000C880B990B0E94A1
:103BF0009D1E9B01AC0160910D0770910E07809195
:103C00000F07909110070E943D2018162CF4E1E058
:103C1000E093D60106E010E01093600600935F0683
:103C2000C4CE0F931F93CF93DF938C0181E090E07C
:103C30000E943E1280FF32C08AE090E00E943E1255
:103C40009FEF980F9E3F50F522E330E0D801509649
:103C50003C932E931F9728E330E052963C932E938B
:103C60005197CBE0D0E0D801ED91FC910190F0812B
:103C7000E02D682FC8010995CE010E943E122196C1
:103C8000C131D10581F780E00E94200C88EE93E0DD
:103C9000DF91CF911F910F910C941111DF91CF9172
:103CA0001F910F91089504970C94111ECF93DF93E9
:103CB00089EE96E00E94A61283ED96E00E94A6127D
:103CC0008DEB96E00E94A61287EA96E00E94A6126B
:103CD00081E996E00E94A6128FEF96E00E94A6125C
:103CE00085E197E00E94A6128BE297E00E94A6125F
:103CF00081E497E00E94A61287E597E00E94A61251
:103D00008DE697E00E94A612C3EBD7E02697CE017E
:103D10000E94A61287E0C338D807C1F7CFEED7E0DC
:103D20002697CE010E94A61287E0C33BD807C1F7B1
:103D3000DF91CF910895E89409C097FB3EF49095E8
:103D40008095709561957F4F8F4F9F4F9923A9F074
:103D5000F92F96E9BB279395F69587957795679503
:103D6000B795F111F8CFFAF4BB0F11F460FF1BC047
:103D70006F5F7F4F8F4F9F4F16C0882311F096E9DA
:103D800011C0772321F09EE8872F762F05C0662388
:103D900071F096E8862F70E060E02AF09A95660F41
:103DA000771F881FDAF7880F9695879597F90895FA
:103DB000990F0008550FAA0BE0E8FEEF161617063C
:103DC000E807F907C0F012161306E407F50798F0A4
:103DD000621B730B840B950B39F40A2661F0232BBD
:103DE000242B252B21F408950A2609F4A140A69539
:103DF0008FEF811D811D089597F99F6780E870E01E
:103E000060E008959FEF80EC089500240A94161650
:103E1000170618060906089500240A9412161306B8
:103E2000140605060895092E0394000C11F4882346
:103E300052F0BB0F40F4BF2B11F460FF04C06F5F62
:103E40007F4F8F4F9F4F089557FD9058440F551F38
:103E500059F05F3F71F04795880F97FB991F61F00C
:103E60009F3F79F087950895121613061406551F83
:103E7000F2CF4695F1DF08C0161617061806991FEF
:103E8000F1CF86957105610508940895E894BB27E4
:103E900066277727CB0197F90895F999FECF92BD50
:103EA00081BDF89A992780B50895262FF999FECFFC
:103EB0001FBA92BD81BD20BD0FB6F894FA9AF99A47
:103EC0000FBE019608952F923F924F925F926F928C
:103ED0007F928F929F92AF92BF92CF92DF92EF929A
:103EE000FF920F931F93CF93DF93CDB7DEB7CA1B1B
:103EF000DB0B0FB6F894DEBF0FBECDBF09942A8846
:103F0000398848885F846E847D848C849B84AA84ED
:103F1000B984C884DF80EE80FD800C811B81AA817A
:103F2000B981CE0FD11D0FB6F894DEBF0FBECDBF45
:103F3000ED0108955058BB27AA270E94B21F0C9488
:103F4000131F0E94051F38F00E940C1F20F039F447
:103F50009F3F19F426F40C94021F0EF4E095E7FB42
:103F60000C94FC1EE92F0E94241F58F3BA17620715
:103F700073078407950720F079F4A6F50C94461F83
:103F80000EF4E0950B2EBA2FA02D0B01B901900174
:103F90000C01CA01A0011124FF27591B99F0593FB8
:103FA00050F4503E68F11A16F040A22F232F342F00
:103FB0004427585FF3CF469537952795A795F0404E
:103FC0005395C9F77EF41F16BA0B620B730B840B63
:103FD000BAF09150A1F0FF0FBB1F661F771F881F1B
:103FE000C2F70EC0BA0F621F731F841F48F4879573
:103FF00077956795B795F7959E3F08F0B0CF939565
:10400000880F08F09927EE0F9795879508950E94DD
:104010000E206894B1110C94471F08950E942C1F24
:1040200088F09F5798F0B92F9927B751B0F0E1F079
:10403000660F771F881F991F1AF0BA95C9F714C029
:10404000B13091F00E94461FB1E008950C94461FD4
:10405000672F782F8827B85F39F0B93FCCF3869562
:1040600077956795B395D9F73EF4909580957095BF
:1040700061957F4F8F4F9F4F08950E94D81E08F47F
:104080008FEF089597FB072E16F4009407D077FD65
:1040900009D00E94562007FC05D03EF490958195EA
:1040A0009F4F0895709561957F4F0895AA1BBB1B84
:1040B00051E107C0AA1FBB1FA617B70710F0A61B28
:1040C000B70B881F991F5A95A9F780959095BC0149
:1040D000CD010895EE0FFF1F0590F491E02D099496
:1040E0000F931F93CF93DF938230910510F482E0FA
:1040F00090E0E091F107F091F20730E020E0B0E0CD
:10410000A0E0309799F42115310509F44AC0281B25
:10411000390B24303105D8F58A819B8161157105F1
:1041200089F1FB0193838283FE0111C0408151819B
:104130000281138148175907E0F04817590799F48D
:10414000109761F012960C93129713961C93329667
:10415000CF01DF91CF911F910F9108950093F10747
:104160001093F207F4CF2115310551F04217530790
:1041700038F0A901DB019A01BD01DF01F801C1CFCF
:10418000EF01F9CF9093F2078093F107CDCFFE01B5
:10419000E20FF31F819391932250310939832883D1
:1041A000D7CF2091EF073091F007232B41F42091D6
:1041B0000E0130910F013093F0072093EF0720910B
:1041C0000C0130910D012115310541F42DB73EB799
:1041D0004091100150911101241B350BE091EF0724
:1041E000F091F007E217F307A0F42E1B3F0B2817FE
:1041F000390778F0AC014E5F5F4F2417350748F060
:104200004E0F5F1F5093F0074093EF0781939193F8
:104210009FCFF0E0E0E09CCFCF93DF930097E9F0F1
:10422000FC01329713821282A091F107B091F2073C
:10423000ED0130E020E01097A1F420813181820F60
:10424000931F2091EF073091F0072817390709F0E5
:1042500061C0F093F007E093EF07DF91CF910895ED
:10426000EA01CE17DF07E8F54A815B819E0141151F
:104270005105B1F7E901FB83EA8349915991C40FD4
:10428000D51FEC17FD0761F4808191810296840FA0
:10429000951FE90199838883828193819B838A8317
:1042A000F0E0E0E012968D919C9113970097B9F59C
:1042B0002D913C911197CD010296820F931F209171
:1042C000EF073091F0072817390739F6309751F585
:1042D0001092F2071092F107B093F007A093EF0746
:1042E000BCCFD383C28340815181840F951FC817EF
:1042F000D90761F44E5F5F4F88819981480F591F3C
:10430000518340838A819B81938382832115310568
:1043100009F0B0CFF093F207E093F1079ECFFD01D3
:10432000DC01C0CF13821282D7CFB0E0A0E0EBE96E
:10433000F1E20C94651F8C01009751F4CB010E94AF
:1043400070208C01C801CDB7DEB7E0E10C94811F6D
:10435000FC01E60FF71F9C0122503109E217F30719
:1043600008F49DC0D901CD91DC911197C617D707EC
:1043700098F0C530D10530F3CE0104978617970722
:1043800008F3C61BD70B2297C193D1936D937C93EF
:10439000CF010E940C21D6CF5B01AC1ABD0A4C01A3
:1043A0008C0E9D1EA091F107B091F207512C412C6B
:1043B000F12CE12C109731F58091EF079091F007E7
:1043C0008815990509F05CC04616570608F058C0D4
:1043D00080910C0190910D01009741F48DB79EB72B
:1043E0004091100150911101841B950BE817F907BA
:1043F00008F055C0F093F007E093EF07F9017183DF
:104400006083A0CF8D919C91119712966C9012971A
:1044100013967C901397A815B90559F56C0142E0E5
:10442000C40ED11CCA14DB0420F1AC014A195B098B
:10443000DA011296159780F062827382518340836D
:10444000D9016D937C93E114F10471F0D7011396B7
:10445000FC93EE93129776CF22968C0F9D1FF90155
:1044600091838083F301EFCFF093F207E093F1079C
:1044700069CF4816590608F42C017D01D3019ACF63
:10448000CB010E9470207C01009749F0AE01B80179
:104490000E945722C8010E940C21870153CF10E0CF
:1044A00000E050CF81E090E0F8940C947022FB0182
:1044B000DC0102C001900D9241505040D8F70895A0
:1044C000FB01DC018D91019080190110D9F3990B4A
:1044D0000895FB01DC0101900D920020E1F70895A1
:1044E0001BE0C5EFDBE004C0FE010E946A202196BC
:0A44F000C63FD107C9F7F894FFCFCB
:1044FA00FFFFFFFF00E10000000000000000F307DB
:10450A00800000C18081000000000000002D0EC55F
:10451A000F4E0E430E940E520E700E00000000361F
:10452A0011400F3B123A12111EFCFF0000531E46A7
:10453A0045454400504C415900504554004E4150A5
:10454A00004A4F4B450054414C4B005445414348A7
:10455A000049474E4F52450056414343494E415444
:10456A004500424154484500484150505900485579
:10457A004E47525900424F52454400534144005459
:10458A0049524544005349434B0044454144004184
:10459A004E4E4F59454400596F7520646965642031
:1045AA006F66206F6C64206167652E2E00657272DB
:0845BA002E2E20776F6E210008
:00000001FF
