:100000000C94F60B0C941E0C0C941E0C0C941E0CF1
:100010000C941E0C0C941E0C0C941E0C0C941E0CB8
:100020000C941E0C0C941E0C0C94C2120C943113E4
:100030000C941E0C0C941E0C0C941E0C0C941E0C98
:100040000C941E0C0C941E0C0C941E0C0C941E0C88
:100050000C941E0C0C941E0C0C941E0C0C9463152A
:100060000C941E0C0C941E0C0C941E0C0C941E0C68
:100070000C941E0C0C941E0C0C941E0C0C941E0C58
:100080000C94AD150C941E0C0C941E0C0C941E0CB0
:100090000C941E0C0C941E0C0C941E0C0C941E0C38
:1000A0000C941E0C0C941E0C0C941E0C00000000F2
:1000B000003E5B4F5B3E3E6B4F6B3E1C3E7C3E1CEE
:1000C000183C7E3C181C577D571C1C5E7F5E1C0034
:1000D000183C1800FFE7C3E7FF0018241800FFE7EB
:1000E000DBE7FF30483A060E2629792926407F05AE
:1000F0000507407F05253F5A3CE73C5A7F3E1C1CC4
:1001000008081C1C3E7F14227F22145F5F005F5F83
:1001100006097F017F006689956A6060606060946F
:10012000A2FFA29408047E040810207E2010080874
:100130002A1C08081C2A08081E101010100C1E0C7F
:100140001E0C30383E3830060E3E0E060000000011
:100150000000005F00000007000700147F147F14F8
:10016000242A7F2A1223130864623649562050003D
:1001700008070300001C2241000041221C002A1C29
:100180007F1C2A08083E0808008070300008080814
:100190000808000060600020100804023E51494534
:1001A0003E00427F400072494949462141494D3352
:1001B0001814127F1027454545393C4A49493141B9
:1001C000211109073649494936464949291E000087
:1001D00014000000403400000008142241141414DC
:1001E0001414004122140802015909063E415D59C8
:1001F0004E7C1211127C7F494949363E41414122D1
:100200007F4141413E7F494949417F090909013EFA
:10021000414151737F0808087F00417F4100204021
:10022000413F017F081422417F404040407F021C33
:10023000027F7F0408107F3E4141413E7F0909094A
:10024000063E4151215E7F09192946264949493216
:1002500003017F01033F4040403F1F2040201F3FDC
:100260004038403F63140814630304780403615961
:10027000494D43007F4141410204081020004141A3
:10028000417F04020102044040404040000307084F
:100290000020545478407F2844443838444444284B
:1002A000384444287F385454541800087E090218F2
:1002B000A4A49C787F0804047800447D400020407A
:1002C000403D007F1028440000417F40007C0478BE
:1002D00004787C080404783844444438FC18242406
:1002E0001818242418FC7C08040408485454542486
:1002F00004043F44243C4040207C1C2040201C3C03
:100300004030403C44281028444C9090907C4464F9
:10031000544C44000836410000007700000041368C
:10032000080002010204023C2623263C1EA1A16112
:10033000123A4040207A3854545559215555794144
:100340002154547841215554784020545579400C1B
:100350001E527212395555555939545454593955FC
:100360005454580000457C410002457D420001453F
:100370007C40F0292429F0F0282528F07C545545AC
:10038000002054547C547C0A097F4932494949323F
:100390003248484832324A4848303A4141217A3A54
:1003A00042402078009DA0A07D39444444393D401E
:1003B00040403D3C24FF2424487E4943662B2FFCCB
:1003C0002F2BFF0929F620C0887E09032054547979
:1003D000410000447D413048484A32384040227A4A
:1003E000007A0A0A727D0D19317D2629292F2826C7
:1003F0002929292630484D402038080808080808CF
:100400000808382F10C8ACBA2F102834FA00007B27
:10041000000008142A142222142A1408950022002D
:1004200095AA005500AAAA55AA55AA000000FF00E7
:10043000101010FF00141414FF001010FF00FF1024
:1004400010F010F0141414FC001414F700FF000056
:10045000FF00FF1414F404FC141417101F10101FD5
:10046000101F1414141F00101010F0000000001FC3
:10047000101010101F10101010F010000000FF10CE
:100480001010101010101010FF10000000FF1400CA
:1004900000FF00FF00001F10170000FC04F41414FC
:1004A0001710171414F404F40000FF00F7141414C8
:1004B00014141414F700F7141414171410101F1048
:1004C0001F141414F4141010F010F000001F101F6B
:1004D0000000001F14000000FC140000F010F010D9
:1004E00010FF10FF141414FF141010101F00000050
:1004F00000F010FFFFFFFFFFF0F0F0F0F0FFFFFF54
:100500000000000000FFFF0F0F0F0F0F38444438AA
:10051000447C2A2A3E147E02020606027E027E02E5
:1005200063554941633844443C04407E201E200604
:10053000027E020299A5E7A5991C2A492A1C4C7241
:1005400001724C304A4D4D303048784830BC625AC8
:10055000463D3E494949007E0101017E2A2A2A2A58
:100560002A44445F444440514A444040444A514034
:100570000000FF0103E080FF000008086B6B0836F5
:1005800012362436060F090F060000181800000066
:100590001010003040FF0101001F01011E00191D55
:1005A0001712003C3C3C3C0000000000F0F89C8E20
:1005B0008783878E9CF8F00000FEFF03030303038C
:1005C000070EFCF80000FEFF0303030303070EFC05
:1005D000F80000FFFF00000000000000FFFF000027
:1005E000FEFF8383838383C7EE7C380000F8FC0E14
:1005F00007030303070EFCF800003F7FE0C0808084
:10060000C0E07F3FFFFF01010101010101FFFF0089
:1006100000FFFF0C0C0C0C1C3E77E3C100007FFFB9
:10062000C0C0C0C0C0E0703F1F00001F3F70E0C0EE
:10063000C0C0E0703F1F00007FFFC1C1C1C1C1E366
:10064000773E1C00001F3F70E0C0C0C0E0703F1F3D
:10065000000000000001FFFF01000000D5F08D1434
:10066000A1C881CFD9F1AF2000202000000000F008
:1006700008081020202020202020202020202020BA
:100680002020100808F0000000000000000000FF1B
:10069000000000100000000000000000000000004A
:1006A0000010000000FF000000000000000000003B
:1006B00003848848301010101013121310101010FB
:1006C00030488884030000000000000000000000A3
:1006D00003040404629A8780403008304080879A7F
:1006E000620404040300000000000000000000F0A9
:1006F000080810202020202020202020202020203A
:100700002020100808F0000000000000000000FF9A
:10071000000000100000000000C0C0C00000000089
:100720000010000000FF00000000000000000000BA
:100730000384884830101010101313131010101079
:100740003048888403000000000000000000000022
:1007500003040404629A8780403008304080879AFE
:10076000620404040300000000000000000000F028
:1007700008081020202020202020202020202020B9
:100780002020100808F0000000000000000000FF1A
:100790000000000001000000000000000000000058
:1007A0000000010000FF0000000000000000000049
:1007B0000384884830101010101010121010101000
:1007C00030488884030000000000000000000000A2
:1007D00003040404629A8780403008304080879A7E
:1007E000620404040300000000000000000000F0A8
:1007F0000808102020202020202020202020202039
:100800002020100808F0000000000000000000FF99
:1008100000000010000000000000000000000000C8
:100820004010000000FF0000000000000000000079
:10083000038488483010101010121212101010107B
:100840003048888403000000000000000000000021
:1008500003040404629A8780403008304080879AFD
:10086000620404040300000000000000000000F027
:1008700008081020202020202020202020202020B8
:100880002020100808F0000000000000000000FF19
:100890000000004040400000000000000000004058
:1008A0004040000000FF00000000000000000000C9
:1008B00003848848301010101012121210101010FB
:1008C00030488884030000000000000000000000A1
:1008D00003040404629A8780403008304080879A7D
:1008E000620404040300000000000000000000F0A7
:1008F0000808102020202020202020202020202038
:100900002020100808F0000000000000000000FF98
:1009100000000018180080000000000000008000A7
:100920001818000000FF0000000000000000000098
:100930000384884830131410101012101010141370
:100940003048888403000000000000000000000020
:1009500003040404629A8780403008304080879AFC
:10096000620404040300000000000000000000C056
:100970002020408080808080808080808080808077
:100980008080402020C0000000000000000000FF28
:100990000000A040A00000000000000000000000D7
:1009A000A040A00000FF00000000000000000003C5
:1009B0000C90A060404040404044444C4C4040407B
:1009C0004060A0900C030000000000000000000048
:1009D00003040404629A8780403008304080879A7C
:1009E000620404040300000000000000000000F0A6
:1009F0000808102020202020202020202020202037
:100A00002020100808F0000000000000000000FF97
:100A10000000001812040800000000000000080494
:100A20001218000000FF000000000000000000009D
:100A30000384884830101010101212121010101079
:100A4000304888840300000000000000000000001F
:100A500003040404629A8780403008304080879AFB
:100A600062040404030000000000002020000000D5
:100A70000000000000000000000000000000000076
:100A80000000000000000000000000000000000066
:100A9000000000E0101020404040404040404040F6
:100AA00040404040201010E0000000000000000026
:100AB0000000007F80000000001000008000800027
:100AC000001000000000807F000000000000000017
:100AD00000000000010204040878884829292948F8
:100AE00088780804040201000000000000000000F3
:100AF00000000000000000000000000000000000F6
:100B000000000000000000000000000000000000E5
:100B1000000000E010102040404040404040404075
:100B200040404040201010E00000000000000000A5
:100B30000000007F8000000000100000C0C0C00066
:100B4000001000000000807F000000000000000096
:100B50000000000001020404087888482929294877
:100B60008878080404020100000000000000000072
:100B70000000000000000000000000000000000075
:100B80000000000000000000000000000000000065
:100B9000000000E0101020404040404040404040F5
:100BA00040404040201010E0000000000000000025
:100BB0000000007F80000000000000020000000034
:100BC000000000020000807F000000000000000024
:100BD00000000000010204040878884829292948F7
:100BE00088780804040201000000000000000000F2
:100BF00000000000000000000000000000000000F5
:100C000000000000000000000000000000000000E4
:100C1000000000E010102040404040404040404074
:100C200040404040201010E00000000000000000A4
:100C30000000007F800000000010000000000000A5
:100C4000001040000000807F000000000000000055
:100C50000000000001020404087888482929294876
:100C60008878080404020100000000000000000071
:100C70000000000000000000000000000000000074
:100C80000000000000000000000000000000000064
:100C9000000000E0101020404040404040404040F4
:100CA00040404040201010E0000000000000000024
:100CB0000000007F800000000040400000000000B5
:100CC000404000000000807F0000000000000000A5
:100CD00000000000010204040878884829292948F6
:100CE00088780804040201000000000000000000F1
:100CF00000000000000000000000000000000000F4
:100D000000000000000000000000000000000000E3
:100D1000000000E010102040404040404040404073
:100D200040404040201010E00000000000000000A3
:100D30000000007F80000000001080000000000024
:100D4000801000000000807F008000000000001084
:100D5000000004200102040408798A482829284850
:100D60008A79080404020104000008000000000061
:100D700000000000000000000000008080808080F3
:100D80000000000000000000000000000000000063
:100D9000000000E0101020404040434F444F444FBB
:100DA00043404040201010E0000000000000000020
:100DB0000000007F800000002810280000000000D4
:100DC000281028000000807F0000000000000000C4
:100DD00000000000010204040878884829292948F5
:100DE00088780804040201000000000000000000F0
:100DF00000000000000000000000000000000000F3
:100E000000000000000000000000000000000000E2
:100E1000000000E010102040404040404040404072
:100E200040404040201010E00000000000000000A2
:100E30000000007F8000000018100000000000008B
:100E4000001018000000807F00000000000000007B
:100E50000000000001020404087888482929294874
:100E6000887808040402010000000000002020002F
:100E70000000000000000000000000000000000072
:100E80000000000000000000000000000000000062
:100E90000000000000000000000000000000000052
:100EA0000000000000000000000000000000000042
:100EB00000000000000000FE010202E2A2E20202C5
:100EC00002E2A2E2020201FE0000000000000000B7
:100ED0000000000000000001020408097191545450
:100EE0005491710908040201000000000000000094
:100EF00000000000000000000000000000000000F2
:100F000000000000000000000000000000000000E1
:100F100000000000000000000000000000000000D1
:100F200000000000000000000000000000000000C1
:100F300000000000000000FE0102027A6A7A02024C
:100F4000027A6A7A020201FE00000000000000003E
:100F500000000000000000010204080870905757CC
:100F60005790700808040201000000000000000013
:100F70000000000000000000000000000000000071
:100F80000000000000000000000000000000000061
:100F90000000000000000000000000000000000051
:100FA0000000000000000000000000000000000041
:100FB00000000000000000FE010202E2E2C20202A4
:100FC00002E2E2C2020201FE000000000000000096
:100FD0000000000000000001020408087090545452
:100FE0005490700808040201000000000000000096
:100FF00000000000000000000000000000000000F1
:1010000000000000000000000000000000000000E0
:1010100000000000000000000000000000000000D0
:1010200000000000000000000000000000000000C0
:1010300000000000000000FE010202422242020203
:1010400002422242020201FE0000000000000000F5
:1010500000000000000000010204080870905252D5
:101060005290700908040201000000000000000016
:101070000000000000000000000000000000000070
:101080000000000000000000000000000000000060
:101090000000000000000000000000000000000050
:1010A0000000000000000000000000000000000040
:1010B00000000000000000FE010202020202020223
:1010C00002020202020201FE000000000000000015
:1010D0000000000000000001020408097191505452
:1010E0005091710908040201000000000000000096
:1010F00000000000000000000000000000000000F0
:1011000000000000000000000000000000000000DF
:1011100000000000000000000000000000000000CF
:1011200000000000000000000000000000000000BF
:1011300000000000100000FE010202022202020272
:1011400002022202020201FE000240100000000022
:1011500000010000000100010204080873905052D1
:101160005090730808040201000000000000000015
:10117000000000000000000000000000000000006F
:10118000000000000000000000000000000000005F
:101190000000000000000000000000000C3E123EB5
:1011A000123E0C00000000000000000000000000E3
:1011B00000000000000000FE010202428242020222
:1011C00002428242020201FE000000000000000014
:1011D0000000000000000001020408097091505452
:1011E0005091700908040201000000000000000096
:1011F00000000000000000000000000000000000EF
:1012000000000000000000000000000000000000DE
:1012100000000000000000000000000000000000CE
:1012200000000000000000000000000000000000BE
:1012300000000000000000FE010202E282C2020281
:1012400002C282E2020201FE000000000000000073
:1012500000000000000000010204080971915454CC
:1012600054917109080402010000000000000020F0
:10127000200000000000000000000000000000400E
:1012800040C040000000000000000000000000001E
:101290000000000000000024342C240000000002A4
:1012A0000302020000000000000000000000000037
:1012B0000000121A161200000000000000000000DA
:1012C000000000000000000000000000000000001E
:1012D000000000000000000000000000000000000E
:1012E00000000000000000000000000000000000FE
:1012F00000000000000000000000808080800000EE
:10130000000024342C240000000000000000000035
:1013100000000000004040C040000406050400003A
:1013200000000000000000000000000000000000BD
:1013300000000000000203020200000000000000A4
:10134000000000000000000000000000000000009D
:10135000000000000000000000000000000000008D
:10136000000000000000000000000000000000007D
:10137000008040000000000000000000000000802D
:10138000F0F010101010101010101010101010109D
:10139000906000000000000000000000000000005D
:1013A000000000000000000000000000000000003D
:1013B000000000000000000000000000000000002D
:1013C00000000000000000000000000040000000DD
:1013D000000000000000000000000000000000000D
:1013E00000000000000040000000000000000000BD
:1013F0000000000000000000000000000080F8FF76
:101400000F000000704E424242C20202020202027B
:1014100001000000000000000000000000000000CB
:1014200000000000000000000000000000000000BC
:1014300000000000000000000000000000000000AC
:10144000000000000000000000000400000000F0A8
:1014500008081020202020202020202020202020CC
:101460002020100808F00000000400000000000028
:10147000000000000000000000000080F8FF0F00E6
:1014800000E01C040404040406018078060202E261
:10149000FE3C0602C23A0600001C22222129C9098C
:1014A00011E5030000001C22222129C90911E503CE
:1014B000008078070101C13D03807807010181792F
:1014C000070000000000000000000000000000FF16
:1014D00000000810080000000000000000000000EC
:1014E0000810080000FF00000000000000000000DD
:1014F00000000000000000000000000F0F080808B6
:101500000E010000000000000000030408080808A5
:10151000080804020100000C0B0909090909080860
:10152000040300000C0B0909090909080804030059
:1015300000078890909090919151200000F807004A
:10154000000000000000000000000000000000009B
:1015500003040808101010101012121210101010AE
:101560001008080403000000000000000000000054
:10157000000000000000000000000000000000006B
:10158000000000000000000000000000000000005B
:10159000000000000000000000000000000000004B
:1015A00000807807010181F967100806816111093F
:1015B000070384642424A46404048442414078071B
:1015C00001017947C04080404040780701017947D8
:1015D000C04000000000000000000000000000000B
:1015E00000000000000000000000000000000000FB
:1015F00000000000000000000000000000000000EB
:1016000000000000000000000000000000000000DA
:1016100000000000000000000000000000000000CA
:10162000F00F000000E001000038C60100000000DB
:1016300000F0131212F2030000000302F20E000089
:10164000F00E020203000302F20E0000F00E02028E
:101650000300E01C040404F40C00E01C040404E493
:101660001C0000000000000000000000000000005E
:10167000000000000000000000000000000000006A
:10168000000000000000000000000000000000005A
:101690000000000000000000000000000000704F8B
:1016A000404040700F07784040404F70000000708D
:1016B0004F4040700F0000000000704F4040700F1E
:1016C000000000000000704F4040700F000000005C
:1016D000001E21404040434444C6010000E01E017A
:1016E00000000000000000000000000000000000FA
:1016F00000000000000000000000000000000000EA
:1017000000000000000000000000000000000000D9
:1017100000000000000000000000000000000000C9
:1017200000000000000000000000000000000000B9
:1017300000000000000000000000000000000000A9
:101740000000000000000000000000000000000099
:101750001824242424222222121108080601000041
:101760000000000000000000000000000000000079
:10177000000000080B000202020000090400000142
:1017800002020000052400100105240101010424C7
:101790000206052406000107058103100040090424
:1017A0000100020A000000070502024000000705D0
:1017B00083024000000403090412010002EF020149
:1017C00040412336800001010203014172647569C2
:1017D0006E6F204C4C430041726475696E6F204CF3
:1017E000656F6E6172646F00FD17581F11241FBE74
:1017F000CFEFDAE0DEBFCDBF11E0A0E0B1E0EEE96F
:10180000F7E402C005900D92A83CB107D9F728E093
:10181000A8ECB1E001C01D92AC30B207E1F71BE0CB
:10182000C5EFDBE004C02197FE010E94BC21C43F4C
:10183000D107C9F70E94AB190C94C2230C94000085
:10184000E1E1F2E0A0E0B8E000800EBC8111012CE3
:101850001197A0FDFDCF0192B9F70DB408959091B5
:101860009D06982329F490919C06982381E009F421
:1018700080E00895480F592F511D1416150684F560
:10188000803891056CF597FF02C090E080E0413808
:10189000510514F040E850E0481BFB01E770FF27BA
:1018A00021E001C0220FEA95EAF777FF02C0695FE5
:1018B0007F4FFB0133E0F595E7953A95E1F7F69513
:1018C000FE2FEE27F795E795E80FF91FEF5EFD4F26
:1018D000415030F08191DF011197822B8C93F8CF2A
:1018E00008952F923F924F925F926F927F928F92C4
:1018F0009F92AF92BF92CF92DF92EF92FF920F939F
:101900001F93CF93DF93CDB7DEB72E970FB6F89422
:10191000DEBF0FBECDBF7E876D875A0169012617D6
:1019200037070CF00AC1E616F7060CF41FC13D8517
:101930002E85DE86CD86C32ED22E382F292FC501C7
:10194000A32EB22E2D853E852E153F05D1F5A81666
:10195000B90654F0382F292F8A159B0514F43A2D17
:101960002B2D5C01832F922F0A151B052CF080175D
:1019700091070CF4C80185012D853E852034310581
:1019800008F003C18F5F482F401BB901C8012E9694
:101990000FB6F894DEBF0FBECDBFDF91CF911F9180
:1019A0000F91FF90EF90DF90CF90BF90AF909F90FE
:1019B0008F907F906F905F904F903F902F900C94FE
:1019C0003A0C302F212F8C01832F922F3E2D2F2D5B
:1019D000ED84FE843D872E879501201B310B3887CF
:1019E0002F8396012E193F093A8729873C01601AF7
:1019F000710A2D853E852E193F093A8329839C0162
:101A00002A193B093C832B838D859E858C199D0962
:101A10009C878B872D853E852C153D0509F442C09A
:101A2000C60101979E838D834701512C412C312C97
:101A3000212C8D819E8188159905CCF1C101698584
:101A40007A850E9494219B01200F311FC201698178
:101A50007A810E949421600F711F8F819885280ED2
:101A6000391E460C571C621773071CF4922F9B01FA
:101A7000692F90E48916910438F46F5F462F421B5A
:101A8000B401C9010E943A0C2FEF821A920AD1CFF9
:101A90003A2D2B2D5C01832F922F3D852E85DE86DE
:101AA000CD8670C02D853E853E832D83BDCFC4017C
:101AB0008C199D092B813C81829F6001839FD00CF2
:101AC000929FD00C1124C4018E199F09869D70012C
:101AD000879DF00C969DF00C11248D859E858815B0
:101AE00099050CF452C0C6016B857C850E94942137
:101AF0009B012A0D3B1DC70169817A810E949421B7
:101B0000600F711F8B819C81C80ED91EE60CF71CDB
:101B1000621773071CF4922F9B01692F90E48916BA
:101B2000910438F46F5F462F421BB401C9010E9433
:101B30003A0C2FEF821A920AD0CFE216F3060CF07D
:101B400001CF2D853E85E216F3060CF4A1CF302F90
:101B5000212F8A015C01832F922F3C2D2D2DCD84C6
:101B6000DE84FE86ED86E32EF22EE1CEE216F3064B
:101B70000CF432CF302F212F8501A32EB22E3E2D13
:101B80002F2D7601C32ED22E27CF2E960FB6F89486
:101B9000DEBF0FBECDBFDF91CF911F910F91FF90A0
:101BA000EF90DF90CF90BF90AF909F908F907F90FD
:101BB0006F905F904F903F902F900895FC0180911F
:101BC0001002882311F13FB7F89482E08093E90076
:101BD0002091F200822F90E01816190614F481E08B
:101BE00090E0882339F0289844E640930F02409112
:101BF000F1004083222339F02091F200211103C02B
:101C00002BE62093E8003FBF08958FEF9FEF0895E4
:101C10002FB7F89483E08093E9009091E800892F32
:101C2000807295FF04C09091F20080E4891B2FBF61
:101C300008958091070281110DC082E08093030214
:101C400084E080930402109206021092050281E063
:101C50008093070283E092E00895CF93DF931F9271
:101C6000CDB7DEB76983DC01ED91FC910280F38191
:101C7000E02D41E050E0BE016F5F7F4F09950F906E
:101C8000DF91CF91089583E08093E9008091F20085
:101C9000882319F08AE38093E80008950E94080ED3
:101CA00090E00895CF93DF931F92CDB7DEB7FC018C
:101CB0008485958597FD08C02FEF3FEF35872487F2
:101CC0000F90DF91CF910895CE0101960E94DE0D15
:101CD000019719F4898190E0F3CF8FEF9FEFF0CF58
:101CE0000F931F93CF93DF931F92CDB7DEB78C0175
:101CF000FC018485958597FF0BC0CE0101960E945B
:101D0000DE0D019771F4898190E0F8019587848751
:101D1000F801848595850F90DF91CF911F910F91E8
:101D200008958FEF9FEFF1CFFC018485958597FD96
:101D30000BC09FB7F89482E08093E9008091F20095
:101D40009FBF90E0019608959FB7F89482E080933A
:101D5000E9008091F2009FBF90E008954091FD015D
:101D60005091FE012091FB013091FC014217530775
:101D7000B4F49091E8009570E1F39091E80092FD41
:101D800019C08093F1008091FD019091FE010196B0
:101D90008F739927892B19F48EEF8093E800809137
:101DA000FD019091FE0101969093FE018093FD014B
:101DB00081E0089580E00895DF92EF92FF920F9303
:101DC0001F93CF93DF93D82E8A01EB017B01E40EA2
:101DD000F51ECE15DF0559F0D7FE12C0FE01849125
:101DE0000E94AE0E21968111F4CF0FEF1FEFC801B4
:101DF000DF91CF911F910F91FF90EF90DF900895A9
:101E00008881EECF0F931F93CF93DF931F92CDB7AF
:101E1000DEB782E0898342E450E063E777E180E85F
:101E20000E94DC0E0E94190EDC0112960D911C918D
:101E30000115110589F0D801ED91FC910280F38123
:101E4000E02DBE016F5F7F4FC801099597FD04C06B
:101E5000F80100851185ECCF89810F90DF91CF913A
:101E60001F910F910895615030F02091F100FC0115
:101E700020830196F8CF289884E680930F02089576
:101E8000AF92BF92CF92DF92EF92FF920F931F9388
:101E9000CF93DF936C017B018B01040F151FEB01C6
:101EA0005E01AE18BF08C017D10759F06991D6017D
:101EB000ED91FC910190F081E02DC6010995892BEF
:101EC00079F7C501DF91CF911F910F91FF90EF90AE
:101ED000DF90CF90BF90AF9008953FB7F894809176
:101EE000E3019091E401A091E501B091E60126B5EE
:101EF000A89B05C02F3F19F00196A11DB11D3FBF42
:101F0000BA2FA92F982F8827BC01CD01620F711D10
:101F1000811D911D42E0660F771F881F991F4A950A
:101F2000D1F708958F929F92AF92BF92CF92DF9296
:101F3000EF92FF926B017C010E946D0F4B015C01DF
:101F4000C114D104E104F104B9F00E946D0F6819C5
:101F500079098A099B09683E73408105910580F3E0
:101F600021E0C21AD108E108F10888EE880E83E06A
:101F7000981EA11CB11CE4CFFF90EF90DF90CF9092
:101F8000BF90AF909F908F9008958F929F92AF9245
:101F9000BF92CF92DF92EF92FF920F931F93CF9356
:101FA000DF936C017B018A0180910B01882309F486
:101FB0005CC080911002882309F457C0809102020E
:101FC00080FF05C08091E00082608093E000E8011E
:101FD000B12C8AEFA82E93E0892E2AE3922E209727
:101FE00011F4BB20D9F10E94080E81110AC0AA94F5
:101FF000AA20D9F161E070E080E090E00E94920FA9
:10200000EECF8C171D0611F00CF08C2F9FB7F894B3
:102010008092E9002091E80025FD02C09FBFDFCF3C
:10202000282F30E0C21BD30BF701815020F04191E3
:102030004093F100FACFE20EF31EBB2021F0909204
:10204000E800B12CEBCF8091E80085FDE7CF9092BE
:10205000E800BB24B394209709F3F3CF5D9884E69E
:1020600080930102101611063CF081E090E0F60129
:102070009383828310E000E0C801DF91CF911F912C
:102080000F91FF90EF90DF90CF90BF90AF909F9017
:102090008F9008952091D601E091D901F091DA0155
:1020A000CF0102969093DA018093D901222319F08F
:1020B0008591949108958081918108954F925F92C6
:1020C0006F927F928F929F92AF92BF92CF92DF9248
:1020D000EF92FF920F931F93CF93DF93DC01FA01EE
:1020E00094903196E4914E5F5F4F092D10E02223CA
:1020F000E1F0C1E0D0E09E2F977011F4D0E0C0E095
:102100008E2F8695869586958C0F9D2F911D809F8D
:10211000E001819FD00D909FD00D11242C9FC00114
:102120002D9F900D1124480F591FC8018A0F9B1F26
:10213000009709F477C09B012E0F311D232B09F462
:1021400071C04115510509F46DC0F62FF7707F2E4F
:1021500023E0759567952A95E1F7862E80389105DD
:102160001CF080E8982E9A1A91E08E2F877009F45F
:1021700090E0E695E695E6959E0F9B01290F311DAF
:102180002930310514F098E0961B9B013695322FCB
:10219000222737952795A20FB31FC72C072C000CB9
:1021A000DD082FEF30E0072C02C0220F331F0A9406
:1021B000E2F720953095632E882D861B891790F5C0
:1021C000ED01CF5EDD4FF12CE12CE91428F5FA0189
:1021D000EE0DFF1DE491F0E02F010C2C02C0440C29
:1021E000551C0A94E2F787FC04C088818223842965
:1021F0008883772061F086E088154CF05E01E0E886
:10220000AE0EB11CF5018081862185298083FFEF08
:10221000EF1AFF0A2196D9CF400F511FA058BF4F88
:102220008394CACFDF91CF911F910F91FF90EF90D0
:10223000DF90CF90BF90AF909F908F907F906F90E6
:102240005F904F9008952D9A0895BC0190E080E032
:102250000C94920F8FB18095807F669B88601C9B49
:102260008460089520E191E061FD94E060FD990FA4
:1022700062FD9295687F269FD0011124A80FAF5E62
:10228000BD4F8C9140FF03C0892B8C93089590958E
:102290008923FBCF2F923F924F925F926F927F9252
:1022A0008F929F92AF92BF92CF92DF92EF92FF9266
:1022B0000F931F93CF93DF93CDB7DEB728970FB659
:1022C000F894DEBF0FBECDBF9E838D836A3061F56B
:1022D000DC0155968C91B8E08B9F90011124ED8123
:1022E000FE8181899289820F931F928B818B108A44
:1022F000178681E090E028960FB6F894DEBF0FBEF7
:10230000CDBFDF91CF911F910F91FF90EF90DF90A4
:10231000CF90BF90AF909F908F907F906F905F9085
:102320004F903F902F9008956D3019F32D813E818D
:1023300038872F83D9011F960D911C915097003833
:1023400011050CF07CC05196AD90BC90B0E4AB167A
:10235000B1040CF074C0F901258825E0C801229E63
:10236000800D911D1124181619060CF068C0622CFE
:10237000712CC30133E0880F991F3A95E1F78A0D5C
:102380009B1D181619060CF05AC0F489FB83AF8107
:10239000B8855396BC91BC83629FB0011124FB01A8
:1023A000E455FF4F2F011982F2018491F981F53034
:1023B00009F480E0450128E02A83A82FB0E0BE831D
:1023C000AD833C8080FF3B80311004C0BB81EC8139
:1023D000BE17F9F078018E2D801B8215D0F4D12C18
:1023E000C12CC21490F4F0E8EF16F10450F4B601D9
:1023F000680D791D6034710520F4432DC7010E94DA
:1024000032112FEFC21AD20AECCF3FEFE31AF30AD0
:10241000E2CF8D819E81959587959A8191509A837F
:10242000860C971C9111C9CFA981AF5FA983BFEF1B
:102430004B1A5B0A060D171DA63009F0B5CFEF81C8
:10244000F8852589422F50E087859089F6E02F9FF7
:10245000800D911D1124AF81B88550969C938E9369
:102460001F9756962C915697222309F442CF6AEF74
:1024700064039001659F300D112420583F4F2817A9
:1024800039070CF036CFED91FC9111970190F08156
:10249000E02D6AE0CD0109952CCF0895089590E0D4
:1024A00080E008950C944F200E94A4230F931F9363
:1024B000CF93DF93EC0188819981009759F02A81AD
:1024C0003B812617370730F081E0DF91CF911F91D4
:1024D0000F9108958B016F5F7F4F0E94E722009755
:1024E00059F0998388831B830A832C813D81232B98
:1024F00059F7FC011082E8CF80E0E7CFCF93DF935C
:10250000EC0188819981009711F00E945E22198266
:1025100018821D821C821B821A82DF91CF9108953E
:10252000EF92FF920F931F93CF93DF93EC018617E7
:10253000970781F0FB01008111810115110539F028
:10254000E480F580B7010E94561281110BC0CE01C4
:102550000E947E12CE01DF91CF911F910F91FF90CB
:10256000EF900895FD82EC82B801888199810E94E4
:10257000BB23F0CFFC0180819181009711F00C9476
:102580005E2208951F920F920FB60F9211248F931F
:102590009F938091E1009091E100937F9093E100FF
:1025A00083FF0FC01092E90091E09093EB0010922E
:1025B000EC0092E39093ED001092100298E090935B
:1025C000F00082FF22C093E09093E9009091F20026
:1025D000992319F09AE39093E800909101029923CE
:1025E00041F090910102915090930102911101C02C
:1025F0005D9A90910F02992341F090910F029150B2
:1026000090930F02911101C0289A84FF18C0809105
:10261000E2008E7E81608093E2008091E1008F7EF7
:102620008093E100809102028E7E8061809302029D
:102630009F918F910F900FBE0F901F90189580FF64
:10264000F7CF8091E2008E7E80618093E2008091DE
:10265000E1008E7E8093E100809102028E7E816097
:10266000E5CF1F920F920FB60F921124CF92DF92F7
:10267000EF92FF920F931F932F933F934F935F938C
:102680006F937F938F939F93AF93BF93EF93FF933A
:10269000CF93DF93CDB7DEB76C97DEBFCDBF10927F
:1026A000E9008091E80083FF25C068E0CE014596EF
:1026B0000E94330F82EF8093E8008D8987FF39C035
:1026C0009091E80090FFFCCF982F907609F034C1EC
:1026D0009E894F89588D2F89F88C911131C080388F
:1026E00061F5809100028093F1001092F1008EEF6D
:1026F0008093E8006C960FB6F894DEBF0FBECDBF96
:10270000DF91CF91FF91EF91BF91AF919F918F9109
:102710007F916F915F914F913F912F911F910F91F9
:10272000FF90EF90DF90CF900F900FBE0F901F9013
:1027300018959EEF9093E800C7CF1092F100D5CF87
:10274000913059F48111D3CF4130510581F68091F8
:1027500000028D7F80930002CACF933049F481112B
:10276000C6CF4130510519F6809100028260F2CF48
:10277000953041F48091E80080FFFCCF20682093E1
:10278000E300B5CF963009F0A9C00B8D1C8D22E077
:102790001092E9001092FE011092FD01F2122EC07B
:1027A0001092FC011092FB010E94020F1F8299E01F
:1027B0009983FA8291E09E8390EA98879AEF9987AD
:1027C0002091FD013091FE01275F3F4F3C832B8319
:1027D0008D831092E9001092FE011092FD0110937A
:1027E000FC010093FB0149E050E0BE016F5F7F4FA9
:1027F00080E00E94DC0E0E94020F79CF1093FC0152
:102800000093FB010E94190EDC0112960D911C91A0
:102810000115110509F451C1D801ED91FC91048015
:10282000F581E02DBE016B5E7F4FC80109950097D1
:1028300009F03EC1F80100851185EACFF3E0FF12EF
:102840000EC08F89882309F440C0823061F440E8CB
:1028500060E187ED97E10E94AD16811148CF81E2DA
:102860008093EB0047CF813029F440E86BE08BEC9C
:1028700097E1F1CF833099F70E94190EDC0112968F
:10288000ED90FC908E010F5F1F4F6801E114F10481
:1028900079F0D701ED91FC910680F781E02DB80128
:1028A000C7010995080F111DF701E084F184EECFEF
:1028B000D8011C92F60101900020E9F73197BF0181
:1028C0006C197D0940E0C601C6CF65EB77E1FB01DD
:1028D000449150E080E80E94DC0E09CF973009F463
:1028E000BECF983021F481E08093F10000CF993081
:1028F00009F0FDCE837009F0B2CFE3E1F1E081E0B1
:1029000031E096E32191222371F08093E900309326
:10291000EB00DF0111972C912093EC009093ED00D8
:102920008F5F873079F78EE78093EA001092EA0094
:102930008F8980931002DBCE8B8D9C8D1092E900E5
:102940001092FE011092FD019093FC018093FB0117
:10295000898D811192C08E899D89913A49F4813285
:1029600009F07DCF47E050E064E071E080E0B3CF54
:10297000913209F074CF833269F48F89988DB0E079
:10298000A0E08093000190930101A0930201B09315
:102990000301ADCE803269F48091E80082FFFCCF64
:1029A00067E084E091E00E94330F8BEF8093E800B2
:1029B0009ECE823209F09BCE8F8980930B01EEEF81
:1029C000FFE7859194918B3F9C4D51F1E0E0F8E059
:1029D0008091040190910501A0910601B091070139
:1029E000803B9440A105B105F1F480910B0180FD7D
:1029F0001AC0EE3F8AE0F80789F587E797E79183E9
:102A00008083809160008093FF0188E19BE00FB696
:102A1000F894A895809360000FBE9093600067CEF5
:102A2000EEEFFAE0D5CF808191818737974709F0A3
:102A30005ECEA8958091600088618093600080914F
:102A4000FF0180936000EE3F2AE0F20789F0809159
:102A5000FE0A9091FF0A9183808349CE8081918103
:102A60008737980751F29093FF0A8093FE0AC5CFEB
:102A70001092FF0A1092FE0A3ACE0E94190EDC0153
:102A800012960D911C910115110509F4E8CED8019B
:102A9000ED91FC910190F081E02DBE016B5E7F4FC6
:102AA000C8010995811123CEF80100851185EBCF6E
:102AB000181619060CF41BCED2CEF1E0FF12BECED2
:102AC00069EB77E104CF1F920F920FB60F9211249A
:102AD0002F933F938F939F93AF93BF938091E70181
:102AE0009091E801A091E901B091EA013091E201F1
:102AF00023E0230F2D3758F50196A11DB11D20931A
:102B0000E2018093E7019093E801A093E901B0937B
:102B1000EA018091E3019091E401A091E501B09177
:102B2000E6010196A11DB11D8093E3019093E4019C
:102B3000A093E501B093E601BF91AF919F918F9172
:102B40003F912F910F900FBE0F901F90189526E880
:102B5000230F0296A11DB11DD2CF1F920F920FB667
:102B60000F921124CF92DF92EF92FF922F933F9317
:102B70004F935F936F937F938F939F93AF93BF9385
:102B8000CF93DF93EF93FF938091DE019091DF016C
:102B9000A091E001B091E101892B8A2B8B2B09F4E4
:102BA00046C08091DD0181110BC088B190E4892776
:102BB00088B98091DC01882319F088B1805888B9E0
:102BC0008091DE019091DF01A091E001B091E101DF
:102BD000181619061A061B069CF48091DE019091C6
:102BE000DF01A091E001B091E1010197A109B109D4
:102BF0008093DE019093DF01A093E001B093E101A7
:102C0000FF91EF91DF91CF91BF91AF919F918F9104
:102C10007F916F915F914F913F912F91FF90EF9036
:102C2000DF90CF900F900FBE0F901F9018950E94CD
:102C30004A10811520E8920761F4809171008D7F20
:102C40008093710010929100469847981092DB0192
:102C5000D7CF21E02093DB018130E0E89E0731F4FB
:102C60001092DA011092D9010E944A1097FD05C016
:102C70002091D801222309F452C02091D7012111BB
:102C80004EC021E02093DC01EC01DF77209709F0B2
:102C900049C081E08093DD0146983FE9C32E3FE0C3
:102CA000D32EE12CF12CCAEFD0E0F0E0E0E0099562
:102CB000811103C081E08093DD018091DC018823D4
:102CC00029F08091DD01882309F43FC047980E94D4
:102CD0004A100097F1F19C01DE010E94DD20DC0129
:102CE000CB0129E0B595A795979587952A95D1F7BA
:102CF000109290002AE020939100D0929900C09207
:102D000098008093DE019093DF01A093E001B093DF
:102D1000E1018091710082608093710071CF109207
:102D2000DC01B2CF9E0150E040E060E472E48FE04D
:102D300090E00E94652069017A01F1E0CF1AD10884
:102D4000E108F1081092DD01B0CF4699BFCF479A54
:102D5000BECF8FEF9FEFDC01CBCFEF92FF920F93AF
:102D60001F93CF93DF93F82E192FE62E042F81E0C7
:102D7000860F880F0E94AE0E83E00E94AE0ECF2D0C
:102D8000D12FEC0EFD2EF11CCE15DF05B9F007FF9B
:102D900013C0FE0184910E94AE0E182F80E00E94A5
:102DA000AE0E812321968111EFCFDF91CF911F913C
:102DB0000F91FF90EF9008958881EDCF81E0F5CFDE
:102DC000FC01138212821186128680E183871086AD
:102DD000178215868FE291E0918380838DE391E0E5
:102DE00095838483108A1786128A118A81E0838BE7
:102DF000148A858B168A0895CF93DF93EC0181E6C0
:102E000096E00E94E016E1E6F6E0108E178A8A81CD
:102E10009B81938382838F8198859087878389851F
:102E200081878A8582878B8583878C8584878D853A
:102E300085878E8586878F859889908B87878989F6
:102E40009A89928B818B8B89838B8C89848B8D89DA
:102E5000858B8E89868BDF91CF910895CF93DF93F9
:102E6000EC018CE796E00E94E016ECE7F6E08A8140
:102E70009B81938382838F819885908787838985BF
:102E800081878A8582878B8583878C8584878D85DA
:102E900085878E8586878F859889908B8787898996
:102EA0009A89928B818B8B89838B8C89848B8D897A
:102EB000858B8E89868BDF91CF9108950F931F9319
:102EC000CF93DF93EC018B01198218821B821A8247
:102ED0001D821C820E949012F801868197819F8337
:102EE0008E83808591859987888782859385A4853F
:102EF000B5858A879B87AC87BD8786859785A0899E
:102F0000B1898E879F87A88BB98B82899389A48981
:102F1000B5898A8B9B8BAC8BBD8BDF91CF911F9139
:102F20000F910895EF92FF920F931F93CF93DF932A
:102F3000EC017B01198218821B821A821D821C827D
:102F4000FB0101900020E9F731978F01061B170B59
:102F5000B8010E945612811109C0CE01DF91CF91B4
:102F60001F910F91FF90EF900C947E121D830C83A4
:102F7000B70188819981DF91CF911F910F91FF90C7
:102F8000EF900C94BB238F929F92AF92BF92CF92FF
:102F9000DF92EF92FF920F931F93CF93DF93EC0199
:102FA0006B017A014801590167EC71E00E949217A8
:102FB000B601CE010E949012FF82EE821986188619
:102FC00080E090E0A0EAB0E48A879B87AC87BD8769
:102FD0001E861F86188A198A8A8A9B8AAC8ABD8AAD
:102FE000DF91CF911F910F91FF90EF90DF90CF90E5
:102FF000BF90AF909F908F900895CF92DF92EF9205
:10300000FF920F931F93CF93DF93CDB7DEB76797F0
:103010000FB6F894DEBF0FBECDBFE1E1F6E013823C
:10302000128288EE93E0A0E0B0E084839583A683CB
:10303000B7838DE191E0918380838FEF9FEF958738
:1030400084876FE371E08CEC97E00E94921764E450
:1030500071E082ED97E00E94921769E471E088EDDB
:1030600097E00E9492176DE471E08EED97E00E9468
:10307000921761E571E084EE97E00E94921766E591
:1030800071E08AEE97E00E9492176BE571E080EFA5
:1030900097E00E94921761E671E086EF97E00E9448
:1030A000921768E671E08CEF97E00E94921762E752
:1030B00071E082E098E00E94921783E996E00E9416
:1030C000E01603E916E0F801828193819C838B83EB
:1030D000878190859987888781858A8782858B8774
:1030E00083858C8784858D8785858E8786858F8768
:1030F0008FE2C82E81E0D82EDA82C9829DE3E92EC4
:1031000091E0F92EFE82ED8287859089998B888BDC
:10311000818992899B8B8A8B83898C8B84898D8B07
:1031200085898E8B86898F8BCE0101960E942E1702
:10313000F801828193819C838B8387819085998715
:10314000888781858A8782858B8783858C8784851C
:103150008D8785858E8786858F87DA82C982FE82F4
:10316000ED8287859089998B888B818992899B8B49
:103170008A8B83898C8B84898D8B85898E8B8689BC
:103180008F8BCE0101960E94FC1668E771E08CE9F6
:1031900097E00E9492176EE771E082EA97E00E9442
:1031A000921765E871E088EA97E00E9492176BE851
:1031B00071E08EEA97E00E9492176FE871E084EB6D
:1031C00097E00E94921765E971E08AEB97E00E9410
:1031D00092176AE971E080EC97E00E9492176FE91C
:1031E00071E086EC97E00E9492176EE771E0CE01E5
:1031F00001960E94921700E010E020E83FE34AE0C9
:1032000050E0BE016F5F7F4F86E897E00E94C317D2
:10321000CE0101960E94BA1265E871E0CE010196D6
:103220000E9492170AE919E929E13FE34AE050E0D8
:10323000BE016F5F7F4F80E797E00E94C317CE010A
:1032400001960E94BA126BE871E0CE0101960E94CD
:1032500092170AE919E929E93EE34AE050E0BE0184
:103260006F5F7F4F8AE597E00E94C317CE010196FA
:103270000E94BA126FE971E0CE0101960E94921786
:1032800000E010E0980142E350E0BE016F5F7F4F25
:1032900084E497E00E94C317CE0101960E94BA12FF
:1032A0006FE871E0CE0101960E9492170DEC1CECC4
:1032B0002CEC3DE34AE050E0BE016F5F7F4F8EE2B1
:1032C00097E00E94C317CE0101960E94BA126AE9E4
:1032D00071E0CE0101960E94921700E010E020E814
:1032E0003FE34AE050E0BE016F5F7F4F88E197E027
:1032F0000E94C317CE0101960E94BA1266E877E0D9
:103300008AEA96E00E945E1760E777E080EC96E03C
:103310000E945E176AE577E086ED96E00E945E17F0
:1033200064E477E08CEE96E00E945E176EE277E050
:1033300082E097E00E945E1767960FB6F894DEBFB2
:103340000FBECDBFDF91CF911F910F91FF90EF90F6
:10335000DF90CF900895789484B5826084BD84B561
:10336000816084BD85B5826085BD85B5816085BD80
:1033700080916E00816080936E0010928100809138
:1033800081008260809381008091810081608093C0
:103390008100809180008160809380008091910005
:1033A0008260809391008091910081608093910070
:1033B000809190008160809390008091C100846032
:1033C0008093C1008091C10082608093C100809190
:1033D000C10081608093C1008091C30081608093AF
:1033E000C3008091C00082608093C0008091C200C1
:1033F00081608093C20080917A00846080937A001B
:1034000080917A00826080937A0080917A00816056
:1034100080937A0080917A00806880937A0010927D
:10342000100210920002109202028091D700816077
:103430008093D70080EA8093D80089B5806189BDE8
:1034400089B5826089BD09B400FEFDCF61E070E0FE
:1034500080E090E00E94920F8091D8008F7C806184
:103460008093D8008091E000807F8093E00080917D
:10347000E1008E7E8093E1008DE08093E200559A1A
:10348000209A81EC80937C0085B1806F85B984B1EE
:10349000877E84B984B1876E84B95E9A5F988AB159
:1034A000806D8AB9769A6E9881B3806F81BB899856
:1034B00080B38D7080BB80E58CBD81E08DBD85E0E3
:1034C00090E00E9425115F9A85E090E00E9425110E
:1034D0005E985C98ECE5F6E084918EBD00000DB43A
:1034E00007FEFDCF319626E0E936F207A9F75C9A90
:1034F00081E880936400809165008160809365001D
:1035000080E00E94200C0E942A1187FF15C05C9861
:1035100085EA8EBD00000DB407FEFDCF5C9A2E98A3
:103520002F982D988091640080628093640081E0E0
:1035300083BF889513BEFCCF0E942A1182FF48C02A
:103540002D980E942A1184788438E1F40E94231176
:1035500088EC90E00E9425112F9882E090E00E9474
:103560004F208F3F29F06FEF82E090E00E945720BC
:1035700084EF91E00E9425112F9A0E942A118478ED
:103580008438D9F30E942A1184718431E1F40E94B5
:10359000231188EC90E00E9425112E9882E090E0A3
:1035A0000E944F20882329F060E082E090E00E9492
:1035B000572084EF91E00E9425112E9A0E942A1133
:1035C00084718431D9F388EC90E00E942511B4CF46
:1035D0000E94231182E090E00E945212882309F495
:1035E00043C03E9A3F9A81E090E00E945212382FE9
:1035F0003470932E81FF0EC031112E98C0EFDFEF93
:1036000008E010E00E942A1186FF31C02E9A2F9AFE
:103610000E94231182E390E00E9425110E942A114A
:103620008111F8CF82E480939E062FB7F8948091A1
:10363000E7019091E801A091E901B091EA012FBF63
:1036400020919F06382F321B2091A006222309F4D7
:10365000A2C03093A1061092A006E0E0F0E0EF2BAC
:1036600021F30E940000E1CF3E983F98BCCF992003
:1036700029F0C430D10511F42E9A2F9881E00E94D0
:10368000200C9E01D7FF04C0222733272C1B3D0BA3
:1036900027703327CE01D7FD079673E09595879560
:1036A0007A95E1F7D7FF05C00197A801421B530B9C
:1036B0009A01AC015695542F4427579547954F5E74
:1036C0005D4FD12CC12C3801621A730A8F3F6FEF06
:1036D00096070CF43AC07A01E4E9EE0EF11CDA0127
:1036E00070E060E0F601E455FA4F5F018F3F980704
:1036F00081F0F501E60FF71FE491022E01C0EE0FF5
:103700000A94EAF75496FC915497EF2B5496EC9355
:1037100054972115310581F0F501E60FF71FE4916B
:10372000F0E02F01062C02C0559447940A94E2F76A
:10373000F7018080482840826F5F7F4FFFEFEF1ACC
:10374000FF0A11966835710589F6019668E5C60E7F
:10375000D11C40585F4FE0EBCE16D10409F0B6CF34
:1037600080E00E94200C8FE090E00E9425112196BD
:10377000C931D10509F046CF992011F02F9A2D9823
:1037800080E991E00E9425110E94231183E996E0CF
:103790000E94131F3FCF40919E06341748F43F5FAD
:1037A000341708F05ACFF1E0F3BF889513BE55CF18
:1037B00031E03093A00680939F0680919A06909105
:1037C0009B06019690939B0680939A06E1E1F2E0B6
:1037D00021112FEF0024219321932193219303940E
:1037E000D1F71092A5061092A4061092A30610928B
:1037F000A20680919C0680939D060E942A118093C8
:103800009C068091F9019091FA01892BC1F420E086
:1038100041E753E170E060E090E080E00E945E10DC
:1038200088E00E942F0C882331F041E050E0509353
:10383000FA014093F90180E00E94200C0ECF80E253
:103840000E942F0C882361F08091F7019091F8017C
:10385000181619068CF501979093F8018093F701DB
:1038600080E40E942F0C882361F08091F7019091F1
:10387000F801893091051CF501969093F801809329
:10388000F70188E00E942F0C882309F497C08091EB
:10389000F6018823C9F01092F60120E030E040E8FC
:1038A0005FE36091F6067091F7068091F8069091BB
:1038B000F9060E94ED2030C089E090E0CDCF109253
:1038C000F8011092F701DDCF8091F7019091F80196
:1038D000009759F56091B2067091B306072E000C5F
:1038E000880B990B0E949F1F6093B8067093B906CE
:1038F0008093BA069093BB068091780690917906E2
:10390000019771F560914C0770914D07072E000CDF
:10391000880B990B0E949F1F6093FA067093FB0619
:103920008093FC069093FD0649C08130910529F5EE
:103930006091C8067091C906072E000C880B990B80
:103940000E949F1F6093CE067093CF068093D0068F
:103950009093D1068091780690917906029791F222
:1039600020E030E040E85FE36091FA067091FB06EA
:103970008091FC069091FD069CCF82309105C9F4A0
:103980006091DE067091DF06072E000C880B990B04
:103990000E949F1F6093E4067093E5068093E606FD
:1039A0009093E70680917806909179060397C1F687
:1039B000A9CF0397A9F691E09093F6018091F001C9
:1039C0008111F5C08FB7F8948090E7019090E801DD
:1039D000A090E901B090EA018FBF8091EC01909135
:1039E000ED01A091EE01B091EF01A5019401281B1A
:1039F000390B4A0B5B0BDA01C901883E9340A105E4
:103A0000B10508F484C08091F4019091F50101960C
:103A10009093F5018093F4018C33910509F0AEC0C9
:103A200041E050E05093F3014093F2018091F601A0
:103A3000882369F1C0901007D0901107E090120719
:103A4000F090130760910A0770910B07072E000C86
:103A5000880B990B0E949F1F2B013C01AC019B011D
:103A6000C701B6010E948F2118160CF067C120E033
:103A700030E040E85FE3C701B6010E94EC206093AC
:103A8000100770931107809312079093130780918A
:103A9000F601811115C0CAEAD6E02A893B894C8912
:103AA0005D896E857F85888999890E94ED206E8762
:103AB0007F87888B998B669637E0C831D30769F783
:103AC0008091EB01882309F444C120912A073091A9
:103AD0002B0740912C0750912D076091260770917C
:103AE000270780912807909129070E94ED20609375
:103AF00026077093270780932807909329078092C1
:103B0000EC019092ED01A092EE01B092EF01CAEAB1
:103B1000D6E010E000E0912C812C2E843F84488870
:103B200059882A853B854C855D85C201B1010E947B
:103B30008F2118160CF03BC16C807D804CE9A42EBF
:103B400047E0B42EF12CE12CF501848195816816B3
:103B5000790609F021C1888199816081718100977E
:103B600009F408C16115710509F0FEC06114710402
:103B700009F40EC1FC01808190E008C188379105ED
:103B800039F482E090E09093F3018093F2014ECFFC
:103B90008C32914009F04ACFF1E0F093F00126E039
:103BA00030E03093790620937806F093F10110927B
:103BB00071061092700628E230E03093730620936D
:103BC0007206809178069091790626E0289FF00190
:103BD000299FF00D1124E456F84F448155816081EE
:103BE000718181E696E00E94400F8091F601882362
:103BF000B1F044E050E0509379064093780620916C
:103C0000F4013091F50120953095217033274FE66E
:103C100052E165E070E083E590E00E945E108091E3
:103C2000F2019091F301209178064DE65EE01816BE
:103C3000190634F44BE65AE0019711F049E656E0D4
:103C40006DE070E080E390E00E945E108091F101F1
:103C5000882311F11092710610927006109273066B
:103C60001092720645E150E067EA71E081E696E065
:103C70000E94400F109271061092700688E090E04A
:103C800090937306809372064AE050E06DEB71E00A
:103C900081E696E00E94400FD0E0C0E041E064E39E
:103CA00070E0CE010E9432112196C038D105B1F7E3
:103CB0008091F7019091F80126E0289FF001299F5B
:103CC000F00D1124E453F84F4481558125E0249FE1
:103CD000C001259F900D11249695879520E430E032
:103CE000281B390B30938C0620938B0687E390E0DA
:103CF00090938E0680938D06608171818CE796E0AB
:103D00000E94400F3DE3E32EF12C03E010E027E397
:103D100030E043E050E06AE370E090E080E00E9431
:103D2000710C0CE710E027E330E04CE750E06AE369
:103D300070E08FE790E00E94710C7DCD40921007FB
:103D40005092110760921207709213071092F601B9
:103D50009ECE6091200770912107072E000C880BE2
:103D6000990B0E949F1FC3CE0E94B2230FC01092D6
:103D7000EB0137C06115710559F06114710441F010
:103D8000FB01808190E0919581959109892B21F427
:103D90000115110509F48701FFEFEF1AFF0A26E06C
:103DA000A20EB11C38E0E316F10409F0CDCEC20139
:103DB000B1010E9459212E813F81261737071CF43B
:103DC0004FEF841A940A669688E197E08C179D0756
:103DD00009F0A3CE892859F291E09093EB0105E018
:103DE00010E060911E0770911F07072E000C880BD2
:103DF000990B0E949F1F9B01AC0160912607709157
:103E0000270780912807909129070E948F21181673
:103E10002CF4E1E0E093F00106E010E01093790665
:103E200000937806C4CE0F931F93CF93DF938C013A
:103E300081E090E00E94521280FF32C08AE090E060
:103E40000E9452129FEF980F9E3F50F522E330E000
:103E5000D80150963C932E931F9728E330E052965A
:103E60003C932E935197CBE0D0E0D801ED91FC919B
:103E70000190F081E02D682FC8010995CE010E94C4
:103E800052122196C131D10581F780E00E94200CA9
:103E900088EE93E0DF91CF911F910F910C94251143
:103EA000DF91CF911F910F91089504970C94131FE8
:103EB000CF93DF9382E097E00E94BA128CEE96E0F7
:103EC0000E94BA1286ED96E00E94BA1280EC96E04B
:103ED0000E94BA128AEA96E00E94BA1288E197E03C
:103EE0000E94BA128EE297E00E94BA1284E497E030
:103EF0000E94BA128AE597E00E94BA1280E797E022
:103F00000E94BA1286E897E00E94BA12CCECD7E081
:103F10002697CE010E94BA1287E0CC39D807C1F7A4
:103F2000C8E0D8E02697CE010E94BA1287E0CC3CC8
:103F3000D807C1F7DF91CF910895E89409C097FBA6
:103F40003EF490958095709561957F4F8F4F9F4F70
:103F50009923A9F0F92F96E9BB279395F6958795B4
:103F600077956795B795F111F8CFFAF4BB0F11F477
:103F700060FF1BC06F5F7F4F8F4F9F4F16C088231E
:103F800011F096E911C0772321F09EE8872F762F54
:103F900005C0662371F096E8862F70E060E02AF095
:103FA0009A95660F771F881FDAF7880F9695879581
:103FB00097F90895990F0008550FAA0BE0E8FEEF56
:103FC00016161706E807F907C0F012161306E407DD
:103FD000F50798F0621B730B840B950B39F40A26D6
:103FE00061F0232B242B252B21F408950A2609F4B4
:103FF000A140A6958FEF811D811D089597F99F67B8
:1040000080E870E060E008959FEF80EC0895002460
:104010000A941616170618060906089500240A942D
:1040200012161306140605060895092E0394000CB3
:1040300011F4882352F0BB0F40F4BF2B11F460FF42
:1040400004C06F5F7F4F8F4F9F4F089557FD90586B
:10405000440F551F59F05F3F71F04795880F97FB4C
:10406000991F61F09F3F79F0879508951216130606
:104070001406551FF2CF4695F1DF08C01616170635
:104080001806991FF1CF869571056105089408956A
:10409000E894BB2766277727CB0197F90895F9990C
:1040A000FECF92BD81BDF89A992780B50895262F3D
:1040B000F999FECF1FBA92BD81BD20BD0FB6F8940D
:1040C000FA9AF99A0FBE01960895052E97FB1EF4F1
:1040D00000940E947C2057FD07D00E94BB2007FC63
:1040E00003D04EF40C947C2050954095309521954A
:1040F0003F4F4F4F5F4F0895909580957095619514
:104100007F4F8F4F9F4F08952F923F924F925F9214
:104110006F927F928F929F92AF92BF92CF92DF92D7
:10412000EF92FF920F931F93CF93DF93CDB7DEB73C
:10413000CA1BDB0B0FB6F894DEBF0FBECDBF0994D0
:104140002A88398848885F846E847D848C849B8427
:10415000AA84B984C884DF80EE80FD800C811B8135
:10416000AA81B981CE0FD11D0FB6F894DEBF0FBE64
:10417000CDBFED010895A1E21A2EAA1BBB1BFD01C4
:104180000DC0AA1FBB1FEE1FFF1FA217B307E40736
:10419000F50720F0A21BB30BE40BF50B661F771F8E
:1041A000881F991F1A9469F760957095809590956E
:1041B0009B01AC01BD01CF010895A29FB001B39F47
:1041C000C001A39F700D811D1124911DB29F700D20
:1041D000811D1124911D08955058BB27AA270E94C4
:1041E00004210C9415200E94072038F00E940E2014
:1041F00020F039F49F3F19F426F40C9404200EF4B7
:10420000E095E7FB0C94FE1FE92F0E94262058F34F
:10421000BA17620773078407950720F079F4A6F5AB
:104220000C9448200EF4E0950B2EBA2FA02D0B0114
:10423000B90190010C01CA01A0011124FF27591BEB
:1042400099F0593F50F4503E68F11A16F040A22FF1
:10425000232F342F4427585FF3CF46953795279562
:10426000A795F0405395C9F77EF41F16BA0B620B61
:10427000730B840BBAF09150A1F0FF0FBB1F661FA8
:10428000771F881FC2F70EC0BA0F621F731F841FEB
:1042900048F4879577956795B795F7959E3F08F011
:1042A000B0CF9395880F08F09927EE0F97958795D3
:1042B00008950E9460216894B1110C9449200895DA
:1042C0000E942E2088F09F5798F0B92F9927B75158
:1042D000B0F0E1F0660F771F881F991F1AF0BA95AA
:1042E000C9F714C0B13091F00E944820B1E00895A0
:1042F0000C944820672F782F8827B85F39F0B93F92
:10430000CCF3869577956795B395D9F73EF490955C
:104310008095709561957F4F8F4F9F4F08950E94B4
:10432000DA1F08F48FEF089597FB072E16F4009418
:1043300007D077FD09D00E94A82107FC05D03EF4E4
:10434000909581959F4F0895709561957F4F089541
:10435000AA1BBB1B51E107C0AA1FBB1FA617B707AB
:1043600010F0A61BB70B881F991F5A95A9F78095C7
:104370009095BC01CD010895EE0FFF1F0590F491BB
:10438000E02D09940F931F93CF93DF938230910513
:1043900010F482E090E0E0910A08F0910B0830E020
:1043A00020E0B0E0A0E0309799F42115310509F440
:1043B0004AC0281B390B24303105D8F58A819B81EE
:1043C0006115710589F1FB0193838283FE0111C0A0
:1043D000408151810281138148175907E0F0481745
:1043E000590799F4109761F012960C93129713964F
:1043F0001C933296CF01DF91CF911F910F910895B9
:1044000000930A0810930B08F4CF2115310551F0E1
:104410004217530738F0A901DB019A01BD01DF0102
:10442000F801C1CFEF01F9CF90930B0880930A08F0
:10443000CDCFFE01E20FF31F8193919322503109FA
:1044400039832883D7CF2091080830910908232B7E
:1044500041F420910E0130910F013093090820930F
:10446000080820910C0130910D012115310541F40E
:104470002DB73EB74091100150911101241B350B0F
:10448000E0910808F0910908E217F307A0F42E1B49
:104490003F0B2817390778F0AC014E5F5F4F2417A8
:1044A000350748F04E0F5F1F5093090840930808E6
:1044B000819391939FCFF0E0E0E09CCFCF93DF9387
:1044C0000097E9F0FC01329713821282A0910A084A
:1044D000B0910B08ED0130E020E01097A1F42081AD
:1044E0003181820F931F2091080830910908281705
:1044F000390709F061C0F0930908E0930808DF91DB
:10450000CF910895EA01CE17DF07E8F54A815B8174
:104510009E0141155105B1F7E901FB83EA834991F9
:104520005991C40FD51FEC17FD0761F4808191816B
:104530000296840F951FE901998388838281938174
:104540009B838A83F0E0E0E012968D919C91139713
:104550000097B9F52D913C911197CD010296820FEC
:10456000931F20910808309109082817390739F658
:10457000309751F510920B0810920A08B093090871
:10458000A0930808BCCFD383C28340815181840F9C
:10459000951FC817D90761F44E5F5F4F88819981D5
:1045A000480F591F518340838A819B819383828363
:1045B0002115310509F0B0CFF0930B08E0930A08FC
:1045C0009ECFFD01DC01C0CF13821282D7CFB0E0B5
:1045D000A0E0EDEEF2E20C9486208C01009751F4FD
:1045E000CB010E94C2218C01C801CDB7DEB7E0E14A
:1045F0000C94A220FC01E60FF71F9C012250310908
:10460000E217F30708F49DC0D901CD91DC91119711
:10461000C617D70798F0C530D10530F3CE010497FF
:104620008617970708F3C61BD70B2297C193D19320
:104630006D937C93CF010E945E22D6CF5B01AC1AB2
:10464000BD0A4C018C0E9D1EA0910A08B0910B086A
:10465000512C412CF12CE12C109731F58091080858
:10466000909109088815990509F05CC0461657060F
:1046700008F058C080910C0190910D01009741F411
:104680008DB79EB74091100150911101841B950B7D
:10469000E817F90708F055C0F0930908E0930808F7
:1046A000F90171836083A0CF8D919C91119712962F
:1046B0006C90129713967C901397A815B90559F52D
:1046C0006C0142E0C40ED11CCA14DB0420F1AC0121
:1046D0004A195B09DA011296159780F0628273829B
:1046E00051834083D9016D937C93E114F10471F0FF
:1046F000D7011396FC93EE93129776CF22968C0FE8
:104700009D1FF90191838083F301EFCFF0930B0894
:10471000E0930A0869CF4816590608F42C017D0178
:10472000D3019ACFCB010E94C2217C01009749F0AE
:10473000AE01B8010E94A923C8010E945E22870130
:1047400053CF10E000E050CF81E090E0F8940C945B
:10475000C223FB01DC0102C001900D924150504088
:10476000D8F70895FB01DC018D91019080190110AB
:10477000D9F3990B0895FB01DC0101900D92002003
:10478000E1F708951BE0C5EFDBE004C0FE010E94E5
:0E479000BC212196C63FD107C9F7F894FFCF90
:10479E00FFFFFFFF00E100000000000000000C081A
:1047AE00800000C18081000000000000002D0EC5B9
:1047BE000F4E0E430E940E520E700E000000004A65
:1047CE0011400F4F124E12131FFCFF0000551F46D3
:1047DE0045454400504C415900504554004E4150FF
:1047EE00004A4F4B450054414C4B00544541434801
:1047FE000049474E4F52450056414343494E41549E
:10480E0045004241544845004841505059004855D2
:10481E004E47525900424F524544005341440054B2
:10482E0049524544005349434B00444541440041DD
:10483E004E4E4F59454400596F752064696564208A
:10484E006F66206F6C64206167652E2E0065727234
:08485E002E2E20776F6E210061
:00000001FF
